{
	"compilerInput": "{\"language\":\"Solidity\",\"sources\":{\"contracts/CyberTriage.sol\":{\"content\":\"// SPDX-License-Identifier: MIT\\r\\npragma solidity ^0.8.0;\\r\\n\\r\\ncontract TriageOMatic {\\r\\n\\r\\n    // Struct to hold incident details\\r\\n    struct Incident {\\r\\n        uint256 id;\\r\\n        string description;\\r\\n        string[] timeline;\\r\\n        string[] affectedSystems;\\r\\n        string[] anomalyAlerts;\\r\\n        string[] evidenceChain;\\r\\n    }\\r\\n\\r\\n    // Struct to hold evidence details\\r\\n    struct Evidence {\\r\\n        uint256 id;\\r\\n        string description;\\r\\n        bytes32 hash; // Stores the hash of the evidence data for immutability check\\r\\n    }\\r\\n\\r\\n    // Mapping of incident IDs to Incident details\\r\\n    mapping(uint256 => Incident) public incidents;\\r\\n\\r\\n    // Mapping of evidence IDs to Evidence details\\r\\n    mapping(uint256 => Evidence) public evidences;\\r\\n\\r\\n    // Counter to keep track of incidents and evidence\\r\\n    uint256 public incidentCounter;\\r\\n    uint256 public evidenceCounter;\\r\\n\\r\\n    // Event to log new incidents\\r\\n    event IncidentLogged(uint256 indexed incidentId, string description);\\r\\n\\r\\n    // Event to log new evidence\\r\\n    event EvidenceLogged(uint256 indexed evidenceId, string description, bytes32 hash);\\r\\n\\r\\n    // Function to add a new incident\\r\\n    function addIncident(string memory _description, string[] memory _timeline, string[] memory _affectedSystems, string[] memory _anomalyAlerts, string[] memory _evidenceChain) public {\\r\\n        incidentCounter++;\\r\\n        incidents[incidentCounter] = Incident(incidentCounter, _description, _timeline, _affectedSystems, _anomalyAlerts, _evidenceChain);\\r\\n        emit IncidentLogged(incidentCounter, _description);\\r\\n    }\\r\\n\\r\\n    // Function to get incident details\\r\\n    function getIncidentDetails(uint256 _incidentId) public view returns (string memory, string[] memory, string[] memory, string[] memory, string[] memory) {\\r\\n        Incident memory incident = incidents[_incidentId];\\r\\n        return (incident.description, incident.timeline, incident.affectedSystems, incident.anomalyAlerts, incident.evidenceChain);\\r\\n    }\\r\\n\\r\\n    // Function to log evidence\\r\\n    function logEvidence(string memory _description, bytes32 _hash) public {\\r\\n        evidenceCounter++;\\r\\n        evidences[evidenceCounter] = Evidence(evidenceCounter, _description, _hash);\\r\\n        emit EvidenceLogged(evidenceCounter, _description, _hash);\\r\\n    }\\r\\n\\r\\n    // Function to verify evidence immutability\\r\\n    function verifyEvidenceImmutability(uint256 _evidenceId, bytes32 _hash) public view returns (bool) {\\r\\n        Evidence memory evidence = evidences[_evidenceId];\\r\\n        return evidence.hash == _hash;\\r\\n    }\\r\\n\\r\\n}\\r\\n\"}},\"settings\":{\"optimizer\":{\"enabled\":false,\"runs\":200},\"outputSelection\":{\"*\":{\"\":[\"ast\"],\"*\":[\"abi\",\"metadata\",\"devdoc\",\"userdoc\",\"storageLayout\",\"evm.legacyAssembly\",\"evm.bytecode\",\"evm.deployedBytecode\",\"evm.methodIdentifiers\",\"evm.gasEstimates\",\"evm.assembly\"]}},\"remappings\":[]}}",
	"name": "TriageOMatic",
	"bytecode": {
		"linkReferences": {},
		"object": "6080604052348015600e575f80fd5b506115aa8061001c5f395ff3fe608060405234801561000f575f80fd5b5060043610610086575f3560e01c8063776ca7a311610059578063776ca7a31461013e5780637ae559941461015a578063a6c6a8f314610176578063b87c1114146101a757610086565b80631e6420ee1461008a5780632e4546cd146100be5780633e9c1dac146100f057806347d6d3bf1461010e575b5f80fd5b6100a4600480360381019061009f9190610b27565b6101c5565b6040516100b5959493929190610cc5565b60405180910390f35b6100d860048036038101906100d39190610b27565b610601565b6040516100e793929190610d60565b60405180910390f35b6100f86106ad565b6040516101059190610d9c565b60405180910390f35b61012860048036038101906101239190610ddf565b6106b3565b6040516101359190610e37565b60405180910390f35b6101586004803603810190610153919061105e565b610786565b005b610174600480360381019061016f9190611161565b6108b4565b005b610190600480360381019061018b9190610b27565b610966565b60405161019e9291906111bb565b60405180910390f35b6101af610a0b565b6040516101bc9190610d9c565b60405180910390f35b60608060608060605f805f8881526020019081526020015f206040518060c00160405290815f820154815260200160018201805461020290611216565b80601f016020809104026020016040519081016040528092919081815260200182805461022e90611216565b80156102795780601f1061025057610100808354040283529160200191610279565b820191905f5260205f20905b81548152906001019060200180831161025c57829003601f168201915b5050505050815260200160028201805480602002602001604051908101604052809291908181526020015f905b8282101561034e578382905f5260205f200180546102c390611216565b80601f01602080910402602001604051908101604052809291908181526020018280546102ef90611216565b801561033a5780601f106103115761010080835404028352916020019161033a565b820191905f5260205f20905b81548152906001019060200180831161031d57829003601f168201915b5050505050815260200190600101906102a6565b50505050815260200160038201805480602002602001604051908101604052809291908181526020015f905b82821015610422578382905f5260205f2001805461039790611216565b80601f01602080910402602001604051908101604052809291908181526020018280546103c390611216565b801561040e5780601f106103e55761010080835404028352916020019161040e565b820191905f5260205f20905b8154815290600101906020018083116103f157829003601f168201915b50505050508152602001906001019061037a565b50505050815260200160048201805480602002602001604051908101604052809291908181526020015f905b828210156104f6578382905f5260205f2001805461046b90611216565b80601f016020809104026020016040519081016040528092919081815260200182805461049790611216565b80156104e25780601f106104b9576101008083540402835291602001916104e2565b820191905f5260205f20905b8154815290600101906020018083116104c557829003601f168201915b50505050508152602001906001019061044e565b50505050815260200160058201805480602002602001604051908101604052809291908181526020015f905b828210156105ca578382905f5260205f2001805461053f90611216565b80601f016020809104026020016040519081016040528092919081815260200182805461056b90611216565b80156105b65780601f1061058d576101008083540402835291602001916105b6565b820191905f5260205f20905b81548152906001019060200180831161059957829003601f168201915b505050505081526020019060010190610522565b5050505081525050905080602001518160400151826060015183608001518460a00151955095509550955095505091939590929450565b6001602052805f5260405f205f91509050805f01549080600101805461062690611216565b80601f016020809104026020016040519081016040528092919081815260200182805461065290611216565b801561069d5780601f106106745761010080835404028352916020019161069d565b820191905f5260205f20905b81548152906001019060200180831161068057829003601f168201915b5050505050908060020154905083565b60025481565b5f8060015f8581526020019081526020015f206040518060600160405290815f82015481526020016001820180546106ea90611216565b80601f016020809104026020016040519081016040528092919081815260200182805461071690611216565b80156107615780601f1061073857610100808354040283529160200191610761565b820191905f5260205f20905b81548152906001019060200180831161074457829003601f168201915b5050505050815260200160028201548152505090508281604001511491505092915050565b60025f81548092919061079890611273565b91905055506040518060c001604052806002548152602001868152602001858152602001848152602001838152602001828152505f8060025481526020019081526020015f205f820151815f015560208201518160010190816107fb9190611457565b506040820151816002019080519060200190610818929190610a11565b506060820151816003019080519060200190610835929190610a11565b506080820151816004019080519060200190610852929190610a11565b5060a082015181600501908051906020019061086f929190610a11565b509050506002547f6be4ae66eb7d09ba0add92d6741123be58053754d068232e838ee8831e9bcb0c866040516108a59190611526565b60405180910390a25050505050565b60035f8154809291906108c690611273565b9190505550604051806060016040528060035481526020018381526020018281525060015f60035481526020019081526020015f205f820151815f015560208201518160010190816109189190611457565b50604082015181600201559050506003547fcea05d33f0c94e28302d479a8d611f5902960b195fdb10aed229789daededbe9838360405161095a929190611546565b60405180910390a25050565b5f602052805f5260405f205f91509050805f01549080600101805461098a90611216565b80601f01602080910402602001604051908101604052809291908181526020018280546109b690611216565b8015610a015780601f106109d857610100808354040283529160200191610a01565b820191905f5260205f20905b8154815290600101906020018083116109e457829003601f168201915b5050505050905082565b60035481565b828054828255905f5260205f20908101928215610a57579160200282015b82811115610a56578251829081610a469190611457565b5091602001919060010190610a2f565b5b509050610a649190610a68565b5090565b5b80821115610a87575f8181610a7e9190610a8b565b50600101610a69565b5090565b508054610a9790611216565b5f825580601f10610aa85750610ac5565b601f0160209004905f5260205f2090810190610ac49190610ac8565b5b50565b5b80821115610adf575f815f905550600101610ac9565b5090565b5f604051905090565b5f80fd5b5f80fd5b5f819050919050565b610b0681610af4565b8114610b10575f80fd5b50565b5f81359050610b2181610afd565b92915050565b5f60208284031215610b3c57610b3b610aec565b5b5f610b4984828501610b13565b91505092915050565b5f81519050919050565b5f82825260208201905092915050565b8281835e5f83830152505050565b5f601f19601f8301169050919050565b5f610b9482610b52565b610b9e8185610b5c565b9350610bae818560208601610b6c565b610bb781610b7a565b840191505092915050565b5f81519050919050565b5f82825260208201905092915050565b5f819050602082019050919050565b5f82825260208201905092915050565b5f610c0582610b52565b610c0f8185610beb565b9350610c1f818560208601610b6c565b610c2881610b7a565b840191505092915050565b5f610c3e8383610bfb565b905092915050565b5f602082019050919050565b5f610c5c82610bc2565b610c668185610bcc565b935083602082028501610c7885610bdc565b805f5b85811015610cb35784840389528151610c948582610c33565b9450610c9f83610c46565b925060208a01995050600181019050610c7b565b50829750879550505050505092915050565b5f60a0820190508181035f830152610cdd8188610b8a565b90508181036020830152610cf18187610c52565b90508181036040830152610d058186610c52565b90508181036060830152610d198185610c52565b90508181036080830152610d2d8184610c52565b90509695505050505050565b610d4281610af4565b82525050565b5f819050919050565b610d5a81610d48565b82525050565b5f606082019050610d735f830186610d39565b8181036020830152610d858185610b8a565b9050610d946040830184610d51565b949350505050565b5f602082019050610daf5f830184610d39565b92915050565b610dbe81610d48565b8114610dc8575f80fd5b50565b5f81359050610dd981610db5565b92915050565b5f8060408385031215610df557610df4610aec565b5b5f610e0285828601610b13565b9250506020610e1385828601610dcb565b9150509250929050565b5f8115159050919050565b610e3181610e1d565b82525050565b5f602082019050610e4a5f830184610e28565b92915050565b5f80fd5b5f80fd5b7f4e487b71000000000000000000000000000000000000000000000000000000005f52604160045260245ffd5b610e8e82610b7a565b810181811067ffffffffffffffff82111715610ead57610eac610e58565b5b80604052505050565b5f610ebf610ae3565b9050610ecb8282610e85565b919050565b5f67ffffffffffffffff821115610eea57610ee9610e58565b5b610ef382610b7a565b9050602081019050919050565b828183375f83830152505050565b5f610f20610f1b84610ed0565b610eb6565b905082815260208101848484011115610f3c57610f3b610e54565b5b610f47848285610f00565b509392505050565b5f82601f830112610f6357610f62610e50565b5b8135610f73848260208601610f0e565b91505092915050565b5f67ffffffffffffffff821115610f9657610f95610e58565b5b602082029050602081019050919050565b5f80fd5b5f610fbd610fb884610f7c565b610eb6565b90508083825260208201905060208402830185811115610fe057610fdf610fa7565b5b835b8181101561102757803567ffffffffffffffff81111561100557611004610e50565b5b8086016110128982610f4f565b85526020850194505050602081019050610fe2565b5050509392505050565b5f82601f83011261104557611044610e50565b5b8135611055848260208601610fab565b91505092915050565b5f805f805f60a0868803121561107757611076610aec565b5b5f86013567ffffffffffffffff81111561109457611093610af0565b5b6110a088828901610f4f565b955050602086013567ffffffffffffffff8111156110c1576110c0610af0565b5b6110cd88828901611031565b945050604086013567ffffffffffffffff8111156110ee576110ed610af0565b5b6110fa88828901611031565b935050606086013567ffffffffffffffff81111561111b5761111a610af0565b5b61112788828901611031565b925050608086013567ffffffffffffffff81111561114857611147610af0565b5b61115488828901611031565b9150509295509295909350565b5f806040838503121561117757611176610aec565b5b5f83013567ffffffffffffffff81111561119457611193610af0565b5b6111a085828601610f4f565b92505060206111b185828601610dcb565b9150509250929050565b5f6040820190506111ce5f830185610d39565b81810360208301526111e08184610b8a565b90509392505050565b7f4e487b71000000000000000000000000000000000000000000000000000000005f52602260045260245ffd5b5f600282049050600182168061122d57607f821691505b6020821081036112405761123f6111e9565b5b50919050565b7f4e487b71000000000000000000000000000000000000000000000000000000005f52601160045260245ffd5b5f61127d82610af4565b91507fffffffffffffffffffffffffffffffffffffffffffffffffffffffffffffffff82036112af576112ae611246565b5b600182019050919050565b5f819050815f5260205f209050919050565b5f6020601f8301049050919050565b5f82821b905092915050565b5f600883026113167fffffffffffffffffffffffffffffffffffffffffffffffffffffffffffffffff826112db565b61132086836112db565b95508019841693508086168417925050509392505050565b5f819050919050565b5f61135b61135661135184610af4565b611338565b610af4565b9050919050565b5f819050919050565b61137483611341565b61138861138082611362565b8484546112e7565b825550505050565b5f90565b61139c611390565b6113a781848461136b565b505050565b5b818110156113ca576113bf5f82611394565b6001810190506113ad565b5050565b601f82111561140f576113e0816112ba565b6113e9846112cc565b810160208510156113f8578190505b61140c611404856112cc565b8301826113ac565b50505b505050565b5f82821c905092915050565b5f61142f5f1984600802611414565b1980831691505092915050565b5f6114478383611420565b9150826002028217905092915050565b61146082610b52565b67ffffffffffffffff81111561147957611478610e58565b5b6114838254611216565b61148e8282856113ce565b5f60209050601f8311600181146114bf575f84156114ad578287015190505b6114b7858261143c565b86555061151e565b601f1984166114cd866112ba565b5f5b828110156114f4578489015182556001820191506020850194506020810190506114cf565b86831015611511578489015161150d601f891682611420565b8355505b6001600288020188555050505b505050505050565b5f6020820190508181035f83015261153e8184610b8a565b905092915050565b5f6040820190508181035f83015261155e8185610b8a565b905061156d6020830184610d51565b939250505056fea26469706673582212206588dceb5bba73263c68870368f4ed92074c8cc842a579bb3de2fc177dacfba764736f6c634300081a0033",
		"opcodes": "PUSH1 0x80 PUSH1 0x40 MSTORE CALLVALUE DUP1 ISZERO PUSH1 0xE JUMPI PUSH0 DUP1 REVERT JUMPDEST POP PUSH2 0x15AA DUP1 PUSH2 0x1C PUSH0 CODECOPY PUSH0 RETURN INVALID PUSH1 0x80 PUSH1 0x40 MSTORE CALLVALUE DUP1 ISZERO PUSH2 0xF JUMPI PUSH0 DUP1 REVERT JUMPDEST POP PUSH1 0x4 CALLDATASIZE LT PUSH2 0x86 JUMPI PUSH0 CALLDATALOAD PUSH1 0xE0 SHR DUP1 PUSH4 0x776CA7A3 GT PUSH2 0x59 JUMPI DUP1 PUSH4 0x776CA7A3 EQ PUSH2 0x13E JUMPI DUP1 PUSH4 0x7AE55994 EQ PUSH2 0x15A JUMPI DUP1 PUSH4 0xA6C6A8F3 EQ PUSH2 0x176 JUMPI DUP1 PUSH4 0xB87C1114 EQ PUSH2 0x1A7 JUMPI PUSH2 0x86 JUMP JUMPDEST DUP1 PUSH4 0x1E6420EE EQ PUSH2 0x8A JUMPI DUP1 PUSH4 0x2E4546CD EQ PUSH2 0xBE JUMPI DUP1 PUSH4 0x3E9C1DAC EQ PUSH2 0xF0 JUMPI DUP1 PUSH4 0x47D6D3BF EQ PUSH2 0x10E JUMPI JUMPDEST PUSH0 DUP1 REVERT JUMPDEST PUSH2 0xA4 PUSH1 0x4 DUP1 CALLDATASIZE SUB DUP2 ADD SWAP1 PUSH2 0x9F SWAP2 SWAP1 PUSH2 0xB27 JUMP JUMPDEST PUSH2 0x1C5 JUMP JUMPDEST PUSH1 0x40 MLOAD PUSH2 0xB5 SWAP6 SWAP5 SWAP4 SWAP3 SWAP2 SWAP1 PUSH2 0xCC5 JUMP JUMPDEST PUSH1 0x40 MLOAD DUP1 SWAP2 SUB SWAP1 RETURN JUMPDEST PUSH2 0xD8 PUSH1 0x4 DUP1 CALLDATASIZE SUB DUP2 ADD SWAP1 PUSH2 0xD3 SWAP2 SWAP1 PUSH2 0xB27 JUMP JUMPDEST PUSH2 0x601 JUMP JUMPDEST PUSH1 0x40 MLOAD PUSH2 0xE7 SWAP4 SWAP3 SWAP2 SWAP1 PUSH2 0xD60 JUMP JUMPDEST PUSH1 0x40 MLOAD DUP1 SWAP2 SUB SWAP1 RETURN JUMPDEST PUSH2 0xF8 PUSH2 0x6AD JUMP JUMPDEST PUSH1 0x40 MLOAD PUSH2 0x105 SWAP2 SWAP1 PUSH2 0xD9C JUMP JUMPDEST PUSH1 0x40 MLOAD DUP1 SWAP2 SUB SWAP1 RETURN JUMPDEST PUSH2 0x128 PUSH1 0x4 DUP1 CALLDATASIZE SUB DUP2 ADD SWAP1 PUSH2 0x123 SWAP2 SWAP1 PUSH2 0xDDF JUMP JUMPDEST PUSH2 0x6B3 JUMP JUMPDEST PUSH1 0x40 MLOAD PUSH2 0x135 SWAP2 SWAP1 PUSH2 0xE37 JUMP JUMPDEST PUSH1 0x40 MLOAD DUP1 SWAP2 SUB SWAP1 RETURN JUMPDEST PUSH2 0x158 PUSH1 0x4 DUP1 CALLDATASIZE SUB DUP2 ADD SWAP1 PUSH2 0x153 SWAP2 SWAP1 PUSH2 0x105E JUMP JUMPDEST PUSH2 0x786 JUMP JUMPDEST STOP JUMPDEST PUSH2 0x174 PUSH1 0x4 DUP1 CALLDATASIZE SUB DUP2 ADD SWAP1 PUSH2 0x16F SWAP2 SWAP1 PUSH2 0x1161 JUMP JUMPDEST PUSH2 0x8B4 JUMP JUMPDEST STOP JUMPDEST PUSH2 0x190 PUSH1 0x4 DUP1 CALLDATASIZE SUB DUP2 ADD SWAP1 PUSH2 0x18B SWAP2 SWAP1 PUSH2 0xB27 JUMP JUMPDEST PUSH2 0x966 JUMP JUMPDEST PUSH1 0x40 MLOAD PUSH2 0x19E SWAP3 SWAP2 SWAP1 PUSH2 0x11BB JUMP JUMPDEST PUSH1 0x40 MLOAD DUP1 SWAP2 SUB SWAP1 RETURN JUMPDEST PUSH2 0x1AF PUSH2 0xA0B JUMP JUMPDEST PUSH1 0x40 MLOAD PUSH2 0x1BC SWAP2 SWAP1 PUSH2 0xD9C JUMP JUMPDEST PUSH1 0x40 MLOAD DUP1 SWAP2 SUB SWAP1 RETURN JUMPDEST PUSH1 0x60 DUP1 PUSH1 0x60 DUP1 PUSH1 0x60 PUSH0 DUP1 PUSH0 DUP9 DUP2 MSTORE PUSH1 0x20 ADD SWAP1 DUP2 MSTORE PUSH1 0x20 ADD PUSH0 KECCAK256 PUSH1 0x40 MLOAD DUP1 PUSH1 0xC0 ADD PUSH1 0x40 MSTORE SWAP1 DUP2 PUSH0 DUP3 ADD SLOAD DUP2 MSTORE PUSH1 0x20 ADD PUSH1 0x1 DUP3 ADD DUP1 SLOAD PUSH2 0x202 SWAP1 PUSH2 0x1216 JUMP JUMPDEST DUP1 PUSH1 0x1F ADD PUSH1 0x20 DUP1 SWAP2 DIV MUL PUSH1 0x20 ADD PUSH1 0x40 MLOAD SWAP1 DUP2 ADD PUSH1 0x40 MSTORE DUP1 SWAP3 SWAP2 SWAP1 DUP2 DUP2 MSTORE PUSH1 0x20 ADD DUP3 DUP1 SLOAD PUSH2 0x22E SWAP1 PUSH2 0x1216 JUMP JUMPDEST DUP1 ISZERO PUSH2 0x279 JUMPI DUP1 PUSH1 0x1F LT PUSH2 0x250 JUMPI PUSH2 0x100 DUP1 DUP4 SLOAD DIV MUL DUP4 MSTORE SWAP2 PUSH1 0x20 ADD SWAP2 PUSH2 0x279 JUMP JUMPDEST DUP3 ADD SWAP2 SWAP1 PUSH0 MSTORE PUSH1 0x20 PUSH0 KECCAK256 SWAP1 JUMPDEST DUP2 SLOAD DUP2 MSTORE SWAP1 PUSH1 0x1 ADD SWAP1 PUSH1 0x20 ADD DUP1 DUP4 GT PUSH2 0x25C JUMPI DUP3 SWAP1 SUB PUSH1 0x1F AND DUP3 ADD SWAP2 JUMPDEST POP POP POP POP POP DUP2 MSTORE PUSH1 0x20 ADD PUSH1 0x2 DUP3 ADD DUP1 SLOAD DUP1 PUSH1 0x20 MUL PUSH1 0x20 ADD PUSH1 0x40 MLOAD SWAP1 DUP2 ADD PUSH1 0x40 MSTORE DUP1 SWAP3 SWAP2 SWAP1 DUP2 DUP2 MSTORE PUSH1 0x20 ADD PUSH0 SWAP1 JUMPDEST DUP3 DUP3 LT ISZERO PUSH2 0x34E JUMPI DUP4 DUP3 SWAP1 PUSH0 MSTORE PUSH1 0x20 PUSH0 KECCAK256 ADD DUP1 SLOAD PUSH2 0x2C3 SWAP1 PUSH2 0x1216 JUMP JUMPDEST DUP1 PUSH1 0x1F ADD PUSH1 0x20 DUP1 SWAP2 DIV MUL PUSH1 0x20 ADD PUSH1 0x40 MLOAD SWAP1 DUP2 ADD PUSH1 0x40 MSTORE DUP1 SWAP3 SWAP2 SWAP1 DUP2 DUP2 MSTORE PUSH1 0x20 ADD DUP3 DUP1 SLOAD PUSH2 0x2EF SWAP1 PUSH2 0x1216 JUMP JUMPDEST DUP1 ISZERO PUSH2 0x33A JUMPI DUP1 PUSH1 0x1F LT PUSH2 0x311 JUMPI PUSH2 0x100 DUP1 DUP4 SLOAD DIV MUL DUP4 MSTORE SWAP2 PUSH1 0x20 ADD SWAP2 PUSH2 0x33A JUMP JUMPDEST DUP3 ADD SWAP2 SWAP1 PUSH0 MSTORE PUSH1 0x20 PUSH0 KECCAK256 SWAP1 JUMPDEST DUP2 SLOAD DUP2 MSTORE SWAP1 PUSH1 0x1 ADD SWAP1 PUSH1 0x20 ADD DUP1 DUP4 GT PUSH2 0x31D JUMPI DUP3 SWAP1 SUB PUSH1 0x1F AND DUP3 ADD SWAP2 JUMPDEST POP POP POP POP POP DUP2 MSTORE PUSH1 0x20 ADD SWAP1 PUSH1 0x1 ADD SWAP1 PUSH2 0x2A6 JUMP JUMPDEST POP POP POP POP DUP2 MSTORE PUSH1 0x20 ADD PUSH1 0x3 DUP3 ADD DUP1 SLOAD DUP1 PUSH1 0x20 MUL PUSH1 0x20 ADD PUSH1 0x40 MLOAD SWAP1 DUP2 ADD PUSH1 0x40 MSTORE DUP1 SWAP3 SWAP2 SWAP1 DUP2 DUP2 MSTORE PUSH1 0x20 ADD PUSH0 SWAP1 JUMPDEST DUP3 DUP3 LT ISZERO PUSH2 0x422 JUMPI DUP4 DUP3 SWAP1 PUSH0 MSTORE PUSH1 0x20 PUSH0 KECCAK256 ADD DUP1 SLOAD PUSH2 0x397 SWAP1 PUSH2 0x1216 JUMP JUMPDEST DUP1 PUSH1 0x1F ADD PUSH1 0x20 DUP1 SWAP2 DIV MUL PUSH1 0x20 ADD PUSH1 0x40 MLOAD SWAP1 DUP2 ADD PUSH1 0x40 MSTORE DUP1 SWAP3 SWAP2 SWAP1 DUP2 DUP2 MSTORE PUSH1 0x20 ADD DUP3 DUP1 SLOAD PUSH2 0x3C3 SWAP1 PUSH2 0x1216 JUMP JUMPDEST DUP1 ISZERO PUSH2 0x40E JUMPI DUP1 PUSH1 0x1F LT PUSH2 0x3E5 JUMPI PUSH2 0x100 DUP1 DUP4 SLOAD DIV MUL DUP4 MSTORE SWAP2 PUSH1 0x20 ADD SWAP2 PUSH2 0x40E JUMP JUMPDEST DUP3 ADD SWAP2 SWAP1 PUSH0 MSTORE PUSH1 0x20 PUSH0 KECCAK256 SWAP1 JUMPDEST DUP2 SLOAD DUP2 MSTORE SWAP1 PUSH1 0x1 ADD SWAP1 PUSH1 0x20 ADD DUP1 DUP4 GT PUSH2 0x3F1 JUMPI DUP3 SWAP1 SUB PUSH1 0x1F AND DUP3 ADD SWAP2 JUMPDEST POP POP POP POP POP DUP2 MSTORE PUSH1 0x20 ADD SWAP1 PUSH1 0x1 ADD SWAP1 PUSH2 0x37A JUMP JUMPDEST POP POP POP POP DUP2 MSTORE PUSH1 0x20 ADD PUSH1 0x4 DUP3 ADD DUP1 SLOAD DUP1 PUSH1 0x20 MUL PUSH1 0x20 ADD PUSH1 0x40 MLOAD SWAP1 DUP2 ADD PUSH1 0x40 MSTORE DUP1 SWAP3 SWAP2 SWAP1 DUP2 DUP2 MSTORE PUSH1 0x20 ADD PUSH0 SWAP1 JUMPDEST DUP3 DUP3 LT ISZERO PUSH2 0x4F6 JUMPI DUP4 DUP3 SWAP1 PUSH0 MSTORE PUSH1 0x20 PUSH0 KECCAK256 ADD DUP1 SLOAD PUSH2 0x46B SWAP1 PUSH2 0x1216 JUMP JUMPDEST DUP1 PUSH1 0x1F ADD PUSH1 0x20 DUP1 SWAP2 DIV MUL PUSH1 0x20 ADD PUSH1 0x40 MLOAD SWAP1 DUP2 ADD PUSH1 0x40 MSTORE DUP1 SWAP3 SWAP2 SWAP1 DUP2 DUP2 MSTORE PUSH1 0x20 ADD DUP3 DUP1 SLOAD PUSH2 0x497 SWAP1 PUSH2 0x1216 JUMP JUMPDEST DUP1 ISZERO PUSH2 0x4E2 JUMPI DUP1 PUSH1 0x1F LT PUSH2 0x4B9 JUMPI PUSH2 0x100 DUP1 DUP4 SLOAD DIV MUL DUP4 MSTORE SWAP2 PUSH1 0x20 ADD SWAP2 PUSH2 0x4E2 JUMP JUMPDEST DUP3 ADD SWAP2 SWAP1 PUSH0 MSTORE PUSH1 0x20 PUSH0 KECCAK256 SWAP1 JUMPDEST DUP2 SLOAD DUP2 MSTORE SWAP1 PUSH1 0x1 ADD SWAP1 PUSH1 0x20 ADD DUP1 DUP4 GT PUSH2 0x4C5 JUMPI DUP3 SWAP1 SUB PUSH1 0x1F AND DUP3 ADD SWAP2 JUMPDEST POP POP POP POP POP DUP2 MSTORE PUSH1 0x20 ADD SWAP1 PUSH1 0x1 ADD SWAP1 PUSH2 0x44E JUMP JUMPDEST POP POP POP POP DUP2 MSTORE PUSH1 0x20 ADD PUSH1 0x5 DUP3 ADD DUP1 SLOAD DUP1 PUSH1 0x20 MUL PUSH1 0x20 ADD PUSH1 0x40 MLOAD SWAP1 DUP2 ADD PUSH1 0x40 MSTORE DUP1 SWAP3 SWAP2 SWAP1 DUP2 DUP2 MSTORE PUSH1 0x20 ADD PUSH0 SWAP1 JUMPDEST DUP3 DUP3 LT ISZERO PUSH2 0x5CA JUMPI DUP4 DUP3 SWAP1 PUSH0 MSTORE PUSH1 0x20 PUSH0 KECCAK256 ADD DUP1 SLOAD PUSH2 0x53F SWAP1 PUSH2 0x1216 JUMP JUMPDEST DUP1 PUSH1 0x1F ADD PUSH1 0x20 DUP1 SWAP2 DIV MUL PUSH1 0x20 ADD PUSH1 0x40 MLOAD SWAP1 DUP2 ADD PUSH1 0x40 MSTORE DUP1 SWAP3 SWAP2 SWAP1 DUP2 DUP2 MSTORE PUSH1 0x20 ADD DUP3 DUP1 SLOAD PUSH2 0x56B SWAP1 PUSH2 0x1216 JUMP JUMPDEST DUP1 ISZERO PUSH2 0x5B6 JUMPI DUP1 PUSH1 0x1F LT PUSH2 0x58D JUMPI PUSH2 0x100 DUP1 DUP4 SLOAD DIV MUL DUP4 MSTORE SWAP2 PUSH1 0x20 ADD SWAP2 PUSH2 0x5B6 JUMP JUMPDEST DUP3 ADD SWAP2 SWAP1 PUSH0 MSTORE PUSH1 0x20 PUSH0 KECCAK256 SWAP1 JUMPDEST DUP2 SLOAD DUP2 MSTORE SWAP1 PUSH1 0x1 ADD SWAP1 PUSH1 0x20 ADD DUP1 DUP4 GT PUSH2 0x599 JUMPI DUP3 SWAP1 SUB PUSH1 0x1F AND DUP3 ADD SWAP2 JUMPDEST POP POP POP POP POP DUP2 MSTORE PUSH1 0x20 ADD SWAP1 PUSH1 0x1 ADD SWAP1 PUSH2 0x522 JUMP JUMPDEST POP POP POP POP DUP2 MSTORE POP POP SWAP1 POP DUP1 PUSH1 0x20 ADD MLOAD DUP2 PUSH1 0x40 ADD MLOAD DUP3 PUSH1 0x60 ADD MLOAD DUP4 PUSH1 0x80 ADD MLOAD DUP5 PUSH1 0xA0 ADD MLOAD SWAP6 POP SWAP6 POP SWAP6 POP SWAP6 POP SWAP6 POP POP SWAP2 SWAP4 SWAP6 SWAP1 SWAP3 SWAP5 POP JUMP JUMPDEST PUSH1 0x1 PUSH1 0x20 MSTORE DUP1 PUSH0 MSTORE PUSH1 0x40 PUSH0 KECCAK256 PUSH0 SWAP2 POP SWAP1 POP DUP1 PUSH0 ADD SLOAD SWAP1 DUP1 PUSH1 0x1 ADD DUP1 SLOAD PUSH2 0x626 SWAP1 PUSH2 0x1216 JUMP JUMPDEST DUP1 PUSH1 0x1F ADD PUSH1 0x20 DUP1 SWAP2 DIV MUL PUSH1 0x20 ADD PUSH1 0x40 MLOAD SWAP1 DUP2 ADD PUSH1 0x40 MSTORE DUP1 SWAP3 SWAP2 SWAP1 DUP2 DUP2 MSTORE PUSH1 0x20 ADD DUP3 DUP1 SLOAD PUSH2 0x652 SWAP1 PUSH2 0x1216 JUMP JUMPDEST DUP1 ISZERO PUSH2 0x69D JUMPI DUP1 PUSH1 0x1F LT PUSH2 0x674 JUMPI PUSH2 0x100 DUP1 DUP4 SLOAD DIV MUL DUP4 MSTORE SWAP2 PUSH1 0x20 ADD SWAP2 PUSH2 0x69D JUMP JUMPDEST DUP3 ADD SWAP2 SWAP1 PUSH0 MSTORE PUSH1 0x20 PUSH0 KECCAK256 SWAP1 JUMPDEST DUP2 SLOAD DUP2 MSTORE SWAP1 PUSH1 0x1 ADD SWAP1 PUSH1 0x20 ADD DUP1 DUP4 GT PUSH2 0x680 JUMPI DUP3 SWAP1 SUB PUSH1 0x1F AND DUP3 ADD SWAP2 JUMPDEST POP POP POP POP POP SWAP1 DUP1 PUSH1 0x2 ADD SLOAD SWAP1 POP DUP4 JUMP JUMPDEST PUSH1 0x2 SLOAD DUP2 JUMP JUMPDEST PUSH0 DUP1 PUSH1 0x1 PUSH0 DUP6 DUP2 MSTORE PUSH1 0x20 ADD SWAP1 DUP2 MSTORE PUSH1 0x20 ADD PUSH0 KECCAK256 PUSH1 0x40 MLOAD DUP1 PUSH1 0x60 ADD PUSH1 0x40 MSTORE SWAP1 DUP2 PUSH0 DUP3 ADD SLOAD DUP2 MSTORE PUSH1 0x20 ADD PUSH1 0x1 DUP3 ADD DUP1 SLOAD PUSH2 0x6EA SWAP1 PUSH2 0x1216 JUMP JUMPDEST DUP1 PUSH1 0x1F ADD PUSH1 0x20 DUP1 SWAP2 DIV MUL PUSH1 0x20 ADD PUSH1 0x40 MLOAD SWAP1 DUP2 ADD PUSH1 0x40 MSTORE DUP1 SWAP3 SWAP2 SWAP1 DUP2 DUP2 MSTORE PUSH1 0x20 ADD DUP3 DUP1 SLOAD PUSH2 0x716 SWAP1 PUSH2 0x1216 JUMP JUMPDEST DUP1 ISZERO PUSH2 0x761 JUMPI DUP1 PUSH1 0x1F LT PUSH2 0x738 JUMPI PUSH2 0x100 DUP1 DUP4 SLOAD DIV MUL DUP4 MSTORE SWAP2 PUSH1 0x20 ADD SWAP2 PUSH2 0x761 JUMP JUMPDEST DUP3 ADD SWAP2 SWAP1 PUSH0 MSTORE PUSH1 0x20 PUSH0 KECCAK256 SWAP1 JUMPDEST DUP2 SLOAD DUP2 MSTORE SWAP1 PUSH1 0x1 ADD SWAP1 PUSH1 0x20 ADD DUP1 DUP4 GT PUSH2 0x744 JUMPI DUP3 SWAP1 SUB PUSH1 0x1F AND DUP3 ADD SWAP2 JUMPDEST POP POP POP POP POP DUP2 MSTORE PUSH1 0x20 ADD PUSH1 0x2 DUP3 ADD SLOAD DUP2 MSTORE POP POP SWAP1 POP DUP3 DUP2 PUSH1 0x40 ADD MLOAD EQ SWAP2 POP POP SWAP3 SWAP2 POP POP JUMP JUMPDEST PUSH1 0x2 PUSH0 DUP2 SLOAD DUP1 SWAP3 SWAP2 SWAP1 PUSH2 0x798 SWAP1 PUSH2 0x1273 JUMP JUMPDEST SWAP2 SWAP1 POP SSTORE POP PUSH1 0x40 MLOAD DUP1 PUSH1 0xC0 ADD PUSH1 0x40 MSTORE DUP1 PUSH1 0x2 SLOAD DUP2 MSTORE PUSH1 0x20 ADD DUP7 DUP2 MSTORE PUSH1 0x20 ADD DUP6 DUP2 MSTORE PUSH1 0x20 ADD DUP5 DUP2 MSTORE PUSH1 0x20 ADD DUP4 DUP2 MSTORE PUSH1 0x20 ADD DUP3 DUP2 MSTORE POP PUSH0 DUP1 PUSH1 0x2 SLOAD DUP2 MSTORE PUSH1 0x20 ADD SWAP1 DUP2 MSTORE PUSH1 0x20 ADD PUSH0 KECCAK256 PUSH0 DUP3 ADD MLOAD DUP2 PUSH0 ADD SSTORE PUSH1 0x20 DUP3 ADD MLOAD DUP2 PUSH1 0x1 ADD SWAP1 DUP2 PUSH2 0x7FB SWAP2 SWAP1 PUSH2 0x1457 JUMP JUMPDEST POP PUSH1 0x40 DUP3 ADD MLOAD DUP2 PUSH1 0x2 ADD SWAP1 DUP1 MLOAD SWAP1 PUSH1 0x20 ADD SWAP1 PUSH2 0x818 SWAP3 SWAP2 SWAP1 PUSH2 0xA11 JUMP JUMPDEST POP PUSH1 0x60 DUP3 ADD MLOAD DUP2 PUSH1 0x3 ADD SWAP1 DUP1 MLOAD SWAP1 PUSH1 0x20 ADD SWAP1 PUSH2 0x835 SWAP3 SWAP2 SWAP1 PUSH2 0xA11 JUMP JUMPDEST POP PUSH1 0x80 DUP3 ADD MLOAD DUP2 PUSH1 0x4 ADD SWAP1 DUP1 MLOAD SWAP1 PUSH1 0x20 ADD SWAP1 PUSH2 0x852 SWAP3 SWAP2 SWAP1 PUSH2 0xA11 JUMP JUMPDEST POP PUSH1 0xA0 DUP3 ADD MLOAD DUP2 PUSH1 0x5 ADD SWAP1 DUP1 MLOAD SWAP1 PUSH1 0x20 ADD SWAP1 PUSH2 0x86F SWAP3 SWAP2 SWAP1 PUSH2 0xA11 JUMP JUMPDEST POP SWAP1 POP POP PUSH1 0x2 SLOAD PUSH32 0x6BE4AE66EB7D09BA0ADD92D6741123BE58053754D068232E838EE8831E9BCB0C DUP7 PUSH1 0x40 MLOAD PUSH2 0x8A5 SWAP2 SWAP1 PUSH2 0x1526 JUMP JUMPDEST PUSH1 0x40 MLOAD DUP1 SWAP2 SUB SWAP1 LOG2 POP POP POP POP POP JUMP JUMPDEST PUSH1 0x3 PUSH0 DUP2 SLOAD DUP1 SWAP3 SWAP2 SWAP1 PUSH2 0x8C6 SWAP1 PUSH2 0x1273 JUMP JUMPDEST SWAP2 SWAP1 POP SSTORE POP PUSH1 0x40 MLOAD DUP1 PUSH1 0x60 ADD PUSH1 0x40 MSTORE DUP1 PUSH1 0x3 SLOAD DUP2 MSTORE PUSH1 0x20 ADD DUP4 DUP2 MSTORE PUSH1 0x20 ADD DUP3 DUP2 MSTORE POP PUSH1 0x1 PUSH0 PUSH1 0x3 SLOAD DUP2 MSTORE PUSH1 0x20 ADD SWAP1 DUP2 MSTORE PUSH1 0x20 ADD PUSH0 KECCAK256 PUSH0 DUP3 ADD MLOAD DUP2 PUSH0 ADD SSTORE PUSH1 0x20 DUP3 ADD MLOAD DUP2 PUSH1 0x1 ADD SWAP1 DUP2 PUSH2 0x918 SWAP2 SWAP1 PUSH2 0x1457 JUMP JUMPDEST POP PUSH1 0x40 DUP3 ADD MLOAD DUP2 PUSH1 0x2 ADD SSTORE SWAP1 POP POP PUSH1 0x3 SLOAD PUSH32 0xCEA05D33F0C94E28302D479A8D611F5902960B195FDB10AED229789DAEDEDBE9 DUP4 DUP4 PUSH1 0x40 MLOAD PUSH2 0x95A SWAP3 SWAP2 SWAP1 PUSH2 0x1546 JUMP JUMPDEST PUSH1 0x40 MLOAD DUP1 SWAP2 SUB SWAP1 LOG2 POP POP JUMP JUMPDEST PUSH0 PUSH1 0x20 MSTORE DUP1 PUSH0 MSTORE PUSH1 0x40 PUSH0 KECCAK256 PUSH0 SWAP2 POP SWAP1 POP DUP1 PUSH0 ADD SLOAD SWAP1 DUP1 PUSH1 0x1 ADD DUP1 SLOAD PUSH2 0x98A SWAP1 PUSH2 0x1216 JUMP JUMPDEST DUP1 PUSH1 0x1F ADD PUSH1 0x20 DUP1 SWAP2 DIV MUL PUSH1 0x20 ADD PUSH1 0x40 MLOAD SWAP1 DUP2 ADD PUSH1 0x40 MSTORE DUP1 SWAP3 SWAP2 SWAP1 DUP2 DUP2 MSTORE PUSH1 0x20 ADD DUP3 DUP1 SLOAD PUSH2 0x9B6 SWAP1 PUSH2 0x1216 JUMP JUMPDEST DUP1 ISZERO PUSH2 0xA01 JUMPI DUP1 PUSH1 0x1F LT PUSH2 0x9D8 JUMPI PUSH2 0x100 DUP1 DUP4 SLOAD DIV MUL DUP4 MSTORE SWAP2 PUSH1 0x20 ADD SWAP2 PUSH2 0xA01 JUMP JUMPDEST DUP3 ADD SWAP2 SWAP1 PUSH0 MSTORE PUSH1 0x20 PUSH0 KECCAK256 SWAP1 JUMPDEST DUP2 SLOAD DUP2 MSTORE SWAP1 PUSH1 0x1 ADD SWAP1 PUSH1 0x20 ADD DUP1 DUP4 GT PUSH2 0x9E4 JUMPI DUP3 SWAP1 SUB PUSH1 0x1F AND DUP3 ADD SWAP2 JUMPDEST POP POP POP POP POP SWAP1 POP DUP3 JUMP JUMPDEST PUSH1 0x3 SLOAD DUP2 JUMP JUMPDEST DUP3 DUP1 SLOAD DUP3 DUP3 SSTORE SWAP1 PUSH0 MSTORE PUSH1 0x20 PUSH0 KECCAK256 SWAP1 DUP2 ADD SWAP3 DUP3 ISZERO PUSH2 0xA57 JUMPI SWAP2 PUSH1 0x20 MUL DUP3 ADD JUMPDEST DUP3 DUP2 GT ISZERO PUSH2 0xA56 JUMPI DUP3 MLOAD DUP3 SWAP1 DUP2 PUSH2 0xA46 SWAP2 SWAP1 PUSH2 0x1457 JUMP JUMPDEST POP SWAP2 PUSH1 0x20 ADD SWAP2 SWAP1 PUSH1 0x1 ADD SWAP1 PUSH2 0xA2F JUMP JUMPDEST JUMPDEST POP SWAP1 POP PUSH2 0xA64 SWAP2 SWAP1 PUSH2 0xA68 JUMP JUMPDEST POP SWAP1 JUMP JUMPDEST JUMPDEST DUP1 DUP3 GT ISZERO PUSH2 0xA87 JUMPI PUSH0 DUP2 DUP2 PUSH2 0xA7E SWAP2 SWAP1 PUSH2 0xA8B JUMP JUMPDEST POP PUSH1 0x1 ADD PUSH2 0xA69 JUMP JUMPDEST POP SWAP1 JUMP JUMPDEST POP DUP1 SLOAD PUSH2 0xA97 SWAP1 PUSH2 0x1216 JUMP JUMPDEST PUSH0 DUP3 SSTORE DUP1 PUSH1 0x1F LT PUSH2 0xAA8 JUMPI POP PUSH2 0xAC5 JUMP JUMPDEST PUSH1 0x1F ADD PUSH1 0x20 SWAP1 DIV SWAP1 PUSH0 MSTORE PUSH1 0x20 PUSH0 KECCAK256 SWAP1 DUP2 ADD SWAP1 PUSH2 0xAC4 SWAP2 SWAP1 PUSH2 0xAC8 JUMP JUMPDEST JUMPDEST POP JUMP JUMPDEST JUMPDEST DUP1 DUP3 GT ISZERO PUSH2 0xADF JUMPI PUSH0 DUP2 PUSH0 SWAP1 SSTORE POP PUSH1 0x1 ADD PUSH2 0xAC9 JUMP JUMPDEST POP SWAP1 JUMP JUMPDEST PUSH0 PUSH1 0x40 MLOAD SWAP1 POP SWAP1 JUMP JUMPDEST PUSH0 DUP1 REVERT JUMPDEST PUSH0 DUP1 REVERT JUMPDEST PUSH0 DUP2 SWAP1 POP SWAP2 SWAP1 POP JUMP JUMPDEST PUSH2 0xB06 DUP2 PUSH2 0xAF4 JUMP JUMPDEST DUP2 EQ PUSH2 0xB10 JUMPI PUSH0 DUP1 REVERT JUMPDEST POP JUMP JUMPDEST PUSH0 DUP2 CALLDATALOAD SWAP1 POP PUSH2 0xB21 DUP2 PUSH2 0xAFD JUMP JUMPDEST SWAP3 SWAP2 POP POP JUMP JUMPDEST PUSH0 PUSH1 0x20 DUP3 DUP5 SUB SLT ISZERO PUSH2 0xB3C JUMPI PUSH2 0xB3B PUSH2 0xAEC JUMP JUMPDEST JUMPDEST PUSH0 PUSH2 0xB49 DUP5 DUP3 DUP6 ADD PUSH2 0xB13 JUMP JUMPDEST SWAP2 POP POP SWAP3 SWAP2 POP POP JUMP JUMPDEST PUSH0 DUP2 MLOAD SWAP1 POP SWAP2 SWAP1 POP JUMP JUMPDEST PUSH0 DUP3 DUP3 MSTORE PUSH1 0x20 DUP3 ADD SWAP1 POP SWAP3 SWAP2 POP POP JUMP JUMPDEST DUP3 DUP2 DUP4 MCOPY PUSH0 DUP4 DUP4 ADD MSTORE POP POP POP JUMP JUMPDEST PUSH0 PUSH1 0x1F NOT PUSH1 0x1F DUP4 ADD AND SWAP1 POP SWAP2 SWAP1 POP JUMP JUMPDEST PUSH0 PUSH2 0xB94 DUP3 PUSH2 0xB52 JUMP JUMPDEST PUSH2 0xB9E DUP2 DUP6 PUSH2 0xB5C JUMP JUMPDEST SWAP4 POP PUSH2 0xBAE DUP2 DUP6 PUSH1 0x20 DUP7 ADD PUSH2 0xB6C JUMP JUMPDEST PUSH2 0xBB7 DUP2 PUSH2 0xB7A JUMP JUMPDEST DUP5 ADD SWAP2 POP POP SWAP3 SWAP2 POP POP JUMP JUMPDEST PUSH0 DUP2 MLOAD SWAP1 POP SWAP2 SWAP1 POP JUMP JUMPDEST PUSH0 DUP3 DUP3 MSTORE PUSH1 0x20 DUP3 ADD SWAP1 POP SWAP3 SWAP2 POP POP JUMP JUMPDEST PUSH0 DUP2 SWAP1 POP PUSH1 0x20 DUP3 ADD SWAP1 POP SWAP2 SWAP1 POP JUMP JUMPDEST PUSH0 DUP3 DUP3 MSTORE PUSH1 0x20 DUP3 ADD SWAP1 POP SWAP3 SWAP2 POP POP JUMP JUMPDEST PUSH0 PUSH2 0xC05 DUP3 PUSH2 0xB52 JUMP JUMPDEST PUSH2 0xC0F DUP2 DUP6 PUSH2 0xBEB JUMP JUMPDEST SWAP4 POP PUSH2 0xC1F DUP2 DUP6 PUSH1 0x20 DUP7 ADD PUSH2 0xB6C JUMP JUMPDEST PUSH2 0xC28 DUP2 PUSH2 0xB7A JUMP JUMPDEST DUP5 ADD SWAP2 POP POP SWAP3 SWAP2 POP POP JUMP JUMPDEST PUSH0 PUSH2 0xC3E DUP4 DUP4 PUSH2 0xBFB JUMP JUMPDEST SWAP1 POP SWAP3 SWAP2 POP POP JUMP JUMPDEST PUSH0 PUSH1 0x20 DUP3 ADD SWAP1 POP SWAP2 SWAP1 POP JUMP JUMPDEST PUSH0 PUSH2 0xC5C DUP3 PUSH2 0xBC2 JUMP JUMPDEST PUSH2 0xC66 DUP2 DUP6 PUSH2 0xBCC JUMP JUMPDEST SWAP4 POP DUP4 PUSH1 0x20 DUP3 MUL DUP6 ADD PUSH2 0xC78 DUP6 PUSH2 0xBDC JUMP JUMPDEST DUP1 PUSH0 JUMPDEST DUP6 DUP2 LT ISZERO PUSH2 0xCB3 JUMPI DUP5 DUP5 SUB DUP10 MSTORE DUP2 MLOAD PUSH2 0xC94 DUP6 DUP3 PUSH2 0xC33 JUMP JUMPDEST SWAP5 POP PUSH2 0xC9F DUP4 PUSH2 0xC46 JUMP JUMPDEST SWAP3 POP PUSH1 0x20 DUP11 ADD SWAP10 POP POP PUSH1 0x1 DUP2 ADD SWAP1 POP PUSH2 0xC7B JUMP JUMPDEST POP DUP3 SWAP8 POP DUP8 SWAP6 POP POP POP POP POP POP SWAP3 SWAP2 POP POP JUMP JUMPDEST PUSH0 PUSH1 0xA0 DUP3 ADD SWAP1 POP DUP2 DUP2 SUB PUSH0 DUP4 ADD MSTORE PUSH2 0xCDD DUP2 DUP9 PUSH2 0xB8A JUMP JUMPDEST SWAP1 POP DUP2 DUP2 SUB PUSH1 0x20 DUP4 ADD MSTORE PUSH2 0xCF1 DUP2 DUP8 PUSH2 0xC52 JUMP JUMPDEST SWAP1 POP DUP2 DUP2 SUB PUSH1 0x40 DUP4 ADD MSTORE PUSH2 0xD05 DUP2 DUP7 PUSH2 0xC52 JUMP JUMPDEST SWAP1 POP DUP2 DUP2 SUB PUSH1 0x60 DUP4 ADD MSTORE PUSH2 0xD19 DUP2 DUP6 PUSH2 0xC52 JUMP JUMPDEST SWAP1 POP DUP2 DUP2 SUB PUSH1 0x80 DUP4 ADD MSTORE PUSH2 0xD2D DUP2 DUP5 PUSH2 0xC52 JUMP JUMPDEST SWAP1 POP SWAP7 SWAP6 POP POP POP POP POP POP JUMP JUMPDEST PUSH2 0xD42 DUP2 PUSH2 0xAF4 JUMP JUMPDEST DUP3 MSTORE POP POP JUMP JUMPDEST PUSH0 DUP2 SWAP1 POP SWAP2 SWAP1 POP JUMP JUMPDEST PUSH2 0xD5A DUP2 PUSH2 0xD48 JUMP JUMPDEST DUP3 MSTORE POP POP JUMP JUMPDEST PUSH0 PUSH1 0x60 DUP3 ADD SWAP1 POP PUSH2 0xD73 PUSH0 DUP4 ADD DUP7 PUSH2 0xD39 JUMP JUMPDEST DUP2 DUP2 SUB PUSH1 0x20 DUP4 ADD MSTORE PUSH2 0xD85 DUP2 DUP6 PUSH2 0xB8A JUMP JUMPDEST SWAP1 POP PUSH2 0xD94 PUSH1 0x40 DUP4 ADD DUP5 PUSH2 0xD51 JUMP JUMPDEST SWAP5 SWAP4 POP POP POP POP JUMP JUMPDEST PUSH0 PUSH1 0x20 DUP3 ADD SWAP1 POP PUSH2 0xDAF PUSH0 DUP4 ADD DUP5 PUSH2 0xD39 JUMP JUMPDEST SWAP3 SWAP2 POP POP JUMP JUMPDEST PUSH2 0xDBE DUP2 PUSH2 0xD48 JUMP JUMPDEST DUP2 EQ PUSH2 0xDC8 JUMPI PUSH0 DUP1 REVERT JUMPDEST POP JUMP JUMPDEST PUSH0 DUP2 CALLDATALOAD SWAP1 POP PUSH2 0xDD9 DUP2 PUSH2 0xDB5 JUMP JUMPDEST SWAP3 SWAP2 POP POP JUMP JUMPDEST PUSH0 DUP1 PUSH1 0x40 DUP4 DUP6 SUB SLT ISZERO PUSH2 0xDF5 JUMPI PUSH2 0xDF4 PUSH2 0xAEC JUMP JUMPDEST JUMPDEST PUSH0 PUSH2 0xE02 DUP6 DUP3 DUP7 ADD PUSH2 0xB13 JUMP JUMPDEST SWAP3 POP POP PUSH1 0x20 PUSH2 0xE13 DUP6 DUP3 DUP7 ADD PUSH2 0xDCB JUMP JUMPDEST SWAP2 POP POP SWAP3 POP SWAP3 SWAP1 POP JUMP JUMPDEST PUSH0 DUP2 ISZERO ISZERO SWAP1 POP SWAP2 SWAP1 POP JUMP JUMPDEST PUSH2 0xE31 DUP2 PUSH2 0xE1D JUMP JUMPDEST DUP3 MSTORE POP POP JUMP JUMPDEST PUSH0 PUSH1 0x20 DUP3 ADD SWAP1 POP PUSH2 0xE4A PUSH0 DUP4 ADD DUP5 PUSH2 0xE28 JUMP JUMPDEST SWAP3 SWAP2 POP POP JUMP JUMPDEST PUSH0 DUP1 REVERT JUMPDEST PUSH0 DUP1 REVERT JUMPDEST PUSH32 0x4E487B7100000000000000000000000000000000000000000000000000000000 PUSH0 MSTORE PUSH1 0x41 PUSH1 0x4 MSTORE PUSH1 0x24 PUSH0 REVERT JUMPDEST PUSH2 0xE8E DUP3 PUSH2 0xB7A JUMP JUMPDEST DUP2 ADD DUP2 DUP2 LT PUSH8 0xFFFFFFFFFFFFFFFF DUP3 GT OR ISZERO PUSH2 0xEAD JUMPI PUSH2 0xEAC PUSH2 0xE58 JUMP JUMPDEST JUMPDEST DUP1 PUSH1 0x40 MSTORE POP POP POP JUMP JUMPDEST PUSH0 PUSH2 0xEBF PUSH2 0xAE3 JUMP JUMPDEST SWAP1 POP PUSH2 0xECB DUP3 DUP3 PUSH2 0xE85 JUMP JUMPDEST SWAP2 SWAP1 POP JUMP JUMPDEST PUSH0 PUSH8 0xFFFFFFFFFFFFFFFF DUP3 GT ISZERO PUSH2 0xEEA JUMPI PUSH2 0xEE9 PUSH2 0xE58 JUMP JUMPDEST JUMPDEST PUSH2 0xEF3 DUP3 PUSH2 0xB7A JUMP JUMPDEST SWAP1 POP PUSH1 0x20 DUP2 ADD SWAP1 POP SWAP2 SWAP1 POP JUMP JUMPDEST DUP3 DUP2 DUP4 CALLDATACOPY PUSH0 DUP4 DUP4 ADD MSTORE POP POP POP JUMP JUMPDEST PUSH0 PUSH2 0xF20 PUSH2 0xF1B DUP5 PUSH2 0xED0 JUMP JUMPDEST PUSH2 0xEB6 JUMP JUMPDEST SWAP1 POP DUP3 DUP2 MSTORE PUSH1 0x20 DUP2 ADD DUP5 DUP5 DUP5 ADD GT ISZERO PUSH2 0xF3C JUMPI PUSH2 0xF3B PUSH2 0xE54 JUMP JUMPDEST JUMPDEST PUSH2 0xF47 DUP5 DUP3 DUP6 PUSH2 0xF00 JUMP JUMPDEST POP SWAP4 SWAP3 POP POP POP JUMP JUMPDEST PUSH0 DUP3 PUSH1 0x1F DUP4 ADD SLT PUSH2 0xF63 JUMPI PUSH2 0xF62 PUSH2 0xE50 JUMP JUMPDEST JUMPDEST DUP2 CALLDATALOAD PUSH2 0xF73 DUP5 DUP3 PUSH1 0x20 DUP7 ADD PUSH2 0xF0E JUMP JUMPDEST SWAP2 POP POP SWAP3 SWAP2 POP POP JUMP JUMPDEST PUSH0 PUSH8 0xFFFFFFFFFFFFFFFF DUP3 GT ISZERO PUSH2 0xF96 JUMPI PUSH2 0xF95 PUSH2 0xE58 JUMP JUMPDEST JUMPDEST PUSH1 0x20 DUP3 MUL SWAP1 POP PUSH1 0x20 DUP2 ADD SWAP1 POP SWAP2 SWAP1 POP JUMP JUMPDEST PUSH0 DUP1 REVERT JUMPDEST PUSH0 PUSH2 0xFBD PUSH2 0xFB8 DUP5 PUSH2 0xF7C JUMP JUMPDEST PUSH2 0xEB6 JUMP JUMPDEST SWAP1 POP DUP1 DUP4 DUP3 MSTORE PUSH1 0x20 DUP3 ADD SWAP1 POP PUSH1 0x20 DUP5 MUL DUP4 ADD DUP6 DUP2 GT ISZERO PUSH2 0xFE0 JUMPI PUSH2 0xFDF PUSH2 0xFA7 JUMP JUMPDEST JUMPDEST DUP4 JUMPDEST DUP2 DUP2 LT ISZERO PUSH2 0x1027 JUMPI DUP1 CALLDATALOAD PUSH8 0xFFFFFFFFFFFFFFFF DUP2 GT ISZERO PUSH2 0x1005 JUMPI PUSH2 0x1004 PUSH2 0xE50 JUMP JUMPDEST JUMPDEST DUP1 DUP7 ADD PUSH2 0x1012 DUP10 DUP3 PUSH2 0xF4F JUMP JUMPDEST DUP6 MSTORE PUSH1 0x20 DUP6 ADD SWAP5 POP POP POP PUSH1 0x20 DUP2 ADD SWAP1 POP PUSH2 0xFE2 JUMP JUMPDEST POP POP POP SWAP4 SWAP3 POP POP POP JUMP JUMPDEST PUSH0 DUP3 PUSH1 0x1F DUP4 ADD SLT PUSH2 0x1045 JUMPI PUSH2 0x1044 PUSH2 0xE50 JUMP JUMPDEST JUMPDEST DUP2 CALLDATALOAD PUSH2 0x1055 DUP5 DUP3 PUSH1 0x20 DUP7 ADD PUSH2 0xFAB JUMP JUMPDEST SWAP2 POP POP SWAP3 SWAP2 POP POP JUMP JUMPDEST PUSH0 DUP1 PUSH0 DUP1 PUSH0 PUSH1 0xA0 DUP7 DUP9 SUB SLT ISZERO PUSH2 0x1077 JUMPI PUSH2 0x1076 PUSH2 0xAEC JUMP JUMPDEST JUMPDEST PUSH0 DUP7 ADD CALLDATALOAD PUSH8 0xFFFFFFFFFFFFFFFF DUP2 GT ISZERO PUSH2 0x1094 JUMPI PUSH2 0x1093 PUSH2 0xAF0 JUMP JUMPDEST JUMPDEST PUSH2 0x10A0 DUP9 DUP3 DUP10 ADD PUSH2 0xF4F JUMP JUMPDEST SWAP6 POP POP PUSH1 0x20 DUP7 ADD CALLDATALOAD PUSH8 0xFFFFFFFFFFFFFFFF DUP2 GT ISZERO PUSH2 0x10C1 JUMPI PUSH2 0x10C0 PUSH2 0xAF0 JUMP JUMPDEST JUMPDEST PUSH2 0x10CD DUP9 DUP3 DUP10 ADD PUSH2 0x1031 JUMP JUMPDEST SWAP5 POP POP PUSH1 0x40 DUP7 ADD CALLDATALOAD PUSH8 0xFFFFFFFFFFFFFFFF DUP2 GT ISZERO PUSH2 0x10EE JUMPI PUSH2 0x10ED PUSH2 0xAF0 JUMP JUMPDEST JUMPDEST PUSH2 0x10FA DUP9 DUP3 DUP10 ADD PUSH2 0x1031 JUMP JUMPDEST SWAP4 POP POP PUSH1 0x60 DUP7 ADD CALLDATALOAD PUSH8 0xFFFFFFFFFFFFFFFF DUP2 GT ISZERO PUSH2 0x111B JUMPI PUSH2 0x111A PUSH2 0xAF0 JUMP JUMPDEST JUMPDEST PUSH2 0x1127 DUP9 DUP3 DUP10 ADD PUSH2 0x1031 JUMP JUMPDEST SWAP3 POP POP PUSH1 0x80 DUP7 ADD CALLDATALOAD PUSH8 0xFFFFFFFFFFFFFFFF DUP2 GT ISZERO PUSH2 0x1148 JUMPI PUSH2 0x1147 PUSH2 0xAF0 JUMP JUMPDEST JUMPDEST PUSH2 0x1154 DUP9 DUP3 DUP10 ADD PUSH2 0x1031 JUMP JUMPDEST SWAP2 POP POP SWAP3 SWAP6 POP SWAP3 SWAP6 SWAP1 SWAP4 POP JUMP JUMPDEST PUSH0 DUP1 PUSH1 0x40 DUP4 DUP6 SUB SLT ISZERO PUSH2 0x1177 JUMPI PUSH2 0x1176 PUSH2 0xAEC JUMP JUMPDEST JUMPDEST PUSH0 DUP4 ADD CALLDATALOAD PUSH8 0xFFFFFFFFFFFFFFFF DUP2 GT ISZERO PUSH2 0x1194 JUMPI PUSH2 0x1193 PUSH2 0xAF0 JUMP JUMPDEST JUMPDEST PUSH2 0x11A0 DUP6 DUP3 DUP7 ADD PUSH2 0xF4F JUMP JUMPDEST SWAP3 POP POP PUSH1 0x20 PUSH2 0x11B1 DUP6 DUP3 DUP7 ADD PUSH2 0xDCB JUMP JUMPDEST SWAP2 POP POP SWAP3 POP SWAP3 SWAP1 POP JUMP JUMPDEST PUSH0 PUSH1 0x40 DUP3 ADD SWAP1 POP PUSH2 0x11CE PUSH0 DUP4 ADD DUP6 PUSH2 0xD39 JUMP JUMPDEST DUP2 DUP2 SUB PUSH1 0x20 DUP4 ADD MSTORE PUSH2 0x11E0 DUP2 DUP5 PUSH2 0xB8A JUMP JUMPDEST SWAP1 POP SWAP4 SWAP3 POP POP POP JUMP JUMPDEST PUSH32 0x4E487B7100000000000000000000000000000000000000000000000000000000 PUSH0 MSTORE PUSH1 0x22 PUSH1 0x4 MSTORE PUSH1 0x24 PUSH0 REVERT JUMPDEST PUSH0 PUSH1 0x2 DUP3 DIV SWAP1 POP PUSH1 0x1 DUP3 AND DUP1 PUSH2 0x122D JUMPI PUSH1 0x7F DUP3 AND SWAP2 POP JUMPDEST PUSH1 0x20 DUP3 LT DUP2 SUB PUSH2 0x1240 JUMPI PUSH2 0x123F PUSH2 0x11E9 JUMP JUMPDEST JUMPDEST POP SWAP2 SWAP1 POP JUMP JUMPDEST PUSH32 0x4E487B7100000000000000000000000000000000000000000000000000000000 PUSH0 MSTORE PUSH1 0x11 PUSH1 0x4 MSTORE PUSH1 0x24 PUSH0 REVERT JUMPDEST PUSH0 PUSH2 0x127D DUP3 PUSH2 0xAF4 JUMP JUMPDEST SWAP2 POP PUSH32 0xFFFFFFFFFFFFFFFFFFFFFFFFFFFFFFFFFFFFFFFFFFFFFFFFFFFFFFFFFFFFFFFF DUP3 SUB PUSH2 0x12AF JUMPI PUSH2 0x12AE PUSH2 0x1246 JUMP JUMPDEST JUMPDEST PUSH1 0x1 DUP3 ADD SWAP1 POP SWAP2 SWAP1 POP JUMP JUMPDEST PUSH0 DUP2 SWAP1 POP DUP2 PUSH0 MSTORE PUSH1 0x20 PUSH0 KECCAK256 SWAP1 POP SWAP2 SWAP1 POP JUMP JUMPDEST PUSH0 PUSH1 0x20 PUSH1 0x1F DUP4 ADD DIV SWAP1 POP SWAP2 SWAP1 POP JUMP JUMPDEST PUSH0 DUP3 DUP3 SHL SWAP1 POP SWAP3 SWAP2 POP POP JUMP JUMPDEST PUSH0 PUSH1 0x8 DUP4 MUL PUSH2 0x1316 PUSH32 0xFFFFFFFFFFFFFFFFFFFFFFFFFFFFFFFFFFFFFFFFFFFFFFFFFFFFFFFFFFFFFFFF DUP3 PUSH2 0x12DB JUMP JUMPDEST PUSH2 0x1320 DUP7 DUP4 PUSH2 0x12DB JUMP JUMPDEST SWAP6 POP DUP1 NOT DUP5 AND SWAP4 POP DUP1 DUP7 AND DUP5 OR SWAP3 POP POP POP SWAP4 SWAP3 POP POP POP JUMP JUMPDEST PUSH0 DUP2 SWAP1 POP SWAP2 SWAP1 POP JUMP JUMPDEST PUSH0 PUSH2 0x135B PUSH2 0x1356 PUSH2 0x1351 DUP5 PUSH2 0xAF4 JUMP JUMPDEST PUSH2 0x1338 JUMP JUMPDEST PUSH2 0xAF4 JUMP JUMPDEST SWAP1 POP SWAP2 SWAP1 POP JUMP JUMPDEST PUSH0 DUP2 SWAP1 POP SWAP2 SWAP1 POP JUMP JUMPDEST PUSH2 0x1374 DUP4 PUSH2 0x1341 JUMP JUMPDEST PUSH2 0x1388 PUSH2 0x1380 DUP3 PUSH2 0x1362 JUMP JUMPDEST DUP5 DUP5 SLOAD PUSH2 0x12E7 JUMP JUMPDEST DUP3 SSTORE POP POP POP POP JUMP JUMPDEST PUSH0 SWAP1 JUMP JUMPDEST PUSH2 0x139C PUSH2 0x1390 JUMP JUMPDEST PUSH2 0x13A7 DUP2 DUP5 DUP5 PUSH2 0x136B JUMP JUMPDEST POP POP POP JUMP JUMPDEST JUMPDEST DUP2 DUP2 LT ISZERO PUSH2 0x13CA JUMPI PUSH2 0x13BF PUSH0 DUP3 PUSH2 0x1394 JUMP JUMPDEST PUSH1 0x1 DUP2 ADD SWAP1 POP PUSH2 0x13AD JUMP JUMPDEST POP POP JUMP JUMPDEST PUSH1 0x1F DUP3 GT ISZERO PUSH2 0x140F JUMPI PUSH2 0x13E0 DUP2 PUSH2 0x12BA JUMP JUMPDEST PUSH2 0x13E9 DUP5 PUSH2 0x12CC JUMP JUMPDEST DUP2 ADD PUSH1 0x20 DUP6 LT ISZERO PUSH2 0x13F8 JUMPI DUP2 SWAP1 POP JUMPDEST PUSH2 0x140C PUSH2 0x1404 DUP6 PUSH2 0x12CC JUMP JUMPDEST DUP4 ADD DUP3 PUSH2 0x13AC JUMP JUMPDEST POP POP JUMPDEST POP POP POP JUMP JUMPDEST PUSH0 DUP3 DUP3 SHR SWAP1 POP SWAP3 SWAP2 POP POP JUMP JUMPDEST PUSH0 PUSH2 0x142F PUSH0 NOT DUP5 PUSH1 0x8 MUL PUSH2 0x1414 JUMP JUMPDEST NOT DUP1 DUP4 AND SWAP2 POP POP SWAP3 SWAP2 POP POP JUMP JUMPDEST PUSH0 PUSH2 0x1447 DUP4 DUP4 PUSH2 0x1420 JUMP JUMPDEST SWAP2 POP DUP3 PUSH1 0x2 MUL DUP3 OR SWAP1 POP SWAP3 SWAP2 POP POP JUMP JUMPDEST PUSH2 0x1460 DUP3 PUSH2 0xB52 JUMP JUMPDEST PUSH8 0xFFFFFFFFFFFFFFFF DUP2 GT ISZERO PUSH2 0x1479 JUMPI PUSH2 0x1478 PUSH2 0xE58 JUMP JUMPDEST JUMPDEST PUSH2 0x1483 DUP3 SLOAD PUSH2 0x1216 JUMP JUMPDEST PUSH2 0x148E DUP3 DUP3 DUP6 PUSH2 0x13CE JUMP JUMPDEST PUSH0 PUSH1 0x20 SWAP1 POP PUSH1 0x1F DUP4 GT PUSH1 0x1 DUP2 EQ PUSH2 0x14BF JUMPI PUSH0 DUP5 ISZERO PUSH2 0x14AD JUMPI DUP3 DUP8 ADD MLOAD SWAP1 POP JUMPDEST PUSH2 0x14B7 DUP6 DUP3 PUSH2 0x143C JUMP JUMPDEST DUP7 SSTORE POP PUSH2 0x151E JUMP JUMPDEST PUSH1 0x1F NOT DUP5 AND PUSH2 0x14CD DUP7 PUSH2 0x12BA JUMP JUMPDEST PUSH0 JUMPDEST DUP3 DUP2 LT ISZERO PUSH2 0x14F4 JUMPI DUP5 DUP10 ADD MLOAD DUP3 SSTORE PUSH1 0x1 DUP3 ADD SWAP2 POP PUSH1 0x20 DUP6 ADD SWAP5 POP PUSH1 0x20 DUP2 ADD SWAP1 POP PUSH2 0x14CF JUMP JUMPDEST DUP7 DUP4 LT ISZERO PUSH2 0x1511 JUMPI DUP5 DUP10 ADD MLOAD PUSH2 0x150D PUSH1 0x1F DUP10 AND DUP3 PUSH2 0x1420 JUMP JUMPDEST DUP4 SSTORE POP JUMPDEST PUSH1 0x1 PUSH1 0x2 DUP9 MUL ADD DUP9 SSTORE POP POP POP JUMPDEST POP POP POP POP POP POP JUMP JUMPDEST PUSH0 PUSH1 0x20 DUP3 ADD SWAP1 POP DUP2 DUP2 SUB PUSH0 DUP4 ADD MSTORE PUSH2 0x153E DUP2 DUP5 PUSH2 0xB8A JUMP JUMPDEST SWAP1 POP SWAP3 SWAP2 POP POP JUMP JUMPDEST PUSH0 PUSH1 0x40 DUP3 ADD SWAP1 POP DUP2 DUP2 SUB PUSH0 DUP4 ADD MSTORE PUSH2 0x155E DUP2 DUP6 PUSH2 0xB8A JUMP JUMPDEST SWAP1 POP PUSH2 0x156D PUSH1 0x20 DUP4 ADD DUP5 PUSH2 0xD51 JUMP JUMPDEST SWAP4 SWAP3 POP POP POP JUMP INVALID LOG2 PUSH5 0x6970667358 0x22 SLT KECCAK256 PUSH6 0x88DCEB5BBA73 0x26 EXTCODECOPY PUSH9 0x870368F4ED92074C8C 0xC8 TIMESTAMP 0xA5 PUSH26 0xBB3DE2FC177DACFBA764736F6C634300081A0033000000000000 "
	},
	"abi": [
		{
			"anonymous": false,
			"inputs": [
				{
					"indexed": true,
					"internalType": "uint256",
					"name": "evidenceId",
					"type": "uint256"
				},
				{
					"indexed": false,
					"internalType": "string",
					"name": "description",
					"type": "string"
				},
				{
					"indexed": false,
					"internalType": "bytes32",
					"name": "hash",
					"type": "bytes32"
				}
			],
			"name": "EvidenceLogged",
			"type": "event"
		},
		{
			"anonymous": false,
			"inputs": [
				{
					"indexed": true,
					"internalType": "uint256",
					"name": "incidentId",
					"type": "uint256"
				},
				{
					"indexed": false,
					"internalType": "string",
					"name": "description",
					"type": "string"
				}
			],
			"name": "IncidentLogged",
			"type": "event"
		},
		{
			"inputs": [
				{
					"internalType": "string",
					"name": "_description",
					"type": "string"
				},
				{
					"internalType": "string[]",
					"name": "_timeline",
					"type": "string[]"
				},
				{
					"internalType": "string[]",
					"name": "_affectedSystems",
					"type": "string[]"
				},
				{
					"internalType": "string[]",
					"name": "_anomalyAlerts",
					"type": "string[]"
				},
				{
					"internalType": "string[]",
					"name": "_evidenceChain",
					"type": "string[]"
				}
			],
			"name": "addIncident",
			"outputs": [],
			"stateMutability": "nonpayable",
			"type": "function"
		},
		{
			"inputs": [],
			"name": "evidenceCounter",
			"outputs": [
				{
					"internalType": "uint256",
					"name": "",
					"type": "uint256"
				}
			],
			"stateMutability": "view",
			"type": "function"
		},
		{
			"inputs": [
				{
					"internalType": "uint256",
					"name": "",
					"type": "uint256"
				}
			],
			"name": "evidences",
			"outputs": [
				{
					"internalType": "uint256",
					"name": "id",
					"type": "uint256"
				},
				{
					"internalType": "string",
					"name": "description",
					"type": "string"
				},
				{
					"internalType": "bytes32",
					"name": "hash",
					"type": "bytes32"
				}
			],
			"stateMutability": "view",
			"type": "function"
		},
		{
			"inputs": [
				{
					"internalType": "uint256",
					"name": "_incidentId",
					"type": "uint256"
				}
			],
			"name": "getIncidentDetails",
			"outputs": [
				{
					"internalType": "string",
					"name": "",
					"type": "string"
				},
				{
					"internalType": "string[]",
					"name": "",
					"type": "string[]"
				},
				{
					"internalType": "string[]",
					"name": "",
					"type": "string[]"
				},
				{
					"internalType": "string[]",
					"name": "",
					"type": "string[]"
				},
				{
					"internalType": "string[]",
					"name": "",
					"type": "string[]"
				}
			],
			"stateMutability": "view",
			"type": "function"
		},
		{
			"inputs": [],
			"name": "incidentCounter",
			"outputs": [
				{
					"internalType": "uint256",
					"name": "",
					"type": "uint256"
				}
			],
			"stateMutability": "view",
			"type": "function"
		},
		{
			"inputs": [
				{
					"internalType": "uint256",
					"name": "",
					"type": "uint256"
				}
			],
			"name": "incidents",
			"outputs": [
				{
					"internalType": "uint256",
					"name": "id",
					"type": "uint256"
				},
				{
					"internalType": "string",
					"name": "description",
					"type": "string"
				}
			],
			"stateMutability": "view",
			"type": "function"
		},
		{
			"inputs": [
				{
					"internalType": "string",
					"name": "_description",
					"type": "string"
				},
				{
					"internalType": "bytes32",
					"name": "_hash",
					"type": "bytes32"
				}
			],
			"name": "logEvidence",
			"outputs": [],
			"stateMutability": "nonpayable",
			"type": "function"
		},
		{
			"inputs": [
				{
					"internalType": "uint256",
					"name": "_evidenceId",
					"type": "uint256"
				},
				{
					"internalType": "bytes32",
					"name": "_hash",
					"type": "bytes32"
				}
			],
			"name": "verifyEvidenceImmutability",
			"outputs": [
				{
					"internalType": "bool",
					"name": "",
					"type": "bool"
				}
			],
			"stateMutability": "view",
			"type": "function"
		}
	],
	"storageLayout": {
		"storage": [
			{
				"astId": 30,
				"contract": "contracts/CyberTriage.sol:TriageOMatic",
				"label": "incidents",
				"offset": 0,
				"slot": "0",
				"type": "t_mapping(t_uint256,t_struct(Incident)18_storage)"
			},
			{
				"astId": 35,
				"contract": "contracts/CyberTriage.sol:TriageOMatic",
				"label": "evidences",
				"offset": 0,
				"slot": "1",
				"type": "t_mapping(t_uint256,t_struct(Evidence)25_storage)"
			},
			{
				"astId": 37,
				"contract": "contracts/CyberTriage.sol:TriageOMatic",
				"label": "incidentCounter",
				"offset": 0,
				"slot": "2",
				"type": "t_uint256"
			},
			{
				"astId": 39,
				"contract": "contracts/CyberTriage.sol:TriageOMatic",
				"label": "evidenceCounter",
				"offset": 0,
				"slot": "3",
				"type": "t_uint256"
			}
		],
		"types": {
			"t_array(t_string_storage)dyn_storage": {
				"base": "t_string_storage",
				"encoding": "dynamic_array",
				"label": "string[]",
				"numberOfBytes": "32"
			},
			"t_bytes32": {
				"encoding": "inplace",
				"label": "bytes32",
				"numberOfBytes": "32"
			},
			"t_mapping(t_uint256,t_struct(Evidence)25_storage)": {
				"encoding": "mapping",
				"key": "t_uint256",
				"label": "mapping(uint256 => struct TriageOMatic.Evidence)",
				"numberOfBytes": "32",
				"value": "t_struct(Evidence)25_storage"
			},
			"t_mapping(t_uint256,t_struct(Incident)18_storage)": {
				"encoding": "mapping",
				"key": "t_uint256",
				"label": "mapping(uint256 => struct TriageOMatic.Incident)",
				"numberOfBytes": "32",
				"value": "t_struct(Incident)18_storage"
			},
			"t_string_storage": {
				"encoding": "bytes",
				"label": "string",
				"numberOfBytes": "32"
			},
			"t_struct(Evidence)25_storage": {
				"encoding": "inplace",
				"label": "struct TriageOMatic.Evidence",
				"members": [
					{
						"astId": 20,
						"contract": "contracts/CyberTriage.sol:TriageOMatic",
						"label": "id",
						"offset": 0,
						"slot": "0",
						"type": "t_uint256"
					},
					{
						"astId": 22,
						"contract": "contracts/CyberTriage.sol:TriageOMatic",
						"label": "description",
						"offset": 0,
						"slot": "1",
						"type": "t_string_storage"
					},
					{
						"astId": 24,
						"contract": "contracts/CyberTriage.sol:TriageOMatic",
						"label": "hash",
						"offset": 0,
						"slot": "2",
						"type": "t_bytes32"
					}
				],
				"numberOfBytes": "96"
			},
			"t_struct(Incident)18_storage": {
				"encoding": "inplace",
				"label": "struct TriageOMatic.Incident",
				"members": [
					{
						"astId": 3,
						"contract": "contracts/CyberTriage.sol:TriageOMatic",
						"label": "id",
						"offset": 0,
						"slot": "0",
						"type": "t_uint256"
					},
					{
						"astId": 5,
						"contract": "contracts/CyberTriage.sol:TriageOMatic",
						"label": "description",
						"offset": 0,
						"slot": "1",
						"type": "t_string_storage"
					},
					{
						"astId": 8,
						"contract": "contracts/CyberTriage.sol:TriageOMatic",
						"label": "timeline",
						"offset": 0,
						"slot": "2",
						"type": "t_array(t_string_storage)dyn_storage"
					},
					{
						"astId": 11,
						"contract": "contracts/CyberTriage.sol:TriageOMatic",
						"label": "affectedSystems",
						"offset": 0,
						"slot": "3",
						"type": "t_array(t_string_storage)dyn_storage"
					},
					{
						"astId": 14,
						"contract": "contracts/CyberTriage.sol:TriageOMatic",
						"label": "anomalyAlerts",
						"offset": 0,
						"slot": "4",
						"type": "t_array(t_string_storage)dyn_storage"
					},
					{
						"astId": 17,
						"contract": "contracts/CyberTriage.sol:TriageOMatic",
						"label": "evidenceChain",
						"offset": 0,
						"slot": "5",
						"type": "t_array(t_string_storage)dyn_storage"
					}
				],
				"numberOfBytes": "192"
			},
			"t_uint256": {
				"encoding": "inplace",
				"label": "uint256",
				"numberOfBytes": "32"
			}
		}
	},
	"web3Deploy": "var triageomaticContract = new web3.eth.Contract([{\"anonymous\":false,\"inputs\":[{\"indexed\":true,\"internalType\":\"uint256\",\"name\":\"evidenceId\",\"type\":\"uint256\"},{\"indexed\":false,\"internalType\":\"string\",\"name\":\"description\",\"type\":\"string\"},{\"indexed\":false,\"internalType\":\"bytes32\",\"name\":\"hash\",\"type\":\"bytes32\"}],\"name\":\"EvidenceLogged\",\"type\":\"event\"},{\"anonymous\":false,\"inputs\":[{\"indexed\":true,\"internalType\":\"uint256\",\"name\":\"incidentId\",\"type\":\"uint256\"},{\"indexed\":false,\"internalType\":\"string\",\"name\":\"description\",\"type\":\"string\"}],\"name\":\"IncidentLogged\",\"type\":\"event\"},{\"inputs\":[{\"internalType\":\"string\",\"name\":\"_description\",\"type\":\"string\"},{\"internalType\":\"string[]\",\"name\":\"_timeline\",\"type\":\"string[]\"},{\"internalType\":\"string[]\",\"name\":\"_affectedSystems\",\"type\":\"string[]\"},{\"internalType\":\"string[]\",\"name\":\"_anomalyAlerts\",\"type\":\"string[]\"},{\"internalType\":\"string[]\",\"name\":\"_evidenceChain\",\"type\":\"string[]\"}],\"name\":\"addIncident\",\"outputs\":[],\"stateMutability\":\"nonpayable\",\"type\":\"function\"},{\"inputs\":[],\"name\":\"evidenceCounter\",\"outputs\":[{\"internalType\":\"uint256\",\"name\":\"\",\"type\":\"uint256\"}],\"stateMutability\":\"view\",\"type\":\"function\"},{\"inputs\":[{\"internalType\":\"uint256\",\"name\":\"\",\"type\":\"uint256\"}],\"name\":\"evidences\",\"outputs\":[{\"internalType\":\"uint256\",\"name\":\"id\",\"type\":\"uint256\"},{\"internalType\":\"string\",\"name\":\"description\",\"type\":\"string\"},{\"internalType\":\"bytes32\",\"name\":\"hash\",\"type\":\"bytes32\"}],\"stateMutability\":\"view\",\"type\":\"function\"},{\"inputs\":[{\"internalType\":\"uint256\",\"name\":\"_incidentId\",\"type\":\"uint256\"}],\"name\":\"getIncidentDetails\",\"outputs\":[{\"internalType\":\"string\",\"name\":\"\",\"type\":\"string\"},{\"internalType\":\"string[]\",\"name\":\"\",\"type\":\"string[]\"},{\"internalType\":\"string[]\",\"name\":\"\",\"type\":\"string[]\"},{\"internalType\":\"string[]\",\"name\":\"\",\"type\":\"string[]\"},{\"internalType\":\"string[]\",\"name\":\"\",\"type\":\"string[]\"}],\"stateMutability\":\"view\",\"type\":\"function\"},{\"inputs\":[],\"name\":\"incidentCounter\",\"outputs\":[{\"internalType\":\"uint256\",\"name\":\"\",\"type\":\"uint256\"}],\"stateMutability\":\"view\",\"type\":\"function\"},{\"inputs\":[{\"internalType\":\"uint256\",\"name\":\"\",\"type\":\"uint256\"}],\"name\":\"incidents\",\"outputs\":[{\"internalType\":\"uint256\",\"name\":\"id\",\"type\":\"uint256\"},{\"internalType\":\"string\",\"name\":\"description\",\"type\":\"string\"}],\"stateMutability\":\"view\",\"type\":\"function\"},{\"inputs\":[{\"internalType\":\"string\",\"name\":\"_description\",\"type\":\"string\"},{\"internalType\":\"bytes32\",\"name\":\"_hash\",\"type\":\"bytes32\"}],\"name\":\"logEvidence\",\"outputs\":[],\"stateMutability\":\"nonpayable\",\"type\":\"function\"},{\"inputs\":[{\"internalType\":\"uint256\",\"name\":\"_evidenceId\",\"type\":\"uint256\"},{\"internalType\":\"bytes32\",\"name\":\"_hash\",\"type\":\"bytes32\"}],\"name\":\"verifyEvidenceImmutability\",\"outputs\":[{\"internalType\":\"bool\",\"name\":\"\",\"type\":\"bool\"}],\"stateMutability\":\"view\",\"type\":\"function\"}]);\nvar triageomatic = triageomaticContract.deploy({\n     data: '0x6080604052348015600e575f80fd5b506115aa8061001c5f395ff3fe608060405234801561000f575f80fd5b5060043610610086575f3560e01c8063776ca7a311610059578063776ca7a31461013e5780637ae559941461015a578063a6c6a8f314610176578063b87c1114146101a757610086565b80631e6420ee1461008a5780632e4546cd146100be5780633e9c1dac146100f057806347d6d3bf1461010e575b5f80fd5b6100a4600480360381019061009f9190610b27565b6101c5565b6040516100b5959493929190610cc5565b60405180910390f35b6100d860048036038101906100d39190610b27565b610601565b6040516100e793929190610d60565b60405180910390f35b6100f86106ad565b6040516101059190610d9c565b60405180910390f35b61012860048036038101906101239190610ddf565b6106b3565b6040516101359190610e37565b60405180910390f35b6101586004803603810190610153919061105e565b610786565b005b610174600480360381019061016f9190611161565b6108b4565b005b610190600480360381019061018b9190610b27565b610966565b60405161019e9291906111bb565b60405180910390f35b6101af610a0b565b6040516101bc9190610d9c565b60405180910390f35b60608060608060605f805f8881526020019081526020015f206040518060c00160405290815f820154815260200160018201805461020290611216565b80601f016020809104026020016040519081016040528092919081815260200182805461022e90611216565b80156102795780601f1061025057610100808354040283529160200191610279565b820191905f5260205f20905b81548152906001019060200180831161025c57829003601f168201915b5050505050815260200160028201805480602002602001604051908101604052809291908181526020015f905b8282101561034e578382905f5260205f200180546102c390611216565b80601f01602080910402602001604051908101604052809291908181526020018280546102ef90611216565b801561033a5780601f106103115761010080835404028352916020019161033a565b820191905f5260205f20905b81548152906001019060200180831161031d57829003601f168201915b5050505050815260200190600101906102a6565b50505050815260200160038201805480602002602001604051908101604052809291908181526020015f905b82821015610422578382905f5260205f2001805461039790611216565b80601f01602080910402602001604051908101604052809291908181526020018280546103c390611216565b801561040e5780601f106103e55761010080835404028352916020019161040e565b820191905f5260205f20905b8154815290600101906020018083116103f157829003601f168201915b50505050508152602001906001019061037a565b50505050815260200160048201805480602002602001604051908101604052809291908181526020015f905b828210156104f6578382905f5260205f2001805461046b90611216565b80601f016020809104026020016040519081016040528092919081815260200182805461049790611216565b80156104e25780601f106104b9576101008083540402835291602001916104e2565b820191905f5260205f20905b8154815290600101906020018083116104c557829003601f168201915b50505050508152602001906001019061044e565b50505050815260200160058201805480602002602001604051908101604052809291908181526020015f905b828210156105ca578382905f5260205f2001805461053f90611216565b80601f016020809104026020016040519081016040528092919081815260200182805461056b90611216565b80156105b65780601f1061058d576101008083540402835291602001916105b6565b820191905f5260205f20905b81548152906001019060200180831161059957829003601f168201915b505050505081526020019060010190610522565b5050505081525050905080602001518160400151826060015183608001518460a00151955095509550955095505091939590929450565b6001602052805f5260405f205f91509050805f01549080600101805461062690611216565b80601f016020809104026020016040519081016040528092919081815260200182805461065290611216565b801561069d5780601f106106745761010080835404028352916020019161069d565b820191905f5260205f20905b81548152906001019060200180831161068057829003601f168201915b5050505050908060020154905083565b60025481565b5f8060015f8581526020019081526020015f206040518060600160405290815f82015481526020016001820180546106ea90611216565b80601f016020809104026020016040519081016040528092919081815260200182805461071690611216565b80156107615780601f1061073857610100808354040283529160200191610761565b820191905f5260205f20905b81548152906001019060200180831161074457829003601f168201915b5050505050815260200160028201548152505090508281604001511491505092915050565b60025f81548092919061079890611273565b91905055506040518060c001604052806002548152602001868152602001858152602001848152602001838152602001828152505f8060025481526020019081526020015f205f820151815f015560208201518160010190816107fb9190611457565b506040820151816002019080519060200190610818929190610a11565b506060820151816003019080519060200190610835929190610a11565b506080820151816004019080519060200190610852929190610a11565b5060a082015181600501908051906020019061086f929190610a11565b509050506002547f6be4ae66eb7d09ba0add92d6741123be58053754d068232e838ee8831e9bcb0c866040516108a59190611526565b60405180910390a25050505050565b60035f8154809291906108c690611273565b9190505550604051806060016040528060035481526020018381526020018281525060015f60035481526020019081526020015f205f820151815f015560208201518160010190816109189190611457565b50604082015181600201559050506003547fcea05d33f0c94e28302d479a8d611f5902960b195fdb10aed229789daededbe9838360405161095a929190611546565b60405180910390a25050565b5f602052805f5260405f205f91509050805f01549080600101805461098a90611216565b80601f01602080910402602001604051908101604052809291908181526020018280546109b690611216565b8015610a015780601f106109d857610100808354040283529160200191610a01565b820191905f5260205f20905b8154815290600101906020018083116109e457829003601f168201915b5050505050905082565b60035481565b828054828255905f5260205f20908101928215610a57579160200282015b82811115610a56578251829081610a469190611457565b5091602001919060010190610a2f565b5b509050610a649190610a68565b5090565b5b80821115610a87575f8181610a7e9190610a8b565b50600101610a69565b5090565b508054610a9790611216565b5f825580601f10610aa85750610ac5565b601f0160209004905f5260205f2090810190610ac49190610ac8565b5b50565b5b80821115610adf575f815f905550600101610ac9565b5090565b5f604051905090565b5f80fd5b5f80fd5b5f819050919050565b610b0681610af4565b8114610b10575f80fd5b50565b5f81359050610b2181610afd565b92915050565b5f60208284031215610b3c57610b3b610aec565b5b5f610b4984828501610b13565b91505092915050565b5f81519050919050565b5f82825260208201905092915050565b8281835e5f83830152505050565b5f601f19601f8301169050919050565b5f610b9482610b52565b610b9e8185610b5c565b9350610bae818560208601610b6c565b610bb781610b7a565b840191505092915050565b5f81519050919050565b5f82825260208201905092915050565b5f819050602082019050919050565b5f82825260208201905092915050565b5f610c0582610b52565b610c0f8185610beb565b9350610c1f818560208601610b6c565b610c2881610b7a565b840191505092915050565b5f610c3e8383610bfb565b905092915050565b5f602082019050919050565b5f610c5c82610bc2565b610c668185610bcc565b935083602082028501610c7885610bdc565b805f5b85811015610cb35784840389528151610c948582610c33565b9450610c9f83610c46565b925060208a01995050600181019050610c7b565b50829750879550505050505092915050565b5f60a0820190508181035f830152610cdd8188610b8a565b90508181036020830152610cf18187610c52565b90508181036040830152610d058186610c52565b90508181036060830152610d198185610c52565b90508181036080830152610d2d8184610c52565b90509695505050505050565b610d4281610af4565b82525050565b5f819050919050565b610d5a81610d48565b82525050565b5f606082019050610d735f830186610d39565b8181036020830152610d858185610b8a565b9050610d946040830184610d51565b949350505050565b5f602082019050610daf5f830184610d39565b92915050565b610dbe81610d48565b8114610dc8575f80fd5b50565b5f81359050610dd981610db5565b92915050565b5f8060408385031215610df557610df4610aec565b5b5f610e0285828601610b13565b9250506020610e1385828601610dcb565b9150509250929050565b5f8115159050919050565b610e3181610e1d565b82525050565b5f602082019050610e4a5f830184610e28565b92915050565b5f80fd5b5f80fd5b7f4e487b71000000000000000000000000000000000000000000000000000000005f52604160045260245ffd5b610e8e82610b7a565b810181811067ffffffffffffffff82111715610ead57610eac610e58565b5b80604052505050565b5f610ebf610ae3565b9050610ecb8282610e85565b919050565b5f67ffffffffffffffff821115610eea57610ee9610e58565b5b610ef382610b7a565b9050602081019050919050565b828183375f83830152505050565b5f610f20610f1b84610ed0565b610eb6565b905082815260208101848484011115610f3c57610f3b610e54565b5b610f47848285610f00565b509392505050565b5f82601f830112610f6357610f62610e50565b5b8135610f73848260208601610f0e565b91505092915050565b5f67ffffffffffffffff821115610f9657610f95610e58565b5b602082029050602081019050919050565b5f80fd5b5f610fbd610fb884610f7c565b610eb6565b90508083825260208201905060208402830185811115610fe057610fdf610fa7565b5b835b8181101561102757803567ffffffffffffffff81111561100557611004610e50565b5b8086016110128982610f4f565b85526020850194505050602081019050610fe2565b5050509392505050565b5f82601f83011261104557611044610e50565b5b8135611055848260208601610fab565b91505092915050565b5f805f805f60a0868803121561107757611076610aec565b5b5f86013567ffffffffffffffff81111561109457611093610af0565b5b6110a088828901610f4f565b955050602086013567ffffffffffffffff8111156110c1576110c0610af0565b5b6110cd88828901611031565b945050604086013567ffffffffffffffff8111156110ee576110ed610af0565b5b6110fa88828901611031565b935050606086013567ffffffffffffffff81111561111b5761111a610af0565b5b61112788828901611031565b925050608086013567ffffffffffffffff81111561114857611147610af0565b5b61115488828901611031565b9150509295509295909350565b5f806040838503121561117757611176610aec565b5b5f83013567ffffffffffffffff81111561119457611193610af0565b5b6111a085828601610f4f565b92505060206111b185828601610dcb565b9150509250929050565b5f6040820190506111ce5f830185610d39565b81810360208301526111e08184610b8a565b90509392505050565b7f4e487b71000000000000000000000000000000000000000000000000000000005f52602260045260245ffd5b5f600282049050600182168061122d57607f821691505b6020821081036112405761123f6111e9565b5b50919050565b7f4e487b71000000000000000000000000000000000000000000000000000000005f52601160045260245ffd5b5f61127d82610af4565b91507fffffffffffffffffffffffffffffffffffffffffffffffffffffffffffffffff82036112af576112ae611246565b5b600182019050919050565b5f819050815f5260205f209050919050565b5f6020601f8301049050919050565b5f82821b905092915050565b5f600883026113167fffffffffffffffffffffffffffffffffffffffffffffffffffffffffffffffff826112db565b61132086836112db565b95508019841693508086168417925050509392505050565b5f819050919050565b5f61135b61135661135184610af4565b611338565b610af4565b9050919050565b5f819050919050565b61137483611341565b61138861138082611362565b8484546112e7565b825550505050565b5f90565b61139c611390565b6113a781848461136b565b505050565b5b818110156113ca576113bf5f82611394565b6001810190506113ad565b5050565b601f82111561140f576113e0816112ba565b6113e9846112cc565b810160208510156113f8578190505b61140c611404856112cc565b8301826113ac565b50505b505050565b5f82821c905092915050565b5f61142f5f1984600802611414565b1980831691505092915050565b5f6114478383611420565b9150826002028217905092915050565b61146082610b52565b67ffffffffffffffff81111561147957611478610e58565b5b6114838254611216565b61148e8282856113ce565b5f60209050601f8311600181146114bf575f84156114ad578287015190505b6114b7858261143c565b86555061151e565b601f1984166114cd866112ba565b5f5b828110156114f4578489015182556001820191506020850194506020810190506114cf565b86831015611511578489015161150d601f891682611420565b8355505b6001600288020188555050505b505050505050565b5f6020820190508181035f83015261153e8184610b8a565b905092915050565b5f6040820190508181035f83015261155e8185610b8a565b905061156d6020830184610d51565b939250505056fea26469706673582212206588dceb5bba73263c68870368f4ed92074c8cc842a579bb3de2fc177dacfba764736f6c634300081a0033', \n     arguments: [\n     ]\n}).send({\n     from: web3.eth.accounts[0], \n     gas: '4700000'\n   }, function (e, contract){\n    console.log(e, contract);\n    if (typeof contract.address !== 'undefined') {\n         console.log('Contract mined! address: ' + contract.address + ' transactionHash: ' + contract.transactionHash);\n    }\n })",
	"functionHashes": {
		"776ca7a3": "addIncident(string,string[],string[],string[],string[])",
		"b87c1114": "evidenceCounter()",
		"2e4546cd": "evidences(uint256)",
		"1e6420ee": "getIncidentDetails(uint256)",
		"3e9c1dac": "incidentCounter()",
		"a6c6a8f3": "incidents(uint256)",
		"7ae55994": "logEvidence(string,bytes32)",
		"47d6d3bf": "verifyEvidenceImmutability(uint256,bytes32)"
	},
	"gasEstimates": {
		"Creation": {
			"codeDepositCost": "1109200",
			"executionCost": "1152",
			"totalCost": "1110352"
		},
		"External": {
			"addIncident(string,string[],string[],string[],string[])": "infinite",
			"evidenceCounter()": "2491",
			"evidences(uint256)": "infinite",
			"getIncidentDetails(uint256)": "infinite",
			"incidentCounter()": "2470",
			"incidents(uint256)": "infinite",
			"logEvidence(string,bytes32)": "infinite",
			"verifyEvidenceImmutability(uint256,bytes32)": "infinite"
		}
	},
	"devdoc": {
		"kind": "dev",
		"methods": {},
		"version": 1
	},
	"userdoc": {
		"kind": "user",
		"methods": {},
		"version": 1
	},
	"Runtime Bytecode": {
		"immutableReferences": {},
		"linkReferences": {},
		"object": "608060405234801561000f575f80fd5b5060043610610086575f3560e01c8063776ca7a311610059578063776ca7a31461013e5780637ae559941461015a578063a6c6a8f314610176578063b87c1114146101a757610086565b80631e6420ee1461008a5780632e4546cd146100be5780633e9c1dac146100f057806347d6d3bf1461010e575b5f80fd5b6100a4600480360381019061009f9190610b27565b6101c5565b6040516100b5959493929190610cc5565b60405180910390f35b6100d860048036038101906100d39190610b27565b610601565b6040516100e793929190610d60565b60405180910390f35b6100f86106ad565b6040516101059190610d9c565b60405180910390f35b61012860048036038101906101239190610ddf565b6106b3565b6040516101359190610e37565b60405180910390f35b6101586004803603810190610153919061105e565b610786565b005b610174600480360381019061016f9190611161565b6108b4565b005b610190600480360381019061018b9190610b27565b610966565b60405161019e9291906111bb565b60405180910390f35b6101af610a0b565b6040516101bc9190610d9c565b60405180910390f35b60608060608060605f805f8881526020019081526020015f206040518060c00160405290815f820154815260200160018201805461020290611216565b80601f016020809104026020016040519081016040528092919081815260200182805461022e90611216565b80156102795780601f1061025057610100808354040283529160200191610279565b820191905f5260205f20905b81548152906001019060200180831161025c57829003601f168201915b5050505050815260200160028201805480602002602001604051908101604052809291908181526020015f905b8282101561034e578382905f5260205f200180546102c390611216565b80601f01602080910402602001604051908101604052809291908181526020018280546102ef90611216565b801561033a5780601f106103115761010080835404028352916020019161033a565b820191905f5260205f20905b81548152906001019060200180831161031d57829003601f168201915b5050505050815260200190600101906102a6565b50505050815260200160038201805480602002602001604051908101604052809291908181526020015f905b82821015610422578382905f5260205f2001805461039790611216565b80601f01602080910402602001604051908101604052809291908181526020018280546103c390611216565b801561040e5780601f106103e55761010080835404028352916020019161040e565b820191905f5260205f20905b8154815290600101906020018083116103f157829003601f168201915b50505050508152602001906001019061037a565b50505050815260200160048201805480602002602001604051908101604052809291908181526020015f905b828210156104f6578382905f5260205f2001805461046b90611216565b80601f016020809104026020016040519081016040528092919081815260200182805461049790611216565b80156104e25780601f106104b9576101008083540402835291602001916104e2565b820191905f5260205f20905b8154815290600101906020018083116104c557829003601f168201915b50505050508152602001906001019061044e565b50505050815260200160058201805480602002602001604051908101604052809291908181526020015f905b828210156105ca578382905f5260205f2001805461053f90611216565b80601f016020809104026020016040519081016040528092919081815260200182805461056b90611216565b80156105b65780601f1061058d576101008083540402835291602001916105b6565b820191905f5260205f20905b81548152906001019060200180831161059957829003601f168201915b505050505081526020019060010190610522565b5050505081525050905080602001518160400151826060015183608001518460a00151955095509550955095505091939590929450565b6001602052805f5260405f205f91509050805f01549080600101805461062690611216565b80601f016020809104026020016040519081016040528092919081815260200182805461065290611216565b801561069d5780601f106106745761010080835404028352916020019161069d565b820191905f5260205f20905b81548152906001019060200180831161068057829003601f168201915b5050505050908060020154905083565b60025481565b5f8060015f8581526020019081526020015f206040518060600160405290815f82015481526020016001820180546106ea90611216565b80601f016020809104026020016040519081016040528092919081815260200182805461071690611216565b80156107615780601f1061073857610100808354040283529160200191610761565b820191905f5260205f20905b81548152906001019060200180831161074457829003601f168201915b5050505050815260200160028201548152505090508281604001511491505092915050565b60025f81548092919061079890611273565b91905055506040518060c001604052806002548152602001868152602001858152602001848152602001838152602001828152505f8060025481526020019081526020015f205f820151815f015560208201518160010190816107fb9190611457565b506040820151816002019080519060200190610818929190610a11565b506060820151816003019080519060200190610835929190610a11565b506080820151816004019080519060200190610852929190610a11565b5060a082015181600501908051906020019061086f929190610a11565b509050506002547f6be4ae66eb7d09ba0add92d6741123be58053754d068232e838ee8831e9bcb0c866040516108a59190611526565b60405180910390a25050505050565b60035f8154809291906108c690611273565b9190505550604051806060016040528060035481526020018381526020018281525060015f60035481526020019081526020015f205f820151815f015560208201518160010190816109189190611457565b50604082015181600201559050506003547fcea05d33f0c94e28302d479a8d611f5902960b195fdb10aed229789daededbe9838360405161095a929190611546565b60405180910390a25050565b5f602052805f5260405f205f91509050805f01549080600101805461098a90611216565b80601f01602080910402602001604051908101604052809291908181526020018280546109b690611216565b8015610a015780601f106109d857610100808354040283529160200191610a01565b820191905f5260205f20905b8154815290600101906020018083116109e457829003601f168201915b5050505050905082565b60035481565b828054828255905f5260205f20908101928215610a57579160200282015b82811115610a56578251829081610a469190611457565b5091602001919060010190610a2f565b5b509050610a649190610a68565b5090565b5b80821115610a87575f8181610a7e9190610a8b565b50600101610a69565b5090565b508054610a9790611216565b5f825580601f10610aa85750610ac5565b601f0160209004905f5260205f2090810190610ac49190610ac8565b5b50565b5b80821115610adf575f815f905550600101610ac9565b5090565b5f604051905090565b5f80fd5b5f80fd5b5f819050919050565b610b0681610af4565b8114610b10575f80fd5b50565b5f81359050610b2181610afd565b92915050565b5f60208284031215610b3c57610b3b610aec565b5b5f610b4984828501610b13565b91505092915050565b5f81519050919050565b5f82825260208201905092915050565b8281835e5f83830152505050565b5f601f19601f8301169050919050565b5f610b9482610b52565b610b9e8185610b5c565b9350610bae818560208601610b6c565b610bb781610b7a565b840191505092915050565b5f81519050919050565b5f82825260208201905092915050565b5f819050602082019050919050565b5f82825260208201905092915050565b5f610c0582610b52565b610c0f8185610beb565b9350610c1f818560208601610b6c565b610c2881610b7a565b840191505092915050565b5f610c3e8383610bfb565b905092915050565b5f602082019050919050565b5f610c5c82610bc2565b610c668185610bcc565b935083602082028501610c7885610bdc565b805f5b85811015610cb35784840389528151610c948582610c33565b9450610c9f83610c46565b925060208a01995050600181019050610c7b565b50829750879550505050505092915050565b5f60a0820190508181035f830152610cdd8188610b8a565b90508181036020830152610cf18187610c52565b90508181036040830152610d058186610c52565b90508181036060830152610d198185610c52565b90508181036080830152610d2d8184610c52565b90509695505050505050565b610d4281610af4565b82525050565b5f819050919050565b610d5a81610d48565b82525050565b5f606082019050610d735f830186610d39565b8181036020830152610d858185610b8a565b9050610d946040830184610d51565b949350505050565b5f602082019050610daf5f830184610d39565b92915050565b610dbe81610d48565b8114610dc8575f80fd5b50565b5f81359050610dd981610db5565b92915050565b5f8060408385031215610df557610df4610aec565b5b5f610e0285828601610b13565b9250506020610e1385828601610dcb565b9150509250929050565b5f8115159050919050565b610e3181610e1d565b82525050565b5f602082019050610e4a5f830184610e28565b92915050565b5f80fd5b5f80fd5b7f4e487b71000000000000000000000000000000000000000000000000000000005f52604160045260245ffd5b610e8e82610b7a565b810181811067ffffffffffffffff82111715610ead57610eac610e58565b5b80604052505050565b5f610ebf610ae3565b9050610ecb8282610e85565b919050565b5f67ffffffffffffffff821115610eea57610ee9610e58565b5b610ef382610b7a565b9050602081019050919050565b828183375f83830152505050565b5f610f20610f1b84610ed0565b610eb6565b905082815260208101848484011115610f3c57610f3b610e54565b5b610f47848285610f00565b509392505050565b5f82601f830112610f6357610f62610e50565b5b8135610f73848260208601610f0e565b91505092915050565b5f67ffffffffffffffff821115610f9657610f95610e58565b5b602082029050602081019050919050565b5f80fd5b5f610fbd610fb884610f7c565b610eb6565b90508083825260208201905060208402830185811115610fe057610fdf610fa7565b5b835b8181101561102757803567ffffffffffffffff81111561100557611004610e50565b5b8086016110128982610f4f565b85526020850194505050602081019050610fe2565b5050509392505050565b5f82601f83011261104557611044610e50565b5b8135611055848260208601610fab565b91505092915050565b5f805f805f60a0868803121561107757611076610aec565b5b5f86013567ffffffffffffffff81111561109457611093610af0565b5b6110a088828901610f4f565b955050602086013567ffffffffffffffff8111156110c1576110c0610af0565b5b6110cd88828901611031565b945050604086013567ffffffffffffffff8111156110ee576110ed610af0565b5b6110fa88828901611031565b935050606086013567ffffffffffffffff81111561111b5761111a610af0565b5b61112788828901611031565b925050608086013567ffffffffffffffff81111561114857611147610af0565b5b61115488828901611031565b9150509295509295909350565b5f806040838503121561117757611176610aec565b5b5f83013567ffffffffffffffff81111561119457611193610af0565b5b6111a085828601610f4f565b92505060206111b185828601610dcb565b9150509250929050565b5f6040820190506111ce5f830185610d39565b81810360208301526111e08184610b8a565b90509392505050565b7f4e487b71000000000000000000000000000000000000000000000000000000005f52602260045260245ffd5b5f600282049050600182168061122d57607f821691505b6020821081036112405761123f6111e9565b5b50919050565b7f4e487b71000000000000000000000000000000000000000000000000000000005f52601160045260245ffd5b5f61127d82610af4565b91507fffffffffffffffffffffffffffffffffffffffffffffffffffffffffffffffff82036112af576112ae611246565b5b600182019050919050565b5f819050815f5260205f209050919050565b5f6020601f8301049050919050565b5f82821b905092915050565b5f600883026113167fffffffffffffffffffffffffffffffffffffffffffffffffffffffffffffffff826112db565b61132086836112db565b95508019841693508086168417925050509392505050565b5f819050919050565b5f61135b61135661135184610af4565b611338565b610af4565b9050919050565b5f819050919050565b61137483611341565b61138861138082611362565b8484546112e7565b825550505050565b5f90565b61139c611390565b6113a781848461136b565b505050565b5b818110156113ca576113bf5f82611394565b6001810190506113ad565b5050565b601f82111561140f576113e0816112ba565b6113e9846112cc565b810160208510156113f8578190505b61140c611404856112cc565b8301826113ac565b50505b505050565b5f82821c905092915050565b5f61142f5f1984600802611414565b1980831691505092915050565b5f6114478383611420565b9150826002028217905092915050565b61146082610b52565b67ffffffffffffffff81111561147957611478610e58565b5b6114838254611216565b61148e8282856113ce565b5f60209050601f8311600181146114bf575f84156114ad578287015190505b6114b7858261143c565b86555061151e565b601f1984166114cd866112ba565b5f5b828110156114f4578489015182556001820191506020850194506020810190506114cf565b86831015611511578489015161150d601f891682611420565b8355505b6001600288020188555050505b505050505050565b5f6020820190508181035f83015261153e8184610b8a565b905092915050565b5f6040820190508181035f83015261155e8185610b8a565b905061156d6020830184610d51565b939250505056fea26469706673582212206588dceb5bba73263c68870368f4ed92074c8cc842a579bb3de2fc177dacfba764736f6c634300081a0033",
		"opcodes": "PUSH1 0x80 PUSH1 0x40 MSTORE CALLVALUE DUP1 ISZERO PUSH2 0xF JUMPI PUSH0 DUP1 REVERT JUMPDEST POP PUSH1 0x4 CALLDATASIZE LT PUSH2 0x86 JUMPI PUSH0 CALLDATALOAD PUSH1 0xE0 SHR DUP1 PUSH4 0x776CA7A3 GT PUSH2 0x59 JUMPI DUP1 PUSH4 0x776CA7A3 EQ PUSH2 0x13E JUMPI DUP1 PUSH4 0x7AE55994 EQ PUSH2 0x15A JUMPI DUP1 PUSH4 0xA6C6A8F3 EQ PUSH2 0x176 JUMPI DUP1 PUSH4 0xB87C1114 EQ PUSH2 0x1A7 JUMPI PUSH2 0x86 JUMP JUMPDEST DUP1 PUSH4 0x1E6420EE EQ PUSH2 0x8A JUMPI DUP1 PUSH4 0x2E4546CD EQ PUSH2 0xBE JUMPI DUP1 PUSH4 0x3E9C1DAC EQ PUSH2 0xF0 JUMPI DUP1 PUSH4 0x47D6D3BF EQ PUSH2 0x10E JUMPI JUMPDEST PUSH0 DUP1 REVERT JUMPDEST PUSH2 0xA4 PUSH1 0x4 DUP1 CALLDATASIZE SUB DUP2 ADD SWAP1 PUSH2 0x9F SWAP2 SWAP1 PUSH2 0xB27 JUMP JUMPDEST PUSH2 0x1C5 JUMP JUMPDEST PUSH1 0x40 MLOAD PUSH2 0xB5 SWAP6 SWAP5 SWAP4 SWAP3 SWAP2 SWAP1 PUSH2 0xCC5 JUMP JUMPDEST PUSH1 0x40 MLOAD DUP1 SWAP2 SUB SWAP1 RETURN JUMPDEST PUSH2 0xD8 PUSH1 0x4 DUP1 CALLDATASIZE SUB DUP2 ADD SWAP1 PUSH2 0xD3 SWAP2 SWAP1 PUSH2 0xB27 JUMP JUMPDEST PUSH2 0x601 JUMP JUMPDEST PUSH1 0x40 MLOAD PUSH2 0xE7 SWAP4 SWAP3 SWAP2 SWAP1 PUSH2 0xD60 JUMP JUMPDEST PUSH1 0x40 MLOAD DUP1 SWAP2 SUB SWAP1 RETURN JUMPDEST PUSH2 0xF8 PUSH2 0x6AD JUMP JUMPDEST PUSH1 0x40 MLOAD PUSH2 0x105 SWAP2 SWAP1 PUSH2 0xD9C JUMP JUMPDEST PUSH1 0x40 MLOAD DUP1 SWAP2 SUB SWAP1 RETURN JUMPDEST PUSH2 0x128 PUSH1 0x4 DUP1 CALLDATASIZE SUB DUP2 ADD SWAP1 PUSH2 0x123 SWAP2 SWAP1 PUSH2 0xDDF JUMP JUMPDEST PUSH2 0x6B3 JUMP JUMPDEST PUSH1 0x40 MLOAD PUSH2 0x135 SWAP2 SWAP1 PUSH2 0xE37 JUMP JUMPDEST PUSH1 0x40 MLOAD DUP1 SWAP2 SUB SWAP1 RETURN JUMPDEST PUSH2 0x158 PUSH1 0x4 DUP1 CALLDATASIZE SUB DUP2 ADD SWAP1 PUSH2 0x153 SWAP2 SWAP1 PUSH2 0x105E JUMP JUMPDEST PUSH2 0x786 JUMP JUMPDEST STOP JUMPDEST PUSH2 0x174 PUSH1 0x4 DUP1 CALLDATASIZE SUB DUP2 ADD SWAP1 PUSH2 0x16F SWAP2 SWAP1 PUSH2 0x1161 JUMP JUMPDEST PUSH2 0x8B4 JUMP JUMPDEST STOP JUMPDEST PUSH2 0x190 PUSH1 0x4 DUP1 CALLDATASIZE SUB DUP2 ADD SWAP1 PUSH2 0x18B SWAP2 SWAP1 PUSH2 0xB27 JUMP JUMPDEST PUSH2 0x966 JUMP JUMPDEST PUSH1 0x40 MLOAD PUSH2 0x19E SWAP3 SWAP2 SWAP1 PUSH2 0x11BB JUMP JUMPDEST PUSH1 0x40 MLOAD DUP1 SWAP2 SUB SWAP1 RETURN JUMPDEST PUSH2 0x1AF PUSH2 0xA0B JUMP JUMPDEST PUSH1 0x40 MLOAD PUSH2 0x1BC SWAP2 SWAP1 PUSH2 0xD9C JUMP JUMPDEST PUSH1 0x40 MLOAD DUP1 SWAP2 SUB SWAP1 RETURN JUMPDEST PUSH1 0x60 DUP1 PUSH1 0x60 DUP1 PUSH1 0x60 PUSH0 DUP1 PUSH0 DUP9 DUP2 MSTORE PUSH1 0x20 ADD SWAP1 DUP2 MSTORE PUSH1 0x20 ADD PUSH0 KECCAK256 PUSH1 0x40 MLOAD DUP1 PUSH1 0xC0 ADD PUSH1 0x40 MSTORE SWAP1 DUP2 PUSH0 DUP3 ADD SLOAD DUP2 MSTORE PUSH1 0x20 ADD PUSH1 0x1 DUP3 ADD DUP1 SLOAD PUSH2 0x202 SWAP1 PUSH2 0x1216 JUMP JUMPDEST DUP1 PUSH1 0x1F ADD PUSH1 0x20 DUP1 SWAP2 DIV MUL PUSH1 0x20 ADD PUSH1 0x40 MLOAD SWAP1 DUP2 ADD PUSH1 0x40 MSTORE DUP1 SWAP3 SWAP2 SWAP1 DUP2 DUP2 MSTORE PUSH1 0x20 ADD DUP3 DUP1 SLOAD PUSH2 0x22E SWAP1 PUSH2 0x1216 JUMP JUMPDEST DUP1 ISZERO PUSH2 0x279 JUMPI DUP1 PUSH1 0x1F LT PUSH2 0x250 JUMPI PUSH2 0x100 DUP1 DUP4 SLOAD DIV MUL DUP4 MSTORE SWAP2 PUSH1 0x20 ADD SWAP2 PUSH2 0x279 JUMP JUMPDEST DUP3 ADD SWAP2 SWAP1 PUSH0 MSTORE PUSH1 0x20 PUSH0 KECCAK256 SWAP1 JUMPDEST DUP2 SLOAD DUP2 MSTORE SWAP1 PUSH1 0x1 ADD SWAP1 PUSH1 0x20 ADD DUP1 DUP4 GT PUSH2 0x25C JUMPI DUP3 SWAP1 SUB PUSH1 0x1F AND DUP3 ADD SWAP2 JUMPDEST POP POP POP POP POP DUP2 MSTORE PUSH1 0x20 ADD PUSH1 0x2 DUP3 ADD DUP1 SLOAD DUP1 PUSH1 0x20 MUL PUSH1 0x20 ADD PUSH1 0x40 MLOAD SWAP1 DUP2 ADD PUSH1 0x40 MSTORE DUP1 SWAP3 SWAP2 SWAP1 DUP2 DUP2 MSTORE PUSH1 0x20 ADD PUSH0 SWAP1 JUMPDEST DUP3 DUP3 LT ISZERO PUSH2 0x34E JUMPI DUP4 DUP3 SWAP1 PUSH0 MSTORE PUSH1 0x20 PUSH0 KECCAK256 ADD DUP1 SLOAD PUSH2 0x2C3 SWAP1 PUSH2 0x1216 JUMP JUMPDEST DUP1 PUSH1 0x1F ADD PUSH1 0x20 DUP1 SWAP2 DIV MUL PUSH1 0x20 ADD PUSH1 0x40 MLOAD SWAP1 DUP2 ADD PUSH1 0x40 MSTORE DUP1 SWAP3 SWAP2 SWAP1 DUP2 DUP2 MSTORE PUSH1 0x20 ADD DUP3 DUP1 SLOAD PUSH2 0x2EF SWAP1 PUSH2 0x1216 JUMP JUMPDEST DUP1 ISZERO PUSH2 0x33A JUMPI DUP1 PUSH1 0x1F LT PUSH2 0x311 JUMPI PUSH2 0x100 DUP1 DUP4 SLOAD DIV MUL DUP4 MSTORE SWAP2 PUSH1 0x20 ADD SWAP2 PUSH2 0x33A JUMP JUMPDEST DUP3 ADD SWAP2 SWAP1 PUSH0 MSTORE PUSH1 0x20 PUSH0 KECCAK256 SWAP1 JUMPDEST DUP2 SLOAD DUP2 MSTORE SWAP1 PUSH1 0x1 ADD SWAP1 PUSH1 0x20 ADD DUP1 DUP4 GT PUSH2 0x31D JUMPI DUP3 SWAP1 SUB PUSH1 0x1F AND DUP3 ADD SWAP2 JUMPDEST POP POP POP POP POP DUP2 MSTORE PUSH1 0x20 ADD SWAP1 PUSH1 0x1 ADD SWAP1 PUSH2 0x2A6 JUMP JUMPDEST POP POP POP POP DUP2 MSTORE PUSH1 0x20 ADD PUSH1 0x3 DUP3 ADD DUP1 SLOAD DUP1 PUSH1 0x20 MUL PUSH1 0x20 ADD PUSH1 0x40 MLOAD SWAP1 DUP2 ADD PUSH1 0x40 MSTORE DUP1 SWAP3 SWAP2 SWAP1 DUP2 DUP2 MSTORE PUSH1 0x20 ADD PUSH0 SWAP1 JUMPDEST DUP3 DUP3 LT ISZERO PUSH2 0x422 JUMPI DUP4 DUP3 SWAP1 PUSH0 MSTORE PUSH1 0x20 PUSH0 KECCAK256 ADD DUP1 SLOAD PUSH2 0x397 SWAP1 PUSH2 0x1216 JUMP JUMPDEST DUP1 PUSH1 0x1F ADD PUSH1 0x20 DUP1 SWAP2 DIV MUL PUSH1 0x20 ADD PUSH1 0x40 MLOAD SWAP1 DUP2 ADD PUSH1 0x40 MSTORE DUP1 SWAP3 SWAP2 SWAP1 DUP2 DUP2 MSTORE PUSH1 0x20 ADD DUP3 DUP1 SLOAD PUSH2 0x3C3 SWAP1 PUSH2 0x1216 JUMP JUMPDEST DUP1 ISZERO PUSH2 0x40E JUMPI DUP1 PUSH1 0x1F LT PUSH2 0x3E5 JUMPI PUSH2 0x100 DUP1 DUP4 SLOAD DIV MUL DUP4 MSTORE SWAP2 PUSH1 0x20 ADD SWAP2 PUSH2 0x40E JUMP JUMPDEST DUP3 ADD SWAP2 SWAP1 PUSH0 MSTORE PUSH1 0x20 PUSH0 KECCAK256 SWAP1 JUMPDEST DUP2 SLOAD DUP2 MSTORE SWAP1 PUSH1 0x1 ADD SWAP1 PUSH1 0x20 ADD DUP1 DUP4 GT PUSH2 0x3F1 JUMPI DUP3 SWAP1 SUB PUSH1 0x1F AND DUP3 ADD SWAP2 JUMPDEST POP POP POP POP POP DUP2 MSTORE PUSH1 0x20 ADD SWAP1 PUSH1 0x1 ADD SWAP1 PUSH2 0x37A JUMP JUMPDEST POP POP POP POP DUP2 MSTORE PUSH1 0x20 ADD PUSH1 0x4 DUP3 ADD DUP1 SLOAD DUP1 PUSH1 0x20 MUL PUSH1 0x20 ADD PUSH1 0x40 MLOAD SWAP1 DUP2 ADD PUSH1 0x40 MSTORE DUP1 SWAP3 SWAP2 SWAP1 DUP2 DUP2 MSTORE PUSH1 0x20 ADD PUSH0 SWAP1 JUMPDEST DUP3 DUP3 LT ISZERO PUSH2 0x4F6 JUMPI DUP4 DUP3 SWAP1 PUSH0 MSTORE PUSH1 0x20 PUSH0 KECCAK256 ADD DUP1 SLOAD PUSH2 0x46B SWAP1 PUSH2 0x1216 JUMP JUMPDEST DUP1 PUSH1 0x1F ADD PUSH1 0x20 DUP1 SWAP2 DIV MUL PUSH1 0x20 ADD PUSH1 0x40 MLOAD SWAP1 DUP2 ADD PUSH1 0x40 MSTORE DUP1 SWAP3 SWAP2 SWAP1 DUP2 DUP2 MSTORE PUSH1 0x20 ADD DUP3 DUP1 SLOAD PUSH2 0x497 SWAP1 PUSH2 0x1216 JUMP JUMPDEST DUP1 ISZERO PUSH2 0x4E2 JUMPI DUP1 PUSH1 0x1F LT PUSH2 0x4B9 JUMPI PUSH2 0x100 DUP1 DUP4 SLOAD DIV MUL DUP4 MSTORE SWAP2 PUSH1 0x20 ADD SWAP2 PUSH2 0x4E2 JUMP JUMPDEST DUP3 ADD SWAP2 SWAP1 PUSH0 MSTORE PUSH1 0x20 PUSH0 KECCAK256 SWAP1 JUMPDEST DUP2 SLOAD DUP2 MSTORE SWAP1 PUSH1 0x1 ADD SWAP1 PUSH1 0x20 ADD DUP1 DUP4 GT PUSH2 0x4C5 JUMPI DUP3 SWAP1 SUB PUSH1 0x1F AND DUP3 ADD SWAP2 JUMPDEST POP POP POP POP POP DUP2 MSTORE PUSH1 0x20 ADD SWAP1 PUSH1 0x1 ADD SWAP1 PUSH2 0x44E JUMP JUMPDEST POP POP POP POP DUP2 MSTORE PUSH1 0x20 ADD PUSH1 0x5 DUP3 ADD DUP1 SLOAD DUP1 PUSH1 0x20 MUL PUSH1 0x20 ADD PUSH1 0x40 MLOAD SWAP1 DUP2 ADD PUSH1 0x40 MSTORE DUP1 SWAP3 SWAP2 SWAP1 DUP2 DUP2 MSTORE PUSH1 0x20 ADD PUSH0 SWAP1 JUMPDEST DUP3 DUP3 LT ISZERO PUSH2 0x5CA JUMPI DUP4 DUP3 SWAP1 PUSH0 MSTORE PUSH1 0x20 PUSH0 KECCAK256 ADD DUP1 SLOAD PUSH2 0x53F SWAP1 PUSH2 0x1216 JUMP JUMPDEST DUP1 PUSH1 0x1F ADD PUSH1 0x20 DUP1 SWAP2 DIV MUL PUSH1 0x20 ADD PUSH1 0x40 MLOAD SWAP1 DUP2 ADD PUSH1 0x40 MSTORE DUP1 SWAP3 SWAP2 SWAP1 DUP2 DUP2 MSTORE PUSH1 0x20 ADD DUP3 DUP1 SLOAD PUSH2 0x56B SWAP1 PUSH2 0x1216 JUMP JUMPDEST DUP1 ISZERO PUSH2 0x5B6 JUMPI DUP1 PUSH1 0x1F LT PUSH2 0x58D JUMPI PUSH2 0x100 DUP1 DUP4 SLOAD DIV MUL DUP4 MSTORE SWAP2 PUSH1 0x20 ADD SWAP2 PUSH2 0x5B6 JUMP JUMPDEST DUP3 ADD SWAP2 SWAP1 PUSH0 MSTORE PUSH1 0x20 PUSH0 KECCAK256 SWAP1 JUMPDEST DUP2 SLOAD DUP2 MSTORE SWAP1 PUSH1 0x1 ADD SWAP1 PUSH1 0x20 ADD DUP1 DUP4 GT PUSH2 0x599 JUMPI DUP3 SWAP1 SUB PUSH1 0x1F AND DUP3 ADD SWAP2 JUMPDEST POP POP POP POP POP DUP2 MSTORE PUSH1 0x20 ADD SWAP1 PUSH1 0x1 ADD SWAP1 PUSH2 0x522 JUMP JUMPDEST POP POP POP POP DUP2 MSTORE POP POP SWAP1 POP DUP1 PUSH1 0x20 ADD MLOAD DUP2 PUSH1 0x40 ADD MLOAD DUP3 PUSH1 0x60 ADD MLOAD DUP4 PUSH1 0x80 ADD MLOAD DUP5 PUSH1 0xA0 ADD MLOAD SWAP6 POP SWAP6 POP SWAP6 POP SWAP6 POP SWAP6 POP POP SWAP2 SWAP4 SWAP6 SWAP1 SWAP3 SWAP5 POP JUMP JUMPDEST PUSH1 0x1 PUSH1 0x20 MSTORE DUP1 PUSH0 MSTORE PUSH1 0x40 PUSH0 KECCAK256 PUSH0 SWAP2 POP SWAP1 POP DUP1 PUSH0 ADD SLOAD SWAP1 DUP1 PUSH1 0x1 ADD DUP1 SLOAD PUSH2 0x626 SWAP1 PUSH2 0x1216 JUMP JUMPDEST DUP1 PUSH1 0x1F ADD PUSH1 0x20 DUP1 SWAP2 DIV MUL PUSH1 0x20 ADD PUSH1 0x40 MLOAD SWAP1 DUP2 ADD PUSH1 0x40 MSTORE DUP1 SWAP3 SWAP2 SWAP1 DUP2 DUP2 MSTORE PUSH1 0x20 ADD DUP3 DUP1 SLOAD PUSH2 0x652 SWAP1 PUSH2 0x1216 JUMP JUMPDEST DUP1 ISZERO PUSH2 0x69D JUMPI DUP1 PUSH1 0x1F LT PUSH2 0x674 JUMPI PUSH2 0x100 DUP1 DUP4 SLOAD DIV MUL DUP4 MSTORE SWAP2 PUSH1 0x20 ADD SWAP2 PUSH2 0x69D JUMP JUMPDEST DUP3 ADD SWAP2 SWAP1 PUSH0 MSTORE PUSH1 0x20 PUSH0 KECCAK256 SWAP1 JUMPDEST DUP2 SLOAD DUP2 MSTORE SWAP1 PUSH1 0x1 ADD SWAP1 PUSH1 0x20 ADD DUP1 DUP4 GT PUSH2 0x680 JUMPI DUP3 SWAP1 SUB PUSH1 0x1F AND DUP3 ADD SWAP2 JUMPDEST POP POP POP POP POP SWAP1 DUP1 PUSH1 0x2 ADD SLOAD SWAP1 POP DUP4 JUMP JUMPDEST PUSH1 0x2 SLOAD DUP2 JUMP JUMPDEST PUSH0 DUP1 PUSH1 0x1 PUSH0 DUP6 DUP2 MSTORE PUSH1 0x20 ADD SWAP1 DUP2 MSTORE PUSH1 0x20 ADD PUSH0 KECCAK256 PUSH1 0x40 MLOAD DUP1 PUSH1 0x60 ADD PUSH1 0x40 MSTORE SWAP1 DUP2 PUSH0 DUP3 ADD SLOAD DUP2 MSTORE PUSH1 0x20 ADD PUSH1 0x1 DUP3 ADD DUP1 SLOAD PUSH2 0x6EA SWAP1 PUSH2 0x1216 JUMP JUMPDEST DUP1 PUSH1 0x1F ADD PUSH1 0x20 DUP1 SWAP2 DIV MUL PUSH1 0x20 ADD PUSH1 0x40 MLOAD SWAP1 DUP2 ADD PUSH1 0x40 MSTORE DUP1 SWAP3 SWAP2 SWAP1 DUP2 DUP2 MSTORE PUSH1 0x20 ADD DUP3 DUP1 SLOAD PUSH2 0x716 SWAP1 PUSH2 0x1216 JUMP JUMPDEST DUP1 ISZERO PUSH2 0x761 JUMPI DUP1 PUSH1 0x1F LT PUSH2 0x738 JUMPI PUSH2 0x100 DUP1 DUP4 SLOAD DIV MUL DUP4 MSTORE SWAP2 PUSH1 0x20 ADD SWAP2 PUSH2 0x761 JUMP JUMPDEST DUP3 ADD SWAP2 SWAP1 PUSH0 MSTORE PUSH1 0x20 PUSH0 KECCAK256 SWAP1 JUMPDEST DUP2 SLOAD DUP2 MSTORE SWAP1 PUSH1 0x1 ADD SWAP1 PUSH1 0x20 ADD DUP1 DUP4 GT PUSH2 0x744 JUMPI DUP3 SWAP1 SUB PUSH1 0x1F AND DUP3 ADD SWAP2 JUMPDEST POP POP POP POP POP DUP2 MSTORE PUSH1 0x20 ADD PUSH1 0x2 DUP3 ADD SLOAD DUP2 MSTORE POP POP SWAP1 POP DUP3 DUP2 PUSH1 0x40 ADD MLOAD EQ SWAP2 POP POP SWAP3 SWAP2 POP POP JUMP JUMPDEST PUSH1 0x2 PUSH0 DUP2 SLOAD DUP1 SWAP3 SWAP2 SWAP1 PUSH2 0x798 SWAP1 PUSH2 0x1273 JUMP JUMPDEST SWAP2 SWAP1 POP SSTORE POP PUSH1 0x40 MLOAD DUP1 PUSH1 0xC0 ADD PUSH1 0x40 MSTORE DUP1 PUSH1 0x2 SLOAD DUP2 MSTORE PUSH1 0x20 ADD DUP7 DUP2 MSTORE PUSH1 0x20 ADD DUP6 DUP2 MSTORE PUSH1 0x20 ADD DUP5 DUP2 MSTORE PUSH1 0x20 ADD DUP4 DUP2 MSTORE PUSH1 0x20 ADD DUP3 DUP2 MSTORE POP PUSH0 DUP1 PUSH1 0x2 SLOAD DUP2 MSTORE PUSH1 0x20 ADD SWAP1 DUP2 MSTORE PUSH1 0x20 ADD PUSH0 KECCAK256 PUSH0 DUP3 ADD MLOAD DUP2 PUSH0 ADD SSTORE PUSH1 0x20 DUP3 ADD MLOAD DUP2 PUSH1 0x1 ADD SWAP1 DUP2 PUSH2 0x7FB SWAP2 SWAP1 PUSH2 0x1457 JUMP JUMPDEST POP PUSH1 0x40 DUP3 ADD MLOAD DUP2 PUSH1 0x2 ADD SWAP1 DUP1 MLOAD SWAP1 PUSH1 0x20 ADD SWAP1 PUSH2 0x818 SWAP3 SWAP2 SWAP1 PUSH2 0xA11 JUMP JUMPDEST POP PUSH1 0x60 DUP3 ADD MLOAD DUP2 PUSH1 0x3 ADD SWAP1 DUP1 MLOAD SWAP1 PUSH1 0x20 ADD SWAP1 PUSH2 0x835 SWAP3 SWAP2 SWAP1 PUSH2 0xA11 JUMP JUMPDEST POP PUSH1 0x80 DUP3 ADD MLOAD DUP2 PUSH1 0x4 ADD SWAP1 DUP1 MLOAD SWAP1 PUSH1 0x20 ADD SWAP1 PUSH2 0x852 SWAP3 SWAP2 SWAP1 PUSH2 0xA11 JUMP JUMPDEST POP PUSH1 0xA0 DUP3 ADD MLOAD DUP2 PUSH1 0x5 ADD SWAP1 DUP1 MLOAD SWAP1 PUSH1 0x20 ADD SWAP1 PUSH2 0x86F SWAP3 SWAP2 SWAP1 PUSH2 0xA11 JUMP JUMPDEST POP SWAP1 POP POP PUSH1 0x2 SLOAD PUSH32 0x6BE4AE66EB7D09BA0ADD92D6741123BE58053754D068232E838EE8831E9BCB0C DUP7 PUSH1 0x40 MLOAD PUSH2 0x8A5 SWAP2 SWAP1 PUSH2 0x1526 JUMP JUMPDEST PUSH1 0x40 MLOAD DUP1 SWAP2 SUB SWAP1 LOG2 POP POP POP POP POP JUMP JUMPDEST PUSH1 0x3 PUSH0 DUP2 SLOAD DUP1 SWAP3 SWAP2 SWAP1 PUSH2 0x8C6 SWAP1 PUSH2 0x1273 JUMP JUMPDEST SWAP2 SWAP1 POP SSTORE POP PUSH1 0x40 MLOAD DUP1 PUSH1 0x60 ADD PUSH1 0x40 MSTORE DUP1 PUSH1 0x3 SLOAD DUP2 MSTORE PUSH1 0x20 ADD DUP4 DUP2 MSTORE PUSH1 0x20 ADD DUP3 DUP2 MSTORE POP PUSH1 0x1 PUSH0 PUSH1 0x3 SLOAD DUP2 MSTORE PUSH1 0x20 ADD SWAP1 DUP2 MSTORE PUSH1 0x20 ADD PUSH0 KECCAK256 PUSH0 DUP3 ADD MLOAD DUP2 PUSH0 ADD SSTORE PUSH1 0x20 DUP3 ADD MLOAD DUP2 PUSH1 0x1 ADD SWAP1 DUP2 PUSH2 0x918 SWAP2 SWAP1 PUSH2 0x1457 JUMP JUMPDEST POP PUSH1 0x40 DUP3 ADD MLOAD DUP2 PUSH1 0x2 ADD SSTORE SWAP1 POP POP PUSH1 0x3 SLOAD PUSH32 0xCEA05D33F0C94E28302D479A8D611F5902960B195FDB10AED229789DAEDEDBE9 DUP4 DUP4 PUSH1 0x40 MLOAD PUSH2 0x95A SWAP3 SWAP2 SWAP1 PUSH2 0x1546 JUMP JUMPDEST PUSH1 0x40 MLOAD DUP1 SWAP2 SUB SWAP1 LOG2 POP POP JUMP JUMPDEST PUSH0 PUSH1 0x20 MSTORE DUP1 PUSH0 MSTORE PUSH1 0x40 PUSH0 KECCAK256 PUSH0 SWAP2 POP SWAP1 POP DUP1 PUSH0 ADD SLOAD SWAP1 DUP1 PUSH1 0x1 ADD DUP1 SLOAD PUSH2 0x98A SWAP1 PUSH2 0x1216 JUMP JUMPDEST DUP1 PUSH1 0x1F ADD PUSH1 0x20 DUP1 SWAP2 DIV MUL PUSH1 0x20 ADD PUSH1 0x40 MLOAD SWAP1 DUP2 ADD PUSH1 0x40 MSTORE DUP1 SWAP3 SWAP2 SWAP1 DUP2 DUP2 MSTORE PUSH1 0x20 ADD DUP3 DUP1 SLOAD PUSH2 0x9B6 SWAP1 PUSH2 0x1216 JUMP JUMPDEST DUP1 ISZERO PUSH2 0xA01 JUMPI DUP1 PUSH1 0x1F LT PUSH2 0x9D8 JUMPI PUSH2 0x100 DUP1 DUP4 SLOAD DIV MUL DUP4 MSTORE SWAP2 PUSH1 0x20 ADD SWAP2 PUSH2 0xA01 JUMP JUMPDEST DUP3 ADD SWAP2 SWAP1 PUSH0 MSTORE PUSH1 0x20 PUSH0 KECCAK256 SWAP1 JUMPDEST DUP2 SLOAD DUP2 MSTORE SWAP1 PUSH1 0x1 ADD SWAP1 PUSH1 0x20 ADD DUP1 DUP4 GT PUSH2 0x9E4 JUMPI DUP3 SWAP1 SUB PUSH1 0x1F AND DUP3 ADD SWAP2 JUMPDEST POP POP POP POP POP SWAP1 POP DUP3 JUMP JUMPDEST PUSH1 0x3 SLOAD DUP2 JUMP JUMPDEST DUP3 DUP1 SLOAD DUP3 DUP3 SSTORE SWAP1 PUSH0 MSTORE PUSH1 0x20 PUSH0 KECCAK256 SWAP1 DUP2 ADD SWAP3 DUP3 ISZERO PUSH2 0xA57 JUMPI SWAP2 PUSH1 0x20 MUL DUP3 ADD JUMPDEST DUP3 DUP2 GT ISZERO PUSH2 0xA56 JUMPI DUP3 MLOAD DUP3 SWAP1 DUP2 PUSH2 0xA46 SWAP2 SWAP1 PUSH2 0x1457 JUMP JUMPDEST POP SWAP2 PUSH1 0x20 ADD SWAP2 SWAP1 PUSH1 0x1 ADD SWAP1 PUSH2 0xA2F JUMP JUMPDEST JUMPDEST POP SWAP1 POP PUSH2 0xA64 SWAP2 SWAP1 PUSH2 0xA68 JUMP JUMPDEST POP SWAP1 JUMP JUMPDEST JUMPDEST DUP1 DUP3 GT ISZERO PUSH2 0xA87 JUMPI PUSH0 DUP2 DUP2 PUSH2 0xA7E SWAP2 SWAP1 PUSH2 0xA8B JUMP JUMPDEST POP PUSH1 0x1 ADD PUSH2 0xA69 JUMP JUMPDEST POP SWAP1 JUMP JUMPDEST POP DUP1 SLOAD PUSH2 0xA97 SWAP1 PUSH2 0x1216 JUMP JUMPDEST PUSH0 DUP3 SSTORE DUP1 PUSH1 0x1F LT PUSH2 0xAA8 JUMPI POP PUSH2 0xAC5 JUMP JUMPDEST PUSH1 0x1F ADD PUSH1 0x20 SWAP1 DIV SWAP1 PUSH0 MSTORE PUSH1 0x20 PUSH0 KECCAK256 SWAP1 DUP2 ADD SWAP1 PUSH2 0xAC4 SWAP2 SWAP1 PUSH2 0xAC8 JUMP JUMPDEST JUMPDEST POP JUMP JUMPDEST JUMPDEST DUP1 DUP3 GT ISZERO PUSH2 0xADF JUMPI PUSH0 DUP2 PUSH0 SWAP1 SSTORE POP PUSH1 0x1 ADD PUSH2 0xAC9 JUMP JUMPDEST POP SWAP1 JUMP JUMPDEST PUSH0 PUSH1 0x40 MLOAD SWAP1 POP SWAP1 JUMP JUMPDEST PUSH0 DUP1 REVERT JUMPDEST PUSH0 DUP1 REVERT JUMPDEST PUSH0 DUP2 SWAP1 POP SWAP2 SWAP1 POP JUMP JUMPDEST PUSH2 0xB06 DUP2 PUSH2 0xAF4 JUMP JUMPDEST DUP2 EQ PUSH2 0xB10 JUMPI PUSH0 DUP1 REVERT JUMPDEST POP JUMP JUMPDEST PUSH0 DUP2 CALLDATALOAD SWAP1 POP PUSH2 0xB21 DUP2 PUSH2 0xAFD JUMP JUMPDEST SWAP3 SWAP2 POP POP JUMP JUMPDEST PUSH0 PUSH1 0x20 DUP3 DUP5 SUB SLT ISZERO PUSH2 0xB3C JUMPI PUSH2 0xB3B PUSH2 0xAEC JUMP JUMPDEST JUMPDEST PUSH0 PUSH2 0xB49 DUP5 DUP3 DUP6 ADD PUSH2 0xB13 JUMP JUMPDEST SWAP2 POP POP SWAP3 SWAP2 POP POP JUMP JUMPDEST PUSH0 DUP2 MLOAD SWAP1 POP SWAP2 SWAP1 POP JUMP JUMPDEST PUSH0 DUP3 DUP3 MSTORE PUSH1 0x20 DUP3 ADD SWAP1 POP SWAP3 SWAP2 POP POP JUMP JUMPDEST DUP3 DUP2 DUP4 MCOPY PUSH0 DUP4 DUP4 ADD MSTORE POP POP POP JUMP JUMPDEST PUSH0 PUSH1 0x1F NOT PUSH1 0x1F DUP4 ADD AND SWAP1 POP SWAP2 SWAP1 POP JUMP JUMPDEST PUSH0 PUSH2 0xB94 DUP3 PUSH2 0xB52 JUMP JUMPDEST PUSH2 0xB9E DUP2 DUP6 PUSH2 0xB5C JUMP JUMPDEST SWAP4 POP PUSH2 0xBAE DUP2 DUP6 PUSH1 0x20 DUP7 ADD PUSH2 0xB6C JUMP JUMPDEST PUSH2 0xBB7 DUP2 PUSH2 0xB7A JUMP JUMPDEST DUP5 ADD SWAP2 POP POP SWAP3 SWAP2 POP POP JUMP JUMPDEST PUSH0 DUP2 MLOAD SWAP1 POP SWAP2 SWAP1 POP JUMP JUMPDEST PUSH0 DUP3 DUP3 MSTORE PUSH1 0x20 DUP3 ADD SWAP1 POP SWAP3 SWAP2 POP POP JUMP JUMPDEST PUSH0 DUP2 SWAP1 POP PUSH1 0x20 DUP3 ADD SWAP1 POP SWAP2 SWAP1 POP JUMP JUMPDEST PUSH0 DUP3 DUP3 MSTORE PUSH1 0x20 DUP3 ADD SWAP1 POP SWAP3 SWAP2 POP POP JUMP JUMPDEST PUSH0 PUSH2 0xC05 DUP3 PUSH2 0xB52 JUMP JUMPDEST PUSH2 0xC0F DUP2 DUP6 PUSH2 0xBEB JUMP JUMPDEST SWAP4 POP PUSH2 0xC1F DUP2 DUP6 PUSH1 0x20 DUP7 ADD PUSH2 0xB6C JUMP JUMPDEST PUSH2 0xC28 DUP2 PUSH2 0xB7A JUMP JUMPDEST DUP5 ADD SWAP2 POP POP SWAP3 SWAP2 POP POP JUMP JUMPDEST PUSH0 PUSH2 0xC3E DUP4 DUP4 PUSH2 0xBFB JUMP JUMPDEST SWAP1 POP SWAP3 SWAP2 POP POP JUMP JUMPDEST PUSH0 PUSH1 0x20 DUP3 ADD SWAP1 POP SWAP2 SWAP1 POP JUMP JUMPDEST PUSH0 PUSH2 0xC5C DUP3 PUSH2 0xBC2 JUMP JUMPDEST PUSH2 0xC66 DUP2 DUP6 PUSH2 0xBCC JUMP JUMPDEST SWAP4 POP DUP4 PUSH1 0x20 DUP3 MUL DUP6 ADD PUSH2 0xC78 DUP6 PUSH2 0xBDC JUMP JUMPDEST DUP1 PUSH0 JUMPDEST DUP6 DUP2 LT ISZERO PUSH2 0xCB3 JUMPI DUP5 DUP5 SUB DUP10 MSTORE DUP2 MLOAD PUSH2 0xC94 DUP6 DUP3 PUSH2 0xC33 JUMP JUMPDEST SWAP5 POP PUSH2 0xC9F DUP4 PUSH2 0xC46 JUMP JUMPDEST SWAP3 POP PUSH1 0x20 DUP11 ADD SWAP10 POP POP PUSH1 0x1 DUP2 ADD SWAP1 POP PUSH2 0xC7B JUMP JUMPDEST POP DUP3 SWAP8 POP DUP8 SWAP6 POP POP POP POP POP POP SWAP3 SWAP2 POP POP JUMP JUMPDEST PUSH0 PUSH1 0xA0 DUP3 ADD SWAP1 POP DUP2 DUP2 SUB PUSH0 DUP4 ADD MSTORE PUSH2 0xCDD DUP2 DUP9 PUSH2 0xB8A JUMP JUMPDEST SWAP1 POP DUP2 DUP2 SUB PUSH1 0x20 DUP4 ADD MSTORE PUSH2 0xCF1 DUP2 DUP8 PUSH2 0xC52 JUMP JUMPDEST SWAP1 POP DUP2 DUP2 SUB PUSH1 0x40 DUP4 ADD MSTORE PUSH2 0xD05 DUP2 DUP7 PUSH2 0xC52 JUMP JUMPDEST SWAP1 POP DUP2 DUP2 SUB PUSH1 0x60 DUP4 ADD MSTORE PUSH2 0xD19 DUP2 DUP6 PUSH2 0xC52 JUMP JUMPDEST SWAP1 POP DUP2 DUP2 SUB PUSH1 0x80 DUP4 ADD MSTORE PUSH2 0xD2D DUP2 DUP5 PUSH2 0xC52 JUMP JUMPDEST SWAP1 POP SWAP7 SWAP6 POP POP POP POP POP POP JUMP JUMPDEST PUSH2 0xD42 DUP2 PUSH2 0xAF4 JUMP JUMPDEST DUP3 MSTORE POP POP JUMP JUMPDEST PUSH0 DUP2 SWAP1 POP SWAP2 SWAP1 POP JUMP JUMPDEST PUSH2 0xD5A DUP2 PUSH2 0xD48 JUMP JUMPDEST DUP3 MSTORE POP POP JUMP JUMPDEST PUSH0 PUSH1 0x60 DUP3 ADD SWAP1 POP PUSH2 0xD73 PUSH0 DUP4 ADD DUP7 PUSH2 0xD39 JUMP JUMPDEST DUP2 DUP2 SUB PUSH1 0x20 DUP4 ADD MSTORE PUSH2 0xD85 DUP2 DUP6 PUSH2 0xB8A JUMP JUMPDEST SWAP1 POP PUSH2 0xD94 PUSH1 0x40 DUP4 ADD DUP5 PUSH2 0xD51 JUMP JUMPDEST SWAP5 SWAP4 POP POP POP POP JUMP JUMPDEST PUSH0 PUSH1 0x20 DUP3 ADD SWAP1 POP PUSH2 0xDAF PUSH0 DUP4 ADD DUP5 PUSH2 0xD39 JUMP JUMPDEST SWAP3 SWAP2 POP POP JUMP JUMPDEST PUSH2 0xDBE DUP2 PUSH2 0xD48 JUMP JUMPDEST DUP2 EQ PUSH2 0xDC8 JUMPI PUSH0 DUP1 REVERT JUMPDEST POP JUMP JUMPDEST PUSH0 DUP2 CALLDATALOAD SWAP1 POP PUSH2 0xDD9 DUP2 PUSH2 0xDB5 JUMP JUMPDEST SWAP3 SWAP2 POP POP JUMP JUMPDEST PUSH0 DUP1 PUSH1 0x40 DUP4 DUP6 SUB SLT ISZERO PUSH2 0xDF5 JUMPI PUSH2 0xDF4 PUSH2 0xAEC JUMP JUMPDEST JUMPDEST PUSH0 PUSH2 0xE02 DUP6 DUP3 DUP7 ADD PUSH2 0xB13 JUMP JUMPDEST SWAP3 POP POP PUSH1 0x20 PUSH2 0xE13 DUP6 DUP3 DUP7 ADD PUSH2 0xDCB JUMP JUMPDEST SWAP2 POP POP SWAP3 POP SWAP3 SWAP1 POP JUMP JUMPDEST PUSH0 DUP2 ISZERO ISZERO SWAP1 POP SWAP2 SWAP1 POP JUMP JUMPDEST PUSH2 0xE31 DUP2 PUSH2 0xE1D JUMP JUMPDEST DUP3 MSTORE POP POP JUMP JUMPDEST PUSH0 PUSH1 0x20 DUP3 ADD SWAP1 POP PUSH2 0xE4A PUSH0 DUP4 ADD DUP5 PUSH2 0xE28 JUMP JUMPDEST SWAP3 SWAP2 POP POP JUMP JUMPDEST PUSH0 DUP1 REVERT JUMPDEST PUSH0 DUP1 REVERT JUMPDEST PUSH32 0x4E487B7100000000000000000000000000000000000000000000000000000000 PUSH0 MSTORE PUSH1 0x41 PUSH1 0x4 MSTORE PUSH1 0x24 PUSH0 REVERT JUMPDEST PUSH2 0xE8E DUP3 PUSH2 0xB7A JUMP JUMPDEST DUP2 ADD DUP2 DUP2 LT PUSH8 0xFFFFFFFFFFFFFFFF DUP3 GT OR ISZERO PUSH2 0xEAD JUMPI PUSH2 0xEAC PUSH2 0xE58 JUMP JUMPDEST JUMPDEST DUP1 PUSH1 0x40 MSTORE POP POP POP JUMP JUMPDEST PUSH0 PUSH2 0xEBF PUSH2 0xAE3 JUMP JUMPDEST SWAP1 POP PUSH2 0xECB DUP3 DUP3 PUSH2 0xE85 JUMP JUMPDEST SWAP2 SWAP1 POP JUMP JUMPDEST PUSH0 PUSH8 0xFFFFFFFFFFFFFFFF DUP3 GT ISZERO PUSH2 0xEEA JUMPI PUSH2 0xEE9 PUSH2 0xE58 JUMP JUMPDEST JUMPDEST PUSH2 0xEF3 DUP3 PUSH2 0xB7A JUMP JUMPDEST SWAP1 POP PUSH1 0x20 DUP2 ADD SWAP1 POP SWAP2 SWAP1 POP JUMP JUMPDEST DUP3 DUP2 DUP4 CALLDATACOPY PUSH0 DUP4 DUP4 ADD MSTORE POP POP POP JUMP JUMPDEST PUSH0 PUSH2 0xF20 PUSH2 0xF1B DUP5 PUSH2 0xED0 JUMP JUMPDEST PUSH2 0xEB6 JUMP JUMPDEST SWAP1 POP DUP3 DUP2 MSTORE PUSH1 0x20 DUP2 ADD DUP5 DUP5 DUP5 ADD GT ISZERO PUSH2 0xF3C JUMPI PUSH2 0xF3B PUSH2 0xE54 JUMP JUMPDEST JUMPDEST PUSH2 0xF47 DUP5 DUP3 DUP6 PUSH2 0xF00 JUMP JUMPDEST POP SWAP4 SWAP3 POP POP POP JUMP JUMPDEST PUSH0 DUP3 PUSH1 0x1F DUP4 ADD SLT PUSH2 0xF63 JUMPI PUSH2 0xF62 PUSH2 0xE50 JUMP JUMPDEST JUMPDEST DUP2 CALLDATALOAD PUSH2 0xF73 DUP5 DUP3 PUSH1 0x20 DUP7 ADD PUSH2 0xF0E JUMP JUMPDEST SWAP2 POP POP SWAP3 SWAP2 POP POP JUMP JUMPDEST PUSH0 PUSH8 0xFFFFFFFFFFFFFFFF DUP3 GT ISZERO PUSH2 0xF96 JUMPI PUSH2 0xF95 PUSH2 0xE58 JUMP JUMPDEST JUMPDEST PUSH1 0x20 DUP3 MUL SWAP1 POP PUSH1 0x20 DUP2 ADD SWAP1 POP SWAP2 SWAP1 POP JUMP JUMPDEST PUSH0 DUP1 REVERT JUMPDEST PUSH0 PUSH2 0xFBD PUSH2 0xFB8 DUP5 PUSH2 0xF7C JUMP JUMPDEST PUSH2 0xEB6 JUMP JUMPDEST SWAP1 POP DUP1 DUP4 DUP3 MSTORE PUSH1 0x20 DUP3 ADD SWAP1 POP PUSH1 0x20 DUP5 MUL DUP4 ADD DUP6 DUP2 GT ISZERO PUSH2 0xFE0 JUMPI PUSH2 0xFDF PUSH2 0xFA7 JUMP JUMPDEST JUMPDEST DUP4 JUMPDEST DUP2 DUP2 LT ISZERO PUSH2 0x1027 JUMPI DUP1 CALLDATALOAD PUSH8 0xFFFFFFFFFFFFFFFF DUP2 GT ISZERO PUSH2 0x1005 JUMPI PUSH2 0x1004 PUSH2 0xE50 JUMP JUMPDEST JUMPDEST DUP1 DUP7 ADD PUSH2 0x1012 DUP10 DUP3 PUSH2 0xF4F JUMP JUMPDEST DUP6 MSTORE PUSH1 0x20 DUP6 ADD SWAP5 POP POP POP PUSH1 0x20 DUP2 ADD SWAP1 POP PUSH2 0xFE2 JUMP JUMPDEST POP POP POP SWAP4 SWAP3 POP POP POP JUMP JUMPDEST PUSH0 DUP3 PUSH1 0x1F DUP4 ADD SLT PUSH2 0x1045 JUMPI PUSH2 0x1044 PUSH2 0xE50 JUMP JUMPDEST JUMPDEST DUP2 CALLDATALOAD PUSH2 0x1055 DUP5 DUP3 PUSH1 0x20 DUP7 ADD PUSH2 0xFAB JUMP JUMPDEST SWAP2 POP POP SWAP3 SWAP2 POP POP JUMP JUMPDEST PUSH0 DUP1 PUSH0 DUP1 PUSH0 PUSH1 0xA0 DUP7 DUP9 SUB SLT ISZERO PUSH2 0x1077 JUMPI PUSH2 0x1076 PUSH2 0xAEC JUMP JUMPDEST JUMPDEST PUSH0 DUP7 ADD CALLDATALOAD PUSH8 0xFFFFFFFFFFFFFFFF DUP2 GT ISZERO PUSH2 0x1094 JUMPI PUSH2 0x1093 PUSH2 0xAF0 JUMP JUMPDEST JUMPDEST PUSH2 0x10A0 DUP9 DUP3 DUP10 ADD PUSH2 0xF4F JUMP JUMPDEST SWAP6 POP POP PUSH1 0x20 DUP7 ADD CALLDATALOAD PUSH8 0xFFFFFFFFFFFFFFFF DUP2 GT ISZERO PUSH2 0x10C1 JUMPI PUSH2 0x10C0 PUSH2 0xAF0 JUMP JUMPDEST JUMPDEST PUSH2 0x10CD DUP9 DUP3 DUP10 ADD PUSH2 0x1031 JUMP JUMPDEST SWAP5 POP POP PUSH1 0x40 DUP7 ADD CALLDATALOAD PUSH8 0xFFFFFFFFFFFFFFFF DUP2 GT ISZERO PUSH2 0x10EE JUMPI PUSH2 0x10ED PUSH2 0xAF0 JUMP JUMPDEST JUMPDEST PUSH2 0x10FA DUP9 DUP3 DUP10 ADD PUSH2 0x1031 JUMP JUMPDEST SWAP4 POP POP PUSH1 0x60 DUP7 ADD CALLDATALOAD PUSH8 0xFFFFFFFFFFFFFFFF DUP2 GT ISZERO PUSH2 0x111B JUMPI PUSH2 0x111A PUSH2 0xAF0 JUMP JUMPDEST JUMPDEST PUSH2 0x1127 DUP9 DUP3 DUP10 ADD PUSH2 0x1031 JUMP JUMPDEST SWAP3 POP POP PUSH1 0x80 DUP7 ADD CALLDATALOAD PUSH8 0xFFFFFFFFFFFFFFFF DUP2 GT ISZERO PUSH2 0x1148 JUMPI PUSH2 0x1147 PUSH2 0xAF0 JUMP JUMPDEST JUMPDEST PUSH2 0x1154 DUP9 DUP3 DUP10 ADD PUSH2 0x1031 JUMP JUMPDEST SWAP2 POP POP SWAP3 SWAP6 POP SWAP3 SWAP6 SWAP1 SWAP4 POP JUMP JUMPDEST PUSH0 DUP1 PUSH1 0x40 DUP4 DUP6 SUB SLT ISZERO PUSH2 0x1177 JUMPI PUSH2 0x1176 PUSH2 0xAEC JUMP JUMPDEST JUMPDEST PUSH0 DUP4 ADD CALLDATALOAD PUSH8 0xFFFFFFFFFFFFFFFF DUP2 GT ISZERO PUSH2 0x1194 JUMPI PUSH2 0x1193 PUSH2 0xAF0 JUMP JUMPDEST JUMPDEST PUSH2 0x11A0 DUP6 DUP3 DUP7 ADD PUSH2 0xF4F JUMP JUMPDEST SWAP3 POP POP PUSH1 0x20 PUSH2 0x11B1 DUP6 DUP3 DUP7 ADD PUSH2 0xDCB JUMP JUMPDEST SWAP2 POP POP SWAP3 POP SWAP3 SWAP1 POP JUMP JUMPDEST PUSH0 PUSH1 0x40 DUP3 ADD SWAP1 POP PUSH2 0x11CE PUSH0 DUP4 ADD DUP6 PUSH2 0xD39 JUMP JUMPDEST DUP2 DUP2 SUB PUSH1 0x20 DUP4 ADD MSTORE PUSH2 0x11E0 DUP2 DUP5 PUSH2 0xB8A JUMP JUMPDEST SWAP1 POP SWAP4 SWAP3 POP POP POP JUMP JUMPDEST PUSH32 0x4E487B7100000000000000000000000000000000000000000000000000000000 PUSH0 MSTORE PUSH1 0x22 PUSH1 0x4 MSTORE PUSH1 0x24 PUSH0 REVERT JUMPDEST PUSH0 PUSH1 0x2 DUP3 DIV SWAP1 POP PUSH1 0x1 DUP3 AND DUP1 PUSH2 0x122D JUMPI PUSH1 0x7F DUP3 AND SWAP2 POP JUMPDEST PUSH1 0x20 DUP3 LT DUP2 SUB PUSH2 0x1240 JUMPI PUSH2 0x123F PUSH2 0x11E9 JUMP JUMPDEST JUMPDEST POP SWAP2 SWAP1 POP JUMP JUMPDEST PUSH32 0x4E487B7100000000000000000000000000000000000000000000000000000000 PUSH0 MSTORE PUSH1 0x11 PUSH1 0x4 MSTORE PUSH1 0x24 PUSH0 REVERT JUMPDEST PUSH0 PUSH2 0x127D DUP3 PUSH2 0xAF4 JUMP JUMPDEST SWAP2 POP PUSH32 0xFFFFFFFFFFFFFFFFFFFFFFFFFFFFFFFFFFFFFFFFFFFFFFFFFFFFFFFFFFFFFFFF DUP3 SUB PUSH2 0x12AF JUMPI PUSH2 0x12AE PUSH2 0x1246 JUMP JUMPDEST JUMPDEST PUSH1 0x1 DUP3 ADD SWAP1 POP SWAP2 SWAP1 POP JUMP JUMPDEST PUSH0 DUP2 SWAP1 POP DUP2 PUSH0 MSTORE PUSH1 0x20 PUSH0 KECCAK256 SWAP1 POP SWAP2 SWAP1 POP JUMP JUMPDEST PUSH0 PUSH1 0x20 PUSH1 0x1F DUP4 ADD DIV SWAP1 POP SWAP2 SWAP1 POP JUMP JUMPDEST PUSH0 DUP3 DUP3 SHL SWAP1 POP SWAP3 SWAP2 POP POP JUMP JUMPDEST PUSH0 PUSH1 0x8 DUP4 MUL PUSH2 0x1316 PUSH32 0xFFFFFFFFFFFFFFFFFFFFFFFFFFFFFFFFFFFFFFFFFFFFFFFFFFFFFFFFFFFFFFFF DUP3 PUSH2 0x12DB JUMP JUMPDEST PUSH2 0x1320 DUP7 DUP4 PUSH2 0x12DB JUMP JUMPDEST SWAP6 POP DUP1 NOT DUP5 AND SWAP4 POP DUP1 DUP7 AND DUP5 OR SWAP3 POP POP POP SWAP4 SWAP3 POP POP POP JUMP JUMPDEST PUSH0 DUP2 SWAP1 POP SWAP2 SWAP1 POP JUMP JUMPDEST PUSH0 PUSH2 0x135B PUSH2 0x1356 PUSH2 0x1351 DUP5 PUSH2 0xAF4 JUMP JUMPDEST PUSH2 0x1338 JUMP JUMPDEST PUSH2 0xAF4 JUMP JUMPDEST SWAP1 POP SWAP2 SWAP1 POP JUMP JUMPDEST PUSH0 DUP2 SWAP1 POP SWAP2 SWAP1 POP JUMP JUMPDEST PUSH2 0x1374 DUP4 PUSH2 0x1341 JUMP JUMPDEST PUSH2 0x1388 PUSH2 0x1380 DUP3 PUSH2 0x1362 JUMP JUMPDEST DUP5 DUP5 SLOAD PUSH2 0x12E7 JUMP JUMPDEST DUP3 SSTORE POP POP POP POP JUMP JUMPDEST PUSH0 SWAP1 JUMP JUMPDEST PUSH2 0x139C PUSH2 0x1390 JUMP JUMPDEST PUSH2 0x13A7 DUP2 DUP5 DUP5 PUSH2 0x136B JUMP JUMPDEST POP POP POP JUMP JUMPDEST JUMPDEST DUP2 DUP2 LT ISZERO PUSH2 0x13CA JUMPI PUSH2 0x13BF PUSH0 DUP3 PUSH2 0x1394 JUMP JUMPDEST PUSH1 0x1 DUP2 ADD SWAP1 POP PUSH2 0x13AD JUMP JUMPDEST POP POP JUMP JUMPDEST PUSH1 0x1F DUP3 GT ISZERO PUSH2 0x140F JUMPI PUSH2 0x13E0 DUP2 PUSH2 0x12BA JUMP JUMPDEST PUSH2 0x13E9 DUP5 PUSH2 0x12CC JUMP JUMPDEST DUP2 ADD PUSH1 0x20 DUP6 LT ISZERO PUSH2 0x13F8 JUMPI DUP2 SWAP1 POP JUMPDEST PUSH2 0x140C PUSH2 0x1404 DUP6 PUSH2 0x12CC JUMP JUMPDEST DUP4 ADD DUP3 PUSH2 0x13AC JUMP JUMPDEST POP POP JUMPDEST POP POP POP JUMP JUMPDEST PUSH0 DUP3 DUP3 SHR SWAP1 POP SWAP3 SWAP2 POP POP JUMP JUMPDEST PUSH0 PUSH2 0x142F PUSH0 NOT DUP5 PUSH1 0x8 MUL PUSH2 0x1414 JUMP JUMPDEST NOT DUP1 DUP4 AND SWAP2 POP POP SWAP3 SWAP2 POP POP JUMP JUMPDEST PUSH0 PUSH2 0x1447 DUP4 DUP4 PUSH2 0x1420 JUMP JUMPDEST SWAP2 POP DUP3 PUSH1 0x2 MUL DUP3 OR SWAP1 POP SWAP3 SWAP2 POP POP JUMP JUMPDEST PUSH2 0x1460 DUP3 PUSH2 0xB52 JUMP JUMPDEST PUSH8 0xFFFFFFFFFFFFFFFF DUP2 GT ISZERO PUSH2 0x1479 JUMPI PUSH2 0x1478 PUSH2 0xE58 JUMP JUMPDEST JUMPDEST PUSH2 0x1483 DUP3 SLOAD PUSH2 0x1216 JUMP JUMPDEST PUSH2 0x148E DUP3 DUP3 DUP6 PUSH2 0x13CE JUMP JUMPDEST PUSH0 PUSH1 0x20 SWAP1 POP PUSH1 0x1F DUP4 GT PUSH1 0x1 DUP2 EQ PUSH2 0x14BF JUMPI PUSH0 DUP5 ISZERO PUSH2 0x14AD JUMPI DUP3 DUP8 ADD MLOAD SWAP1 POP JUMPDEST PUSH2 0x14B7 DUP6 DUP3 PUSH2 0x143C JUMP JUMPDEST DUP7 SSTORE POP PUSH2 0x151E JUMP JUMPDEST PUSH1 0x1F NOT DUP5 AND PUSH2 0x14CD DUP7 PUSH2 0x12BA JUMP JUMPDEST PUSH0 JUMPDEST DUP3 DUP2 LT ISZERO PUSH2 0x14F4 JUMPI DUP5 DUP10 ADD MLOAD DUP3 SSTORE PUSH1 0x1 DUP3 ADD SWAP2 POP PUSH1 0x20 DUP6 ADD SWAP5 POP PUSH1 0x20 DUP2 ADD SWAP1 POP PUSH2 0x14CF JUMP JUMPDEST DUP7 DUP4 LT ISZERO PUSH2 0x1511 JUMPI DUP5 DUP10 ADD MLOAD PUSH2 0x150D PUSH1 0x1F DUP10 AND DUP3 PUSH2 0x1420 JUMP JUMPDEST DUP4 SSTORE POP JUMPDEST PUSH1 0x1 PUSH1 0x2 DUP9 MUL ADD DUP9 SSTORE POP POP POP JUMPDEST POP POP POP POP POP POP JUMP JUMPDEST PUSH0 PUSH1 0x20 DUP3 ADD SWAP1 POP DUP2 DUP2 SUB PUSH0 DUP4 ADD MSTORE PUSH2 0x153E DUP2 DUP5 PUSH2 0xB8A JUMP JUMPDEST SWAP1 POP SWAP3 SWAP2 POP POP JUMP JUMPDEST PUSH0 PUSH1 0x40 DUP3 ADD SWAP1 POP DUP2 DUP2 SUB PUSH0 DUP4 ADD MSTORE PUSH2 0x155E DUP2 DUP6 PUSH2 0xB8A JUMP JUMPDEST SWAP1 POP PUSH2 0x156D PUSH1 0x20 DUP4 ADD DUP5 PUSH2 0xD51 JUMP JUMPDEST SWAP4 SWAP3 POP POP POP JUMP INVALID LOG2 PUSH5 0x6970667358 0x22 SLT KECCAK256 PUSH6 0x88DCEB5BBA73 0x26 EXTCODECOPY PUSH9 0x870368F4ED92074C8C 0xC8 TIMESTAMP 0xA5 PUSH26 0xBB3DE2FC177DACFBA764736F6C634300081A0033000000000000 "
	},
	"Assembly": ".code\n  PUSH 80\t\t\tcontract TriageOMatic {\\r\\n\\r\\...\n  PUSH 40\t\t\tcontract TriageOMatic {\\r\\n\\r\\...\n  MSTORE \t\t\tcontract TriageOMatic {\\r\\n\\r\\...\n  CALLVALUE \t\t\tcontract TriageOMatic {\\r\\n\\r\\...\n  DUP1 \t\t\tcontract TriageOMatic {\\r\\n\\r\\...\n  ISZERO \t\t\tcontract TriageOMatic {\\r\\n\\r\\...\n  PUSH [tag] 1\t\t\tcontract TriageOMatic {\\r\\n\\r\\...\n  JUMPI \t\t\tcontract TriageOMatic {\\r\\n\\r\\...\n  PUSH 0\t\t\tcontract TriageOMatic {\\r\\n\\r\\...\n  DUP1 \t\t\tcontract TriageOMatic {\\r\\n\\r\\...\n  REVERT \t\t\tcontract TriageOMatic {\\r\\n\\r\\...\ntag 1\t\t\tcontract TriageOMatic {\\r\\n\\r\\...\n  JUMPDEST \t\t\tcontract TriageOMatic {\\r\\n\\r\\...\n  POP \t\t\tcontract TriageOMatic {\\r\\n\\r\\...\n  PUSH #[$] 0000000000000000000000000000000000000000000000000000000000000000\t\t\tcontract TriageOMatic {\\r\\n\\r\\...\n  DUP1 \t\t\tcontract TriageOMatic {\\r\\n\\r\\...\n  PUSH [$] 0000000000000000000000000000000000000000000000000000000000000000\t\t\tcontract TriageOMatic {\\r\\n\\r\\...\n  PUSH 0\t\t\tcontract TriageOMatic {\\r\\n\\r\\...\n  CODECOPY \t\t\tcontract TriageOMatic {\\r\\n\\r\\...\n  PUSH 0\t\t\tcontract TriageOMatic {\\r\\n\\r\\...\n  RETURN \t\t\tcontract TriageOMatic {\\r\\n\\r\\...\n.data\n  0:\n    .code\n      PUSH 80\t\t\tcontract TriageOMatic {\\r\\n\\r\\...\n      PUSH 40\t\t\tcontract TriageOMatic {\\r\\n\\r\\...\n      MSTORE \t\t\tcontract TriageOMatic {\\r\\n\\r\\...\n      CALLVALUE \t\t\tcontract TriageOMatic {\\r\\n\\r\\...\n      DUP1 \t\t\tcontract TriageOMatic {\\r\\n\\r\\...\n      ISZERO \t\t\tcontract TriageOMatic {\\r\\n\\r\\...\n      PUSH [tag] 1\t\t\tcontract TriageOMatic {\\r\\n\\r\\...\n      JUMPI \t\t\tcontract TriageOMatic {\\r\\n\\r\\...\n      PUSH 0\t\t\tcontract TriageOMatic {\\r\\n\\r\\...\n      DUP1 \t\t\tcontract TriageOMatic {\\r\\n\\r\\...\n      REVERT \t\t\tcontract TriageOMatic {\\r\\n\\r\\...\n    tag 1\t\t\tcontract TriageOMatic {\\r\\n\\r\\...\n      JUMPDEST \t\t\tcontract TriageOMatic {\\r\\n\\r\\...\n      POP \t\t\tcontract TriageOMatic {\\r\\n\\r\\...\n      PUSH 4\t\t\tcontract TriageOMatic {\\r\\n\\r\\...\n      CALLDATASIZE \t\t\tcontract TriageOMatic {\\r\\n\\r\\...\n      LT \t\t\tcontract TriageOMatic {\\r\\n\\r\\...\n      PUSH [tag] 2\t\t\tcontract TriageOMatic {\\r\\n\\r\\...\n      JUMPI \t\t\tcontract TriageOMatic {\\r\\n\\r\\...\n      PUSH 0\t\t\tcontract TriageOMatic {\\r\\n\\r\\...\n      CALLDATALOAD \t\t\tcontract TriageOMatic {\\r\\n\\r\\...\n      PUSH E0\t\t\tcontract TriageOMatic {\\r\\n\\r\\...\n      SHR \t\t\tcontract TriageOMatic {\\r\\n\\r\\...\n      DUP1 \t\t\tcontract TriageOMatic {\\r\\n\\r\\...\n      PUSH 776CA7A3\t\t\tcontract TriageOMatic {\\r\\n\\r\\...\n      GT \t\t\tcontract TriageOMatic {\\r\\n\\r\\...\n      PUSH [tag] 11\t\t\tcontract TriageOMatic {\\r\\n\\r\\...\n      JUMPI \t\t\tcontract TriageOMatic {\\r\\n\\r\\...\n      DUP1 \t\t\tcontract TriageOMatic {\\r\\n\\r\\...\n      PUSH 776CA7A3\t\t\tcontract TriageOMatic {\\r\\n\\r\\...\n      EQ \t\t\tcontract TriageOMatic {\\r\\n\\r\\...\n      PUSH [tag] 7\t\t\tcontract TriageOMatic {\\r\\n\\r\\...\n      JUMPI \t\t\tcontract TriageOMatic {\\r\\n\\r\\...\n      DUP1 \t\t\tcontract TriageOMatic {\\r\\n\\r\\...\n      PUSH 7AE55994\t\t\tcontract TriageOMatic {\\r\\n\\r\\...\n      EQ \t\t\tcontract TriageOMatic {\\r\\n\\r\\...\n      PUSH [tag] 8\t\t\tcontract TriageOMatic {\\r\\n\\r\\...\n      JUMPI \t\t\tcontract TriageOMatic {\\r\\n\\r\\...\n      DUP1 \t\t\tcontract TriageOMatic {\\r\\n\\r\\...\n      PUSH A6C6A8F3\t\t\tcontract TriageOMatic {\\r\\n\\r\\...\n      EQ \t\t\tcontract TriageOMatic {\\r\\n\\r\\...\n      PUSH [tag] 9\t\t\tcontract TriageOMatic {\\r\\n\\r\\...\n      JUMPI \t\t\tcontract TriageOMatic {\\r\\n\\r\\...\n      DUP1 \t\t\tcontract TriageOMatic {\\r\\n\\r\\...\n      PUSH B87C1114\t\t\tcontract TriageOMatic {\\r\\n\\r\\...\n      EQ \t\t\tcontract TriageOMatic {\\r\\n\\r\\...\n      PUSH [tag] 10\t\t\tcontract TriageOMatic {\\r\\n\\r\\...\n      JUMPI \t\t\tcontract TriageOMatic {\\r\\n\\r\\...\n      PUSH [tag] 2\t\t\tcontract TriageOMatic {\\r\\n\\r\\...\n      JUMP \t\t\tcontract TriageOMatic {\\r\\n\\r\\...\n    tag 11\t\t\tcontract TriageOMatic {\\r\\n\\r\\...\n      JUMPDEST \t\t\tcontract TriageOMatic {\\r\\n\\r\\...\n      DUP1 \t\t\tcontract TriageOMatic {\\r\\n\\r\\...\n      PUSH 1E6420EE\t\t\tcontract TriageOMatic {\\r\\n\\r\\...\n      EQ \t\t\tcontract TriageOMatic {\\r\\n\\r\\...\n      PUSH [tag] 3\t\t\tcontract TriageOMatic {\\r\\n\\r\\...\n      JUMPI \t\t\tcontract TriageOMatic {\\r\\n\\r\\...\n      DUP1 \t\t\tcontract TriageOMatic {\\r\\n\\r\\...\n      PUSH 2E4546CD\t\t\tcontract TriageOMatic {\\r\\n\\r\\...\n      EQ \t\t\tcontract TriageOMatic {\\r\\n\\r\\...\n      PUSH [tag] 4\t\t\tcontract TriageOMatic {\\r\\n\\r\\...\n      JUMPI \t\t\tcontract TriageOMatic {\\r\\n\\r\\...\n      DUP1 \t\t\tcontract TriageOMatic {\\r\\n\\r\\...\n      PUSH 3E9C1DAC\t\t\tcontract TriageOMatic {\\r\\n\\r\\...\n      EQ \t\t\tcontract TriageOMatic {\\r\\n\\r\\...\n      PUSH [tag] 5\t\t\tcontract TriageOMatic {\\r\\n\\r\\...\n      JUMPI \t\t\tcontract TriageOMatic {\\r\\n\\r\\...\n      DUP1 \t\t\tcontract TriageOMatic {\\r\\n\\r\\...\n      PUSH 47D6D3BF\t\t\tcontract TriageOMatic {\\r\\n\\r\\...\n      EQ \t\t\tcontract TriageOMatic {\\r\\n\\r\\...\n      PUSH [tag] 6\t\t\tcontract TriageOMatic {\\r\\n\\r\\...\n      JUMPI \t\t\tcontract TriageOMatic {\\r\\n\\r\\...\n    tag 2\t\t\tcontract TriageOMatic {\\r\\n\\r\\...\n      JUMPDEST \t\t\tcontract TriageOMatic {\\r\\n\\r\\...\n      PUSH 0\t\t\tcontract TriageOMatic {\\r\\n\\r\\...\n      DUP1 \t\t\tcontract TriageOMatic {\\r\\n\\r\\...\n      REVERT \t\t\tcontract TriageOMatic {\\r\\n\\r\\...\n    tag 3\t\t\tfunction getIncidentDetails(ui...\n      JUMPDEST \t\t\tfunction getIncidentDetails(ui...\n      PUSH [tag] 12\t\t\tfunction getIncidentDetails(ui...\n      PUSH 4\t\t\tfunction getIncidentDetails(ui...\n      DUP1 \t\t\tfunction getIncidentDetails(ui...\n      CALLDATASIZE \t\t\tfunction getIncidentDetails(ui...\n      SUB \t\t\tfunction getIncidentDetails(ui...\n      DUP2 \t\t\tfunction getIncidentDetails(ui...\n      ADD \t\t\tfunction getIncidentDetails(ui...\n      SWAP1 \t\t\tfunction getIncidentDetails(ui...\n      PUSH [tag] 13\t\t\tfunction getIncidentDetails(ui...\n      SWAP2 \t\t\tfunction getIncidentDetails(ui...\n      SWAP1 \t\t\tfunction getIncidentDetails(ui...\n      PUSH [tag] 14\t\t\tfunction getIncidentDetails(ui...\n      JUMP \t\t\tfunction getIncidentDetails(ui...\n    tag 13\t\t\tfunction getIncidentDetails(ui...\n      JUMPDEST \t\t\tfunction getIncidentDetails(ui...\n      PUSH [tag] 15\t\t\tfunction getIncidentDetails(ui...\n      JUMP \t\t\tfunction getIncidentDetails(ui...\n    tag 12\t\t\tfunction getIncidentDetails(ui...\n      JUMPDEST \t\t\tfunction getIncidentDetails(ui...\n      PUSH 40\t\t\tfunction getIncidentDetails(ui...\n      MLOAD \t\t\tfunction getIncidentDetails(ui...\n      PUSH [tag] 16\t\t\tfunction getIncidentDetails(ui...\n      SWAP6 \t\t\tfunction getIncidentDetails(ui...\n      SWAP5 \t\t\tfunction getIncidentDetails(ui...\n      SWAP4 \t\t\tfunction getIncidentDetails(ui...\n      SWAP3 \t\t\tfunction getIncidentDetails(ui...\n      SWAP2 \t\t\tfunction getIncidentDetails(ui...\n      SWAP1 \t\t\tfunction getIncidentDetails(ui...\n      PUSH [tag] 17\t\t\tfunction getIncidentDetails(ui...\n      JUMP \t\t\tfunction getIncidentDetails(ui...\n    tag 16\t\t\tfunction getIncidentDetails(ui...\n      JUMPDEST \t\t\tfunction getIncidentDetails(ui...\n      PUSH 40\t\t\tfunction getIncidentDetails(ui...\n      MLOAD \t\t\tfunction getIncidentDetails(ui...\n      DUP1 \t\t\tfunction getIncidentDetails(ui...\n      SWAP2 \t\t\tfunction getIncidentDetails(ui...\n      SUB \t\t\tfunction getIncidentDetails(ui...\n      SWAP1 \t\t\tfunction getIncidentDetails(ui...\n      RETURN \t\t\tfunction getIncidentDetails(ui...\n    tag 4\t\t\tmapping(uint256 => Evidence) p...\n      JUMPDEST \t\t\tmapping(uint256 => Evidence) p...\n      PUSH [tag] 18\t\t\tmapping(uint256 => Evidence) p...\n      PUSH 4\t\t\tmapping(uint256 => Evidence) p...\n      DUP1 \t\t\tmapping(uint256 => Evidence) p...\n      CALLDATASIZE \t\t\tmapping(uint256 => Evidence) p...\n      SUB \t\t\tmapping(uint256 => Evidence) p...\n      DUP2 \t\t\tmapping(uint256 => Evidence) p...\n      ADD \t\t\tmapping(uint256 => Evidence) p...\n      SWAP1 \t\t\tmapping(uint256 => Evidence) p...\n      PUSH [tag] 19\t\t\tmapping(uint256 => Evidence) p...\n      SWAP2 \t\t\tmapping(uint256 => Evidence) p...\n      SWAP1 \t\t\tmapping(uint256 => Evidence) p...\n      PUSH [tag] 14\t\t\tmapping(uint256 => Evidence) p...\n      JUMP \t\t\tmapping(uint256 => Evidence) p...\n    tag 19\t\t\tmapping(uint256 => Evidence) p...\n      JUMPDEST \t\t\tmapping(uint256 => Evidence) p...\n      PUSH [tag] 20\t\t\tmapping(uint256 => Evidence) p...\n      JUMP \t\t\tmapping(uint256 => Evidence) p...\n    tag 18\t\t\tmapping(uint256 => Evidence) p...\n      JUMPDEST \t\t\tmapping(uint256 => Evidence) p...\n      PUSH 40\t\t\tmapping(uint256 => Evidence) p...\n      MLOAD \t\t\tmapping(uint256 => Evidence) p...\n      PUSH [tag] 21\t\t\tmapping(uint256 => Evidence) p...\n      SWAP4 \t\t\tmapping(uint256 => Evidence) p...\n      SWAP3 \t\t\tmapping(uint256 => Evidence) p...\n      SWAP2 \t\t\tmapping(uint256 => Evidence) p...\n      SWAP1 \t\t\tmapping(uint256 => Evidence) p...\n      PUSH [tag] 22\t\t\tmapping(uint256 => Evidence) p...\n      JUMP \t\t\tmapping(uint256 => Evidence) p...\n    tag 21\t\t\tmapping(uint256 => Evidence) p...\n      JUMPDEST \t\t\tmapping(uint256 => Evidence) p...\n      PUSH 40\t\t\tmapping(uint256 => Evidence) p...\n      MLOAD \t\t\tmapping(uint256 => Evidence) p...\n      DUP1 \t\t\tmapping(uint256 => Evidence) p...\n      SWAP2 \t\t\tmapping(uint256 => Evidence) p...\n      SUB \t\t\tmapping(uint256 => Evidence) p...\n      SWAP1 \t\t\tmapping(uint256 => Evidence) p...\n      RETURN \t\t\tmapping(uint256 => Evidence) p...\n    tag 5\t\t\tuint256 public incidentCounter\n      JUMPDEST \t\t\tuint256 public incidentCounter\n      PUSH [tag] 23\t\t\tuint256 public incidentCounter\n      PUSH [tag] 24\t\t\tuint256 public incidentCounter\n      JUMP \t\t\tuint256 public incidentCounter\n    tag 23\t\t\tuint256 public incidentCounter\n      JUMPDEST \t\t\tuint256 public incidentCounter\n      PUSH 40\t\t\tuint256 public incidentCounter\n      MLOAD \t\t\tuint256 public incidentCounter\n      PUSH [tag] 25\t\t\tuint256 public incidentCounter\n      SWAP2 \t\t\tuint256 public incidentCounter\n      SWAP1 \t\t\tuint256 public incidentCounter\n      PUSH [tag] 26\t\t\tuint256 public incidentCounter\n      JUMP \t\t\tuint256 public incidentCounter\n    tag 25\t\t\tuint256 public incidentCounter\n      JUMPDEST \t\t\tuint256 public incidentCounter\n      PUSH 40\t\t\tuint256 public incidentCounter\n      MLOAD \t\t\tuint256 public incidentCounter\n      DUP1 \t\t\tuint256 public incidentCounter\n      SWAP2 \t\t\tuint256 public incidentCounter\n      SUB \t\t\tuint256 public incidentCounter\n      SWAP1 \t\t\tuint256 public incidentCounter\n      RETURN \t\t\tuint256 public incidentCounter\n    tag 6\t\t\tfunction verifyEvidenceImmutab...\n      JUMPDEST \t\t\tfunction verifyEvidenceImmutab...\n      PUSH [tag] 27\t\t\tfunction verifyEvidenceImmutab...\n      PUSH 4\t\t\tfunction verifyEvidenceImmutab...\n      DUP1 \t\t\tfunction verifyEvidenceImmutab...\n      CALLDATASIZE \t\t\tfunction verifyEvidenceImmutab...\n      SUB \t\t\tfunction verifyEvidenceImmutab...\n      DUP2 \t\t\tfunction verifyEvidenceImmutab...\n      ADD \t\t\tfunction verifyEvidenceImmutab...\n      SWAP1 \t\t\tfunction verifyEvidenceImmutab...\n      PUSH [tag] 28\t\t\tfunction verifyEvidenceImmutab...\n      SWAP2 \t\t\tfunction verifyEvidenceImmutab...\n      SWAP1 \t\t\tfunction verifyEvidenceImmutab...\n      PUSH [tag] 29\t\t\tfunction verifyEvidenceImmutab...\n      JUMP \t\t\tfunction verifyEvidenceImmutab...\n    tag 28\t\t\tfunction verifyEvidenceImmutab...\n      JUMPDEST \t\t\tfunction verifyEvidenceImmutab...\n      PUSH [tag] 30\t\t\tfunction verifyEvidenceImmutab...\n      JUMP \t\t\tfunction verifyEvidenceImmutab...\n    tag 27\t\t\tfunction verifyEvidenceImmutab...\n      JUMPDEST \t\t\tfunction verifyEvidenceImmutab...\n      PUSH 40\t\t\tfunction verifyEvidenceImmutab...\n      MLOAD \t\t\tfunction verifyEvidenceImmutab...\n      PUSH [tag] 31\t\t\tfunction verifyEvidenceImmutab...\n      SWAP2 \t\t\tfunction verifyEvidenceImmutab...\n      SWAP1 \t\t\tfunction verifyEvidenceImmutab...\n      PUSH [tag] 32\t\t\tfunction verifyEvidenceImmutab...\n      JUMP \t\t\tfunction verifyEvidenceImmutab...\n    tag 31\t\t\tfunction verifyEvidenceImmutab...\n      JUMPDEST \t\t\tfunction verifyEvidenceImmutab...\n      PUSH 40\t\t\tfunction verifyEvidenceImmutab...\n      MLOAD \t\t\tfunction verifyEvidenceImmutab...\n      DUP1 \t\t\tfunction verifyEvidenceImmutab...\n      SWAP2 \t\t\tfunction verifyEvidenceImmutab...\n      SUB \t\t\tfunction verifyEvidenceImmutab...\n      SWAP1 \t\t\tfunction verifyEvidenceImmutab...\n      RETURN \t\t\tfunction verifyEvidenceImmutab...\n    tag 7\t\t\tfunction addIncident(string me...\n      JUMPDEST \t\t\tfunction addIncident(string me...\n      PUSH [tag] 33\t\t\tfunction addIncident(string me...\n      PUSH 4\t\t\tfunction addIncident(string me...\n      DUP1 \t\t\tfunction addIncident(string me...\n      CALLDATASIZE \t\t\tfunction addIncident(string me...\n      SUB \t\t\tfunction addIncident(string me...\n      DUP2 \t\t\tfunction addIncident(string me...\n      ADD \t\t\tfunction addIncident(string me...\n      SWAP1 \t\t\tfunction addIncident(string me...\n      PUSH [tag] 34\t\t\tfunction addIncident(string me...\n      SWAP2 \t\t\tfunction addIncident(string me...\n      SWAP1 \t\t\tfunction addIncident(string me...\n      PUSH [tag] 35\t\t\tfunction addIncident(string me...\n      JUMP \t\t\tfunction addIncident(string me...\n    tag 34\t\t\tfunction addIncident(string me...\n      JUMPDEST \t\t\tfunction addIncident(string me...\n      PUSH [tag] 36\t\t\tfunction addIncident(string me...\n      JUMP \t\t\tfunction addIncident(string me...\n    tag 33\t\t\tfunction addIncident(string me...\n      JUMPDEST \t\t\tfunction addIncident(string me...\n      STOP \t\t\tfunction addIncident(string me...\n    tag 8\t\t\tfunction logEvidence(string me...\n      JUMPDEST \t\t\tfunction logEvidence(string me...\n      PUSH [tag] 37\t\t\tfunction logEvidence(string me...\n      PUSH 4\t\t\tfunction logEvidence(string me...\n      DUP1 \t\t\tfunction logEvidence(string me...\n      CALLDATASIZE \t\t\tfunction logEvidence(string me...\n      SUB \t\t\tfunction logEvidence(string me...\n      DUP2 \t\t\tfunction logEvidence(string me...\n      ADD \t\t\tfunction logEvidence(string me...\n      SWAP1 \t\t\tfunction logEvidence(string me...\n      PUSH [tag] 38\t\t\tfunction logEvidence(string me...\n      SWAP2 \t\t\tfunction logEvidence(string me...\n      SWAP1 \t\t\tfunction logEvidence(string me...\n      PUSH [tag] 39\t\t\tfunction logEvidence(string me...\n      JUMP \t\t\tfunction logEvidence(string me...\n    tag 38\t\t\tfunction logEvidence(string me...\n      JUMPDEST \t\t\tfunction logEvidence(string me...\n      PUSH [tag] 40\t\t\tfunction logEvidence(string me...\n      JUMP \t\t\tfunction logEvidence(string me...\n    tag 37\t\t\tfunction logEvidence(string me...\n      JUMPDEST \t\t\tfunction logEvidence(string me...\n      STOP \t\t\tfunction logEvidence(string me...\n    tag 9\t\t\tmapping(uint256 => Incident) p...\n      JUMPDEST \t\t\tmapping(uint256 => Incident) p...\n      PUSH [tag] 41\t\t\tmapping(uint256 => Incident) p...\n      PUSH 4\t\t\tmapping(uint256 => Incident) p...\n      DUP1 \t\t\tmapping(uint256 => Incident) p...\n      CALLDATASIZE \t\t\tmapping(uint256 => Incident) p...\n      SUB \t\t\tmapping(uint256 => Incident) p...\n      DUP2 \t\t\tmapping(uint256 => Incident) p...\n      ADD \t\t\tmapping(uint256 => Incident) p...\n      SWAP1 \t\t\tmapping(uint256 => Incident) p...\n      PUSH [tag] 42\t\t\tmapping(uint256 => Incident) p...\n      SWAP2 \t\t\tmapping(uint256 => Incident) p...\n      SWAP1 \t\t\tmapping(uint256 => Incident) p...\n      PUSH [tag] 14\t\t\tmapping(uint256 => Incident) p...\n      JUMP \t\t\tmapping(uint256 => Incident) p...\n    tag 42\t\t\tmapping(uint256 => Incident) p...\n      JUMPDEST \t\t\tmapping(uint256 => Incident) p...\n      PUSH [tag] 43\t\t\tmapping(uint256 => Incident) p...\n      JUMP \t\t\tmapping(uint256 => Incident) p...\n    tag 41\t\t\tmapping(uint256 => Incident) p...\n      JUMPDEST \t\t\tmapping(uint256 => Incident) p...\n      PUSH 40\t\t\tmapping(uint256 => Incident) p...\n      MLOAD \t\t\tmapping(uint256 => Incident) p...\n      PUSH [tag] 44\t\t\tmapping(uint256 => Incident) p...\n      SWAP3 \t\t\tmapping(uint256 => Incident) p...\n      SWAP2 \t\t\tmapping(uint256 => Incident) p...\n      SWAP1 \t\t\tmapping(uint256 => Incident) p...\n      PUSH [tag] 45\t\t\tmapping(uint256 => Incident) p...\n      JUMP \t\t\tmapping(uint256 => Incident) p...\n    tag 44\t\t\tmapping(uint256 => Incident) p...\n      JUMPDEST \t\t\tmapping(uint256 => Incident) p...\n      PUSH 40\t\t\tmapping(uint256 => Incident) p...\n      MLOAD \t\t\tmapping(uint256 => Incident) p...\n      DUP1 \t\t\tmapping(uint256 => Incident) p...\n      SWAP2 \t\t\tmapping(uint256 => Incident) p...\n      SUB \t\t\tmapping(uint256 => Incident) p...\n      SWAP1 \t\t\tmapping(uint256 => Incident) p...\n      RETURN \t\t\tmapping(uint256 => Incident) p...\n    tag 10\t\t\tuint256 public evidenceCounter\n      JUMPDEST \t\t\tuint256 public evidenceCounter\n      PUSH [tag] 46\t\t\tuint256 public evidenceCounter\n      PUSH [tag] 47\t\t\tuint256 public evidenceCounter\n      JUMP \t\t\tuint256 public evidenceCounter\n    tag 46\t\t\tuint256 public evidenceCounter\n      JUMPDEST \t\t\tuint256 public evidenceCounter\n      PUSH 40\t\t\tuint256 public evidenceCounter\n      MLOAD \t\t\tuint256 public evidenceCounter\n      PUSH [tag] 48\t\t\tuint256 public evidenceCounter\n      SWAP2 \t\t\tuint256 public evidenceCounter\n      SWAP1 \t\t\tuint256 public evidenceCounter\n      PUSH [tag] 26\t\t\tuint256 public evidenceCounter\n      JUMP \t\t\tuint256 public evidenceCounter\n    tag 48\t\t\tuint256 public evidenceCounter\n      JUMPDEST \t\t\tuint256 public evidenceCounter\n      PUSH 40\t\t\tuint256 public evidenceCounter\n      MLOAD \t\t\tuint256 public evidenceCounter\n      DUP1 \t\t\tuint256 public evidenceCounter\n      SWAP2 \t\t\tuint256 public evidenceCounter\n      SUB \t\t\tuint256 public evidenceCounter\n      SWAP1 \t\t\tuint256 public evidenceCounter\n      RETURN \t\t\tuint256 public evidenceCounter\n    tag 15\t\t\tfunction getIncidentDetails(ui...\n      JUMPDEST \t\t\tfunction getIncidentDetails(ui...\n      PUSH 60\t\t\tstring memory\n      DUP1 \t\t\tstring[] memory\n      PUSH 60\t\t\tstring[] memory\n      DUP1 \t\t\tstring[] memory\n      PUSH 60\t\t\tstring[] memory\n      PUSH 0\t\t\tIncident memory incident\n      DUP1 \t\t\tincidents\n      PUSH 0\t\t\tincidents[_incidentId]\n      DUP9 \t\t\t_incidentId\n      DUP2 \t\t\tincidents[_incidentId]\n      MSTORE \t\t\tincidents[_incidentId]\n      PUSH 20\t\t\tincidents[_incidentId]\n      ADD \t\t\tincidents[_incidentId]\n      SWAP1 \t\t\tincidents[_incidentId]\n      DUP2 \t\t\tincidents[_incidentId]\n      MSTORE \t\t\tincidents[_incidentId]\n      PUSH 20\t\t\tincidents[_incidentId]\n      ADD \t\t\tincidents[_incidentId]\n      PUSH 0\t\t\tincidents[_incidentId]\n      KECCAK256 \t\t\tincidents[_incidentId]\n      PUSH 40\t\t\tIncident memory incident = inc...\n      MLOAD \t\t\tIncident memory incident = inc...\n      DUP1 \t\t\tIncident memory incident = inc...\n      PUSH C0\t\t\tIncident memory incident = inc...\n      ADD \t\t\tIncident memory incident = inc...\n      PUSH 40\t\t\tIncident memory incident = inc...\n      MSTORE \t\t\tIncident memory incident = inc...\n      SWAP1 \t\t\tIncident memory incident = inc...\n      DUP2 \t\t\tIncident memory incident = inc...\n      PUSH 0\t\t\tIncident memory incident = inc...\n      DUP3 \t\t\tIncident memory incident = inc...\n      ADD \t\t\tIncident memory incident = inc...\n      SLOAD \t\t\tIncident memory incident = inc...\n      DUP2 \t\t\tIncident memory incident = inc...\n      MSTORE \t\t\tIncident memory incident = inc...\n      PUSH 20\t\t\tIncident memory incident = inc...\n      ADD \t\t\tIncident memory incident = inc...\n      PUSH 1\t\t\tIncident memory incident = inc...\n      DUP3 \t\t\tIncident memory incident = inc...\n      ADD \t\t\tIncident memory incident = inc...\n      DUP1 \t\t\tIncident memory incident = inc...\n      SLOAD \t\t\tIncident memory incident = inc...\n      PUSH [tag] 50\t\t\tIncident memory incident = inc...\n      SWAP1 \t\t\tIncident memory incident = inc...\n      PUSH [tag] 51\t\t\tIncident memory incident = inc...\n      JUMP \t\t\tIncident memory incident = inc...\n    tag 50\t\t\tIncident memory incident = inc...\n      JUMPDEST \t\t\tIncident memory incident = inc...\n      DUP1 \t\t\tIncident memory incident = inc...\n      PUSH 1F\t\t\tIncident memory incident = inc...\n      ADD \t\t\tIncident memory incident = inc...\n      PUSH 20\t\t\tIncident memory incident = inc...\n      DUP1 \t\t\tIncident memory incident = inc...\n      SWAP2 \t\t\tIncident memory incident = inc...\n      DIV \t\t\tIncident memory incident = inc...\n      MUL \t\t\tIncident memory incident = inc...\n      PUSH 20\t\t\tIncident memory incident = inc...\n      ADD \t\t\tIncident memory incident = inc...\n      PUSH 40\t\t\tIncident memory incident = inc...\n      MLOAD \t\t\tIncident memory incident = inc...\n      SWAP1 \t\t\tIncident memory incident = inc...\n      DUP2 \t\t\tIncident memory incident = inc...\n      ADD \t\t\tIncident memory incident = inc...\n      PUSH 40\t\t\tIncident memory incident = inc...\n      MSTORE \t\t\tIncident memory incident = inc...\n      DUP1 \t\t\tIncident memory incident = inc...\n      SWAP3 \t\t\tIncident memory incident = inc...\n      SWAP2 \t\t\tIncident memory incident = inc...\n      SWAP1 \t\t\tIncident memory incident = inc...\n      DUP2 \t\t\tIncident memory incident = inc...\n      DUP2 \t\t\tIncident memory incident = inc...\n      MSTORE \t\t\tIncident memory incident = inc...\n      PUSH 20\t\t\tIncident memory incident = inc...\n      ADD \t\t\tIncident memory incident = inc...\n      DUP3 \t\t\tIncident memory incident = inc...\n      DUP1 \t\t\tIncident memory incident = inc...\n      SLOAD \t\t\tIncident memory incident = inc...\n      PUSH [tag] 52\t\t\tIncident memory incident = inc...\n      SWAP1 \t\t\tIncident memory incident = inc...\n      PUSH [tag] 51\t\t\tIncident memory incident = inc...\n      JUMP \t\t\tIncident memory incident = inc...\n    tag 52\t\t\tIncident memory incident = inc...\n      JUMPDEST \t\t\tIncident memory incident = inc...\n      DUP1 \t\t\tIncident memory incident = inc...\n      ISZERO \t\t\tIncident memory incident = inc...\n      PUSH [tag] 53\t\t\tIncident memory incident = inc...\n      JUMPI \t\t\tIncident memory incident = inc...\n      DUP1 \t\t\tIncident memory incident = inc...\n      PUSH 1F\t\t\tIncident memory incident = inc...\n      LT \t\t\tIncident memory incident = inc...\n      PUSH [tag] 54\t\t\tIncident memory incident = inc...\n      JUMPI \t\t\tIncident memory incident = inc...\n      PUSH 100\t\t\tIncident memory incident = inc...\n      DUP1 \t\t\tIncident memory incident = inc...\n      DUP4 \t\t\tIncident memory incident = inc...\n      SLOAD \t\t\tIncident memory incident = inc...\n      DIV \t\t\tIncident memory incident = inc...\n      MUL \t\t\tIncident memory incident = inc...\n      DUP4 \t\t\tIncident memory incident = inc...\n      MSTORE \t\t\tIncident memory incident = inc...\n      SWAP2 \t\t\tIncident memory incident = inc...\n      PUSH 20\t\t\tIncident memory incident = inc...\n      ADD \t\t\tIncident memory incident = inc...\n      SWAP2 \t\t\tIncident memory incident = inc...\n      PUSH [tag] 53\t\t\tIncident memory incident = inc...\n      JUMP \t\t\tIncident memory incident = inc...\n    tag 54\t\t\tIncident memory incident = inc...\n      JUMPDEST \t\t\tIncident memory incident = inc...\n      DUP3 \t\t\tIncident memory incident = inc...\n      ADD \t\t\tIncident memory incident = inc...\n      SWAP2 \t\t\tIncident memory incident = inc...\n      SWAP1 \t\t\tIncident memory incident = inc...\n      PUSH 0\t\t\tIncident memory incident = inc...\n      MSTORE \t\t\tIncident memory incident = inc...\n      PUSH 20\t\t\tIncident memory incident = inc...\n      PUSH 0\t\t\tIncident memory incident = inc...\n      KECCAK256 \t\t\tIncident memory incident = inc...\n      SWAP1 \t\t\tIncident memory incident = inc...\n    tag 55\t\t\tIncident memory incident = inc...\n      JUMPDEST \t\t\tIncident memory incident = inc...\n      DUP2 \t\t\tIncident memory incident = inc...\n      SLOAD \t\t\tIncident memory incident = inc...\n      DUP2 \t\t\tIncident memory incident = inc...\n      MSTORE \t\t\tIncident memory incident = inc...\n      SWAP1 \t\t\tIncident memory incident = inc...\n      PUSH 1\t\t\tIncident memory incident = inc...\n      ADD \t\t\tIncident memory incident = inc...\n      SWAP1 \t\t\tIncident memory incident = inc...\n      PUSH 20\t\t\tIncident memory incident = inc...\n      ADD \t\t\tIncident memory incident = inc...\n      DUP1 \t\t\tIncident memory incident = inc...\n      DUP4 \t\t\tIncident memory incident = inc...\n      GT \t\t\tIncident memory incident = inc...\n      PUSH [tag] 55\t\t\tIncident memory incident = inc...\n      JUMPI \t\t\tIncident memory incident = inc...\n      DUP3 \t\t\tIncident memory incident = inc...\n      SWAP1 \t\t\tIncident memory incident = inc...\n      SUB \t\t\tIncident memory incident = inc...\n      PUSH 1F\t\t\tIncident memory incident = inc...\n      AND \t\t\tIncident memory incident = inc...\n      DUP3 \t\t\tIncident memory incident = inc...\n      ADD \t\t\tIncident memory incident = inc...\n      SWAP2 \t\t\tIncident memory incident = inc...\n    tag 53\t\t\tIncident memory incident = inc...\n      JUMPDEST \t\t\tIncident memory incident = inc...\n      POP \t\t\tIncident memory incident = inc...\n      POP \t\t\tIncident memory incident = inc...\n      POP \t\t\tIncident memory incident = inc...\n      POP \t\t\tIncident memory incident = inc...\n      POP \t\t\tIncident memory incident = inc...\n      DUP2 \t\t\tIncident memory incident = inc...\n      MSTORE \t\t\tIncident memory incident = inc...\n      PUSH 20\t\t\tIncident memory incident = inc...\n      ADD \t\t\tIncident memory incident = inc...\n      PUSH 2\t\t\tIncident memory incident = inc...\n      DUP3 \t\t\tIncident memory incident = inc...\n      ADD \t\t\tIncident memory incident = inc...\n      DUP1 \t\t\tIncident memory incident = inc...\n      SLOAD \t\t\tIncident memory incident = inc...\n      DUP1 \t\t\tIncident memory incident = inc...\n      PUSH 20\t\t\tIncident memory incident = inc...\n      MUL \t\t\tIncident memory incident = inc...\n      PUSH 20\t\t\tIncident memory incident = inc...\n      ADD \t\t\tIncident memory incident = inc...\n      PUSH 40\t\t\tIncident memory incident = inc...\n      MLOAD \t\t\tIncident memory incident = inc...\n      SWAP1 \t\t\tIncident memory incident = inc...\n      DUP2 \t\t\tIncident memory incident = inc...\n      ADD \t\t\tIncident memory incident = inc...\n      PUSH 40\t\t\tIncident memory incident = inc...\n      MSTORE \t\t\tIncident memory incident = inc...\n      DUP1 \t\t\tIncident memory incident = inc...\n      SWAP3 \t\t\tIncident memory incident = inc...\n      SWAP2 \t\t\tIncident memory incident = inc...\n      SWAP1 \t\t\tIncident memory incident = inc...\n      DUP2 \t\t\tIncident memory incident = inc...\n      DUP2 \t\t\tIncident memory incident = inc...\n      MSTORE \t\t\tIncident memory incident = inc...\n      PUSH 20\t\t\tIncident memory incident = inc...\n      ADD \t\t\tIncident memory incident = inc...\n      PUSH 0\t\t\tIncident memory incident = inc...\n      SWAP1 \t\t\tIncident memory incident = inc...\n    tag 56\t\t\tIncident memory incident = inc...\n      JUMPDEST \t\t\tIncident memory incident = inc...\n      DUP3 \t\t\tIncident memory incident = inc...\n      DUP3 \t\t\tIncident memory incident = inc...\n      LT \t\t\tIncident memory incident = inc...\n      ISZERO \t\t\tIncident memory incident = inc...\n      PUSH [tag] 57\t\t\tIncident memory incident = inc...\n      JUMPI \t\t\tIncident memory incident = inc...\n      DUP4 \t\t\tIncident memory incident = inc...\n      DUP3 \t\t\tIncident memory incident = inc...\n      SWAP1 \t\t\tIncident memory incident = inc...\n      PUSH 0\t\t\tIncident memory incident = inc...\n      MSTORE \t\t\tIncident memory incident = inc...\n      PUSH 20\t\t\tIncident memory incident = inc...\n      PUSH 0\t\t\tIncident memory incident = inc...\n      KECCAK256 \t\t\tIncident memory incident = inc...\n      ADD \t\t\tIncident memory incident = inc...\n      DUP1 \t\t\tIncident memory incident = inc...\n      SLOAD \t\t\tIncident memory incident = inc...\n      PUSH [tag] 59\t\t\tIncident memory incident = inc...\n      SWAP1 \t\t\tIncident memory incident = inc...\n      PUSH [tag] 51\t\t\tIncident memory incident = inc...\n      JUMP \t\t\tIncident memory incident = inc...\n    tag 59\t\t\tIncident memory incident = inc...\n      JUMPDEST \t\t\tIncident memory incident = inc...\n      DUP1 \t\t\tIncident memory incident = inc...\n      PUSH 1F\t\t\tIncident memory incident = inc...\n      ADD \t\t\tIncident memory incident = inc...\n      PUSH 20\t\t\tIncident memory incident = inc...\n      DUP1 \t\t\tIncident memory incident = inc...\n      SWAP2 \t\t\tIncident memory incident = inc...\n      DIV \t\t\tIncident memory incident = inc...\n      MUL \t\t\tIncident memory incident = inc...\n      PUSH 20\t\t\tIncident memory incident = inc...\n      ADD \t\t\tIncident memory incident = inc...\n      PUSH 40\t\t\tIncident memory incident = inc...\n      MLOAD \t\t\tIncident memory incident = inc...\n      SWAP1 \t\t\tIncident memory incident = inc...\n      DUP2 \t\t\tIncident memory incident = inc...\n      ADD \t\t\tIncident memory incident = inc...\n      PUSH 40\t\t\tIncident memory incident = inc...\n      MSTORE \t\t\tIncident memory incident = inc...\n      DUP1 \t\t\tIncident memory incident = inc...\n      SWAP3 \t\t\tIncident memory incident = inc...\n      SWAP2 \t\t\tIncident memory incident = inc...\n      SWAP1 \t\t\tIncident memory incident = inc...\n      DUP2 \t\t\tIncident memory incident = inc...\n      DUP2 \t\t\tIncident memory incident = inc...\n      MSTORE \t\t\tIncident memory incident = inc...\n      PUSH 20\t\t\tIncident memory incident = inc...\n      ADD \t\t\tIncident memory incident = inc...\n      DUP3 \t\t\tIncident memory incident = inc...\n      DUP1 \t\t\tIncident memory incident = inc...\n      SLOAD \t\t\tIncident memory incident = inc...\n      PUSH [tag] 60\t\t\tIncident memory incident = inc...\n      SWAP1 \t\t\tIncident memory incident = inc...\n      PUSH [tag] 51\t\t\tIncident memory incident = inc...\n      JUMP \t\t\tIncident memory incident = inc...\n    tag 60\t\t\tIncident memory incident = inc...\n      JUMPDEST \t\t\tIncident memory incident = inc...\n      DUP1 \t\t\tIncident memory incident = inc...\n      ISZERO \t\t\tIncident memory incident = inc...\n      PUSH [tag] 61\t\t\tIncident memory incident = inc...\n      JUMPI \t\t\tIncident memory incident = inc...\n      DUP1 \t\t\tIncident memory incident = inc...\n      PUSH 1F\t\t\tIncident memory incident = inc...\n      LT \t\t\tIncident memory incident = inc...\n      PUSH [tag] 62\t\t\tIncident memory incident = inc...\n      JUMPI \t\t\tIncident memory incident = inc...\n      PUSH 100\t\t\tIncident memory incident = inc...\n      DUP1 \t\t\tIncident memory incident = inc...\n      DUP4 \t\t\tIncident memory incident = inc...\n      SLOAD \t\t\tIncident memory incident = inc...\n      DIV \t\t\tIncident memory incident = inc...\n      MUL \t\t\tIncident memory incident = inc...\n      DUP4 \t\t\tIncident memory incident = inc...\n      MSTORE \t\t\tIncident memory incident = inc...\n      SWAP2 \t\t\tIncident memory incident = inc...\n      PUSH 20\t\t\tIncident memory incident = inc...\n      ADD \t\t\tIncident memory incident = inc...\n      SWAP2 \t\t\tIncident memory incident = inc...\n      PUSH [tag] 61\t\t\tIncident memory incident = inc...\n      JUMP \t\t\tIncident memory incident = inc...\n    tag 62\t\t\tIncident memory incident = inc...\n      JUMPDEST \t\t\tIncident memory incident = inc...\n      DUP3 \t\t\tIncident memory incident = inc...\n      ADD \t\t\tIncident memory incident = inc...\n      SWAP2 \t\t\tIncident memory incident = inc...\n      SWAP1 \t\t\tIncident memory incident = inc...\n      PUSH 0\t\t\tIncident memory incident = inc...\n      MSTORE \t\t\tIncident memory incident = inc...\n      PUSH 20\t\t\tIncident memory incident = inc...\n      PUSH 0\t\t\tIncident memory incident = inc...\n      KECCAK256 \t\t\tIncident memory incident = inc...\n      SWAP1 \t\t\tIncident memory incident = inc...\n    tag 63\t\t\tIncident memory incident = inc...\n      JUMPDEST \t\t\tIncident memory incident = inc...\n      DUP2 \t\t\tIncident memory incident = inc...\n      SLOAD \t\t\tIncident memory incident = inc...\n      DUP2 \t\t\tIncident memory incident = inc...\n      MSTORE \t\t\tIncident memory incident = inc...\n      SWAP1 \t\t\tIncident memory incident = inc...\n      PUSH 1\t\t\tIncident memory incident = inc...\n      ADD \t\t\tIncident memory incident = inc...\n      SWAP1 \t\t\tIncident memory incident = inc...\n      PUSH 20\t\t\tIncident memory incident = inc...\n      ADD \t\t\tIncident memory incident = inc...\n      DUP1 \t\t\tIncident memory incident = inc...\n      DUP4 \t\t\tIncident memory incident = inc...\n      GT \t\t\tIncident memory incident = inc...\n      PUSH [tag] 63\t\t\tIncident memory incident = inc...\n      JUMPI \t\t\tIncident memory incident = inc...\n      DUP3 \t\t\tIncident memory incident = inc...\n      SWAP1 \t\t\tIncident memory incident = inc...\n      SUB \t\t\tIncident memory incident = inc...\n      PUSH 1F\t\t\tIncident memory incident = inc...\n      AND \t\t\tIncident memory incident = inc...\n      DUP3 \t\t\tIncident memory incident = inc...\n      ADD \t\t\tIncident memory incident = inc...\n      SWAP2 \t\t\tIncident memory incident = inc...\n    tag 61\t\t\tIncident memory incident = inc...\n      JUMPDEST \t\t\tIncident memory incident = inc...\n      POP \t\t\tIncident memory incident = inc...\n      POP \t\t\tIncident memory incident = inc...\n      POP \t\t\tIncident memory incident = inc...\n      POP \t\t\tIncident memory incident = inc...\n      POP \t\t\tIncident memory incident = inc...\n      DUP2 \t\t\tIncident memory incident = inc...\n      MSTORE \t\t\tIncident memory incident = inc...\n      PUSH 20\t\t\tIncident memory incident = inc...\n      ADD \t\t\tIncident memory incident = inc...\n      SWAP1 \t\t\tIncident memory incident = inc...\n      PUSH 1\t\t\tIncident memory incident = inc...\n      ADD \t\t\tIncident memory incident = inc...\n      SWAP1 \t\t\tIncident memory incident = inc...\n      PUSH [tag] 56\t\t\tIncident memory incident = inc...\n      JUMP \t\t\tIncident memory incident = inc...\n    tag 57\t\t\tIncident memory incident = inc...\n      JUMPDEST \t\t\tIncident memory incident = inc...\n      POP \t\t\tIncident memory incident = inc...\n      POP \t\t\tIncident memory incident = inc...\n      POP \t\t\tIncident memory incident = inc...\n      POP \t\t\tIncident memory incident = inc...\n      DUP2 \t\t\tIncident memory incident = inc...\n      MSTORE \t\t\tIncident memory incident = inc...\n      PUSH 20\t\t\tIncident memory incident = inc...\n      ADD \t\t\tIncident memory incident = inc...\n      PUSH 3\t\t\tIncident memory incident = inc...\n      DUP3 \t\t\tIncident memory incident = inc...\n      ADD \t\t\tIncident memory incident = inc...\n      DUP1 \t\t\tIncident memory incident = inc...\n      SLOAD \t\t\tIncident memory incident = inc...\n      DUP1 \t\t\tIncident memory incident = inc...\n      PUSH 20\t\t\tIncident memory incident = inc...\n      MUL \t\t\tIncident memory incident = inc...\n      PUSH 20\t\t\tIncident memory incident = inc...\n      ADD \t\t\tIncident memory incident = inc...\n      PUSH 40\t\t\tIncident memory incident = inc...\n      MLOAD \t\t\tIncident memory incident = inc...\n      SWAP1 \t\t\tIncident memory incident = inc...\n      DUP2 \t\t\tIncident memory incident = inc...\n      ADD \t\t\tIncident memory incident = inc...\n      PUSH 40\t\t\tIncident memory incident = inc...\n      MSTORE \t\t\tIncident memory incident = inc...\n      DUP1 \t\t\tIncident memory incident = inc...\n      SWAP3 \t\t\tIncident memory incident = inc...\n      SWAP2 \t\t\tIncident memory incident = inc...\n      SWAP1 \t\t\tIncident memory incident = inc...\n      DUP2 \t\t\tIncident memory incident = inc...\n      DUP2 \t\t\tIncident memory incident = inc...\n      MSTORE \t\t\tIncident memory incident = inc...\n      PUSH 20\t\t\tIncident memory incident = inc...\n      ADD \t\t\tIncident memory incident = inc...\n      PUSH 0\t\t\tIncident memory incident = inc...\n      SWAP1 \t\t\tIncident memory incident = inc...\n    tag 64\t\t\tIncident memory incident = inc...\n      JUMPDEST \t\t\tIncident memory incident = inc...\n      DUP3 \t\t\tIncident memory incident = inc...\n      DUP3 \t\t\tIncident memory incident = inc...\n      LT \t\t\tIncident memory incident = inc...\n      ISZERO \t\t\tIncident memory incident = inc...\n      PUSH [tag] 65\t\t\tIncident memory incident = inc...\n      JUMPI \t\t\tIncident memory incident = inc...\n      DUP4 \t\t\tIncident memory incident = inc...\n      DUP3 \t\t\tIncident memory incident = inc...\n      SWAP1 \t\t\tIncident memory incident = inc...\n      PUSH 0\t\t\tIncident memory incident = inc...\n      MSTORE \t\t\tIncident memory incident = inc...\n      PUSH 20\t\t\tIncident memory incident = inc...\n      PUSH 0\t\t\tIncident memory incident = inc...\n      KECCAK256 \t\t\tIncident memory incident = inc...\n      ADD \t\t\tIncident memory incident = inc...\n      DUP1 \t\t\tIncident memory incident = inc...\n      SLOAD \t\t\tIncident memory incident = inc...\n      PUSH [tag] 67\t\t\tIncident memory incident = inc...\n      SWAP1 \t\t\tIncident memory incident = inc...\n      PUSH [tag] 51\t\t\tIncident memory incident = inc...\n      JUMP \t\t\tIncident memory incident = inc...\n    tag 67\t\t\tIncident memory incident = inc...\n      JUMPDEST \t\t\tIncident memory incident = inc...\n      DUP1 \t\t\tIncident memory incident = inc...\n      PUSH 1F\t\t\tIncident memory incident = inc...\n      ADD \t\t\tIncident memory incident = inc...\n      PUSH 20\t\t\tIncident memory incident = inc...\n      DUP1 \t\t\tIncident memory incident = inc...\n      SWAP2 \t\t\tIncident memory incident = inc...\n      DIV \t\t\tIncident memory incident = inc...\n      MUL \t\t\tIncident memory incident = inc...\n      PUSH 20\t\t\tIncident memory incident = inc...\n      ADD \t\t\tIncident memory incident = inc...\n      PUSH 40\t\t\tIncident memory incident = inc...\n      MLOAD \t\t\tIncident memory incident = inc...\n      SWAP1 \t\t\tIncident memory incident = inc...\n      DUP2 \t\t\tIncident memory incident = inc...\n      ADD \t\t\tIncident memory incident = inc...\n      PUSH 40\t\t\tIncident memory incident = inc...\n      MSTORE \t\t\tIncident memory incident = inc...\n      DUP1 \t\t\tIncident memory incident = inc...\n      SWAP3 \t\t\tIncident memory incident = inc...\n      SWAP2 \t\t\tIncident memory incident = inc...\n      SWAP1 \t\t\tIncident memory incident = inc...\n      DUP2 \t\t\tIncident memory incident = inc...\n      DUP2 \t\t\tIncident memory incident = inc...\n      MSTORE \t\t\tIncident memory incident = inc...\n      PUSH 20\t\t\tIncident memory incident = inc...\n      ADD \t\t\tIncident memory incident = inc...\n      DUP3 \t\t\tIncident memory incident = inc...\n      DUP1 \t\t\tIncident memory incident = inc...\n      SLOAD \t\t\tIncident memory incident = inc...\n      PUSH [tag] 68\t\t\tIncident memory incident = inc...\n      SWAP1 \t\t\tIncident memory incident = inc...\n      PUSH [tag] 51\t\t\tIncident memory incident = inc...\n      JUMP \t\t\tIncident memory incident = inc...\n    tag 68\t\t\tIncident memory incident = inc...\n      JUMPDEST \t\t\tIncident memory incident = inc...\n      DUP1 \t\t\tIncident memory incident = inc...\n      ISZERO \t\t\tIncident memory incident = inc...\n      PUSH [tag] 69\t\t\tIncident memory incident = inc...\n      JUMPI \t\t\tIncident memory incident = inc...\n      DUP1 \t\t\tIncident memory incident = inc...\n      PUSH 1F\t\t\tIncident memory incident = inc...\n      LT \t\t\tIncident memory incident = inc...\n      PUSH [tag] 70\t\t\tIncident memory incident = inc...\n      JUMPI \t\t\tIncident memory incident = inc...\n      PUSH 100\t\t\tIncident memory incident = inc...\n      DUP1 \t\t\tIncident memory incident = inc...\n      DUP4 \t\t\tIncident memory incident = inc...\n      SLOAD \t\t\tIncident memory incident = inc...\n      DIV \t\t\tIncident memory incident = inc...\n      MUL \t\t\tIncident memory incident = inc...\n      DUP4 \t\t\tIncident memory incident = inc...\n      MSTORE \t\t\tIncident memory incident = inc...\n      SWAP2 \t\t\tIncident memory incident = inc...\n      PUSH 20\t\t\tIncident memory incident = inc...\n      ADD \t\t\tIncident memory incident = inc...\n      SWAP2 \t\t\tIncident memory incident = inc...\n      PUSH [tag] 69\t\t\tIncident memory incident = inc...\n      JUMP \t\t\tIncident memory incident = inc...\n    tag 70\t\t\tIncident memory incident = inc...\n      JUMPDEST \t\t\tIncident memory incident = inc...\n      DUP3 \t\t\tIncident memory incident = inc...\n      ADD \t\t\tIncident memory incident = inc...\n      SWAP2 \t\t\tIncident memory incident = inc...\n      SWAP1 \t\t\tIncident memory incident = inc...\n      PUSH 0\t\t\tIncident memory incident = inc...\n      MSTORE \t\t\tIncident memory incident = inc...\n      PUSH 20\t\t\tIncident memory incident = inc...\n      PUSH 0\t\t\tIncident memory incident = inc...\n      KECCAK256 \t\t\tIncident memory incident = inc...\n      SWAP1 \t\t\tIncident memory incident = inc...\n    tag 71\t\t\tIncident memory incident = inc...\n      JUMPDEST \t\t\tIncident memory incident = inc...\n      DUP2 \t\t\tIncident memory incident = inc...\n      SLOAD \t\t\tIncident memory incident = inc...\n      DUP2 \t\t\tIncident memory incident = inc...\n      MSTORE \t\t\tIncident memory incident = inc...\n      SWAP1 \t\t\tIncident memory incident = inc...\n      PUSH 1\t\t\tIncident memory incident = inc...\n      ADD \t\t\tIncident memory incident = inc...\n      SWAP1 \t\t\tIncident memory incident = inc...\n      PUSH 20\t\t\tIncident memory incident = inc...\n      ADD \t\t\tIncident memory incident = inc...\n      DUP1 \t\t\tIncident memory incident = inc...\n      DUP4 \t\t\tIncident memory incident = inc...\n      GT \t\t\tIncident memory incident = inc...\n      PUSH [tag] 71\t\t\tIncident memory incident = inc...\n      JUMPI \t\t\tIncident memory incident = inc...\n      DUP3 \t\t\tIncident memory incident = inc...\n      SWAP1 \t\t\tIncident memory incident = inc...\n      SUB \t\t\tIncident memory incident = inc...\n      PUSH 1F\t\t\tIncident memory incident = inc...\n      AND \t\t\tIncident memory incident = inc...\n      DUP3 \t\t\tIncident memory incident = inc...\n      ADD \t\t\tIncident memory incident = inc...\n      SWAP2 \t\t\tIncident memory incident = inc...\n    tag 69\t\t\tIncident memory incident = inc...\n      JUMPDEST \t\t\tIncident memory incident = inc...\n      POP \t\t\tIncident memory incident = inc...\n      POP \t\t\tIncident memory incident = inc...\n      POP \t\t\tIncident memory incident = inc...\n      POP \t\t\tIncident memory incident = inc...\n      POP \t\t\tIncident memory incident = inc...\n      DUP2 \t\t\tIncident memory incident = inc...\n      MSTORE \t\t\tIncident memory incident = inc...\n      PUSH 20\t\t\tIncident memory incident = inc...\n      ADD \t\t\tIncident memory incident = inc...\n      SWAP1 \t\t\tIncident memory incident = inc...\n      PUSH 1\t\t\tIncident memory incident = inc...\n      ADD \t\t\tIncident memory incident = inc...\n      SWAP1 \t\t\tIncident memory incident = inc...\n      PUSH [tag] 64\t\t\tIncident memory incident = inc...\n      JUMP \t\t\tIncident memory incident = inc...\n    tag 65\t\t\tIncident memory incident = inc...\n      JUMPDEST \t\t\tIncident memory incident = inc...\n      POP \t\t\tIncident memory incident = inc...\n      POP \t\t\tIncident memory incident = inc...\n      POP \t\t\tIncident memory incident = inc...\n      POP \t\t\tIncident memory incident = inc...\n      DUP2 \t\t\tIncident memory incident = inc...\n      MSTORE \t\t\tIncident memory incident = inc...\n      PUSH 20\t\t\tIncident memory incident = inc...\n      ADD \t\t\tIncident memory incident = inc...\n      PUSH 4\t\t\tIncident memory incident = inc...\n      DUP3 \t\t\tIncident memory incident = inc...\n      ADD \t\t\tIncident memory incident = inc...\n      DUP1 \t\t\tIncident memory incident = inc...\n      SLOAD \t\t\tIncident memory incident = inc...\n      DUP1 \t\t\tIncident memory incident = inc...\n      PUSH 20\t\t\tIncident memory incident = inc...\n      MUL \t\t\tIncident memory incident = inc...\n      PUSH 20\t\t\tIncident memory incident = inc...\n      ADD \t\t\tIncident memory incident = inc...\n      PUSH 40\t\t\tIncident memory incident = inc...\n      MLOAD \t\t\tIncident memory incident = inc...\n      SWAP1 \t\t\tIncident memory incident = inc...\n      DUP2 \t\t\tIncident memory incident = inc...\n      ADD \t\t\tIncident memory incident = inc...\n      PUSH 40\t\t\tIncident memory incident = inc...\n      MSTORE \t\t\tIncident memory incident = inc...\n      DUP1 \t\t\tIncident memory incident = inc...\n      SWAP3 \t\t\tIncident memory incident = inc...\n      SWAP2 \t\t\tIncident memory incident = inc...\n      SWAP1 \t\t\tIncident memory incident = inc...\n      DUP2 \t\t\tIncident memory incident = inc...\n      DUP2 \t\t\tIncident memory incident = inc...\n      MSTORE \t\t\tIncident memory incident = inc...\n      PUSH 20\t\t\tIncident memory incident = inc...\n      ADD \t\t\tIncident memory incident = inc...\n      PUSH 0\t\t\tIncident memory incident = inc...\n      SWAP1 \t\t\tIncident memory incident = inc...\n    tag 72\t\t\tIncident memory incident = inc...\n      JUMPDEST \t\t\tIncident memory incident = inc...\n      DUP3 \t\t\tIncident memory incident = inc...\n      DUP3 \t\t\tIncident memory incident = inc...\n      LT \t\t\tIncident memory incident = inc...\n      ISZERO \t\t\tIncident memory incident = inc...\n      PUSH [tag] 73\t\t\tIncident memory incident = inc...\n      JUMPI \t\t\tIncident memory incident = inc...\n      DUP4 \t\t\tIncident memory incident = inc...\n      DUP3 \t\t\tIncident memory incident = inc...\n      SWAP1 \t\t\tIncident memory incident = inc...\n      PUSH 0\t\t\tIncident memory incident = inc...\n      MSTORE \t\t\tIncident memory incident = inc...\n      PUSH 20\t\t\tIncident memory incident = inc...\n      PUSH 0\t\t\tIncident memory incident = inc...\n      KECCAK256 \t\t\tIncident memory incident = inc...\n      ADD \t\t\tIncident memory incident = inc...\n      DUP1 \t\t\tIncident memory incident = inc...\n      SLOAD \t\t\tIncident memory incident = inc...\n      PUSH [tag] 75\t\t\tIncident memory incident = inc...\n      SWAP1 \t\t\tIncident memory incident = inc...\n      PUSH [tag] 51\t\t\tIncident memory incident = inc...\n      JUMP \t\t\tIncident memory incident = inc...\n    tag 75\t\t\tIncident memory incident = inc...\n      JUMPDEST \t\t\tIncident memory incident = inc...\n      DUP1 \t\t\tIncident memory incident = inc...\n      PUSH 1F\t\t\tIncident memory incident = inc...\n      ADD \t\t\tIncident memory incident = inc...\n      PUSH 20\t\t\tIncident memory incident = inc...\n      DUP1 \t\t\tIncident memory incident = inc...\n      SWAP2 \t\t\tIncident memory incident = inc...\n      DIV \t\t\tIncident memory incident = inc...\n      MUL \t\t\tIncident memory incident = inc...\n      PUSH 20\t\t\tIncident memory incident = inc...\n      ADD \t\t\tIncident memory incident = inc...\n      PUSH 40\t\t\tIncident memory incident = inc...\n      MLOAD \t\t\tIncident memory incident = inc...\n      SWAP1 \t\t\tIncident memory incident = inc...\n      DUP2 \t\t\tIncident memory incident = inc...\n      ADD \t\t\tIncident memory incident = inc...\n      PUSH 40\t\t\tIncident memory incident = inc...\n      MSTORE \t\t\tIncident memory incident = inc...\n      DUP1 \t\t\tIncident memory incident = inc...\n      SWAP3 \t\t\tIncident memory incident = inc...\n      SWAP2 \t\t\tIncident memory incident = inc...\n      SWAP1 \t\t\tIncident memory incident = inc...\n      DUP2 \t\t\tIncident memory incident = inc...\n      DUP2 \t\t\tIncident memory incident = inc...\n      MSTORE \t\t\tIncident memory incident = inc...\n      PUSH 20\t\t\tIncident memory incident = inc...\n      ADD \t\t\tIncident memory incident = inc...\n      DUP3 \t\t\tIncident memory incident = inc...\n      DUP1 \t\t\tIncident memory incident = inc...\n      SLOAD \t\t\tIncident memory incident = inc...\n      PUSH [tag] 76\t\t\tIncident memory incident = inc...\n      SWAP1 \t\t\tIncident memory incident = inc...\n      PUSH [tag] 51\t\t\tIncident memory incident = inc...\n      JUMP \t\t\tIncident memory incident = inc...\n    tag 76\t\t\tIncident memory incident = inc...\n      JUMPDEST \t\t\tIncident memory incident = inc...\n      DUP1 \t\t\tIncident memory incident = inc...\n      ISZERO \t\t\tIncident memory incident = inc...\n      PUSH [tag] 77\t\t\tIncident memory incident = inc...\n      JUMPI \t\t\tIncident memory incident = inc...\n      DUP1 \t\t\tIncident memory incident = inc...\n      PUSH 1F\t\t\tIncident memory incident = inc...\n      LT \t\t\tIncident memory incident = inc...\n      PUSH [tag] 78\t\t\tIncident memory incident = inc...\n      JUMPI \t\t\tIncident memory incident = inc...\n      PUSH 100\t\t\tIncident memory incident = inc...\n      DUP1 \t\t\tIncident memory incident = inc...\n      DUP4 \t\t\tIncident memory incident = inc...\n      SLOAD \t\t\tIncident memory incident = inc...\n      DIV \t\t\tIncident memory incident = inc...\n      MUL \t\t\tIncident memory incident = inc...\n      DUP4 \t\t\tIncident memory incident = inc...\n      MSTORE \t\t\tIncident memory incident = inc...\n      SWAP2 \t\t\tIncident memory incident = inc...\n      PUSH 20\t\t\tIncident memory incident = inc...\n      ADD \t\t\tIncident memory incident = inc...\n      SWAP2 \t\t\tIncident memory incident = inc...\n      PUSH [tag] 77\t\t\tIncident memory incident = inc...\n      JUMP \t\t\tIncident memory incident = inc...\n    tag 78\t\t\tIncident memory incident = inc...\n      JUMPDEST \t\t\tIncident memory incident = inc...\n      DUP3 \t\t\tIncident memory incident = inc...\n      ADD \t\t\tIncident memory incident = inc...\n      SWAP2 \t\t\tIncident memory incident = inc...\n      SWAP1 \t\t\tIncident memory incident = inc...\n      PUSH 0\t\t\tIncident memory incident = inc...\n      MSTORE \t\t\tIncident memory incident = inc...\n      PUSH 20\t\t\tIncident memory incident = inc...\n      PUSH 0\t\t\tIncident memory incident = inc...\n      KECCAK256 \t\t\tIncident memory incident = inc...\n      SWAP1 \t\t\tIncident memory incident = inc...\n    tag 79\t\t\tIncident memory incident = inc...\n      JUMPDEST \t\t\tIncident memory incident = inc...\n      DUP2 \t\t\tIncident memory incident = inc...\n      SLOAD \t\t\tIncident memory incident = inc...\n      DUP2 \t\t\tIncident memory incident = inc...\n      MSTORE \t\t\tIncident memory incident = inc...\n      SWAP1 \t\t\tIncident memory incident = inc...\n      PUSH 1\t\t\tIncident memory incident = inc...\n      ADD \t\t\tIncident memory incident = inc...\n      SWAP1 \t\t\tIncident memory incident = inc...\n      PUSH 20\t\t\tIncident memory incident = inc...\n      ADD \t\t\tIncident memory incident = inc...\n      DUP1 \t\t\tIncident memory incident = inc...\n      DUP4 \t\t\tIncident memory incident = inc...\n      GT \t\t\tIncident memory incident = inc...\n      PUSH [tag] 79\t\t\tIncident memory incident = inc...\n      JUMPI \t\t\tIncident memory incident = inc...\n      DUP3 \t\t\tIncident memory incident = inc...\n      SWAP1 \t\t\tIncident memory incident = inc...\n      SUB \t\t\tIncident memory incident = inc...\n      PUSH 1F\t\t\tIncident memory incident = inc...\n      AND \t\t\tIncident memory incident = inc...\n      DUP3 \t\t\tIncident memory incident = inc...\n      ADD \t\t\tIncident memory incident = inc...\n      SWAP2 \t\t\tIncident memory incident = inc...\n    tag 77\t\t\tIncident memory incident = inc...\n      JUMPDEST \t\t\tIncident memory incident = inc...\n      POP \t\t\tIncident memory incident = inc...\n      POP \t\t\tIncident memory incident = inc...\n      POP \t\t\tIncident memory incident = inc...\n      POP \t\t\tIncident memory incident = inc...\n      POP \t\t\tIncident memory incident = inc...\n      DUP2 \t\t\tIncident memory incident = inc...\n      MSTORE \t\t\tIncident memory incident = inc...\n      PUSH 20\t\t\tIncident memory incident = inc...\n      ADD \t\t\tIncident memory incident = inc...\n      SWAP1 \t\t\tIncident memory incident = inc...\n      PUSH 1\t\t\tIncident memory incident = inc...\n      ADD \t\t\tIncident memory incident = inc...\n      SWAP1 \t\t\tIncident memory incident = inc...\n      PUSH [tag] 72\t\t\tIncident memory incident = inc...\n      JUMP \t\t\tIncident memory incident = inc...\n    tag 73\t\t\tIncident memory incident = inc...\n      JUMPDEST \t\t\tIncident memory incident = inc...\n      POP \t\t\tIncident memory incident = inc...\n      POP \t\t\tIncident memory incident = inc...\n      POP \t\t\tIncident memory incident = inc...\n      POP \t\t\tIncident memory incident = inc...\n      DUP2 \t\t\tIncident memory incident = inc...\n      MSTORE \t\t\tIncident memory incident = inc...\n      PUSH 20\t\t\tIncident memory incident = inc...\n      ADD \t\t\tIncident memory incident = inc...\n      PUSH 5\t\t\tIncident memory incident = inc...\n      DUP3 \t\t\tIncident memory incident = inc...\n      ADD \t\t\tIncident memory incident = inc...\n      DUP1 \t\t\tIncident memory incident = inc...\n      SLOAD \t\t\tIncident memory incident = inc...\n      DUP1 \t\t\tIncident memory incident = inc...\n      PUSH 20\t\t\tIncident memory incident = inc...\n      MUL \t\t\tIncident memory incident = inc...\n      PUSH 20\t\t\tIncident memory incident = inc...\n      ADD \t\t\tIncident memory incident = inc...\n      PUSH 40\t\t\tIncident memory incident = inc...\n      MLOAD \t\t\tIncident memory incident = inc...\n      SWAP1 \t\t\tIncident memory incident = inc...\n      DUP2 \t\t\tIncident memory incident = inc...\n      ADD \t\t\tIncident memory incident = inc...\n      PUSH 40\t\t\tIncident memory incident = inc...\n      MSTORE \t\t\tIncident memory incident = inc...\n      DUP1 \t\t\tIncident memory incident = inc...\n      SWAP3 \t\t\tIncident memory incident = inc...\n      SWAP2 \t\t\tIncident memory incident = inc...\n      SWAP1 \t\t\tIncident memory incident = inc...\n      DUP2 \t\t\tIncident memory incident = inc...\n      DUP2 \t\t\tIncident memory incident = inc...\n      MSTORE \t\t\tIncident memory incident = inc...\n      PUSH 20\t\t\tIncident memory incident = inc...\n      ADD \t\t\tIncident memory incident = inc...\n      PUSH 0\t\t\tIncident memory incident = inc...\n      SWAP1 \t\t\tIncident memory incident = inc...\n    tag 80\t\t\tIncident memory incident = inc...\n      JUMPDEST \t\t\tIncident memory incident = inc...\n      DUP3 \t\t\tIncident memory incident = inc...\n      DUP3 \t\t\tIncident memory incident = inc...\n      LT \t\t\tIncident memory incident = inc...\n      ISZERO \t\t\tIncident memory incident = inc...\n      PUSH [tag] 81\t\t\tIncident memory incident = inc...\n      JUMPI \t\t\tIncident memory incident = inc...\n      DUP4 \t\t\tIncident memory incident = inc...\n      DUP3 \t\t\tIncident memory incident = inc...\n      SWAP1 \t\t\tIncident memory incident = inc...\n      PUSH 0\t\t\tIncident memory incident = inc...\n      MSTORE \t\t\tIncident memory incident = inc...\n      PUSH 20\t\t\tIncident memory incident = inc...\n      PUSH 0\t\t\tIncident memory incident = inc...\n      KECCAK256 \t\t\tIncident memory incident = inc...\n      ADD \t\t\tIncident memory incident = inc...\n      DUP1 \t\t\tIncident memory incident = inc...\n      SLOAD \t\t\tIncident memory incident = inc...\n      PUSH [tag] 83\t\t\tIncident memory incident = inc...\n      SWAP1 \t\t\tIncident memory incident = inc...\n      PUSH [tag] 51\t\t\tIncident memory incident = inc...\n      JUMP \t\t\tIncident memory incident = inc...\n    tag 83\t\t\tIncident memory incident = inc...\n      JUMPDEST \t\t\tIncident memory incident = inc...\n      DUP1 \t\t\tIncident memory incident = inc...\n      PUSH 1F\t\t\tIncident memory incident = inc...\n      ADD \t\t\tIncident memory incident = inc...\n      PUSH 20\t\t\tIncident memory incident = inc...\n      DUP1 \t\t\tIncident memory incident = inc...\n      SWAP2 \t\t\tIncident memory incident = inc...\n      DIV \t\t\tIncident memory incident = inc...\n      MUL \t\t\tIncident memory incident = inc...\n      PUSH 20\t\t\tIncident memory incident = inc...\n      ADD \t\t\tIncident memory incident = inc...\n      PUSH 40\t\t\tIncident memory incident = inc...\n      MLOAD \t\t\tIncident memory incident = inc...\n      SWAP1 \t\t\tIncident memory incident = inc...\n      DUP2 \t\t\tIncident memory incident = inc...\n      ADD \t\t\tIncident memory incident = inc...\n      PUSH 40\t\t\tIncident memory incident = inc...\n      MSTORE \t\t\tIncident memory incident = inc...\n      DUP1 \t\t\tIncident memory incident = inc...\n      SWAP3 \t\t\tIncident memory incident = inc...\n      SWAP2 \t\t\tIncident memory incident = inc...\n      SWAP1 \t\t\tIncident memory incident = inc...\n      DUP2 \t\t\tIncident memory incident = inc...\n      DUP2 \t\t\tIncident memory incident = inc...\n      MSTORE \t\t\tIncident memory incident = inc...\n      PUSH 20\t\t\tIncident memory incident = inc...\n      ADD \t\t\tIncident memory incident = inc...\n      DUP3 \t\t\tIncident memory incident = inc...\n      DUP1 \t\t\tIncident memory incident = inc...\n      SLOAD \t\t\tIncident memory incident = inc...\n      PUSH [tag] 84\t\t\tIncident memory incident = inc...\n      SWAP1 \t\t\tIncident memory incident = inc...\n      PUSH [tag] 51\t\t\tIncident memory incident = inc...\n      JUMP \t\t\tIncident memory incident = inc...\n    tag 84\t\t\tIncident memory incident = inc...\n      JUMPDEST \t\t\tIncident memory incident = inc...\n      DUP1 \t\t\tIncident memory incident = inc...\n      ISZERO \t\t\tIncident memory incident = inc...\n      PUSH [tag] 85\t\t\tIncident memory incident = inc...\n      JUMPI \t\t\tIncident memory incident = inc...\n      DUP1 \t\t\tIncident memory incident = inc...\n      PUSH 1F\t\t\tIncident memory incident = inc...\n      LT \t\t\tIncident memory incident = inc...\n      PUSH [tag] 86\t\t\tIncident memory incident = inc...\n      JUMPI \t\t\tIncident memory incident = inc...\n      PUSH 100\t\t\tIncident memory incident = inc...\n      DUP1 \t\t\tIncident memory incident = inc...\n      DUP4 \t\t\tIncident memory incident = inc...\n      SLOAD \t\t\tIncident memory incident = inc...\n      DIV \t\t\tIncident memory incident = inc...\n      MUL \t\t\tIncident memory incident = inc...\n      DUP4 \t\t\tIncident memory incident = inc...\n      MSTORE \t\t\tIncident memory incident = inc...\n      SWAP2 \t\t\tIncident memory incident = inc...\n      PUSH 20\t\t\tIncident memory incident = inc...\n      ADD \t\t\tIncident memory incident = inc...\n      SWAP2 \t\t\tIncident memory incident = inc...\n      PUSH [tag] 85\t\t\tIncident memory incident = inc...\n      JUMP \t\t\tIncident memory incident = inc...\n    tag 86\t\t\tIncident memory incident = inc...\n      JUMPDEST \t\t\tIncident memory incident = inc...\n      DUP3 \t\t\tIncident memory incident = inc...\n      ADD \t\t\tIncident memory incident = inc...\n      SWAP2 \t\t\tIncident memory incident = inc...\n      SWAP1 \t\t\tIncident memory incident = inc...\n      PUSH 0\t\t\tIncident memory incident = inc...\n      MSTORE \t\t\tIncident memory incident = inc...\n      PUSH 20\t\t\tIncident memory incident = inc...\n      PUSH 0\t\t\tIncident memory incident = inc...\n      KECCAK256 \t\t\tIncident memory incident = inc...\n      SWAP1 \t\t\tIncident memory incident = inc...\n    tag 87\t\t\tIncident memory incident = inc...\n      JUMPDEST \t\t\tIncident memory incident = inc...\n      DUP2 \t\t\tIncident memory incident = inc...\n      SLOAD \t\t\tIncident memory incident = inc...\n      DUP2 \t\t\tIncident memory incident = inc...\n      MSTORE \t\t\tIncident memory incident = inc...\n      SWAP1 \t\t\tIncident memory incident = inc...\n      PUSH 1\t\t\tIncident memory incident = inc...\n      ADD \t\t\tIncident memory incident = inc...\n      SWAP1 \t\t\tIncident memory incident = inc...\n      PUSH 20\t\t\tIncident memory incident = inc...\n      ADD \t\t\tIncident memory incident = inc...\n      DUP1 \t\t\tIncident memory incident = inc...\n      DUP4 \t\t\tIncident memory incident = inc...\n      GT \t\t\tIncident memory incident = inc...\n      PUSH [tag] 87\t\t\tIncident memory incident = inc...\n      JUMPI \t\t\tIncident memory incident = inc...\n      DUP3 \t\t\tIncident memory incident = inc...\n      SWAP1 \t\t\tIncident memory incident = inc...\n      SUB \t\t\tIncident memory incident = inc...\n      PUSH 1F\t\t\tIncident memory incident = inc...\n      AND \t\t\tIncident memory incident = inc...\n      DUP3 \t\t\tIncident memory incident = inc...\n      ADD \t\t\tIncident memory incident = inc...\n      SWAP2 \t\t\tIncident memory incident = inc...\n    tag 85\t\t\tIncident memory incident = inc...\n      JUMPDEST \t\t\tIncident memory incident = inc...\n      POP \t\t\tIncident memory incident = inc...\n      POP \t\t\tIncident memory incident = inc...\n      POP \t\t\tIncident memory incident = inc...\n      POP \t\t\tIncident memory incident = inc...\n      POP \t\t\tIncident memory incident = inc...\n      DUP2 \t\t\tIncident memory incident = inc...\n      MSTORE \t\t\tIncident memory incident = inc...\n      PUSH 20\t\t\tIncident memory incident = inc...\n      ADD \t\t\tIncident memory incident = inc...\n      SWAP1 \t\t\tIncident memory incident = inc...\n      PUSH 1\t\t\tIncident memory incident = inc...\n      ADD \t\t\tIncident memory incident = inc...\n      SWAP1 \t\t\tIncident memory incident = inc...\n      PUSH [tag] 80\t\t\tIncident memory incident = inc...\n      JUMP \t\t\tIncident memory incident = inc...\n    tag 81\t\t\tIncident memory incident = inc...\n      JUMPDEST \t\t\tIncident memory incident = inc...\n      POP \t\t\tIncident memory incident = inc...\n      POP \t\t\tIncident memory incident = inc...\n      POP \t\t\tIncident memory incident = inc...\n      POP \t\t\tIncident memory incident = inc...\n      DUP2 \t\t\tIncident memory incident = inc...\n      MSTORE \t\t\tIncident memory incident = inc...\n      POP \t\t\tIncident memory incident = inc...\n      POP \t\t\tIncident memory incident = inc...\n      SWAP1 \t\t\tIncident memory incident = inc...\n      POP \t\t\tIncident memory incident = inc...\n      DUP1 \t\t\tincident\n      PUSH 20\t\t\tincident.description\n      ADD \t\t\tincident.description\n      MLOAD \t\t\tincident.description\n      DUP2 \t\t\tincident\n      PUSH 40\t\t\tincident.timeline\n      ADD \t\t\tincident.timeline\n      MLOAD \t\t\tincident.timeline\n      DUP3 \t\t\tincident\n      PUSH 60\t\t\tincident.affectedSystems\n      ADD \t\t\tincident.affectedSystems\n      MLOAD \t\t\tincident.affectedSystems\n      DUP4 \t\t\tincident\n      PUSH 80\t\t\tincident.anomalyAlerts\n      ADD \t\t\tincident.anomalyAlerts\n      MLOAD \t\t\tincident.anomalyAlerts\n      DUP5 \t\t\tincident\n      PUSH A0\t\t\tincident.evidenceChain\n      ADD \t\t\tincident.evidenceChain\n      MLOAD \t\t\tincident.evidenceChain\n      SWAP6 \t\t\treturn (incident.description, ...\n      POP \t\t\treturn (incident.description, ...\n      SWAP6 \t\t\treturn (incident.description, ...\n      POP \t\t\treturn (incident.description, ...\n      SWAP6 \t\t\treturn (incident.description, ...\n      POP \t\t\treturn (incident.description, ...\n      SWAP6 \t\t\treturn (incident.description, ...\n      POP \t\t\treturn (incident.description, ...\n      SWAP6 \t\t\treturn (incident.description, ...\n      POP \t\t\treturn (incident.description, ...\n      POP \t\t\treturn (incident.description, ...\n      SWAP2 \t\t\tfunction getIncidentDetails(ui...\n      SWAP4 \t\t\tfunction getIncidentDetails(ui...\n      SWAP6 \t\t\tfunction getIncidentDetails(ui...\n      SWAP1 \t\t\tfunction getIncidentDetails(ui...\n      SWAP3 \t\t\tfunction getIncidentDetails(ui...\n      SWAP5 \t\t\tfunction getIncidentDetails(ui...\n      POP \t\t\tfunction getIncidentDetails(ui...\n      JUMP \t\t\tfunction getIncidentDetails(ui...\n    tag 20\t\t\tmapping(uint256 => Evidence) p...\n      JUMPDEST \t\t\tmapping(uint256 => Evidence) p...\n      PUSH 1\t\t\tmapping(uint256 => Evidence) p...\n      PUSH 20\t\t\tmapping(uint256 => Evidence) p...\n      MSTORE \t\t\tmapping(uint256 => Evidence) p...\n      DUP1 \t\t\tmapping(uint256 => Evidence) p...\n      PUSH 0\t\t\tmapping(uint256 => Evidence) p...\n      MSTORE \t\t\tmapping(uint256 => Evidence) p...\n      PUSH 40\t\t\tmapping(uint256 => Evidence) p...\n      PUSH 0\t\t\tmapping(uint256 => Evidence) p...\n      KECCAK256 \t\t\tmapping(uint256 => Evidence) p...\n      PUSH 0\t\t\tmapping(uint256 => Evidence) p...\n      SWAP2 \t\t\tmapping(uint256 => Evidence) p...\n      POP \t\t\tmapping(uint256 => Evidence) p...\n      SWAP1 \t\t\tmapping(uint256 => Evidence) p...\n      POP \t\t\tmapping(uint256 => Evidence) p...\n      DUP1 \t\t\tmapping(uint256 => Evidence) p...\n      PUSH 0\t\t\tmapping(uint256 => Evidence) p...\n      ADD \t\t\tmapping(uint256 => Evidence) p...\n      SLOAD \t\t\tmapping(uint256 => Evidence) p...\n      SWAP1 \t\t\tmapping(uint256 => Evidence) p...\n      DUP1 \t\t\tmapping(uint256 => Evidence) p...\n      PUSH 1\t\t\tmapping(uint256 => Evidence) p...\n      ADD \t\t\tmapping(uint256 => Evidence) p...\n      DUP1 \t\t\tmapping(uint256 => Evidence) p...\n      SLOAD \t\t\tmapping(uint256 => Evidence) p...\n      PUSH [tag] 88\t\t\tmapping(uint256 => Evidence) p...\n      SWAP1 \t\t\tmapping(uint256 => Evidence) p...\n      PUSH [tag] 51\t\t\tmapping(uint256 => Evidence) p...\n      JUMP \t\t\tmapping(uint256 => Evidence) p...\n    tag 88\t\t\tmapping(uint256 => Evidence) p...\n      JUMPDEST \t\t\tmapping(uint256 => Evidence) p...\n      DUP1 \t\t\tmapping(uint256 => Evidence) p...\n      PUSH 1F\t\t\tmapping(uint256 => Evidence) p...\n      ADD \t\t\tmapping(uint256 => Evidence) p...\n      PUSH 20\t\t\tmapping(uint256 => Evidence) p...\n      DUP1 \t\t\tmapping(uint256 => Evidence) p...\n      SWAP2 \t\t\tmapping(uint256 => Evidence) p...\n      DIV \t\t\tmapping(uint256 => Evidence) p...\n      MUL \t\t\tmapping(uint256 => Evidence) p...\n      PUSH 20\t\t\tmapping(uint256 => Evidence) p...\n      ADD \t\t\tmapping(uint256 => Evidence) p...\n      PUSH 40\t\t\tmapping(uint256 => Evidence) p...\n      MLOAD \t\t\tmapping(uint256 => Evidence) p...\n      SWAP1 \t\t\tmapping(uint256 => Evidence) p...\n      DUP2 \t\t\tmapping(uint256 => Evidence) p...\n      ADD \t\t\tmapping(uint256 => Evidence) p...\n      PUSH 40\t\t\tmapping(uint256 => Evidence) p...\n      MSTORE \t\t\tmapping(uint256 => Evidence) p...\n      DUP1 \t\t\tmapping(uint256 => Evidence) p...\n      SWAP3 \t\t\tmapping(uint256 => Evidence) p...\n      SWAP2 \t\t\tmapping(uint256 => Evidence) p...\n      SWAP1 \t\t\tmapping(uint256 => Evidence) p...\n      DUP2 \t\t\tmapping(uint256 => Evidence) p...\n      DUP2 \t\t\tmapping(uint256 => Evidence) p...\n      MSTORE \t\t\tmapping(uint256 => Evidence) p...\n      PUSH 20\t\t\tmapping(uint256 => Evidence) p...\n      ADD \t\t\tmapping(uint256 => Evidence) p...\n      DUP3 \t\t\tmapping(uint256 => Evidence) p...\n      DUP1 \t\t\tmapping(uint256 => Evidence) p...\n      SLOAD \t\t\tmapping(uint256 => Evidence) p...\n      PUSH [tag] 89\t\t\tmapping(uint256 => Evidence) p...\n      SWAP1 \t\t\tmapping(uint256 => Evidence) p...\n      PUSH [tag] 51\t\t\tmapping(uint256 => Evidence) p...\n      JUMP \t\t\tmapping(uint256 => Evidence) p...\n    tag 89\t\t\tmapping(uint256 => Evidence) p...\n      JUMPDEST \t\t\tmapping(uint256 => Evidence) p...\n      DUP1 \t\t\tmapping(uint256 => Evidence) p...\n      ISZERO \t\t\tmapping(uint256 => Evidence) p...\n      PUSH [tag] 90\t\t\tmapping(uint256 => Evidence) p...\n      JUMPI \t\t\tmapping(uint256 => Evidence) p...\n      DUP1 \t\t\tmapping(uint256 => Evidence) p...\n      PUSH 1F\t\t\tmapping(uint256 => Evidence) p...\n      LT \t\t\tmapping(uint256 => Evidence) p...\n      PUSH [tag] 91\t\t\tmapping(uint256 => Evidence) p...\n      JUMPI \t\t\tmapping(uint256 => Evidence) p...\n      PUSH 100\t\t\tmapping(uint256 => Evidence) p...\n      DUP1 \t\t\tmapping(uint256 => Evidence) p...\n      DUP4 \t\t\tmapping(uint256 => Evidence) p...\n      SLOAD \t\t\tmapping(uint256 => Evidence) p...\n      DIV \t\t\tmapping(uint256 => Evidence) p...\n      MUL \t\t\tmapping(uint256 => Evidence) p...\n      DUP4 \t\t\tmapping(uint256 => Evidence) p...\n      MSTORE \t\t\tmapping(uint256 => Evidence) p...\n      SWAP2 \t\t\tmapping(uint256 => Evidence) p...\n      PUSH 20\t\t\tmapping(uint256 => Evidence) p...\n      ADD \t\t\tmapping(uint256 => Evidence) p...\n      SWAP2 \t\t\tmapping(uint256 => Evidence) p...\n      PUSH [tag] 90\t\t\tmapping(uint256 => Evidence) p...\n      JUMP \t\t\tmapping(uint256 => Evidence) p...\n    tag 91\t\t\tmapping(uint256 => Evidence) p...\n      JUMPDEST \t\t\tmapping(uint256 => Evidence) p...\n      DUP3 \t\t\tmapping(uint256 => Evidence) p...\n      ADD \t\t\tmapping(uint256 => Evidence) p...\n      SWAP2 \t\t\tmapping(uint256 => Evidence) p...\n      SWAP1 \t\t\tmapping(uint256 => Evidence) p...\n      PUSH 0\t\t\tmapping(uint256 => Evidence) p...\n      MSTORE \t\t\tmapping(uint256 => Evidence) p...\n      PUSH 20\t\t\tmapping(uint256 => Evidence) p...\n      PUSH 0\t\t\tmapping(uint256 => Evidence) p...\n      KECCAK256 \t\t\tmapping(uint256 => Evidence) p...\n      SWAP1 \t\t\tmapping(uint256 => Evidence) p...\n    tag 92\t\t\tmapping(uint256 => Evidence) p...\n      JUMPDEST \t\t\tmapping(uint256 => Evidence) p...\n      DUP2 \t\t\tmapping(uint256 => Evidence) p...\n      SLOAD \t\t\tmapping(uint256 => Evidence) p...\n      DUP2 \t\t\tmapping(uint256 => Evidence) p...\n      MSTORE \t\t\tmapping(uint256 => Evidence) p...\n      SWAP1 \t\t\tmapping(uint256 => Evidence) p...\n      PUSH 1\t\t\tmapping(uint256 => Evidence) p...\n      ADD \t\t\tmapping(uint256 => Evidence) p...\n      SWAP1 \t\t\tmapping(uint256 => Evidence) p...\n      PUSH 20\t\t\tmapping(uint256 => Evidence) p...\n      ADD \t\t\tmapping(uint256 => Evidence) p...\n      DUP1 \t\t\tmapping(uint256 => Evidence) p...\n      DUP4 \t\t\tmapping(uint256 => Evidence) p...\n      GT \t\t\tmapping(uint256 => Evidence) p...\n      PUSH [tag] 92\t\t\tmapping(uint256 => Evidence) p...\n      JUMPI \t\t\tmapping(uint256 => Evidence) p...\n      DUP3 \t\t\tmapping(uint256 => Evidence) p...\n      SWAP1 \t\t\tmapping(uint256 => Evidence) p...\n      SUB \t\t\tmapping(uint256 => Evidence) p...\n      PUSH 1F\t\t\tmapping(uint256 => Evidence) p...\n      AND \t\t\tmapping(uint256 => Evidence) p...\n      DUP3 \t\t\tmapping(uint256 => Evidence) p...\n      ADD \t\t\tmapping(uint256 => Evidence) p...\n      SWAP2 \t\t\tmapping(uint256 => Evidence) p...\n    tag 90\t\t\tmapping(uint256 => Evidence) p...\n      JUMPDEST \t\t\tmapping(uint256 => Evidence) p...\n      POP \t\t\tmapping(uint256 => Evidence) p...\n      POP \t\t\tmapping(uint256 => Evidence) p...\n      POP \t\t\tmapping(uint256 => Evidence) p...\n      POP \t\t\tmapping(uint256 => Evidence) p...\n      POP \t\t\tmapping(uint256 => Evidence) p...\n      SWAP1 \t\t\tmapping(uint256 => Evidence) p...\n      DUP1 \t\t\tmapping(uint256 => Evidence) p...\n      PUSH 2\t\t\tmapping(uint256 => Evidence) p...\n      ADD \t\t\tmapping(uint256 => Evidence) p...\n      SLOAD \t\t\tmapping(uint256 => Evidence) p...\n      SWAP1 \t\t\tmapping(uint256 => Evidence) p...\n      POP \t\t\tmapping(uint256 => Evidence) p...\n      DUP4 \t\t\tmapping(uint256 => Evidence) p...\n      JUMP \t\t\tmapping(uint256 => Evidence) p...\n    tag 24\t\t\tuint256 public incidentCounter\n      JUMPDEST \t\t\tuint256 public incidentCounter\n      PUSH 2\t\t\tuint256 public incidentCounter\n      SLOAD \t\t\tuint256 public incidentCounter\n      DUP2 \t\t\tuint256 public incidentCounter\n      JUMP \t\t\tuint256 public incidentCounter\n    tag 30\t\t\tfunction verifyEvidenceImmutab...\n      JUMPDEST \t\t\tfunction verifyEvidenceImmutab...\n      PUSH 0\t\t\tbool\n      DUP1 \t\t\tEvidence memory evidence\n      PUSH 1\t\t\tevidences\n      PUSH 0\t\t\tevidences[_evidenceId]\n      DUP6 \t\t\t_evidenceId\n      DUP2 \t\t\tevidences[_evidenceId]\n      MSTORE \t\t\tevidences[_evidenceId]\n      PUSH 20\t\t\tevidences[_evidenceId]\n      ADD \t\t\tevidences[_evidenceId]\n      SWAP1 \t\t\tevidences[_evidenceId]\n      DUP2 \t\t\tevidences[_evidenceId]\n      MSTORE \t\t\tevidences[_evidenceId]\n      PUSH 20\t\t\tevidences[_evidenceId]\n      ADD \t\t\tevidences[_evidenceId]\n      PUSH 0\t\t\tevidences[_evidenceId]\n      KECCAK256 \t\t\tevidences[_evidenceId]\n      PUSH 40\t\t\tEvidence memory evidence = evi...\n      MLOAD \t\t\tEvidence memory evidence = evi...\n      DUP1 \t\t\tEvidence memory evidence = evi...\n      PUSH 60\t\t\tEvidence memory evidence = evi...\n      ADD \t\t\tEvidence memory evidence = evi...\n      PUSH 40\t\t\tEvidence memory evidence = evi...\n      MSTORE \t\t\tEvidence memory evidence = evi...\n      SWAP1 \t\t\tEvidence memory evidence = evi...\n      DUP2 \t\t\tEvidence memory evidence = evi...\n      PUSH 0\t\t\tEvidence memory evidence = evi...\n      DUP3 \t\t\tEvidence memory evidence = evi...\n      ADD \t\t\tEvidence memory evidence = evi...\n      SLOAD \t\t\tEvidence memory evidence = evi...\n      DUP2 \t\t\tEvidence memory evidence = evi...\n      MSTORE \t\t\tEvidence memory evidence = evi...\n      PUSH 20\t\t\tEvidence memory evidence = evi...\n      ADD \t\t\tEvidence memory evidence = evi...\n      PUSH 1\t\t\tEvidence memory evidence = evi...\n      DUP3 \t\t\tEvidence memory evidence = evi...\n      ADD \t\t\tEvidence memory evidence = evi...\n      DUP1 \t\t\tEvidence memory evidence = evi...\n      SLOAD \t\t\tEvidence memory evidence = evi...\n      PUSH [tag] 94\t\t\tEvidence memory evidence = evi...\n      SWAP1 \t\t\tEvidence memory evidence = evi...\n      PUSH [tag] 51\t\t\tEvidence memory evidence = evi...\n      JUMP \t\t\tEvidence memory evidence = evi...\n    tag 94\t\t\tEvidence memory evidence = evi...\n      JUMPDEST \t\t\tEvidence memory evidence = evi...\n      DUP1 \t\t\tEvidence memory evidence = evi...\n      PUSH 1F\t\t\tEvidence memory evidence = evi...\n      ADD \t\t\tEvidence memory evidence = evi...\n      PUSH 20\t\t\tEvidence memory evidence = evi...\n      DUP1 \t\t\tEvidence memory evidence = evi...\n      SWAP2 \t\t\tEvidence memory evidence = evi...\n      DIV \t\t\tEvidence memory evidence = evi...\n      MUL \t\t\tEvidence memory evidence = evi...\n      PUSH 20\t\t\tEvidence memory evidence = evi...\n      ADD \t\t\tEvidence memory evidence = evi...\n      PUSH 40\t\t\tEvidence memory evidence = evi...\n      MLOAD \t\t\tEvidence memory evidence = evi...\n      SWAP1 \t\t\tEvidence memory evidence = evi...\n      DUP2 \t\t\tEvidence memory evidence = evi...\n      ADD \t\t\tEvidence memory evidence = evi...\n      PUSH 40\t\t\tEvidence memory evidence = evi...\n      MSTORE \t\t\tEvidence memory evidence = evi...\n      DUP1 \t\t\tEvidence memory evidence = evi...\n      SWAP3 \t\t\tEvidence memory evidence = evi...\n      SWAP2 \t\t\tEvidence memory evidence = evi...\n      SWAP1 \t\t\tEvidence memory evidence = evi...\n      DUP2 \t\t\tEvidence memory evidence = evi...\n      DUP2 \t\t\tEvidence memory evidence = evi...\n      MSTORE \t\t\tEvidence memory evidence = evi...\n      PUSH 20\t\t\tEvidence memory evidence = evi...\n      ADD \t\t\tEvidence memory evidence = evi...\n      DUP3 \t\t\tEvidence memory evidence = evi...\n      DUP1 \t\t\tEvidence memory evidence = evi...\n      SLOAD \t\t\tEvidence memory evidence = evi...\n      PUSH [tag] 95\t\t\tEvidence memory evidence = evi...\n      SWAP1 \t\t\tEvidence memory evidence = evi...\n      PUSH [tag] 51\t\t\tEvidence memory evidence = evi...\n      JUMP \t\t\tEvidence memory evidence = evi...\n    tag 95\t\t\tEvidence memory evidence = evi...\n      JUMPDEST \t\t\tEvidence memory evidence = evi...\n      DUP1 \t\t\tEvidence memory evidence = evi...\n      ISZERO \t\t\tEvidence memory evidence = evi...\n      PUSH [tag] 96\t\t\tEvidence memory evidence = evi...\n      JUMPI \t\t\tEvidence memory evidence = evi...\n      DUP1 \t\t\tEvidence memory evidence = evi...\n      PUSH 1F\t\t\tEvidence memory evidence = evi...\n      LT \t\t\tEvidence memory evidence = evi...\n      PUSH [tag] 97\t\t\tEvidence memory evidence = evi...\n      JUMPI \t\t\tEvidence memory evidence = evi...\n      PUSH 100\t\t\tEvidence memory evidence = evi...\n      DUP1 \t\t\tEvidence memory evidence = evi...\n      DUP4 \t\t\tEvidence memory evidence = evi...\n      SLOAD \t\t\tEvidence memory evidence = evi...\n      DIV \t\t\tEvidence memory evidence = evi...\n      MUL \t\t\tEvidence memory evidence = evi...\n      DUP4 \t\t\tEvidence memory evidence = evi...\n      MSTORE \t\t\tEvidence memory evidence = evi...\n      SWAP2 \t\t\tEvidence memory evidence = evi...\n      PUSH 20\t\t\tEvidence memory evidence = evi...\n      ADD \t\t\tEvidence memory evidence = evi...\n      SWAP2 \t\t\tEvidence memory evidence = evi...\n      PUSH [tag] 96\t\t\tEvidence memory evidence = evi...\n      JUMP \t\t\tEvidence memory evidence = evi...\n    tag 97\t\t\tEvidence memory evidence = evi...\n      JUMPDEST \t\t\tEvidence memory evidence = evi...\n      DUP3 \t\t\tEvidence memory evidence = evi...\n      ADD \t\t\tEvidence memory evidence = evi...\n      SWAP2 \t\t\tEvidence memory evidence = evi...\n      SWAP1 \t\t\tEvidence memory evidence = evi...\n      PUSH 0\t\t\tEvidence memory evidence = evi...\n      MSTORE \t\t\tEvidence memory evidence = evi...\n      PUSH 20\t\t\tEvidence memory evidence = evi...\n      PUSH 0\t\t\tEvidence memory evidence = evi...\n      KECCAK256 \t\t\tEvidence memory evidence = evi...\n      SWAP1 \t\t\tEvidence memory evidence = evi...\n    tag 98\t\t\tEvidence memory evidence = evi...\n      JUMPDEST \t\t\tEvidence memory evidence = evi...\n      DUP2 \t\t\tEvidence memory evidence = evi...\n      SLOAD \t\t\tEvidence memory evidence = evi...\n      DUP2 \t\t\tEvidence memory evidence = evi...\n      MSTORE \t\t\tEvidence memory evidence = evi...\n      SWAP1 \t\t\tEvidence memory evidence = evi...\n      PUSH 1\t\t\tEvidence memory evidence = evi...\n      ADD \t\t\tEvidence memory evidence = evi...\n      SWAP1 \t\t\tEvidence memory evidence = evi...\n      PUSH 20\t\t\tEvidence memory evidence = evi...\n      ADD \t\t\tEvidence memory evidence = evi...\n      DUP1 \t\t\tEvidence memory evidence = evi...\n      DUP4 \t\t\tEvidence memory evidence = evi...\n      GT \t\t\tEvidence memory evidence = evi...\n      PUSH [tag] 98\t\t\tEvidence memory evidence = evi...\n      JUMPI \t\t\tEvidence memory evidence = evi...\n      DUP3 \t\t\tEvidence memory evidence = evi...\n      SWAP1 \t\t\tEvidence memory evidence = evi...\n      SUB \t\t\tEvidence memory evidence = evi...\n      PUSH 1F\t\t\tEvidence memory evidence = evi...\n      AND \t\t\tEvidence memory evidence = evi...\n      DUP3 \t\t\tEvidence memory evidence = evi...\n      ADD \t\t\tEvidence memory evidence = evi...\n      SWAP2 \t\t\tEvidence memory evidence = evi...\n    tag 96\t\t\tEvidence memory evidence = evi...\n      JUMPDEST \t\t\tEvidence memory evidence = evi...\n      POP \t\t\tEvidence memory evidence = evi...\n      POP \t\t\tEvidence memory evidence = evi...\n      POP \t\t\tEvidence memory evidence = evi...\n      POP \t\t\tEvidence memory evidence = evi...\n      POP \t\t\tEvidence memory evidence = evi...\n      DUP2 \t\t\tEvidence memory evidence = evi...\n      MSTORE \t\t\tEvidence memory evidence = evi...\n      PUSH 20\t\t\tEvidence memory evidence = evi...\n      ADD \t\t\tEvidence memory evidence = evi...\n      PUSH 2\t\t\tEvidence memory evidence = evi...\n      DUP3 \t\t\tEvidence memory evidence = evi...\n      ADD \t\t\tEvidence memory evidence = evi...\n      SLOAD \t\t\tEvidence memory evidence = evi...\n      DUP2 \t\t\tEvidence memory evidence = evi...\n      MSTORE \t\t\tEvidence memory evidence = evi...\n      POP \t\t\tEvidence memory evidence = evi...\n      POP \t\t\tEvidence memory evidence = evi...\n      SWAP1 \t\t\tEvidence memory evidence = evi...\n      POP \t\t\tEvidence memory evidence = evi...\n      DUP3 \t\t\t_hash\n      DUP2 \t\t\tevidence\n      PUSH 40\t\t\tevidence.hash\n      ADD \t\t\tevidence.hash\n      MLOAD \t\t\tevidence.hash\n      EQ \t\t\tevidence.hash == _hash\n      SWAP2 \t\t\treturn evidence.hash == _hash\n      POP \t\t\treturn evidence.hash == _hash\n      POP \t\t\treturn evidence.hash == _hash\n      SWAP3 \t\t\tfunction verifyEvidenceImmutab...\n      SWAP2 \t\t\tfunction verifyEvidenceImmutab...\n      POP \t\t\tfunction verifyEvidenceImmutab...\n      POP \t\t\tfunction verifyEvidenceImmutab...\n      JUMP \t\t\tfunction verifyEvidenceImmutab...\n    tag 36\t\t\tfunction addIncident(string me...\n      JUMPDEST \t\t\tfunction addIncident(string me...\n      PUSH 2\t\t\tincidentCounter\n      PUSH 0\t\t\tincidentCounter\n      DUP2 \t\t\tincidentCounter++\n      SLOAD \t\t\tincidentCounter++\n      DUP1 \t\t\tincidentCounter++\n      SWAP3 \t\t\tincidentCounter++\n      SWAP2 \t\t\tincidentCounter++\n      SWAP1 \t\t\tincidentCounter++\n      PUSH [tag] 100\t\t\tincidentCounter++\n      SWAP1 \t\t\tincidentCounter++\n      PUSH [tag] 101\t\t\tincidentCounter++\n      JUMP \t\t\tincidentCounter++\n    tag 100\t\t\tincidentCounter++\n      JUMPDEST \t\t\tincidentCounter++\n      SWAP2 \t\t\tincidentCounter++\n      SWAP1 \t\t\tincidentCounter++\n      POP \t\t\tincidentCounter++\n      SSTORE \t\t\tincidentCounter++\n      POP \t\t\tincidentCounter++\n      PUSH 40\t\t\tIncident(incidentCounter, _des...\n      MLOAD \t\t\tIncident(incidentCounter, _des...\n      DUP1 \t\t\tIncident(incidentCounter, _des...\n      PUSH C0\t\t\tIncident(incidentCounter, _des...\n      ADD \t\t\tIncident(incidentCounter, _des...\n      PUSH 40\t\t\tIncident(incidentCounter, _des...\n      MSTORE \t\t\tIncident(incidentCounter, _des...\n      DUP1 \t\t\tIncident(incidentCounter, _des...\n      PUSH 2\t\t\tincidentCounter\n      SLOAD \t\t\tincidentCounter\n      DUP2 \t\t\tIncident(incidentCounter, _des...\n      MSTORE \t\t\tIncident(incidentCounter, _des...\n      PUSH 20\t\t\tIncident(incidentCounter, _des...\n      ADD \t\t\tIncident(incidentCounter, _des...\n      DUP7 \t\t\t_description\n      DUP2 \t\t\tIncident(incidentCounter, _des...\n      MSTORE \t\t\tIncident(incidentCounter, _des...\n      PUSH 20\t\t\tIncident(incidentCounter, _des...\n      ADD \t\t\tIncident(incidentCounter, _des...\n      DUP6 \t\t\t_timeline\n      DUP2 \t\t\tIncident(incidentCounter, _des...\n      MSTORE \t\t\tIncident(incidentCounter, _des...\n      PUSH 20\t\t\tIncident(incidentCounter, _des...\n      ADD \t\t\tIncident(incidentCounter, _des...\n      DUP5 \t\t\t_affectedSystems\n      DUP2 \t\t\tIncident(incidentCounter, _des...\n      MSTORE \t\t\tIncident(incidentCounter, _des...\n      PUSH 20\t\t\tIncident(incidentCounter, _des...\n      ADD \t\t\tIncident(incidentCounter, _des...\n      DUP4 \t\t\t_anomalyAlerts\n      DUP2 \t\t\tIncident(incidentCounter, _des...\n      MSTORE \t\t\tIncident(incidentCounter, _des...\n      PUSH 20\t\t\tIncident(incidentCounter, _des...\n      ADD \t\t\tIncident(incidentCounter, _des...\n      DUP3 \t\t\t_evidenceChain\n      DUP2 \t\t\tIncident(incidentCounter, _des...\n      MSTORE \t\t\tIncident(incidentCounter, _des...\n      POP \t\t\tIncident(incidentCounter, _des...\n      PUSH 0\t\t\tincidents\n      DUP1 \t\t\tincidents[incidentCounter]\n      PUSH 2\t\t\tincidentCounter\n      SLOAD \t\t\tincidentCounter\n      DUP2 \t\t\tincidents[incidentCounter]\n      MSTORE \t\t\tincidents[incidentCounter]\n      PUSH 20\t\t\tincidents[incidentCounter]\n      ADD \t\t\tincidents[incidentCounter]\n      SWAP1 \t\t\tincidents[incidentCounter]\n      DUP2 \t\t\tincidents[incidentCounter]\n      MSTORE \t\t\tincidents[incidentCounter]\n      PUSH 20\t\t\tincidents[incidentCounter]\n      ADD \t\t\tincidents[incidentCounter]\n      PUSH 0\t\t\tincidents[incidentCounter]\n      KECCAK256 \t\t\tincidents[incidentCounter]\n      PUSH 0\t\t\tincidents[incidentCounter] = I...\n      DUP3 \t\t\tincidents[incidentCounter] = I...\n      ADD \t\t\tincidents[incidentCounter] = I...\n      MLOAD \t\t\tincidents[incidentCounter] = I...\n      DUP2 \t\t\tincidents[incidentCounter] = I...\n      PUSH 0\t\t\tincidents[incidentCounter] = I...\n      ADD \t\t\tincidents[incidentCounter] = I...\n      SSTORE \t\t\tincidents[incidentCounter] = I...\n      PUSH 20\t\t\tincidents[incidentCounter] = I...\n      DUP3 \t\t\tincidents[incidentCounter] = I...\n      ADD \t\t\tincidents[incidentCounter] = I...\n      MLOAD \t\t\tincidents[incidentCounter] = I...\n      DUP2 \t\t\tincidents[incidentCounter] = I...\n      PUSH 1\t\t\tincidents[incidentCounter] = I...\n      ADD \t\t\tincidents[incidentCounter] = I...\n      SWAP1 \t\t\tincidents[incidentCounter] = I...\n      DUP2 \t\t\tincidents[incidentCounter] = I...\n      PUSH [tag] 102\t\t\tincidents[incidentCounter] = I...\n      SWAP2 \t\t\tincidents[incidentCounter] = I...\n      SWAP1 \t\t\tincidents[incidentCounter] = I...\n      PUSH [tag] 103\t\t\tincidents[incidentCounter] = I...\n      JUMP \t\t\tincidents[incidentCounter] = I...\n    tag 102\t\t\tincidents[incidentCounter] = I...\n      JUMPDEST \t\t\tincidents[incidentCounter] = I...\n      POP \t\t\tincidents[incidentCounter] = I...\n      PUSH 40\t\t\tincidents[incidentCounter] = I...\n      DUP3 \t\t\tincidents[incidentCounter] = I...\n      ADD \t\t\tincidents[incidentCounter] = I...\n      MLOAD \t\t\tincidents[incidentCounter] = I...\n      DUP2 \t\t\tincidents[incidentCounter] = I...\n      PUSH 2\t\t\tincidents[incidentCounter] = I...\n      ADD \t\t\tincidents[incidentCounter] = I...\n      SWAP1 \t\t\tincidents[incidentCounter] = I...\n      DUP1 \t\t\tincidents[incidentCounter] = I...\n      MLOAD \t\t\tincidents[incidentCounter] = I...\n      SWAP1 \t\t\tincidents[incidentCounter] = I...\n      PUSH 20\t\t\tincidents[incidentCounter] = I...\n      ADD \t\t\tincidents[incidentCounter] = I...\n      SWAP1 \t\t\tincidents[incidentCounter] = I...\n      PUSH [tag] 104\t\t\tincidents[incidentCounter] = I...\n      SWAP3 \t\t\tincidents[incidentCounter] = I...\n      SWAP2 \t\t\tincidents[incidentCounter] = I...\n      SWAP1 \t\t\tincidents[incidentCounter] = I...\n      PUSH [tag] 105\t\t\tincidents[incidentCounter] = I...\n      JUMP \t\t\tincidents[incidentCounter] = I...\n    tag 104\t\t\tincidents[incidentCounter] = I...\n      JUMPDEST \t\t\tincidents[incidentCounter] = I...\n      POP \t\t\tincidents[incidentCounter] = I...\n      PUSH 60\t\t\tincidents[incidentCounter] = I...\n      DUP3 \t\t\tincidents[incidentCounter] = I...\n      ADD \t\t\tincidents[incidentCounter] = I...\n      MLOAD \t\t\tincidents[incidentCounter] = I...\n      DUP2 \t\t\tincidents[incidentCounter] = I...\n      PUSH 3\t\t\tincidents[incidentCounter] = I...\n      ADD \t\t\tincidents[incidentCounter] = I...\n      SWAP1 \t\t\tincidents[incidentCounter] = I...\n      DUP1 \t\t\tincidents[incidentCounter] = I...\n      MLOAD \t\t\tincidents[incidentCounter] = I...\n      SWAP1 \t\t\tincidents[incidentCounter] = I...\n      PUSH 20\t\t\tincidents[incidentCounter] = I...\n      ADD \t\t\tincidents[incidentCounter] = I...\n      SWAP1 \t\t\tincidents[incidentCounter] = I...\n      PUSH [tag] 106\t\t\tincidents[incidentCounter] = I...\n      SWAP3 \t\t\tincidents[incidentCounter] = I...\n      SWAP2 \t\t\tincidents[incidentCounter] = I...\n      SWAP1 \t\t\tincidents[incidentCounter] = I...\n      PUSH [tag] 105\t\t\tincidents[incidentCounter] = I...\n      JUMP \t\t\tincidents[incidentCounter] = I...\n    tag 106\t\t\tincidents[incidentCounter] = I...\n      JUMPDEST \t\t\tincidents[incidentCounter] = I...\n      POP \t\t\tincidents[incidentCounter] = I...\n      PUSH 80\t\t\tincidents[incidentCounter] = I...\n      DUP3 \t\t\tincidents[incidentCounter] = I...\n      ADD \t\t\tincidents[incidentCounter] = I...\n      MLOAD \t\t\tincidents[incidentCounter] = I...\n      DUP2 \t\t\tincidents[incidentCounter] = I...\n      PUSH 4\t\t\tincidents[incidentCounter] = I...\n      ADD \t\t\tincidents[incidentCounter] = I...\n      SWAP1 \t\t\tincidents[incidentCounter] = I...\n      DUP1 \t\t\tincidents[incidentCounter] = I...\n      MLOAD \t\t\tincidents[incidentCounter] = I...\n      SWAP1 \t\t\tincidents[incidentCounter] = I...\n      PUSH 20\t\t\tincidents[incidentCounter] = I...\n      ADD \t\t\tincidents[incidentCounter] = I...\n      SWAP1 \t\t\tincidents[incidentCounter] = I...\n      PUSH [tag] 107\t\t\tincidents[incidentCounter] = I...\n      SWAP3 \t\t\tincidents[incidentCounter] = I...\n      SWAP2 \t\t\tincidents[incidentCounter] = I...\n      SWAP1 \t\t\tincidents[incidentCounter] = I...\n      PUSH [tag] 105\t\t\tincidents[incidentCounter] = I...\n      JUMP \t\t\tincidents[incidentCounter] = I...\n    tag 107\t\t\tincidents[incidentCounter] = I...\n      JUMPDEST \t\t\tincidents[incidentCounter] = I...\n      POP \t\t\tincidents[incidentCounter] = I...\n      PUSH A0\t\t\tincidents[incidentCounter] = I...\n      DUP3 \t\t\tincidents[incidentCounter] = I...\n      ADD \t\t\tincidents[incidentCounter] = I...\n      MLOAD \t\t\tincidents[incidentCounter] = I...\n      DUP2 \t\t\tincidents[incidentCounter] = I...\n      PUSH 5\t\t\tincidents[incidentCounter] = I...\n      ADD \t\t\tincidents[incidentCounter] = I...\n      SWAP1 \t\t\tincidents[incidentCounter] = I...\n      DUP1 \t\t\tincidents[incidentCounter] = I...\n      MLOAD \t\t\tincidents[incidentCounter] = I...\n      SWAP1 \t\t\tincidents[incidentCounter] = I...\n      PUSH 20\t\t\tincidents[incidentCounter] = I...\n      ADD \t\t\tincidents[incidentCounter] = I...\n      SWAP1 \t\t\tincidents[incidentCounter] = I...\n      PUSH [tag] 108\t\t\tincidents[incidentCounter] = I...\n      SWAP3 \t\t\tincidents[incidentCounter] = I...\n      SWAP2 \t\t\tincidents[incidentCounter] = I...\n      SWAP1 \t\t\tincidents[incidentCounter] = I...\n      PUSH [tag] 105\t\t\tincidents[incidentCounter] = I...\n      JUMP \t\t\tincidents[incidentCounter] = I...\n    tag 108\t\t\tincidents[incidentCounter] = I...\n      JUMPDEST \t\t\tincidents[incidentCounter] = I...\n      POP \t\t\tincidents[incidentCounter] = I...\n      SWAP1 \t\t\tincidents[incidentCounter] = I...\n      POP \t\t\tincidents[incidentCounter] = I...\n      POP \t\t\tincidents[incidentCounter] = I...\n      PUSH 2\t\t\tincidentCounter\n      SLOAD \t\t\tincidentCounter\n      PUSH 6BE4AE66EB7D09BA0ADD92D6741123BE58053754D068232E838EE8831E9BCB0C\t\t\tIncidentLogged(incidentCounter...\n      DUP7 \t\t\t_description\n      PUSH 40\t\t\tIncidentLogged(incidentCounter...\n      MLOAD \t\t\tIncidentLogged(incidentCounter...\n      PUSH [tag] 109\t\t\tIncidentLogged(incidentCounter...\n      SWAP2 \t\t\tIncidentLogged(incidentCounter...\n      SWAP1 \t\t\tIncidentLogged(incidentCounter...\n      PUSH [tag] 110\t\t\tIncidentLogged(incidentCounter...\n      JUMP \t\t\tIncidentLogged(incidentCounter...\n    tag 109\t\t\tIncidentLogged(incidentCounter...\n      JUMPDEST \t\t\tIncidentLogged(incidentCounter...\n      PUSH 40\t\t\tIncidentLogged(incidentCounter...\n      MLOAD \t\t\tIncidentLogged(incidentCounter...\n      DUP1 \t\t\tIncidentLogged(incidentCounter...\n      SWAP2 \t\t\tIncidentLogged(incidentCounter...\n      SUB \t\t\tIncidentLogged(incidentCounter...\n      SWAP1 \t\t\tIncidentLogged(incidentCounter...\n      LOG2 \t\t\tIncidentLogged(incidentCounter...\n      POP \t\t\tfunction addIncident(string me...\n      POP \t\t\tfunction addIncident(string me...\n      POP \t\t\tfunction addIncident(string me...\n      POP \t\t\tfunction addIncident(string me...\n      POP \t\t\tfunction addIncident(string me...\n      JUMP \t\t\tfunction addIncident(string me...\n    tag 40\t\t\tfunction logEvidence(string me...\n      JUMPDEST \t\t\tfunction logEvidence(string me...\n      PUSH 3\t\t\tevidenceCounter\n      PUSH 0\t\t\tevidenceCounter\n      DUP2 \t\t\tevidenceCounter++\n      SLOAD \t\t\tevidenceCounter++\n      DUP1 \t\t\tevidenceCounter++\n      SWAP3 \t\t\tevidenceCounter++\n      SWAP2 \t\t\tevidenceCounter++\n      SWAP1 \t\t\tevidenceCounter++\n      PUSH [tag] 112\t\t\tevidenceCounter++\n      SWAP1 \t\t\tevidenceCounter++\n      PUSH [tag] 101\t\t\tevidenceCounter++\n      JUMP \t\t\tevidenceCounter++\n    tag 112\t\t\tevidenceCounter++\n      JUMPDEST \t\t\tevidenceCounter++\n      SWAP2 \t\t\tevidenceCounter++\n      SWAP1 \t\t\tevidenceCounter++\n      POP \t\t\tevidenceCounter++\n      SSTORE \t\t\tevidenceCounter++\n      POP \t\t\tevidenceCounter++\n      PUSH 40\t\t\tEvidence(evidenceCounter, _des...\n      MLOAD \t\t\tEvidence(evidenceCounter, _des...\n      DUP1 \t\t\tEvidence(evidenceCounter, _des...\n      PUSH 60\t\t\tEvidence(evidenceCounter, _des...\n      ADD \t\t\tEvidence(evidenceCounter, _des...\n      PUSH 40\t\t\tEvidence(evidenceCounter, _des...\n      MSTORE \t\t\tEvidence(evidenceCounter, _des...\n      DUP1 \t\t\tEvidence(evidenceCounter, _des...\n      PUSH 3\t\t\tevidenceCounter\n      SLOAD \t\t\tevidenceCounter\n      DUP2 \t\t\tEvidence(evidenceCounter, _des...\n      MSTORE \t\t\tEvidence(evidenceCounter, _des...\n      PUSH 20\t\t\tEvidence(evidenceCounter, _des...\n      ADD \t\t\tEvidence(evidenceCounter, _des...\n      DUP4 \t\t\t_description\n      DUP2 \t\t\tEvidence(evidenceCounter, _des...\n      MSTORE \t\t\tEvidence(evidenceCounter, _des...\n      PUSH 20\t\t\tEvidence(evidenceCounter, _des...\n      ADD \t\t\tEvidence(evidenceCounter, _des...\n      DUP3 \t\t\t_hash\n      DUP2 \t\t\tEvidence(evidenceCounter, _des...\n      MSTORE \t\t\tEvidence(evidenceCounter, _des...\n      POP \t\t\tEvidence(evidenceCounter, _des...\n      PUSH 1\t\t\tevidences\n      PUSH 0\t\t\tevidences[evidenceCounter]\n      PUSH 3\t\t\tevidenceCounter\n      SLOAD \t\t\tevidenceCounter\n      DUP2 \t\t\tevidences[evidenceCounter]\n      MSTORE \t\t\tevidences[evidenceCounter]\n      PUSH 20\t\t\tevidences[evidenceCounter]\n      ADD \t\t\tevidences[evidenceCounter]\n      SWAP1 \t\t\tevidences[evidenceCounter]\n      DUP2 \t\t\tevidences[evidenceCounter]\n      MSTORE \t\t\tevidences[evidenceCounter]\n      PUSH 20\t\t\tevidences[evidenceCounter]\n      ADD \t\t\tevidences[evidenceCounter]\n      PUSH 0\t\t\tevidences[evidenceCounter]\n      KECCAK256 \t\t\tevidences[evidenceCounter]\n      PUSH 0\t\t\tevidences[evidenceCounter] = E...\n      DUP3 \t\t\tevidences[evidenceCounter] = E...\n      ADD \t\t\tevidences[evidenceCounter] = E...\n      MLOAD \t\t\tevidences[evidenceCounter] = E...\n      DUP2 \t\t\tevidences[evidenceCounter] = E...\n      PUSH 0\t\t\tevidences[evidenceCounter] = E...\n      ADD \t\t\tevidences[evidenceCounter] = E...\n      SSTORE \t\t\tevidences[evidenceCounter] = E...\n      PUSH 20\t\t\tevidences[evidenceCounter] = E...\n      DUP3 \t\t\tevidences[evidenceCounter] = E...\n      ADD \t\t\tevidences[evidenceCounter] = E...\n      MLOAD \t\t\tevidences[evidenceCounter] = E...\n      DUP2 \t\t\tevidences[evidenceCounter] = E...\n      PUSH 1\t\t\tevidences[evidenceCounter] = E...\n      ADD \t\t\tevidences[evidenceCounter] = E...\n      SWAP1 \t\t\tevidences[evidenceCounter] = E...\n      DUP2 \t\t\tevidences[evidenceCounter] = E...\n      PUSH [tag] 113\t\t\tevidences[evidenceCounter] = E...\n      SWAP2 \t\t\tevidences[evidenceCounter] = E...\n      SWAP1 \t\t\tevidences[evidenceCounter] = E...\n      PUSH [tag] 103\t\t\tevidences[evidenceCounter] = E...\n      JUMP \t\t\tevidences[evidenceCounter] = E...\n    tag 113\t\t\tevidences[evidenceCounter] = E...\n      JUMPDEST \t\t\tevidences[evidenceCounter] = E...\n      POP \t\t\tevidences[evidenceCounter] = E...\n      PUSH 40\t\t\tevidences[evidenceCounter] = E...\n      DUP3 \t\t\tevidences[evidenceCounter] = E...\n      ADD \t\t\tevidences[evidenceCounter] = E...\n      MLOAD \t\t\tevidences[evidenceCounter] = E...\n      DUP2 \t\t\tevidences[evidenceCounter] = E...\n      PUSH 2\t\t\tevidences[evidenceCounter] = E...\n      ADD \t\t\tevidences[evidenceCounter] = E...\n      SSTORE \t\t\tevidences[evidenceCounter] = E...\n      SWAP1 \t\t\tevidences[evidenceCounter] = E...\n      POP \t\t\tevidences[evidenceCounter] = E...\n      POP \t\t\tevidences[evidenceCounter] = E...\n      PUSH 3\t\t\tevidenceCounter\n      SLOAD \t\t\tevidenceCounter\n      PUSH CEA05D33F0C94E28302D479A8D611F5902960B195FDB10AED229789DAEDEDBE9\t\t\tEvidenceLogged(evidenceCounter...\n      DUP4 \t\t\t_description\n      DUP4 \t\t\t_hash\n      PUSH 40\t\t\tEvidenceLogged(evidenceCounter...\n      MLOAD \t\t\tEvidenceLogged(evidenceCounter...\n      PUSH [tag] 114\t\t\tEvidenceLogged(evidenceCounter...\n      SWAP3 \t\t\tEvidenceLogged(evidenceCounter...\n      SWAP2 \t\t\tEvidenceLogged(evidenceCounter...\n      SWAP1 \t\t\tEvidenceLogged(evidenceCounter...\n      PUSH [tag] 115\t\t\tEvidenceLogged(evidenceCounter...\n      JUMP \t\t\tEvidenceLogged(evidenceCounter...\n    tag 114\t\t\tEvidenceLogged(evidenceCounter...\n      JUMPDEST \t\t\tEvidenceLogged(evidenceCounter...\n      PUSH 40\t\t\tEvidenceLogged(evidenceCounter...\n      MLOAD \t\t\tEvidenceLogged(evidenceCounter...\n      DUP1 \t\t\tEvidenceLogged(evidenceCounter...\n      SWAP2 \t\t\tEvidenceLogged(evidenceCounter...\n      SUB \t\t\tEvidenceLogged(evidenceCounter...\n      SWAP1 \t\t\tEvidenceLogged(evidenceCounter...\n      LOG2 \t\t\tEvidenceLogged(evidenceCounter...\n      POP \t\t\tfunction logEvidence(string me...\n      POP \t\t\tfunction logEvidence(string me...\n      JUMP \t\t\tfunction logEvidence(string me...\n    tag 43\t\t\tmapping(uint256 => Incident) p...\n      JUMPDEST \t\t\tmapping(uint256 => Incident) p...\n      PUSH 0\t\t\tmapping(uint256 => Incident) p...\n      PUSH 20\t\t\tmapping(uint256 => Incident) p...\n      MSTORE \t\t\tmapping(uint256 => Incident) p...\n      DUP1 \t\t\tmapping(uint256 => Incident) p...\n      PUSH 0\t\t\tmapping(uint256 => Incident) p...\n      MSTORE \t\t\tmapping(uint256 => Incident) p...\n      PUSH 40\t\t\tmapping(uint256 => Incident) p...\n      PUSH 0\t\t\tmapping(uint256 => Incident) p...\n      KECCAK256 \t\t\tmapping(uint256 => Incident) p...\n      PUSH 0\t\t\tmapping(uint256 => Incident) p...\n      SWAP2 \t\t\tmapping(uint256 => Incident) p...\n      POP \t\t\tmapping(uint256 => Incident) p...\n      SWAP1 \t\t\tmapping(uint256 => Incident) p...\n      POP \t\t\tmapping(uint256 => Incident) p...\n      DUP1 \t\t\tmapping(uint256 => Incident) p...\n      PUSH 0\t\t\tmapping(uint256 => Incident) p...\n      ADD \t\t\tmapping(uint256 => Incident) p...\n      SLOAD \t\t\tmapping(uint256 => Incident) p...\n      SWAP1 \t\t\tmapping(uint256 => Incident) p...\n      DUP1 \t\t\tmapping(uint256 => Incident) p...\n      PUSH 1\t\t\tmapping(uint256 => Incident) p...\n      ADD \t\t\tmapping(uint256 => Incident) p...\n      DUP1 \t\t\tmapping(uint256 => Incident) p...\n      SLOAD \t\t\tmapping(uint256 => Incident) p...\n      PUSH [tag] 116\t\t\tmapping(uint256 => Incident) p...\n      SWAP1 \t\t\tmapping(uint256 => Incident) p...\n      PUSH [tag] 51\t\t\tmapping(uint256 => Incident) p...\n      JUMP \t\t\tmapping(uint256 => Incident) p...\n    tag 116\t\t\tmapping(uint256 => Incident) p...\n      JUMPDEST \t\t\tmapping(uint256 => Incident) p...\n      DUP1 \t\t\tmapping(uint256 => Incident) p...\n      PUSH 1F\t\t\tmapping(uint256 => Incident) p...\n      ADD \t\t\tmapping(uint256 => Incident) p...\n      PUSH 20\t\t\tmapping(uint256 => Incident) p...\n      DUP1 \t\t\tmapping(uint256 => Incident) p...\n      SWAP2 \t\t\tmapping(uint256 => Incident) p...\n      DIV \t\t\tmapping(uint256 => Incident) p...\n      MUL \t\t\tmapping(uint256 => Incident) p...\n      PUSH 20\t\t\tmapping(uint256 => Incident) p...\n      ADD \t\t\tmapping(uint256 => Incident) p...\n      PUSH 40\t\t\tmapping(uint256 => Incident) p...\n      MLOAD \t\t\tmapping(uint256 => Incident) p...\n      SWAP1 \t\t\tmapping(uint256 => Incident) p...\n      DUP2 \t\t\tmapping(uint256 => Incident) p...\n      ADD \t\t\tmapping(uint256 => Incident) p...\n      PUSH 40\t\t\tmapping(uint256 => Incident) p...\n      MSTORE \t\t\tmapping(uint256 => Incident) p...\n      DUP1 \t\t\tmapping(uint256 => Incident) p...\n      SWAP3 \t\t\tmapping(uint256 => Incident) p...\n      SWAP2 \t\t\tmapping(uint256 => Incident) p...\n      SWAP1 \t\t\tmapping(uint256 => Incident) p...\n      DUP2 \t\t\tmapping(uint256 => Incident) p...\n      DUP2 \t\t\tmapping(uint256 => Incident) p...\n      MSTORE \t\t\tmapping(uint256 => Incident) p...\n      PUSH 20\t\t\tmapping(uint256 => Incident) p...\n      ADD \t\t\tmapping(uint256 => Incident) p...\n      DUP3 \t\t\tmapping(uint256 => Incident) p...\n      DUP1 \t\t\tmapping(uint256 => Incident) p...\n      SLOAD \t\t\tmapping(uint256 => Incident) p...\n      PUSH [tag] 117\t\t\tmapping(uint256 => Incident) p...\n      SWAP1 \t\t\tmapping(uint256 => Incident) p...\n      PUSH [tag] 51\t\t\tmapping(uint256 => Incident) p...\n      JUMP \t\t\tmapping(uint256 => Incident) p...\n    tag 117\t\t\tmapping(uint256 => Incident) p...\n      JUMPDEST \t\t\tmapping(uint256 => Incident) p...\n      DUP1 \t\t\tmapping(uint256 => Incident) p...\n      ISZERO \t\t\tmapping(uint256 => Incident) p...\n      PUSH [tag] 118\t\t\tmapping(uint256 => Incident) p...\n      JUMPI \t\t\tmapping(uint256 => Incident) p...\n      DUP1 \t\t\tmapping(uint256 => Incident) p...\n      PUSH 1F\t\t\tmapping(uint256 => Incident) p...\n      LT \t\t\tmapping(uint256 => Incident) p...\n      PUSH [tag] 119\t\t\tmapping(uint256 => Incident) p...\n      JUMPI \t\t\tmapping(uint256 => Incident) p...\n      PUSH 100\t\t\tmapping(uint256 => Incident) p...\n      DUP1 \t\t\tmapping(uint256 => Incident) p...\n      DUP4 \t\t\tmapping(uint256 => Incident) p...\n      SLOAD \t\t\tmapping(uint256 => Incident) p...\n      DIV \t\t\tmapping(uint256 => Incident) p...\n      MUL \t\t\tmapping(uint256 => Incident) p...\n      DUP4 \t\t\tmapping(uint256 => Incident) p...\n      MSTORE \t\t\tmapping(uint256 => Incident) p...\n      SWAP2 \t\t\tmapping(uint256 => Incident) p...\n      PUSH 20\t\t\tmapping(uint256 => Incident) p...\n      ADD \t\t\tmapping(uint256 => Incident) p...\n      SWAP2 \t\t\tmapping(uint256 => Incident) p...\n      PUSH [tag] 118\t\t\tmapping(uint256 => Incident) p...\n      JUMP \t\t\tmapping(uint256 => Incident) p...\n    tag 119\t\t\tmapping(uint256 => Incident) p...\n      JUMPDEST \t\t\tmapping(uint256 => Incident) p...\n      DUP3 \t\t\tmapping(uint256 => Incident) p...\n      ADD \t\t\tmapping(uint256 => Incident) p...\n      SWAP2 \t\t\tmapping(uint256 => Incident) p...\n      SWAP1 \t\t\tmapping(uint256 => Incident) p...\n      PUSH 0\t\t\tmapping(uint256 => Incident) p...\n      MSTORE \t\t\tmapping(uint256 => Incident) p...\n      PUSH 20\t\t\tmapping(uint256 => Incident) p...\n      PUSH 0\t\t\tmapping(uint256 => Incident) p...\n      KECCAK256 \t\t\tmapping(uint256 => Incident) p...\n      SWAP1 \t\t\tmapping(uint256 => Incident) p...\n    tag 120\t\t\tmapping(uint256 => Incident) p...\n      JUMPDEST \t\t\tmapping(uint256 => Incident) p...\n      DUP2 \t\t\tmapping(uint256 => Incident) p...\n      SLOAD \t\t\tmapping(uint256 => Incident) p...\n      DUP2 \t\t\tmapping(uint256 => Incident) p...\n      MSTORE \t\t\tmapping(uint256 => Incident) p...\n      SWAP1 \t\t\tmapping(uint256 => Incident) p...\n      PUSH 1\t\t\tmapping(uint256 => Incident) p...\n      ADD \t\t\tmapping(uint256 => Incident) p...\n      SWAP1 \t\t\tmapping(uint256 => Incident) p...\n      PUSH 20\t\t\tmapping(uint256 => Incident) p...\n      ADD \t\t\tmapping(uint256 => Incident) p...\n      DUP1 \t\t\tmapping(uint256 => Incident) p...\n      DUP4 \t\t\tmapping(uint256 => Incident) p...\n      GT \t\t\tmapping(uint256 => Incident) p...\n      PUSH [tag] 120\t\t\tmapping(uint256 => Incident) p...\n      JUMPI \t\t\tmapping(uint256 => Incident) p...\n      DUP3 \t\t\tmapping(uint256 => Incident) p...\n      SWAP1 \t\t\tmapping(uint256 => Incident) p...\n      SUB \t\t\tmapping(uint256 => Incident) p...\n      PUSH 1F\t\t\tmapping(uint256 => Incident) p...\n      AND \t\t\tmapping(uint256 => Incident) p...\n      DUP3 \t\t\tmapping(uint256 => Incident) p...\n      ADD \t\t\tmapping(uint256 => Incident) p...\n      SWAP2 \t\t\tmapping(uint256 => Incident) p...\n    tag 118\t\t\tmapping(uint256 => Incident) p...\n      JUMPDEST \t\t\tmapping(uint256 => Incident) p...\n      POP \t\t\tmapping(uint256 => Incident) p...\n      POP \t\t\tmapping(uint256 => Incident) p...\n      POP \t\t\tmapping(uint256 => Incident) p...\n      POP \t\t\tmapping(uint256 => Incident) p...\n      POP \t\t\tmapping(uint256 => Incident) p...\n      SWAP1 \t\t\tmapping(uint256 => Incident) p...\n      POP \t\t\tmapping(uint256 => Incident) p...\n      DUP3 \t\t\tmapping(uint256 => Incident) p...\n      JUMP \t\t\tmapping(uint256 => Incident) p...\n    tag 47\t\t\tuint256 public evidenceCounter\n      JUMPDEST \t\t\tuint256 public evidenceCounter\n      PUSH 3\t\t\tuint256 public evidenceCounter\n      SLOAD \t\t\tuint256 public evidenceCounter\n      DUP2 \t\t\tuint256 public evidenceCounter\n      JUMP \t\t\tuint256 public evidenceCounter\n    tag 105\t\t\t\n      JUMPDEST \t\t\t\n      DUP3 \t\t\t\n      DUP1 \t\t\t\n      SLOAD \t\t\t\n      DUP3 \t\t\t\n      DUP3 \t\t\t\n      SSTORE \t\t\t\n      SWAP1 \t\t\t\n      PUSH 0\t\t\t\n      MSTORE \t\t\t\n      PUSH 20\t\t\t\n      PUSH 0\t\t\t\n      KECCAK256 \t\t\t\n      SWAP1 \t\t\t\n      DUP2 \t\t\t\n      ADD \t\t\t\n      SWAP3 \t\t\t\n      DUP3 \t\t\t\n      ISZERO \t\t\t\n      PUSH [tag] 121\t\t\t\n      JUMPI \t\t\t\n      SWAP2 \t\t\t\n      PUSH 20\t\t\t\n      MUL \t\t\t\n      DUP3 \t\t\t\n      ADD \t\t\t\n    tag 122\t\t\t\n      JUMPDEST \t\t\t\n      DUP3 \t\t\t\n      DUP2 \t\t\t\n      GT \t\t\t\n      ISZERO \t\t\t\n      PUSH [tag] 123\t\t\t\n      JUMPI \t\t\t\n      DUP3 \t\t\t\n      MLOAD \t\t\t\n      DUP3 \t\t\t\n      SWAP1 \t\t\t\n      DUP2 \t\t\t\n      PUSH [tag] 124\t\t\t\n      SWAP2 \t\t\t\n      SWAP1 \t\t\t\n      PUSH [tag] 103\t\t\t\n      JUMP \t\t\t\n    tag 124\t\t\t\n      JUMPDEST \t\t\t\n      POP \t\t\t\n      SWAP2 \t\t\t\n      PUSH 20\t\t\t\n      ADD \t\t\t\n      SWAP2 \t\t\t\n      SWAP1 \t\t\t\n      PUSH 1\t\t\t\n      ADD \t\t\t\n      SWAP1 \t\t\t\n      PUSH [tag] 122\t\t\t\n      JUMP \t\t\t\n    tag 123\t\t\t\n      JUMPDEST \t\t\t\n    tag 121\t\t\t\n      JUMPDEST \t\t\t\n      POP \t\t\t\n      SWAP1 \t\t\t\n      POP \t\t\t\n      PUSH [tag] 125\t\t\t\n      SWAP2 \t\t\t\n      SWAP1 \t\t\t\n      PUSH [tag] 126\t\t\t\n      JUMP \t\t\t\n    tag 125\t\t\t\n      JUMPDEST \t\t\t\n      POP \t\t\t\n      SWAP1 \t\t\t\n      JUMP \t\t\t\n    tag 126\t\t\t\n      JUMPDEST \t\t\t\n    tag 127\t\t\t\n      JUMPDEST \t\t\t\n      DUP1 \t\t\t\n      DUP3 \t\t\t\n      GT \t\t\t\n      ISZERO \t\t\t\n      PUSH [tag] 128\t\t\t\n      JUMPI \t\t\t\n      PUSH 0\t\t\t\n      DUP2 \t\t\t\n      DUP2 \t\t\t\n      PUSH [tag] 129\t\t\t\n      SWAP2 \t\t\t\n      SWAP1 \t\t\t\n      PUSH [tag] 130\t\t\t\n      JUMP \t\t\t\n    tag 129\t\t\t\n      JUMPDEST \t\t\t\n      POP \t\t\t\n      PUSH 1\t\t\t\n      ADD \t\t\t\n      PUSH [tag] 127\t\t\t\n      JUMP \t\t\t\n    tag 128\t\t\t\n      JUMPDEST \t\t\t\n      POP \t\t\t\n      SWAP1 \t\t\t\n      JUMP \t\t\t\n    tag 130\t\t\t\n      JUMPDEST \t\t\t\n      POP \t\t\t\n      DUP1 \t\t\t\n      SLOAD \t\t\t\n      PUSH [tag] 131\t\t\t\n      SWAP1 \t\t\t\n      PUSH [tag] 51\t\t\t\n      JUMP \t\t\t\n    tag 131\t\t\t\n      JUMPDEST \t\t\t\n      PUSH 0\t\t\t\n      DUP3 \t\t\t\n      SSTORE \t\t\t\n      DUP1 \t\t\t\n      PUSH 1F\t\t\t\n      LT \t\t\t\n      PUSH [tag] 133\t\t\t\n      JUMPI \t\t\t\n      POP \t\t\t\n      PUSH [tag] 132\t\t\t\n      JUMP \t\t\t\n    tag 133\t\t\t\n      JUMPDEST \t\t\t\n      PUSH 1F\t\t\t\n      ADD \t\t\t\n      PUSH 20\t\t\t\n      SWAP1 \t\t\t\n      DIV \t\t\t\n      SWAP1 \t\t\t\n      PUSH 0\t\t\t\n      MSTORE \t\t\t\n      PUSH 20\t\t\t\n      PUSH 0\t\t\t\n      KECCAK256 \t\t\t\n      SWAP1 \t\t\t\n      DUP2 \t\t\t\n      ADD \t\t\t\n      SWAP1 \t\t\t\n      PUSH [tag] 134\t\t\t\n      SWAP2 \t\t\t\n      SWAP1 \t\t\t\n      PUSH [tag] 135\t\t\t\n      JUMP \t\t\t\n    tag 134\t\t\t\n      JUMPDEST \t\t\t\n    tag 132\t\t\t\n      JUMPDEST \t\t\t\n      POP \t\t\t\n      JUMP \t\t\t\n    tag 135\t\t\t\n      JUMPDEST \t\t\t\n    tag 136\t\t\t\n      JUMPDEST \t\t\t\n      DUP1 \t\t\t\n      DUP3 \t\t\t\n      GT \t\t\t\n      ISZERO \t\t\t\n      PUSH [tag] 137\t\t\t\n      JUMPI \t\t\t\n      PUSH 0\t\t\t\n      DUP2 \t\t\t\n      PUSH 0\t\t\t\n      SWAP1 \t\t\t\n      SSTORE \t\t\t\n      POP \t\t\t\n      PUSH 1\t\t\t\n      ADD \t\t\t\n      PUSH [tag] 136\t\t\t\n      JUMP \t\t\t\n    tag 137\t\t\t\n      JUMPDEST \t\t\t\n      POP \t\t\t\n      SWAP1 \t\t\t\n      JUMP \t\t\t\n    tag 138\t\t\t-License-Identifier: MIT\\r\\npr...\n      JUMPDEST \t\t\t-License-Identifier: MIT\\r\\npr...\n      PUSH 0\t\t\tsolidi\n      PUSH 40\t\t\tge\n      MLOAD \t\t\tt TriageO\n      SWAP1 \t\t\t\\n\\r\\ncontract TriageO\n      POP \t\t\t\\n\\r\\ncontract TriageO\n      SWAP1 \t\t\t-License-Identifier: MIT\\r\\npr...\n      JUMP \t\t\t-License-Identifier: MIT\\r\\npr...\n    tag 139\t\t\t   // Struct to hold incident ...\n      JUMPDEST \t\t\t   // Struct to hold incident ...\n      PUSH 0\t\t\t;\n      DUP1 \t\t\ti\n      REVERT \t\t\tescription;\\r\n    tag 140\t\t\ting[] timeline;\\r\\n        str...\n      JUMPDEST \t\t\ting[] timeline;\\r\\n        str...\n      PUSH 0\t\t\te\n      DUP1 \t\t\te\n      REVERT \t\t\t[] evidenceC\n    tag 141\t\t\t\\r\\n\\r\\n    // Struct to hold ...\n      JUMPDEST \t\t\t\\r\\n\\r\\n    // Struct to hold ...\n      PUSH 0\t\t\ttails\\r\\n\n      DUP2 \t\t\t\\n    \n      SWAP1 \t\t\tEvidence {\\r\\n    \n      POP \t\t\tEvidence {\\r\\n    \n      SWAP2 \t\t\t\\r\\n\\r\\n    // Struct to hold ...\n      SWAP1 \t\t\t\\r\\n\\r\\n    // Struct to hold ...\n      POP \t\t\t\\r\\n\\r\\n    // Struct to hold ...\n      JUMP \t\t\t\\r\\n\\r\\n    // Struct to hold ...\n    tag 142\t\t\tid;\\r\\n        string descript...\n      JUMPDEST \t\t\tid;\\r\\n        string descript...\n      PUSH [tag] 200\t\t\th of the evidence data f\n      DUP2 \t\t\tdata \n      PUSH [tag] 141\t\t\th of the evidence data f\n      JUMP \t\t\th of the evidence data f\n    tag 200\t\t\th of the evidence data f\n      JUMPDEST \t\t\th of the evidence data f\n      DUP2 \t\t\tthe h\n      EQ \t\t\tes the hash of the evidence da...\n      PUSH [tag] 201\t\t\th; // Stores the hash of the e...\n      JUMPI \t\t\th; // Stores the hash of the e...\n      PUSH 0\t\t\t \n      DUP1 \t\t\ti\n      REVERT \t\t\tmutability c\n    tag 201\t\t\th; // Stores the hash of the e...\n      JUMPDEST \t\t\th; // Stores the hash of the e...\n      POP \t\t\tid;\\r\\n        string descript...\n      JUMP \t\t\tid;\\r\\n        string descript...\n    tag 143\t\t\t\\n    // Mapping of incident I...\n      JUMPDEST \t\t\t\\n    // Mapping of incident I...\n      PUSH 0\t\t\ttails\n      DUP2 \t\t\t) publ\n      CALLDATALOAD \t\t\t6 => Incident) publi\n      SWAP1 \t\t\tng(uint256 => Incident) publi\n      POP \t\t\tng(uint256 => Incident) publi\n      PUSH [tag] 203\t\t\tts;\\r\\n\\r\\n    // Mapping of e...\n      DUP2 \t\t\tidenc\n      PUSH [tag] 142\t\t\tts;\\r\\n\\r\\n    // Mapping of e...\n      JUMP \t\t\tts;\\r\\n\\r\\n    // Mapping of e...\n    tag 203\t\t\tts;\\r\\n\\r\\n    // Mapping of e...\n      JUMPDEST \t\t\tts;\\r\\n\\r\\n    // Mapping of e...\n      SWAP3 \t\t\t\\n    // Mapping of incident I...\n      SWAP2 \t\t\t\\n    // Mapping of incident I...\n      POP \t\t\t\\n    // Mapping of incident I...\n      POP \t\t\t\\n    // Mapping of incident I...\n      JUMP \t\t\t\\n    // Mapping of incident I...\n    tag 14\t\t\tence details\\r\\n    mapping(ui...\n      JUMPDEST \t\t\tence details\\r\\n    mapping(ui...\n      PUSH 0\t\t\tnces;\\r\n      PUSH 20\t\t\ts \n      DUP3 \t\t\t of incid\n      DUP5 \t\t\teep tra\n      SUB \t\t\tto keep track of incide\n      SLT \t\t\tter to keep track of incidents...\n      ISZERO \t\t\tounter to keep track of incide...\n      PUSH [tag] 205\t\t\tounter to keep track of incide...\n      JUMPI \t\t\tounter to keep track of incide...\n      PUSH [tag] 206\t\t\tevidence\\r\\n    uint256 public...\n      PUSH [tag] 139\t\t\tevidence\\r\\n    uint256 public...\n      JUMP \t\t\tevidence\\r\\n    uint256 public...\n    tag 206\t\t\tevidence\\r\\n    uint256 public...\n      JUMPDEST \t\t\tevidence\\r\\n    uint256 public...\n    tag 205\t\t\tounter to keep track of incide...\n      JUMPDEST \t\t\tounter to keep track of incide...\n      PUSH 0\t\t\t\\n\n      PUSH [tag] 207\t\t\t(uint256 indexed incidentId, s...\n      DUP5 \t\t\ton);\\r\\n\\r\n      DUP3 \t\t\tdescri\n      DUP6 \t\t\tId, strin\n      ADD \t\t\tdentId, string descrip\n      PUSH [tag] 143\t\t\t(uint256 indexed incidentId, s...\n      JUMP \t\t\t(uint256 indexed incidentId, s...\n    tag 207\t\t\t(uint256 indexed incidentId, s...\n      JUMPDEST \t\t\t(uint256 indexed incidentId, s...\n      SWAP2 \t\t\tdentLogged(uint256 indexed inc...\n      POP \t\t\tdentLogged(uint256 indexed inc...\n      POP \t\t\t/ Event to log new incidents\\r...\n      SWAP3 \t\t\tence details\\r\\n    mapping(ui...\n      SWAP2 \t\t\tence details\\r\\n    mapping(ui...\n      POP \t\t\tence details\\r\\n    mapping(ui...\n      POP \t\t\tence details\\r\\n    mapping(ui...\n      JUMP \t\t\tence details\\r\\n    mapping(ui...\n    tag 144\t\t\t evidence\\r\\n    event Evidenc...\n      JUMPDEST \t\t\t evidence\\r\\n    event Evidenc...\n      PUSH 0\t\t\teviden\n      DUP2 \t\t\ttes32\n      MLOAD \t\t\ton, bytes32 \n      SWAP1 \t\t\t description, bytes32 \n      POP \t\t\t description, bytes32 \n      SWAP2 \t\t\t evidence\\r\\n    event Evidenc...\n      SWAP1 \t\t\t evidence\\r\\n    event Evidenc...\n      POP \t\t\t evidence\\r\\n    event Evidenc...\n      JUMP \t\t\t evidence\\r\\n    event Evidenc...\n    tag 145\t\t\t // Function to add a new inci...\n      JUMPDEST \t\t\t // Function to add a new inci...\n      PUSH 0\t\t\tion, string\n      DUP3 \t\t\tring[]\n      DUP3 \t\t\te, \n      MSTORE \t\t\ttimeline, string[] \n      PUSH 20\t\t\t mem\n      DUP3 \t\t\ting\n      ADD \t\t\t string[] memo\n      SWAP1 \t\t\tffectedSystems, string[] memo\n      POP \t\t\tffectedSystems, string[] memo\n      SWAP3 \t\t\t // Function to add a new inci...\n      SWAP2 \t\t\t // Function to add a new inci...\n      POP \t\t\t // Function to add a new inci...\n      POP \t\t\t // Function to add a new inci...\n      JUMP \t\t\t // Function to add a new inci...\n    tag 146\t\t\tlerts, string[] memory _eviden...\n      JUMPDEST \t\t\tlerts, string[] memory _eviden...\n      DUP3 \t\t\tdents[\n      DUP2 \t\t\t in\n      DUP4 \t\t\t   \n      MCOPY \t\t\t+;\\r\\n        incidents[i\n      PUSH 0\t\t\tt\n      DUP4 \t\t\tt(inci\n      DUP4 \t\t\tcid\n      ADD \t\t\t= Incident(incid\n      MSTORE \t\t\tunter] = Incident(incidentC\n      POP \t\t\tlerts, string[] memory _eviden...\n      POP \t\t\tlerts, string[] memory _eviden...\n      POP \t\t\tlerts, string[] memory _eviden...\n      JUMP \t\t\tlerts, string[] memory _eviden...\n    tag 147\t\t\tription, _timeline, _affectedS...\n      JUMPDEST \t\t\tription, _timeline, _affectedS...\n      PUSH 0\t\t\tomalyA\n      PUSH 1F\t\t\ttL\n      NOT \t\t\tidentLo\n      PUSH 1F\t\t\tt \n      DUP4 \t\t\t    e\n      ADD \t\t\t        emit I\n      AND \t\t\t);\\r\\n        emit IncidentLog\n      SWAP1 \t\t\tdenceChain);\\r\\n        emit I...\n      POP \t\t\tdenceChain);\\r\\n        emit I...\n      SWAP2 \t\t\tription, _timeline, _affectedS...\n      SWAP1 \t\t\tription, _timeline, _affectedS...\n      POP \t\t\tription, _timeline, _affectedS...\n      JUMP \t\t\tription, _timeline, _affectedS...\n    tag 148\t\t\tCounter, _description);\\r\\n   ...\n      JUMPDEST \t\t\tCounter, _description);\\r\\n   ...\n      PUSH 0\t\t\tget\n      PUSH [tag] 213\t\t\tincidentId) public view return...\n      DUP3 \t\t\tstrin\n      PUSH [tag] 144\t\t\tincidentId) public view return...\n      JUMP \t\t\tincidentId) public view return...\n    tag 213\t\t\tincidentId) public view return...\n      JUMPDEST \t\t\tincidentId) public view return...\n      PUSH [tag] 214\t\t\t] memory, string[] memory, str...\n      DUP2 \t\t\t      \n      DUP6 \t\t\t) {\n      PUSH [tag] 145\t\t\t] memory, string[] memory, str...\n      JUMP \t\t\t] memory, string[] memory, str...\n    tag 214\t\t\t] memory, string[] memory, str...\n      JUMPDEST \t\t\t] memory, string[] memory, str...\n      SWAP4 \t\t\tstring[] memory, string[] memo...\n      POP \t\t\tstring[] memory, string[] memo...\n      PUSH [tag] 215\t\t\t memory incident = incidents[_...\n      DUP2 \t\t\t (inci\n      DUP6 \t\t\tetu\n      PUSH 20\t\t\t    \n      DUP7 \t\t\td];\\r\\n\n      ADD \t\t\tentId];\\r\\n       \n      PUSH [tag] 146\t\t\t memory incident = incidents[_...\n      JUMP \t\t\t memory incident = incidents[_...\n    tag 215\t\t\t memory incident = incidents[_...\n      JUMPDEST \t\t\t memory incident = incidents[_...\n      PUSH [tag] 216\t\t\t.timeline, incident.affectedS\n      DUP2 \t\t\tfected\n      PUSH [tag] 147\t\t\t.timeline, incident.affectedS\n      JUMP \t\t\t.timeline, incident.affectedS\n    tag 216\t\t\t.timeline, incident.affectedS\n      JUMPDEST \t\t\t.timeline, incident.affectedS\n      DUP5 \t\t\tide\n      ADD \t\t\t incident.timeline, incident.a...\n      SWAP2 \t\t\tiption, incident.timeline, inc...\n      POP \t\t\tiption, incident.timeline, inc...\n      POP \t\t\tncidentDetails(uint256 _incide...\n      SWAP3 \t\t\tCounter, _description);\\r\\n   ...\n      SWAP2 \t\t\tCounter, _description);\\r\\n   ...\n      POP \t\t\tCounter, _description);\\r\\n   ...\n      POP \t\t\tCounter, _description);\\r\\n   ...\n      JUMP \t\t\tCounter, _description);\\r\\n   ...\n    tag 149\t\t\tent.anomalyAlerts, incident.ev...\n      JUMPDEST \t\t\tent.anomalyAlerts, incident.ev...\n      PUSH 0\t\t\teviden\n      DUP2 \t\t\t(stri\n      MLOAD \t\t\tidence(strin\n      SWAP1 \t\t\ttion logEvidence(strin\n      POP \t\t\ttion logEvidence(strin\n      SWAP2 \t\t\tent.anomalyAlerts, incident.ev...\n      SWAP1 \t\t\tent.anomalyAlerts, incident.ev...\n      POP \t\t\tent.anomalyAlerts, incident.ev...\n      JUMP \t\t\tent.anomalyAlerts, incident.ev...\n    tag 150\t\t\tcription, bytes32 _hash) publi...\n      JUMPDEST \t\t\tcription, bytes32 _hash) publi...\n      PUSH 0\t\t\tevidenceCou\n      DUP3 \t\t\tsh);\\r\\n\n      DUP3 \t\t\t, _\n      MSTORE \t\t\tription, _hash);\\r\\n \n      PUSH 20\t\t\tceCo\n      DUP3 \t\t\tvid\n      ADD \t\t\ted(evidenceCou\n      SWAP1 \t\t\tit EvidenceLogged(evidenceCou\n      POP \t\t\tit EvidenceLogged(evidenceCou\n      SWAP3 \t\t\tcription, bytes32 _hash) publi...\n      SWAP2 \t\t\tcription, bytes32 _hash) publi...\n      POP \t\t\tcription, bytes32 _hash) publi...\n      POP \t\t\tcription, bytes32 _hash) publi...\n      JUMP \t\t\tcription, bytes32 _hash) publi...\n    tag 151\t\t\tiption, _hash);\\r\\n    }\\r\\n\\r...\n      JUMPDEST \t\t\tiption, _hash);\\r\\n    }\\r\\n\\r...\n      PUSH 0\t\t\t  fu\n      DUP2 \t\t\tceI\n      SWAP1 \t\t\tfyEvidenceI\n      POP \t\t\tfyEvidenceI\n      PUSH 20\t\t\tceId\n      DUP3 \t\t\tvid\n      ADD \t\t\t6 _evidenceId,\n      SWAP1 \t\t\ty(uint256 _evidenceId,\n      POP \t\t\ty(uint256 _evidenceId,\n      SWAP2 \t\t\tiption, _hash);\\r\\n    }\\r\\n\\r...\n      SWAP1 \t\t\tiption, _hash);\\r\\n    }\\r\\n\\r...\n      POP \t\t\tiption, _hash);\\r\\n    }\\r\\n\\r...\n      JUMP \t\t\tiption, _hash);\\r\\n    }\\r\\n\\r...\n    tag 152\t\t\th) public view returns (bool) ...\n      JUMPDEST \t\t\th) public view returns (bool) ...\n      PUSH 0\t\t\tces[_eviden\n      DUP3 \t\t\teviden\n      DUP3 \t\t\ttur\n      MSTORE \t\t\t     return evidenc\n      PUSH 20\t\t\t\n      DUP3 \t\t\t\\r\\n\n      ADD \t\t\t\\n\\r\\n}\\r\\n\n      SWAP1 \t\t\t _hash;\\r\\n    }\\r\\n\\r\\n}\\r\\n\n      POP \t\t\t _hash;\\r\\n    }\\r\\n\\r\\n}\\r\\n\n      SWAP3 \t\t\th) public view returns (bool) ...\n      SWAP2 \t\t\th) public view returns (bool) ...\n      POP \t\t\th) public view returns (bool) ...\n      POP \t\t\th) public view returns (bool) ...\n      JUMP \t\t\th) public view returns (bool) ...\n    tag 153\t\t\t\n      JUMPDEST \t\t\t\n      PUSH 0\t\t\t\n      PUSH [tag] 222\t\t\t\n      DUP3 \t\t\t\n      PUSH [tag] 144\t\t\t\n      JUMP \t\t\t\n    tag 222\t\t\t\n      JUMPDEST \t\t\t\n      PUSH [tag] 223\t\t\t\n      DUP2 \t\t\t\n      DUP6 \t\t\t\n      PUSH [tag] 152\t\t\t\n      JUMP \t\t\t\n    tag 223\t\t\t\n      JUMPDEST \t\t\t\n      SWAP4 \t\t\t\n      POP \t\t\t\n      PUSH [tag] 224\t\t\t\n      DUP2 \t\t\t\n      DUP6 \t\t\t\n      PUSH 20\t\t\t\n      DUP7 \t\t\t\n      ADD \t\t\t\n      PUSH [tag] 146\t\t\t\n      JUMP \t\t\t\n    tag 224\t\t\t\n      JUMPDEST \t\t\t\n      PUSH [tag] 225\t\t\t\n      DUP2 \t\t\t\n      PUSH [tag] 147\t\t\t\n      JUMP \t\t\t\n    tag 225\t\t\t\n      JUMPDEST \t\t\t\n      DUP5 \t\t\t\n      ADD \t\t\t\n      SWAP2 \t\t\t\n      POP \t\t\t\n      POP \t\t\t\n      SWAP3 \t\t\t\n      SWAP2 \t\t\t\n      POP \t\t\t\n      POP \t\t\t\n      JUMP \t\t\t\n    tag 154\t\t\t\n      JUMPDEST \t\t\t\n      PUSH 0\t\t\t\n      PUSH [tag] 227\t\t\t\n      DUP4 \t\t\t\n      DUP4 \t\t\t\n      PUSH [tag] 153\t\t\t\n      JUMP \t\t\t\n    tag 227\t\t\t\n      JUMPDEST \t\t\t\n      SWAP1 \t\t\t\n      POP \t\t\t\n      SWAP3 \t\t\t\n      SWAP2 \t\t\t\n      POP \t\t\t\n      POP \t\t\t\n      JUMP \t\t\t\n    tag 155\t\t\t\n      JUMPDEST \t\t\t\n      PUSH 0\t\t\t\n      PUSH 20\t\t\t\n      DUP3 \t\t\t\n      ADD \t\t\t\n      SWAP1 \t\t\t\n      POP \t\t\t\n      SWAP2 \t\t\t\n      SWAP1 \t\t\t\n      POP \t\t\t\n      JUMP \t\t\t\n    tag 156\t\t\t\n      JUMPDEST \t\t\t\n      PUSH 0\t\t\t\n      PUSH [tag] 230\t\t\t\n      DUP3 \t\t\t\n      PUSH [tag] 149\t\t\t\n      JUMP \t\t\t\n    tag 230\t\t\t\n      JUMPDEST \t\t\t\n      PUSH [tag] 231\t\t\t\n      DUP2 \t\t\t\n      DUP6 \t\t\t\n      PUSH [tag] 150\t\t\t\n      JUMP \t\t\t\n    tag 231\t\t\t\n      JUMPDEST \t\t\t\n      SWAP4 \t\t\t\n      POP \t\t\t\n      DUP4 \t\t\t\n      PUSH 20\t\t\t\n      DUP3 \t\t\t\n      MUL \t\t\t\n      DUP6 \t\t\t\n      ADD \t\t\t\n      PUSH [tag] 232\t\t\t\n      DUP6 \t\t\t\n      PUSH [tag] 151\t\t\t\n      JUMP \t\t\t\n    tag 232\t\t\t\n      JUMPDEST \t\t\t\n      DUP1 \t\t\t\n      PUSH 0\t\t\t\n    tag 233\t\t\t\n      JUMPDEST \t\t\t\n      DUP6 \t\t\t\n      DUP2 \t\t\t\n      LT \t\t\t\n      ISZERO \t\t\t\n      PUSH [tag] 235\t\t\t\n      JUMPI \t\t\t\n      DUP5 \t\t\t\n      DUP5 \t\t\t\n      SUB \t\t\t\n      DUP10 \t\t\t\n      MSTORE \t\t\t\n      DUP2 \t\t\t\n      MLOAD \t\t\t\n      PUSH [tag] 236\t\t\t\n      DUP6 \t\t\t\n      DUP3 \t\t\t\n      PUSH [tag] 154\t\t\t\n      JUMP \t\t\t\n    tag 236\t\t\t\n      JUMPDEST \t\t\t\n      SWAP5 \t\t\t\n      POP \t\t\t\n      PUSH [tag] 237\t\t\t\n      DUP4 \t\t\t\n      PUSH [tag] 155\t\t\t\n      JUMP \t\t\t\n    tag 237\t\t\t\n      JUMPDEST \t\t\t\n      SWAP3 \t\t\t\n      POP \t\t\t\n      PUSH 20\t\t\t\n      DUP11 \t\t\t\n      ADD \t\t\t\n      SWAP10 \t\t\t\n      POP \t\t\t\n      POP \t\t\t\n      PUSH 1\t\t\t\n      DUP2 \t\t\t\n      ADD \t\t\t\n      SWAP1 \t\t\t\n      POP \t\t\t\n      PUSH [tag] 233\t\t\t\n      JUMP \t\t\t\n    tag 235\t\t\t\n      JUMPDEST \t\t\t\n      POP \t\t\t\n      DUP3 \t\t\t\n      SWAP8 \t\t\t\n      POP \t\t\t\n      DUP8 \t\t\t\n      SWAP6 \t\t\t\n      POP \t\t\t\n      POP \t\t\t\n      POP \t\t\t\n      POP \t\t\t\n      POP \t\t\t\n      POP \t\t\t\n      SWAP3 \t\t\t\n      SWAP2 \t\t\t\n      POP \t\t\t\n      POP \t\t\t\n      JUMP \t\t\t\n    tag 17\t\t\t\n      JUMPDEST \t\t\t\n      PUSH 0\t\t\t\n      PUSH A0\t\t\t\n      DUP3 \t\t\t\n      ADD \t\t\t\n      SWAP1 \t\t\t\n      POP \t\t\t\n      DUP2 \t\t\t\n      DUP2 \t\t\t\n      SUB \t\t\t\n      PUSH 0\t\t\t\n      DUP4 \t\t\t\n      ADD \t\t\t\n      MSTORE \t\t\t\n      PUSH [tag] 239\t\t\t\n      DUP2 \t\t\t\n      DUP9 \t\t\t\n      PUSH [tag] 148\t\t\t\n      JUMP \t\t\t\n    tag 239\t\t\t\n      JUMPDEST \t\t\t\n      SWAP1 \t\t\t\n      POP \t\t\t\n      DUP2 \t\t\t\n      DUP2 \t\t\t\n      SUB \t\t\t\n      PUSH 20\t\t\t\n      DUP4 \t\t\t\n      ADD \t\t\t\n      MSTORE \t\t\t\n      PUSH [tag] 240\t\t\t\n      DUP2 \t\t\t\n      DUP8 \t\t\t\n      PUSH [tag] 156\t\t\t\n      JUMP \t\t\t\n    tag 240\t\t\t\n      JUMPDEST \t\t\t\n      SWAP1 \t\t\t\n      POP \t\t\t\n      DUP2 \t\t\t\n      DUP2 \t\t\t\n      SUB \t\t\t\n      PUSH 40\t\t\t\n      DUP4 \t\t\t\n      ADD \t\t\t\n      MSTORE \t\t\t\n      PUSH [tag] 241\t\t\t\n      DUP2 \t\t\t\n      DUP7 \t\t\t\n      PUSH [tag] 156\t\t\t\n      JUMP \t\t\t\n    tag 241\t\t\t\n      JUMPDEST \t\t\t\n      SWAP1 \t\t\t\n      POP \t\t\t\n      DUP2 \t\t\t\n      DUP2 \t\t\t\n      SUB \t\t\t\n      PUSH 60\t\t\t\n      DUP4 \t\t\t\n      ADD \t\t\t\n      MSTORE \t\t\t\n      PUSH [tag] 242\t\t\t\n      DUP2 \t\t\t\n      DUP6 \t\t\t\n      PUSH [tag] 156\t\t\t\n      JUMP \t\t\t\n    tag 242\t\t\t\n      JUMPDEST \t\t\t\n      SWAP1 \t\t\t\n      POP \t\t\t\n      DUP2 \t\t\t\n      DUP2 \t\t\t\n      SUB \t\t\t\n      PUSH 80\t\t\t\n      DUP4 \t\t\t\n      ADD \t\t\t\n      MSTORE \t\t\t\n      PUSH [tag] 243\t\t\t\n      DUP2 \t\t\t\n      DUP5 \t\t\t\n      PUSH [tag] 156\t\t\t\n      JUMP \t\t\t\n    tag 243\t\t\t\n      JUMPDEST \t\t\t\n      SWAP1 \t\t\t\n      POP \t\t\t\n      SWAP7 \t\t\t\n      SWAP6 \t\t\t\n      POP \t\t\t\n      POP \t\t\t\n      POP \t\t\t\n      POP \t\t\t\n      POP \t\t\t\n      POP \t\t\t\n      JUMP \t\t\t\n    tag 157\t\t\t\n      JUMPDEST \t\t\t\n      PUSH [tag] 245\t\t\t\n      DUP2 \t\t\t\n      PUSH [tag] 141\t\t\t\n      JUMP \t\t\t\n    tag 245\t\t\t\n      JUMPDEST \t\t\t\n      DUP3 \t\t\t\n      MSTORE \t\t\t\n      POP \t\t\t\n      POP \t\t\t\n      JUMP \t\t\t\n    tag 158\t\t\t\n      JUMPDEST \t\t\t\n      PUSH 0\t\t\t\n      DUP2 \t\t\t\n      SWAP1 \t\t\t\n      POP \t\t\t\n      SWAP2 \t\t\t\n      SWAP1 \t\t\t\n      POP \t\t\t\n      JUMP \t\t\t\n    tag 159\t\t\t\n      JUMPDEST \t\t\t\n      PUSH [tag] 248\t\t\t\n      DUP2 \t\t\t\n      PUSH [tag] 158\t\t\t\n      JUMP \t\t\t\n    tag 248\t\t\t\n      JUMPDEST \t\t\t\n      DUP3 \t\t\t\n      MSTORE \t\t\t\n      POP \t\t\t\n      POP \t\t\t\n      JUMP \t\t\t\n    tag 22\t\t\t\n      JUMPDEST \t\t\t\n      PUSH 0\t\t\t\n      PUSH 60\t\t\t\n      DUP3 \t\t\t\n      ADD \t\t\t\n      SWAP1 \t\t\t\n      POP \t\t\t\n      PUSH [tag] 250\t\t\t\n      PUSH 0\t\t\t\n      DUP4 \t\t\t\n      ADD \t\t\t\n      DUP7 \t\t\t\n      PUSH [tag] 157\t\t\t\n      JUMP \t\t\t\n    tag 250\t\t\t\n      JUMPDEST \t\t\t\n      DUP2 \t\t\t\n      DUP2 \t\t\t\n      SUB \t\t\t\n      PUSH 20\t\t\t\n      DUP4 \t\t\t\n      ADD \t\t\t\n      MSTORE \t\t\t\n      PUSH [tag] 251\t\t\t\n      DUP2 \t\t\t\n      DUP6 \t\t\t\n      PUSH [tag] 148\t\t\t\n      JUMP \t\t\t\n    tag 251\t\t\t\n      JUMPDEST \t\t\t\n      SWAP1 \t\t\t\n      POP \t\t\t\n      PUSH [tag] 252\t\t\t\n      PUSH 40\t\t\t\n      DUP4 \t\t\t\n      ADD \t\t\t\n      DUP5 \t\t\t\n      PUSH [tag] 159\t\t\t\n      JUMP \t\t\t\n    tag 252\t\t\t\n      JUMPDEST \t\t\t\n      SWAP5 \t\t\t\n      SWAP4 \t\t\t\n      POP \t\t\t\n      POP \t\t\t\n      POP \t\t\t\n      POP \t\t\t\n      JUMP \t\t\t\n    tag 26\t\t\t\n      JUMPDEST \t\t\t\n      PUSH 0\t\t\t\n      PUSH 20\t\t\t\n      DUP3 \t\t\t\n      ADD \t\t\t\n      SWAP1 \t\t\t\n      POP \t\t\t\n      PUSH [tag] 254\t\t\t\n      PUSH 0\t\t\t\n      DUP4 \t\t\t\n      ADD \t\t\t\n      DUP5 \t\t\t\n      PUSH [tag] 157\t\t\t\n      JUMP \t\t\t\n    tag 254\t\t\t\n      JUMPDEST \t\t\t\n      SWAP3 \t\t\t\n      SWAP2 \t\t\t\n      POP \t\t\t\n      POP \t\t\t\n      JUMP \t\t\t\n    tag 160\t\t\t\n      JUMPDEST \t\t\t\n      PUSH [tag] 256\t\t\t\n      DUP2 \t\t\t\n      PUSH [tag] 158\t\t\t\n      JUMP \t\t\t\n    tag 256\t\t\t\n      JUMPDEST \t\t\t\n      DUP2 \t\t\t\n      EQ \t\t\t\n      PUSH [tag] 257\t\t\t\n      JUMPI \t\t\t\n      PUSH 0\t\t\t\n      DUP1 \t\t\t\n      REVERT \t\t\t\n    tag 257\t\t\t\n      JUMPDEST \t\t\t\n      POP \t\t\t\n      JUMP \t\t\t\n    tag 161\t\t\t\n      JUMPDEST \t\t\t\n      PUSH 0\t\t\t\n      DUP2 \t\t\t\n      CALLDATALOAD \t\t\t\n      SWAP1 \t\t\t\n      POP \t\t\t\n      PUSH [tag] 259\t\t\t\n      DUP2 \t\t\t\n      PUSH [tag] 160\t\t\t\n      JUMP \t\t\t\n    tag 259\t\t\t\n      JUMPDEST \t\t\t\n      SWAP3 \t\t\t\n      SWAP2 \t\t\t\n      POP \t\t\t\n      POP \t\t\t\n      JUMP \t\t\t\n    tag 29\t\t\t\n      JUMPDEST \t\t\t\n      PUSH 0\t\t\t\n      DUP1 \t\t\t\n      PUSH 40\t\t\t\n      DUP4 \t\t\t\n      DUP6 \t\t\t\n      SUB \t\t\t\n      SLT \t\t\t\n      ISZERO \t\t\t\n      PUSH [tag] 261\t\t\t\n      JUMPI \t\t\t\n      PUSH [tag] 262\t\t\t\n      PUSH [tag] 139\t\t\t\n      JUMP \t\t\t\n    tag 262\t\t\t\n      JUMPDEST \t\t\t\n    tag 261\t\t\t\n      JUMPDEST \t\t\t\n      PUSH 0\t\t\t\n      PUSH [tag] 263\t\t\t\n      DUP6 \t\t\t\n      DUP3 \t\t\t\n      DUP7 \t\t\t\n      ADD \t\t\t\n      PUSH [tag] 143\t\t\t\n      JUMP \t\t\t\n    tag 263\t\t\t\n      JUMPDEST \t\t\t\n      SWAP3 \t\t\t\n      POP \t\t\t\n      POP \t\t\t\n      PUSH 20\t\t\t\n      PUSH [tag] 264\t\t\t\n      DUP6 \t\t\t\n      DUP3 \t\t\t\n      DUP7 \t\t\t\n      ADD \t\t\t\n      PUSH [tag] 161\t\t\t\n      JUMP \t\t\t\n    tag 264\t\t\t\n      JUMPDEST \t\t\t\n      SWAP2 \t\t\t\n      POP \t\t\t\n      POP \t\t\t\n      SWAP3 \t\t\t\n      POP \t\t\t\n      SWAP3 \t\t\t\n      SWAP1 \t\t\t\n      POP \t\t\t\n      JUMP \t\t\t\n    tag 162\t\t\t\n      JUMPDEST \t\t\t\n      PUSH 0\t\t\t\n      DUP2 \t\t\t\n      ISZERO \t\t\t\n      ISZERO \t\t\t\n      SWAP1 \t\t\t\n      POP \t\t\t\n      SWAP2 \t\t\t\n      SWAP1 \t\t\t\n      POP \t\t\t\n      JUMP \t\t\t\n    tag 163\t\t\t\n      JUMPDEST \t\t\t\n      PUSH [tag] 267\t\t\t\n      DUP2 \t\t\t\n      PUSH [tag] 162\t\t\t\n      JUMP \t\t\t\n    tag 267\t\t\t\n      JUMPDEST \t\t\t\n      DUP3 \t\t\t\n      MSTORE \t\t\t\n      POP \t\t\t\n      POP \t\t\t\n      JUMP \t\t\t\n    tag 32\t\t\t\n      JUMPDEST \t\t\t\n      PUSH 0\t\t\t\n      PUSH 20\t\t\t\n      DUP3 \t\t\t\n      ADD \t\t\t\n      SWAP1 \t\t\t\n      POP \t\t\t\n      PUSH [tag] 269\t\t\t\n      PUSH 0\t\t\t\n      DUP4 \t\t\t\n      ADD \t\t\t\n      DUP5 \t\t\t\n      PUSH [tag] 163\t\t\t\n      JUMP \t\t\t\n    tag 269\t\t\t\n      JUMPDEST \t\t\t\n      SWAP3 \t\t\t\n      SWAP2 \t\t\t\n      POP \t\t\t\n      POP \t\t\t\n      JUMP \t\t\t\n    tag 164\t\t\t\n      JUMPDEST \t\t\t\n      PUSH 0\t\t\t\n      DUP1 \t\t\t\n      REVERT \t\t\t\n    tag 165\t\t\t\n      JUMPDEST \t\t\t\n      PUSH 0\t\t\t\n      DUP1 \t\t\t\n      REVERT \t\t\t\n    tag 166\t\t\t\n      JUMPDEST \t\t\t\n      PUSH 4E487B7100000000000000000000000000000000000000000000000000000000\t\t\t\n      PUSH 0\t\t\t\n      MSTORE \t\t\t\n      PUSH 41\t\t\t\n      PUSH 4\t\t\t\n      MSTORE \t\t\t\n      PUSH 24\t\t\t\n      PUSH 0\t\t\t\n      REVERT \t\t\t\n    tag 167\t\t\t\n      JUMPDEST \t\t\t\n      PUSH [tag] 274\t\t\t\n      DUP3 \t\t\t\n      PUSH [tag] 147\t\t\t\n      JUMP \t\t\t\n    tag 274\t\t\t\n      JUMPDEST \t\t\t\n      DUP2 \t\t\t\n      ADD \t\t\t\n      DUP2 \t\t\t\n      DUP2 \t\t\t\n      LT \t\t\t\n      PUSH FFFFFFFFFFFFFFFF\t\t\t\n      DUP3 \t\t\t\n      GT \t\t\t\n      OR \t\t\t\n      ISZERO \t\t\t\n      PUSH [tag] 275\t\t\t\n      JUMPI \t\t\t\n      PUSH [tag] 276\t\t\t\n      PUSH [tag] 166\t\t\t\n      JUMP \t\t\t\n    tag 276\t\t\t\n      JUMPDEST \t\t\t\n    tag 275\t\t\t\n      JUMPDEST \t\t\t\n      DUP1 \t\t\t\n      PUSH 40\t\t\t\n      MSTORE \t\t\t\n      POP \t\t\t\n      POP \t\t\t\n      POP \t\t\t\n      JUMP \t\t\t\n    tag 168\t\t\t\n      JUMPDEST \t\t\t\n      PUSH 0\t\t\t\n      PUSH [tag] 278\t\t\t\n      PUSH [tag] 138\t\t\t\n      JUMP \t\t\t\n    tag 278\t\t\t\n      JUMPDEST \t\t\t\n      SWAP1 \t\t\t\n      POP \t\t\t\n      PUSH [tag] 279\t\t\t\n      DUP3 \t\t\t\n      DUP3 \t\t\t\n      PUSH [tag] 167\t\t\t\n      JUMP \t\t\t\n    tag 279\t\t\t\n      JUMPDEST \t\t\t\n      SWAP2 \t\t\t\n      SWAP1 \t\t\t\n      POP \t\t\t\n      JUMP \t\t\t\n    tag 169\t\t\t\n      JUMPDEST \t\t\t\n      PUSH 0\t\t\t\n      PUSH FFFFFFFFFFFFFFFF\t\t\t\n      DUP3 \t\t\t\n      GT \t\t\t\n      ISZERO \t\t\t\n      PUSH [tag] 281\t\t\t\n      JUMPI \t\t\t\n      PUSH [tag] 282\t\t\t\n      PUSH [tag] 166\t\t\t\n      JUMP \t\t\t\n    tag 282\t\t\t\n      JUMPDEST \t\t\t\n    tag 281\t\t\t\n      JUMPDEST \t\t\t\n      PUSH [tag] 283\t\t\t\n      DUP3 \t\t\t\n      PUSH [tag] 147\t\t\t\n      JUMP \t\t\t\n    tag 283\t\t\t\n      JUMPDEST \t\t\t\n      SWAP1 \t\t\t\n      POP \t\t\t\n      PUSH 20\t\t\t\n      DUP2 \t\t\t\n      ADD \t\t\t\n      SWAP1 \t\t\t\n      POP \t\t\t\n      SWAP2 \t\t\t\n      SWAP1 \t\t\t\n      POP \t\t\t\n      JUMP \t\t\t\n    tag 170\t\t\t\n      JUMPDEST \t\t\t\n      DUP3 \t\t\t\n      DUP2 \t\t\t\n      DUP4 \t\t\t\n      CALLDATACOPY \t\t\t\n      PUSH 0\t\t\t\n      DUP4 \t\t\t\n      DUP4 \t\t\t\n      ADD \t\t\t\n      MSTORE \t\t\t\n      POP \t\t\t\n      POP \t\t\t\n      POP \t\t\t\n      JUMP \t\t\t\n    tag 171\t\t\t\n      JUMPDEST \t\t\t\n      PUSH 0\t\t\t\n      PUSH [tag] 286\t\t\t\n      PUSH [tag] 287\t\t\t\n      DUP5 \t\t\t\n      PUSH [tag] 169\t\t\t\n      JUMP \t\t\t\n    tag 287\t\t\t\n      JUMPDEST \t\t\t\n      PUSH [tag] 168\t\t\t\n      JUMP \t\t\t\n    tag 286\t\t\t\n      JUMPDEST \t\t\t\n      SWAP1 \t\t\t\n      POP \t\t\t\n      DUP3 \t\t\t\n      DUP2 \t\t\t\n      MSTORE \t\t\t\n      PUSH 20\t\t\t\n      DUP2 \t\t\t\n      ADD \t\t\t\n      DUP5 \t\t\t\n      DUP5 \t\t\t\n      DUP5 \t\t\t\n      ADD \t\t\t\n      GT \t\t\t\n      ISZERO \t\t\t\n      PUSH [tag] 288\t\t\t\n      JUMPI \t\t\t\n      PUSH [tag] 289\t\t\t\n      PUSH [tag] 165\t\t\t\n      JUMP \t\t\t\n    tag 289\t\t\t\n      JUMPDEST \t\t\t\n    tag 288\t\t\t\n      JUMPDEST \t\t\t\n      PUSH [tag] 290\t\t\t\n      DUP5 \t\t\t\n      DUP3 \t\t\t\n      DUP6 \t\t\t\n      PUSH [tag] 170\t\t\t\n      JUMP \t\t\t\n    tag 290\t\t\t\n      JUMPDEST \t\t\t\n      POP \t\t\t\n      SWAP4 \t\t\t\n      SWAP3 \t\t\t\n      POP \t\t\t\n      POP \t\t\t\n      POP \t\t\t\n      JUMP \t\t\t\n    tag 172\t\t\t\n      JUMPDEST \t\t\t\n      PUSH 0\t\t\t\n      DUP3 \t\t\t\n      PUSH 1F\t\t\t\n      DUP4 \t\t\t\n      ADD \t\t\t\n      SLT \t\t\t\n      PUSH [tag] 292\t\t\t\n      JUMPI \t\t\t\n      PUSH [tag] 293\t\t\t\n      PUSH [tag] 164\t\t\t\n      JUMP \t\t\t\n    tag 293\t\t\t\n      JUMPDEST \t\t\t\n    tag 292\t\t\t\n      JUMPDEST \t\t\t\n      DUP2 \t\t\t\n      CALLDATALOAD \t\t\t\n      PUSH [tag] 294\t\t\t\n      DUP5 \t\t\t\n      DUP3 \t\t\t\n      PUSH 20\t\t\t\n      DUP7 \t\t\t\n      ADD \t\t\t\n      PUSH [tag] 171\t\t\t\n      JUMP \t\t\t\n    tag 294\t\t\t\n      JUMPDEST \t\t\t\n      SWAP2 \t\t\t\n      POP \t\t\t\n      POP \t\t\t\n      SWAP3 \t\t\t\n      SWAP2 \t\t\t\n      POP \t\t\t\n      POP \t\t\t\n      JUMP \t\t\t\n    tag 173\t\t\t\n      JUMPDEST \t\t\t\n      PUSH 0\t\t\t\n      PUSH FFFFFFFFFFFFFFFF\t\t\t\n      DUP3 \t\t\t\n      GT \t\t\t\n      ISZERO \t\t\t\n      PUSH [tag] 296\t\t\t\n      JUMPI \t\t\t\n      PUSH [tag] 297\t\t\t\n      PUSH [tag] 166\t\t\t\n      JUMP \t\t\t\n    tag 297\t\t\t\n      JUMPDEST \t\t\t\n    tag 296\t\t\t\n      JUMPDEST \t\t\t\n      PUSH 20\t\t\t\n      DUP3 \t\t\t\n      MUL \t\t\t\n      SWAP1 \t\t\t\n      POP \t\t\t\n      PUSH 20\t\t\t\n      DUP2 \t\t\t\n      ADD \t\t\t\n      SWAP1 \t\t\t\n      POP \t\t\t\n      SWAP2 \t\t\t\n      SWAP1 \t\t\t\n      POP \t\t\t\n      JUMP \t\t\t\n    tag 174\t\t\t\n      JUMPDEST \t\t\t\n      PUSH 0\t\t\t\n      DUP1 \t\t\t\n      REVERT \t\t\t\n    tag 175\t\t\t\n      JUMPDEST \t\t\t\n      PUSH 0\t\t\t\n      PUSH [tag] 300\t\t\t\n      PUSH [tag] 301\t\t\t\n      DUP5 \t\t\t\n      PUSH [tag] 173\t\t\t\n      JUMP \t\t\t\n    tag 301\t\t\t\n      JUMPDEST \t\t\t\n      PUSH [tag] 168\t\t\t\n      JUMP \t\t\t\n    tag 300\t\t\t\n      JUMPDEST \t\t\t\n      SWAP1 \t\t\t\n      POP \t\t\t\n      DUP1 \t\t\t\n      DUP4 \t\t\t\n      DUP3 \t\t\t\n      MSTORE \t\t\t\n      PUSH 20\t\t\t\n      DUP3 \t\t\t\n      ADD \t\t\t\n      SWAP1 \t\t\t\n      POP \t\t\t\n      PUSH 20\t\t\t\n      DUP5 \t\t\t\n      MUL \t\t\t\n      DUP4 \t\t\t\n      ADD \t\t\t\n      DUP6 \t\t\t\n      DUP2 \t\t\t\n      GT \t\t\t\n      ISZERO \t\t\t\n      PUSH [tag] 302\t\t\t\n      JUMPI \t\t\t\n      PUSH [tag] 303\t\t\t\n      PUSH [tag] 174\t\t\t\n      JUMP \t\t\t\n    tag 303\t\t\t\n      JUMPDEST \t\t\t\n    tag 302\t\t\t\n      JUMPDEST \t\t\t\n      DUP4 \t\t\t\n    tag 304\t\t\t\n      JUMPDEST \t\t\t\n      DUP2 \t\t\t\n      DUP2 \t\t\t\n      LT \t\t\t\n      ISZERO \t\t\t\n      PUSH [tag] 306\t\t\t\n      JUMPI \t\t\t\n      DUP1 \t\t\t\n      CALLDATALOAD \t\t\t\n      PUSH FFFFFFFFFFFFFFFF\t\t\t\n      DUP2 \t\t\t\n      GT \t\t\t\n      ISZERO \t\t\t\n      PUSH [tag] 307\t\t\t\n      JUMPI \t\t\t\n      PUSH [tag] 308\t\t\t\n      PUSH [tag] 164\t\t\t\n      JUMP \t\t\t\n    tag 308\t\t\t\n      JUMPDEST \t\t\t\n    tag 307\t\t\t\n      JUMPDEST \t\t\t\n      DUP1 \t\t\t\n      DUP7 \t\t\t\n      ADD \t\t\t\n      PUSH [tag] 309\t\t\t\n      DUP10 \t\t\t\n      DUP3 \t\t\t\n      PUSH [tag] 172\t\t\t\n      JUMP \t\t\t\n    tag 309\t\t\t\n      JUMPDEST \t\t\t\n      DUP6 \t\t\t\n      MSTORE \t\t\t\n      PUSH 20\t\t\t\n      DUP6 \t\t\t\n      ADD \t\t\t\n      SWAP5 \t\t\t\n      POP \t\t\t\n      POP \t\t\t\n      POP \t\t\t\n      PUSH 20\t\t\t\n      DUP2 \t\t\t\n      ADD \t\t\t\n      SWAP1 \t\t\t\n      POP \t\t\t\n      PUSH [tag] 304\t\t\t\n      JUMP \t\t\t\n    tag 306\t\t\t\n      JUMPDEST \t\t\t\n      POP \t\t\t\n      POP \t\t\t\n      POP \t\t\t\n      SWAP4 \t\t\t\n      SWAP3 \t\t\t\n      POP \t\t\t\n      POP \t\t\t\n      POP \t\t\t\n      JUMP \t\t\t\n    tag 176\t\t\t\n      JUMPDEST \t\t\t\n      PUSH 0\t\t\t\n      DUP3 \t\t\t\n      PUSH 1F\t\t\t\n      DUP4 \t\t\t\n      ADD \t\t\t\n      SLT \t\t\t\n      PUSH [tag] 311\t\t\t\n      JUMPI \t\t\t\n      PUSH [tag] 312\t\t\t\n      PUSH [tag] 164\t\t\t\n      JUMP \t\t\t\n    tag 312\t\t\t\n      JUMPDEST \t\t\t\n    tag 311\t\t\t\n      JUMPDEST \t\t\t\n      DUP2 \t\t\t\n      CALLDATALOAD \t\t\t\n      PUSH [tag] 313\t\t\t\n      DUP5 \t\t\t\n      DUP3 \t\t\t\n      PUSH 20\t\t\t\n      DUP7 \t\t\t\n      ADD \t\t\t\n      PUSH [tag] 175\t\t\t\n      JUMP \t\t\t\n    tag 313\t\t\t\n      JUMPDEST \t\t\t\n      SWAP2 \t\t\t\n      POP \t\t\t\n      POP \t\t\t\n      SWAP3 \t\t\t\n      SWAP2 \t\t\t\n      POP \t\t\t\n      POP \t\t\t\n      JUMP \t\t\t\n    tag 35\t\t\t\n      JUMPDEST \t\t\t\n      PUSH 0\t\t\t\n      DUP1 \t\t\t\n      PUSH 0\t\t\t\n      DUP1 \t\t\t\n      PUSH 0\t\t\t\n      PUSH A0\t\t\t\n      DUP7 \t\t\t\n      DUP9 \t\t\t\n      SUB \t\t\t\n      SLT \t\t\t\n      ISZERO \t\t\t\n      PUSH [tag] 315\t\t\t\n      JUMPI \t\t\t\n      PUSH [tag] 316\t\t\t\n      PUSH [tag] 139\t\t\t\n      JUMP \t\t\t\n    tag 316\t\t\t\n      JUMPDEST \t\t\t\n    tag 315\t\t\t\n      JUMPDEST \t\t\t\n      PUSH 0\t\t\t\n      DUP7 \t\t\t\n      ADD \t\t\t\n      CALLDATALOAD \t\t\t\n      PUSH FFFFFFFFFFFFFFFF\t\t\t\n      DUP2 \t\t\t\n      GT \t\t\t\n      ISZERO \t\t\t\n      PUSH [tag] 317\t\t\t\n      JUMPI \t\t\t\n      PUSH [tag] 318\t\t\t\n      PUSH [tag] 140\t\t\t\n      JUMP \t\t\t\n    tag 318\t\t\t\n      JUMPDEST \t\t\t\n    tag 317\t\t\t\n      JUMPDEST \t\t\t\n      PUSH [tag] 319\t\t\t\n      DUP9 \t\t\t\n      DUP3 \t\t\t\n      DUP10 \t\t\t\n      ADD \t\t\t\n      PUSH [tag] 172\t\t\t\n      JUMP \t\t\t\n    tag 319\t\t\t\n      JUMPDEST \t\t\t\n      SWAP6 \t\t\t\n      POP \t\t\t\n      POP \t\t\t\n      PUSH 20\t\t\t\n      DUP7 \t\t\t\n      ADD \t\t\t\n      CALLDATALOAD \t\t\t\n      PUSH FFFFFFFFFFFFFFFF\t\t\t\n      DUP2 \t\t\t\n      GT \t\t\t\n      ISZERO \t\t\t\n      PUSH [tag] 320\t\t\t\n      JUMPI \t\t\t\n      PUSH [tag] 321\t\t\t\n      PUSH [tag] 140\t\t\t\n      JUMP \t\t\t\n    tag 321\t\t\t\n      JUMPDEST \t\t\t\n    tag 320\t\t\t\n      JUMPDEST \t\t\t\n      PUSH [tag] 322\t\t\t\n      DUP9 \t\t\t\n      DUP3 \t\t\t\n      DUP10 \t\t\t\n      ADD \t\t\t\n      PUSH [tag] 176\t\t\t\n      JUMP \t\t\t\n    tag 322\t\t\t\n      JUMPDEST \t\t\t\n      SWAP5 \t\t\t\n      POP \t\t\t\n      POP \t\t\t\n      PUSH 40\t\t\t\n      DUP7 \t\t\t\n      ADD \t\t\t\n      CALLDATALOAD \t\t\t\n      PUSH FFFFFFFFFFFFFFFF\t\t\t\n      DUP2 \t\t\t\n      GT \t\t\t\n      ISZERO \t\t\t\n      PUSH [tag] 323\t\t\t\n      JUMPI \t\t\t\n      PUSH [tag] 324\t\t\t\n      PUSH [tag] 140\t\t\t\n      JUMP \t\t\t\n    tag 324\t\t\t\n      JUMPDEST \t\t\t\n    tag 323\t\t\t\n      JUMPDEST \t\t\t\n      PUSH [tag] 325\t\t\t\n      DUP9 \t\t\t\n      DUP3 \t\t\t\n      DUP10 \t\t\t\n      ADD \t\t\t\n      PUSH [tag] 176\t\t\t\n      JUMP \t\t\t\n    tag 325\t\t\t\n      JUMPDEST \t\t\t\n      SWAP4 \t\t\t\n      POP \t\t\t\n      POP \t\t\t\n      PUSH 60\t\t\t\n      DUP7 \t\t\t\n      ADD \t\t\t\n      CALLDATALOAD \t\t\t\n      PUSH FFFFFFFFFFFFFFFF\t\t\t\n      DUP2 \t\t\t\n      GT \t\t\t\n      ISZERO \t\t\t\n      PUSH [tag] 326\t\t\t\n      JUMPI \t\t\t\n      PUSH [tag] 327\t\t\t\n      PUSH [tag] 140\t\t\t\n      JUMP \t\t\t\n    tag 327\t\t\t\n      JUMPDEST \t\t\t\n    tag 326\t\t\t\n      JUMPDEST \t\t\t\n      PUSH [tag] 328\t\t\t\n      DUP9 \t\t\t\n      DUP3 \t\t\t\n      DUP10 \t\t\t\n      ADD \t\t\t\n      PUSH [tag] 176\t\t\t\n      JUMP \t\t\t\n    tag 328\t\t\t\n      JUMPDEST \t\t\t\n      SWAP3 \t\t\t\n      POP \t\t\t\n      POP \t\t\t\n      PUSH 80\t\t\t\n      DUP7 \t\t\t\n      ADD \t\t\t\n      CALLDATALOAD \t\t\t\n      PUSH FFFFFFFFFFFFFFFF\t\t\t\n      DUP2 \t\t\t\n      GT \t\t\t\n      ISZERO \t\t\t\n      PUSH [tag] 329\t\t\t\n      JUMPI \t\t\t\n      PUSH [tag] 330\t\t\t\n      PUSH [tag] 140\t\t\t\n      JUMP \t\t\t\n    tag 330\t\t\t\n      JUMPDEST \t\t\t\n    tag 329\t\t\t\n      JUMPDEST \t\t\t\n      PUSH [tag] 331\t\t\t\n      DUP9 \t\t\t\n      DUP3 \t\t\t\n      DUP10 \t\t\t\n      ADD \t\t\t\n      PUSH [tag] 176\t\t\t\n      JUMP \t\t\t\n    tag 331\t\t\t\n      JUMPDEST \t\t\t\n      SWAP2 \t\t\t\n      POP \t\t\t\n      POP \t\t\t\n      SWAP3 \t\t\t\n      SWAP6 \t\t\t\n      POP \t\t\t\n      SWAP3 \t\t\t\n      SWAP6 \t\t\t\n      SWAP1 \t\t\t\n      SWAP4 \t\t\t\n      POP \t\t\t\n      JUMP \t\t\t\n    tag 39\t\t\t\n      JUMPDEST \t\t\t\n      PUSH 0\t\t\t\n      DUP1 \t\t\t\n      PUSH 40\t\t\t\n      DUP4 \t\t\t\n      DUP6 \t\t\t\n      SUB \t\t\t\n      SLT \t\t\t\n      ISZERO \t\t\t\n      PUSH [tag] 333\t\t\t\n      JUMPI \t\t\t\n      PUSH [tag] 334\t\t\t\n      PUSH [tag] 139\t\t\t\n      JUMP \t\t\t\n    tag 334\t\t\t\n      JUMPDEST \t\t\t\n    tag 333\t\t\t\n      JUMPDEST \t\t\t\n      PUSH 0\t\t\t\n      DUP4 \t\t\t\n      ADD \t\t\t\n      CALLDATALOAD \t\t\t\n      PUSH FFFFFFFFFFFFFFFF\t\t\t\n      DUP2 \t\t\t\n      GT \t\t\t\n      ISZERO \t\t\t\n      PUSH [tag] 335\t\t\t\n      JUMPI \t\t\t\n      PUSH [tag] 336\t\t\t\n      PUSH [tag] 140\t\t\t\n      JUMP \t\t\t\n    tag 336\t\t\t\n      JUMPDEST \t\t\t\n    tag 335\t\t\t\n      JUMPDEST \t\t\t\n      PUSH [tag] 337\t\t\t\n      DUP6 \t\t\t\n      DUP3 \t\t\t\n      DUP7 \t\t\t\n      ADD \t\t\t\n      PUSH [tag] 172\t\t\t\n      JUMP \t\t\t\n    tag 337\t\t\t\n      JUMPDEST \t\t\t\n      SWAP3 \t\t\t\n      POP \t\t\t\n      POP \t\t\t\n      PUSH 20\t\t\t\n      PUSH [tag] 338\t\t\t\n      DUP6 \t\t\t\n      DUP3 \t\t\t\n      DUP7 \t\t\t\n      ADD \t\t\t\n      PUSH [tag] 161\t\t\t\n      JUMP \t\t\t\n    tag 338\t\t\t\n      JUMPDEST \t\t\t\n      SWAP2 \t\t\t\n      POP \t\t\t\n      POP \t\t\t\n      SWAP3 \t\t\t\n      POP \t\t\t\n      SWAP3 \t\t\t\n      SWAP1 \t\t\t\n      POP \t\t\t\n      JUMP \t\t\t\n    tag 45\t\t\t\n      JUMPDEST \t\t\t\n      PUSH 0\t\t\t\n      PUSH 40\t\t\t\n      DUP3 \t\t\t\n      ADD \t\t\t\n      SWAP1 \t\t\t\n      POP \t\t\t\n      PUSH [tag] 340\t\t\t\n      PUSH 0\t\t\t\n      DUP4 \t\t\t\n      ADD \t\t\t\n      DUP6 \t\t\t\n      PUSH [tag] 157\t\t\t\n      JUMP \t\t\t\n    tag 340\t\t\t\n      JUMPDEST \t\t\t\n      DUP2 \t\t\t\n      DUP2 \t\t\t\n      SUB \t\t\t\n      PUSH 20\t\t\t\n      DUP4 \t\t\t\n      ADD \t\t\t\n      MSTORE \t\t\t\n      PUSH [tag] 341\t\t\t\n      DUP2 \t\t\t\n      DUP5 \t\t\t\n      PUSH [tag] 148\t\t\t\n      JUMP \t\t\t\n    tag 341\t\t\t\n      JUMPDEST \t\t\t\n      SWAP1 \t\t\t\n      POP \t\t\t\n      SWAP4 \t\t\t\n      SWAP3 \t\t\t\n      POP \t\t\t\n      POP \t\t\t\n      POP \t\t\t\n      JUMP \t\t\t\n    tag 177\t\t\t\n      JUMPDEST \t\t\t\n      PUSH 4E487B7100000000000000000000000000000000000000000000000000000000\t\t\t\n      PUSH 0\t\t\t\n      MSTORE \t\t\t\n      PUSH 22\t\t\t\n      PUSH 4\t\t\t\n      MSTORE \t\t\t\n      PUSH 24\t\t\t\n      PUSH 0\t\t\t\n      REVERT \t\t\t\n    tag 51\t\t\t\n      JUMPDEST \t\t\t\n      PUSH 0\t\t\t\n      PUSH 2\t\t\t\n      DUP3 \t\t\t\n      DIV \t\t\t\n      SWAP1 \t\t\t\n      POP \t\t\t\n      PUSH 1\t\t\t\n      DUP3 \t\t\t\n      AND \t\t\t\n      DUP1 \t\t\t\n      PUSH [tag] 344\t\t\t\n      JUMPI \t\t\t\n      PUSH 7F\t\t\t\n      DUP3 \t\t\t\n      AND \t\t\t\n      SWAP2 \t\t\t\n      POP \t\t\t\n    tag 344\t\t\t\n      JUMPDEST \t\t\t\n      PUSH 20\t\t\t\n      DUP3 \t\t\t\n      LT \t\t\t\n      DUP2 \t\t\t\n      SUB \t\t\t\n      PUSH [tag] 345\t\t\t\n      JUMPI \t\t\t\n      PUSH [tag] 346\t\t\t\n      PUSH [tag] 177\t\t\t\n      JUMP \t\t\t\n    tag 346\t\t\t\n      JUMPDEST \t\t\t\n    tag 345\t\t\t\n      JUMPDEST \t\t\t\n      POP \t\t\t\n      SWAP2 \t\t\t\n      SWAP1 \t\t\t\n      POP \t\t\t\n      JUMP \t\t\t\n    tag 178\t\t\t\n      JUMPDEST \t\t\t\n      PUSH 4E487B7100000000000000000000000000000000000000000000000000000000\t\t\t\n      PUSH 0\t\t\t\n      MSTORE \t\t\t\n      PUSH 11\t\t\t\n      PUSH 4\t\t\t\n      MSTORE \t\t\t\n      PUSH 24\t\t\t\n      PUSH 0\t\t\t\n      REVERT \t\t\t\n    tag 101\t\t\t\n      JUMPDEST \t\t\t\n      PUSH 0\t\t\t\n      PUSH [tag] 349\t\t\t\n      DUP3 \t\t\t\n      PUSH [tag] 141\t\t\t\n      JUMP \t\t\t\n    tag 349\t\t\t\n      JUMPDEST \t\t\t\n      SWAP2 \t\t\t\n      POP \t\t\t\n      PUSH FFFFFFFFFFFFFFFFFFFFFFFFFFFFFFFFFFFFFFFFFFFFFFFFFFFFFFFFFFFFFFFF\t\t\t\n      DUP3 \t\t\t\n      SUB \t\t\t\n      PUSH [tag] 350\t\t\t\n      JUMPI \t\t\t\n      PUSH [tag] 351\t\t\t\n      PUSH [tag] 178\t\t\t\n      JUMP \t\t\t\n    tag 351\t\t\t\n      JUMPDEST \t\t\t\n    tag 350\t\t\t\n      JUMPDEST \t\t\t\n      PUSH 1\t\t\t\n      DUP3 \t\t\t\n      ADD \t\t\t\n      SWAP1 \t\t\t\n      POP \t\t\t\n      SWAP2 \t\t\t\n      SWAP1 \t\t\t\n      POP \t\t\t\n      JUMP \t\t\t\n    tag 179\t\t\t\n      JUMPDEST \t\t\t\n      PUSH 0\t\t\t\n      DUP2 \t\t\t\n      SWAP1 \t\t\t\n      POP \t\t\t\n      DUP2 \t\t\t\n      PUSH 0\t\t\t\n      MSTORE \t\t\t\n      PUSH 20\t\t\t\n      PUSH 0\t\t\t\n      KECCAK256 \t\t\t\n      SWAP1 \t\t\t\n      POP \t\t\t\n      SWAP2 \t\t\t\n      SWAP1 \t\t\t\n      POP \t\t\t\n      JUMP \t\t\t\n    tag 180\t\t\t\n      JUMPDEST \t\t\t\n      PUSH 0\t\t\t\n      PUSH 20\t\t\t\n      PUSH 1F\t\t\t\n      DUP4 \t\t\t\n      ADD \t\t\t\n      DIV \t\t\t\n      SWAP1 \t\t\t\n      POP \t\t\t\n      SWAP2 \t\t\t\n      SWAP1 \t\t\t\n      POP \t\t\t\n      JUMP \t\t\t\n    tag 181\t\t\t\n      JUMPDEST \t\t\t\n      PUSH 0\t\t\t\n      DUP3 \t\t\t\n      DUP3 \t\t\t\n      SHL \t\t\t\n      SWAP1 \t\t\t\n      POP \t\t\t\n      SWAP3 \t\t\t\n      SWAP2 \t\t\t\n      POP \t\t\t\n      POP \t\t\t\n      JUMP \t\t\t\n    tag 182\t\t\t\n      JUMPDEST \t\t\t\n      PUSH 0\t\t\t\n      PUSH 8\t\t\t\n      DUP4 \t\t\t\n      MUL \t\t\t\n      PUSH [tag] 356\t\t\t\n      PUSH FFFFFFFFFFFFFFFFFFFFFFFFFFFFFFFFFFFFFFFFFFFFFFFFFFFFFFFFFFFFFFFF\t\t\t\n      DUP3 \t\t\t\n      PUSH [tag] 181\t\t\t\n      JUMP \t\t\t\n    tag 356\t\t\t\n      JUMPDEST \t\t\t\n      PUSH [tag] 357\t\t\t\n      DUP7 \t\t\t\n      DUP4 \t\t\t\n      PUSH [tag] 181\t\t\t\n      JUMP \t\t\t\n    tag 357\t\t\t\n      JUMPDEST \t\t\t\n      SWAP6 \t\t\t\n      POP \t\t\t\n      DUP1 \t\t\t\n      NOT \t\t\t\n      DUP5 \t\t\t\n      AND \t\t\t\n      SWAP4 \t\t\t\n      POP \t\t\t\n      DUP1 \t\t\t\n      DUP7 \t\t\t\n      AND \t\t\t\n      DUP5 \t\t\t\n      OR \t\t\t\n      SWAP3 \t\t\t\n      POP \t\t\t\n      POP \t\t\t\n      POP \t\t\t\n      SWAP4 \t\t\t\n      SWAP3 \t\t\t\n      POP \t\t\t\n      POP \t\t\t\n      POP \t\t\t\n      JUMP \t\t\t\n    tag 183\t\t\t\n      JUMPDEST \t\t\t\n      PUSH 0\t\t\t\n      DUP2 \t\t\t\n      SWAP1 \t\t\t\n      POP \t\t\t\n      SWAP2 \t\t\t\n      SWAP1 \t\t\t\n      POP \t\t\t\n      JUMP \t\t\t\n    tag 184\t\t\t\n      JUMPDEST \t\t\t\n      PUSH 0\t\t\t\n      PUSH [tag] 360\t\t\t\n      PUSH [tag] 361\t\t\t\n      PUSH [tag] 362\t\t\t\n      DUP5 \t\t\t\n      PUSH [tag] 141\t\t\t\n      JUMP \t\t\t\n    tag 362\t\t\t\n      JUMPDEST \t\t\t\n      PUSH [tag] 183\t\t\t\n      JUMP \t\t\t\n    tag 361\t\t\t\n      JUMPDEST \t\t\t\n      PUSH [tag] 141\t\t\t\n      JUMP \t\t\t\n    tag 360\t\t\t\n      JUMPDEST \t\t\t\n      SWAP1 \t\t\t\n      POP \t\t\t\n      SWAP2 \t\t\t\n      SWAP1 \t\t\t\n      POP \t\t\t\n      JUMP \t\t\t\n    tag 185\t\t\t\n      JUMPDEST \t\t\t\n      PUSH 0\t\t\t\n      DUP2 \t\t\t\n      SWAP1 \t\t\t\n      POP \t\t\t\n      SWAP2 \t\t\t\n      SWAP1 \t\t\t\n      POP \t\t\t\n      JUMP \t\t\t\n    tag 186\t\t\t\n      JUMPDEST \t\t\t\n      PUSH [tag] 365\t\t\t\n      DUP4 \t\t\t\n      PUSH [tag] 184\t\t\t\n      JUMP \t\t\t\n    tag 365\t\t\t\n      JUMPDEST \t\t\t\n      PUSH [tag] 366\t\t\t\n      PUSH [tag] 367\t\t\t\n      DUP3 \t\t\t\n      PUSH [tag] 185\t\t\t\n      JUMP \t\t\t\n    tag 367\t\t\t\n      JUMPDEST \t\t\t\n      DUP5 \t\t\t\n      DUP5 \t\t\t\n      SLOAD \t\t\t\n      PUSH [tag] 182\t\t\t\n      JUMP \t\t\t\n    tag 366\t\t\t\n      JUMPDEST \t\t\t\n      DUP3 \t\t\t\n      SSTORE \t\t\t\n      POP \t\t\t\n      POP \t\t\t\n      POP \t\t\t\n      POP \t\t\t\n      JUMP \t\t\t\n    tag 187\t\t\t\n      JUMPDEST \t\t\t\n      PUSH 0\t\t\t\n      SWAP1 \t\t\t\n      JUMP \t\t\t\n    tag 188\t\t\t\n      JUMPDEST \t\t\t\n      PUSH [tag] 370\t\t\t\n      PUSH [tag] 187\t\t\t\n      JUMP \t\t\t\n    tag 370\t\t\t\n      JUMPDEST \t\t\t\n      PUSH [tag] 371\t\t\t\n      DUP2 \t\t\t\n      DUP5 \t\t\t\n      DUP5 \t\t\t\n      PUSH [tag] 186\t\t\t\n      JUMP \t\t\t\n    tag 371\t\t\t\n      JUMPDEST \t\t\t\n      POP \t\t\t\n      POP \t\t\t\n      POP \t\t\t\n      JUMP \t\t\t\n    tag 189\t\t\t\n      JUMPDEST \t\t\t\n    tag 373\t\t\t\n      JUMPDEST \t\t\t\n      DUP2 \t\t\t\n      DUP2 \t\t\t\n      LT \t\t\t\n      ISZERO \t\t\t\n      PUSH [tag] 375\t\t\t\n      JUMPI \t\t\t\n      PUSH [tag] 376\t\t\t\n      PUSH 0\t\t\t\n      DUP3 \t\t\t\n      PUSH [tag] 188\t\t\t\n      JUMP \t\t\t\n    tag 376\t\t\t\n      JUMPDEST \t\t\t\n      PUSH 1\t\t\t\n      DUP2 \t\t\t\n      ADD \t\t\t\n      SWAP1 \t\t\t\n      POP \t\t\t\n      PUSH [tag] 373\t\t\t\n      JUMP \t\t\t\n    tag 375\t\t\t\n      JUMPDEST \t\t\t\n      POP \t\t\t\n      POP \t\t\t\n      JUMP \t\t\t\n    tag 190\t\t\t\n      JUMPDEST \t\t\t\n      PUSH 1F\t\t\t\n      DUP3 \t\t\t\n      GT \t\t\t\n      ISZERO \t\t\t\n      PUSH [tag] 378\t\t\t\n      JUMPI \t\t\t\n      PUSH [tag] 379\t\t\t\n      DUP2 \t\t\t\n      PUSH [tag] 179\t\t\t\n      JUMP \t\t\t\n    tag 379\t\t\t\n      JUMPDEST \t\t\t\n      PUSH [tag] 380\t\t\t\n      DUP5 \t\t\t\n      PUSH [tag] 180\t\t\t\n      JUMP \t\t\t\n    tag 380\t\t\t\n      JUMPDEST \t\t\t\n      DUP2 \t\t\t\n      ADD \t\t\t\n      PUSH 20\t\t\t\n      DUP6 \t\t\t\n      LT \t\t\t\n      ISZERO \t\t\t\n      PUSH [tag] 381\t\t\t\n      JUMPI \t\t\t\n      DUP2 \t\t\t\n      SWAP1 \t\t\t\n      POP \t\t\t\n    tag 381\t\t\t\n      JUMPDEST \t\t\t\n      PUSH [tag] 382\t\t\t\n      PUSH [tag] 383\t\t\t\n      DUP6 \t\t\t\n      PUSH [tag] 180\t\t\t\n      JUMP \t\t\t\n    tag 383\t\t\t\n      JUMPDEST \t\t\t\n      DUP4 \t\t\t\n      ADD \t\t\t\n      DUP3 \t\t\t\n      PUSH [tag] 189\t\t\t\n      JUMP \t\t\t\n    tag 382\t\t\t\n      JUMPDEST \t\t\t\n      POP \t\t\t\n      POP \t\t\t\n    tag 378\t\t\t\n      JUMPDEST \t\t\t\n      POP \t\t\t\n      POP \t\t\t\n      POP \t\t\t\n      JUMP \t\t\t\n    tag 191\t\t\t\n      JUMPDEST \t\t\t\n      PUSH 0\t\t\t\n      DUP3 \t\t\t\n      DUP3 \t\t\t\n      SHR \t\t\t\n      SWAP1 \t\t\t\n      POP \t\t\t\n      SWAP3 \t\t\t\n      SWAP2 \t\t\t\n      POP \t\t\t\n      POP \t\t\t\n      JUMP \t\t\t\n    tag 192\t\t\t\n      JUMPDEST \t\t\t\n      PUSH 0\t\t\t\n      PUSH [tag] 386\t\t\t\n      PUSH 0\t\t\t\n      NOT \t\t\t\n      DUP5 \t\t\t\n      PUSH 8\t\t\t\n      MUL \t\t\t\n      PUSH [tag] 191\t\t\t\n      JUMP \t\t\t\n    tag 386\t\t\t\n      JUMPDEST \t\t\t\n      NOT \t\t\t\n      DUP1 \t\t\t\n      DUP4 \t\t\t\n      AND \t\t\t\n      SWAP2 \t\t\t\n      POP \t\t\t\n      POP \t\t\t\n      SWAP3 \t\t\t\n      SWAP2 \t\t\t\n      POP \t\t\t\n      POP \t\t\t\n      JUMP \t\t\t\n    tag 193\t\t\t\n      JUMPDEST \t\t\t\n      PUSH 0\t\t\t\n      PUSH [tag] 388\t\t\t\n      DUP4 \t\t\t\n      DUP4 \t\t\t\n      PUSH [tag] 192\t\t\t\n      JUMP \t\t\t\n    tag 388\t\t\t\n      JUMPDEST \t\t\t\n      SWAP2 \t\t\t\n      POP \t\t\t\n      DUP3 \t\t\t\n      PUSH 2\t\t\t\n      MUL \t\t\t\n      DUP3 \t\t\t\n      OR \t\t\t\n      SWAP1 \t\t\t\n      POP \t\t\t\n      SWAP3 \t\t\t\n      SWAP2 \t\t\t\n      POP \t\t\t\n      POP \t\t\t\n      JUMP \t\t\t\n    tag 103\t\t\t\n      JUMPDEST \t\t\t\n      PUSH [tag] 390\t\t\t\n      DUP3 \t\t\t\n      PUSH [tag] 144\t\t\t\n      JUMP \t\t\t\n    tag 390\t\t\t\n      JUMPDEST \t\t\t\n      PUSH FFFFFFFFFFFFFFFF\t\t\t\n      DUP2 \t\t\t\n      GT \t\t\t\n      ISZERO \t\t\t\n      PUSH [tag] 391\t\t\t\n      JUMPI \t\t\t\n      PUSH [tag] 392\t\t\t\n      PUSH [tag] 166\t\t\t\n      JUMP \t\t\t\n    tag 392\t\t\t\n      JUMPDEST \t\t\t\n    tag 391\t\t\t\n      JUMPDEST \t\t\t\n      PUSH [tag] 393\t\t\t\n      DUP3 \t\t\t\n      SLOAD \t\t\t\n      PUSH [tag] 51\t\t\t\n      JUMP \t\t\t\n    tag 393\t\t\t\n      JUMPDEST \t\t\t\n      PUSH [tag] 394\t\t\t\n      DUP3 \t\t\t\n      DUP3 \t\t\t\n      DUP6 \t\t\t\n      PUSH [tag] 190\t\t\t\n      JUMP \t\t\t\n    tag 394\t\t\t\n      JUMPDEST \t\t\t\n      PUSH 0\t\t\t\n      PUSH 20\t\t\t\n      SWAP1 \t\t\t\n      POP \t\t\t\n      PUSH 1F\t\t\t\n      DUP4 \t\t\t\n      GT \t\t\t\n      PUSH 1\t\t\t\n      DUP2 \t\t\t\n      EQ \t\t\t\n      PUSH [tag] 396\t\t\t\n      JUMPI \t\t\t\n      PUSH 0\t\t\t\n      DUP5 \t\t\t\n      ISZERO \t\t\t\n      PUSH [tag] 397\t\t\t\n      JUMPI \t\t\t\n      DUP3 \t\t\t\n      DUP8 \t\t\t\n      ADD \t\t\t\n      MLOAD \t\t\t\n      SWAP1 \t\t\t\n      POP \t\t\t\n    tag 397\t\t\t\n      JUMPDEST \t\t\t\n      PUSH [tag] 398\t\t\t\n      DUP6 \t\t\t\n      DUP3 \t\t\t\n      PUSH [tag] 193\t\t\t\n      JUMP \t\t\t\n    tag 398\t\t\t\n      JUMPDEST \t\t\t\n      DUP7 \t\t\t\n      SSTORE \t\t\t\n      POP \t\t\t\n      PUSH [tag] 395\t\t\t\n      JUMP \t\t\t\n    tag 396\t\t\t\n      JUMPDEST \t\t\t\n      PUSH 1F\t\t\t\n      NOT \t\t\t\n      DUP5 \t\t\t\n      AND \t\t\t\n      PUSH [tag] 399\t\t\t\n      DUP7 \t\t\t\n      PUSH [tag] 179\t\t\t\n      JUMP \t\t\t\n    tag 399\t\t\t\n      JUMPDEST \t\t\t\n      PUSH 0\t\t\t\n    tag 400\t\t\t\n      JUMPDEST \t\t\t\n      DUP3 \t\t\t\n      DUP2 \t\t\t\n      LT \t\t\t\n      ISZERO \t\t\t\n      PUSH [tag] 402\t\t\t\n      JUMPI \t\t\t\n      DUP5 \t\t\t\n      DUP10 \t\t\t\n      ADD \t\t\t\n      MLOAD \t\t\t\n      DUP3 \t\t\t\n      SSTORE \t\t\t\n      PUSH 1\t\t\t\n      DUP3 \t\t\t\n      ADD \t\t\t\n      SWAP2 \t\t\t\n      POP \t\t\t\n      PUSH 20\t\t\t\n      DUP6 \t\t\t\n      ADD \t\t\t\n      SWAP5 \t\t\t\n      POP \t\t\t\n      PUSH 20\t\t\t\n      DUP2 \t\t\t\n      ADD \t\t\t\n      SWAP1 \t\t\t\n      POP \t\t\t\n      PUSH [tag] 400\t\t\t\n      JUMP \t\t\t\n    tag 402\t\t\t\n      JUMPDEST \t\t\t\n      DUP7 \t\t\t\n      DUP4 \t\t\t\n      LT \t\t\t\n      ISZERO \t\t\t\n      PUSH [tag] 403\t\t\t\n      JUMPI \t\t\t\n      DUP5 \t\t\t\n      DUP10 \t\t\t\n      ADD \t\t\t\n      MLOAD \t\t\t\n      PUSH [tag] 404\t\t\t\n      PUSH 1F\t\t\t\n      DUP10 \t\t\t\n      AND \t\t\t\n      DUP3 \t\t\t\n      PUSH [tag] 192\t\t\t\n      JUMP \t\t\t\n    tag 404\t\t\t\n      JUMPDEST \t\t\t\n      DUP4 \t\t\t\n      SSTORE \t\t\t\n      POP \t\t\t\n    tag 403\t\t\t\n      JUMPDEST \t\t\t\n      PUSH 1\t\t\t\n      PUSH 2\t\t\t\n      DUP9 \t\t\t\n      MUL \t\t\t\n      ADD \t\t\t\n      DUP9 \t\t\t\n      SSTORE \t\t\t\n      POP \t\t\t\n      POP \t\t\t\n      POP \t\t\t\n    tag 395\t\t\t\n      JUMPDEST \t\t\t\n      POP \t\t\t\n      POP \t\t\t\n      POP \t\t\t\n      POP \t\t\t\n      POP \t\t\t\n      POP \t\t\t\n      JUMP \t\t\t\n    tag 110\t\t\t\n      JUMPDEST \t\t\t\n      PUSH 0\t\t\t\n      PUSH 20\t\t\t\n      DUP3 \t\t\t\n      ADD \t\t\t\n      SWAP1 \t\t\t\n      POP \t\t\t\n      DUP2 \t\t\t\n      DUP2 \t\t\t\n      SUB \t\t\t\n      PUSH 0\t\t\t\n      DUP4 \t\t\t\n      ADD \t\t\t\n      MSTORE \t\t\t\n      PUSH [tag] 406\t\t\t\n      DUP2 \t\t\t\n      DUP5 \t\t\t\n      PUSH [tag] 148\t\t\t\n      JUMP \t\t\t\n    tag 406\t\t\t\n      JUMPDEST \t\t\t\n      SWAP1 \t\t\t\n      POP \t\t\t\n      SWAP3 \t\t\t\n      SWAP2 \t\t\t\n      POP \t\t\t\n      POP \t\t\t\n      JUMP \t\t\t\n    tag 115\t\t\t\n      JUMPDEST \t\t\t\n      PUSH 0\t\t\t\n      PUSH 40\t\t\t\n      DUP3 \t\t\t\n      ADD \t\t\t\n      SWAP1 \t\t\t\n      POP \t\t\t\n      DUP2 \t\t\t\n      DUP2 \t\t\t\n      SUB \t\t\t\n      PUSH 0\t\t\t\n      DUP4 \t\t\t\n      ADD \t\t\t\n      MSTORE \t\t\t\n      PUSH [tag] 408\t\t\t\n      DUP2 \t\t\t\n      DUP6 \t\t\t\n      PUSH [tag] 148\t\t\t\n      JUMP \t\t\t\n    tag 408\t\t\t\n      JUMPDEST \t\t\t\n      SWAP1 \t\t\t\n      POP \t\t\t\n      PUSH [tag] 409\t\t\t\n      PUSH 20\t\t\t\n      DUP4 \t\t\t\n      ADD \t\t\t\n      DUP5 \t\t\t\n      PUSH [tag] 159\t\t\t\n      JUMP \t\t\t\n    tag 409\t\t\t\n      JUMPDEST \t\t\t\n      SWAP4 \t\t\t\n      SWAP3 \t\t\t\n      POP \t\t\t\n      POP \t\t\t\n      POP \t\t\t\n      JUMP \t\t\t\n    .data\n"
}