{
  "contractName": "TriageOMatic",
  "abi": [
    {
      "anonymous": false,
      "inputs": [
        {
          "indexed": true,
          "internalType": "uint256",
          "name": "evidenceId",
          "type": "uint256"
        },
        {
          "indexed": false,
          "internalType": "string",
          "name": "description",
          "type": "string"
        },
        {
          "indexed": false,
          "internalType": "bytes32",
          "name": "hash",
          "type": "bytes32"
        }
      ],
      "name": "EvidenceLogged",
      "type": "event"
    },
    {
      "anonymous": false,
      "inputs": [
        {
          "indexed": true,
          "internalType": "uint256",
          "name": "incidentId",
          "type": "uint256"
        },
        {
          "indexed": false,
          "internalType": "string",
          "name": "description",
          "type": "string"
        }
      ],
      "name": "IncidentLogged",
      "type": "event"
    },
    {
      "inputs": [],
      "name": "evidenceCounter",
      "outputs": [
        {
          "internalType": "uint256",
          "name": "",
          "type": "uint256"
        }
      ],
      "stateMutability": "view",
      "type": "function"
    },
    {
      "inputs": [
        {
          "internalType": "uint256",
          "name": "",
          "type": "uint256"
        }
      ],
      "name": "evidences",
      "outputs": [
        {
          "internalType": "uint256",
          "name": "id",
          "type": "uint256"
        },
        {
          "internalType": "string",
          "name": "description",
          "type": "string"
        },
        {
          "internalType": "bytes32",
          "name": "hash",
          "type": "bytes32"
        }
      ],
      "stateMutability": "view",
      "type": "function"
    },
    {
      "inputs": [],
      "name": "incidentCounter",
      "outputs": [
        {
          "internalType": "uint256",
          "name": "",
          "type": "uint256"
        }
      ],
      "stateMutability": "view",
      "type": "function"
    },
    {
      "inputs": [
        {
          "internalType": "uint256",
          "name": "",
          "type": "uint256"
        }
      ],
      "name": "incidents",
      "outputs": [
        {
          "internalType": "uint256",
          "name": "id",
          "type": "uint256"
        },
        {
          "internalType": "string",
          "name": "description",
          "type": "string"
        }
      ],
      "stateMutability": "view",
      "type": "function"
    },
    {
      "inputs": [
        {
          "internalType": "string",
          "name": "_description",
          "type": "string"
        },
        {
          "internalType": "string[]",
          "name": "_timeline",
          "type": "string[]"
        },
        {
          "internalType": "string[]",
          "name": "_affectedSystems",
          "type": "string[]"
        },
        {
          "internalType": "string[]",
          "name": "_anomalyAlerts",
          "type": "string[]"
        },
        {
          "internalType": "string[]",
          "name": "_evidenceChain",
          "type": "string[]"
        }
      ],
      "name": "addIncident",
      "outputs": [],
      "stateMutability": "nonpayable",
      "type": "function"
    },
    {
      "inputs": [
        {
          "internalType": "uint256",
          "name": "_incidentId",
          "type": "uint256"
        }
      ],
      "name": "getIncidentDetails",
      "outputs": [
        {
          "internalType": "string",
          "name": "",
          "type": "string"
        },
        {
          "internalType": "string[]",
          "name": "",
          "type": "string[]"
        },
        {
          "internalType": "string[]",
          "name": "",
          "type": "string[]"
        },
        {
          "internalType": "string[]",
          "name": "",
          "type": "string[]"
        },
        {
          "internalType": "string[]",
          "name": "",
          "type": "string[]"
        }
      ],
      "stateMutability": "view",
      "type": "function"
    },
    {
      "inputs": [
        {
          "internalType": "string",
          "name": "_description",
          "type": "string"
        },
        {
          "internalType": "bytes32",
          "name": "_hash",
          "type": "bytes32"
        }
      ],
      "name": "logEvidence",
      "outputs": [],
      "stateMutability": "nonpayable",
      "type": "function"
    },
    {
      "inputs": [
        {
          "internalType": "uint256",
          "name": "_evidenceId",
          "type": "uint256"
        },
        {
          "internalType": "bytes32",
          "name": "_hash",
          "type": "bytes32"
        }
      ],
      "name": "verifyEvidenceImmutability",
      "outputs": [
        {
          "internalType": "bool",
          "name": "",
          "type": "bool"
        }
      ],
      "stateMutability": "view",
      "type": "function"
    }
  ],
  "bytecode": "0x608060405234801561001057600080fd5b506113e7806100206000396000f3fe608060405234801561001057600080fd5b50600436106100885760003560e01c8063776ca7a31161005b578063776ca7a3146101415780637ae559941461015d578063a6c6a8f314610179578063b87c1114146101aa57610088565b80631e6420ee1461008d5780632e4546cd146100c15780633e9c1dac146100f357806347d6d3bf14610111575b600080fd5b6100a760048036038101906100a29190610e1c565b6101c8565b6040516100b8959493929190610fe6565b60405180910390f35b6100db60048036038101906100d69190610e1c565b61061e565b6040516100ea939291906110d7565b60405180910390f35b6100fb6106d0565b604051610108919061108c565b60405180910390f35b61012b60048036038101906101269190610e45565b6106d6565b6040516101389190610fa9565b60405180910390f35b61015b60048036038101906101569190610cd9565b6107af565b005b61017760048036038101906101729190610dc8565b6108e9565b005b610193600480360381019061018e9190610e1c565b6109a7565b6040516101a19291906110a7565b60405180910390f35b6101b2610a53565b6040516101bf919061108c565b60405180910390f35b606080606080606060008060008881526020019081526020016000206040518060c0016040529081600082015481526020016001820180546102099061126a565b80601f01602080910402602001604051908101604052809291908181526020018280546102359061126a565b80156102825780601f1061025757610100808354040283529160200191610282565b820191906000526020600020905b81548152906001019060200180831161026557829003601f168201915b5050505050815260200160028201805480602002602001604051908101604052809291908181526020016000905b8282101561035c5783829060005260206000200180546102cf9061126a565b80601f01602080910402602001604051908101604052809291908181526020018280546102fb9061126a565b80156103485780601f1061031d57610100808354040283529160200191610348565b820191906000526020600020905b81548152906001019060200180831161032b57829003601f168201915b5050505050815260200190600101906102b0565b50505050815260200160038201805480602002602001604051908101604052809291908181526020016000905b828210156104355783829060005260206000200180546103a89061126a565b80601f01602080910402602001604051908101604052809291908181526020018280546103d49061126a565b80156104215780601f106103f657610100808354040283529160200191610421565b820191906000526020600020905b81548152906001019060200180831161040457829003601f168201915b505050505081526020019060010190610389565b50505050815260200160048201805480602002602001604051908101604052809291908181526020016000905b8282101561050e5783829060005260206000200180546104819061126a565b80601f01602080910402602001604051908101604052809291908181526020018280546104ad9061126a565b80156104fa5780601f106104cf576101008083540402835291602001916104fa565b820191906000526020600020905b8154815290600101906020018083116104dd57829003601f168201915b505050505081526020019060010190610462565b50505050815260200160058201805480602002602001604051908101604052809291908181526020016000905b828210156105e757838290600052602060002001805461055a9061126a565b80601f01602080910402602001604051908101604052809291908181526020018280546105869061126a565b80156105d35780601f106105a8576101008083540402835291602001916105d3565b820191906000526020600020905b8154815290600101906020018083116105b657829003601f168201915b50505050508152602001906001019061053b565b5050505081525050905080602001518160400151826060015183608001518460a00151955095509550955095505091939590929450565b60016020528060005260406000206000915090508060000154908060010180546106479061126a565b80601f01602080910402602001604051908101604052809291908181526020018280546106739061126a565b80156106c05780601f10610695576101008083540402835291602001916106c0565b820191906000526020600020905b8154815290600101906020018083116106a357829003601f168201915b5050505050908060020154905083565b60025481565b60008060016000858152602001908152602001600020604051806060016040529081600082015481526020016001820180546107119061126a565b80601f016020809104026020016040519081016040528092919081815260200182805461073d9061126a565b801561078a5780601f1061075f5761010080835404028352916020019161078a565b820191906000526020600020905b81548152906001019060200180831161076d57829003601f168201915b5050505050815260200160028201548152505090508281604001511491505092915050565b600260008154809291906107c29061129c565b91905055506040518060c001604052806002548152602001868152602001858152602001848152602001838152602001828152506000806002548152602001908152602001600020600082015181600001556020820151816001019080519060200190610830929190610a59565b50604082015181600201908051906020019061084d929190610adf565b50606082015181600301908051906020019061086a929190610adf565b506080820151816004019080519060200190610887929190610adf565b5060a08201518160050190805190602001906108a4929190610adf565b509050506002547f6be4ae66eb7d09ba0add92d6741123be58053754d068232e838ee8831e9bcb0c866040516108da9190610fc4565b60405180910390a25050505050565b600360008154809291906108fc9061129c565b91905055506040518060600160405280600354815260200183815260200182815250600160006003548152602001908152602001600020600082015181600001556020820151816001019080519060200190610959929190610a59565b50604082015181600201559050506003547fcea05d33f0c94e28302d479a8d611f5902960b195fdb10aed229789daededbe9838360405161099b92919061105c565b60405180910390a25050565b60006020528060005260406000206000915090508060000154908060010180546109d09061126a565b80601f01602080910402602001604051908101604052809291908181526020018280546109fc9061126a565b8015610a495780601f10610a1e57610100808354040283529160200191610a49565b820191906000526020600020905b815481529060010190602001808311610a2c57829003601f168201915b5050505050905082565b60035481565b828054610a659061126a565b90600052602060002090601f016020900481019282610a875760008555610ace565b82601f10610aa057805160ff1916838001178555610ace565b82800160010185558215610ace579182015b82811115610acd578251825591602001919060010190610ab2565b5b509050610adb9190610b3f565b5090565b828054828255906000526020600020908101928215610b2e579160200282015b82811115610b2d578251829080519060200190610b1d929190610a59565b5091602001919060010190610aff565b5b509050610b3b9190610b5c565b5090565b5b80821115610b58576000816000905550600101610b40565b5090565b5b80821115610b7c5760008181610b739190610b80565b50600101610b5d565b5090565b508054610b8c9061126a565b6000825580601f10610b9e5750610bbd565b601f016020900490600052602060002090810190610bbc9190610b3f565b5b50565b6000610bd3610bce84611146565b611115565b9050808382526020820190508260005b85811015610c135781358501610bf98882610c9a565b845260208401935060208301925050600181019050610be3565b5050509392505050565b6000610c30610c2b84611172565b611115565b905082815260208101848484011115610c4857600080fd5b610c53848285611228565b509392505050565b600082601f830112610c6c57600080fd5b8135610c7c848260208601610bc0565b91505092915050565b600081359050610c9481611383565b92915050565b600082601f830112610cab57600080fd5b8135610cbb848260208601610c1d565b91505092915050565b600081359050610cd38161139a565b92915050565b600080600080600060a08688031215610cf157600080fd5b600086013567ffffffffffffffff811115610d0b57600080fd5b610d1788828901610c9a565b955050602086013567ffffffffffffffff811115610d3457600080fd5b610d4088828901610c5b565b945050604086013567ffffffffffffffff811115610d5d57600080fd5b610d6988828901610c5b565b935050606086013567ffffffffffffffff811115610d8657600080fd5b610d9288828901610c5b565b925050608086013567ffffffffffffffff811115610daf57600080fd5b610dbb88828901610c5b565b9150509295509295909350565b60008060408385031215610ddb57600080fd5b600083013567ffffffffffffffff811115610df557600080fd5b610e0185828601610c9a565b9250506020610e1285828601610c85565b9150509250929050565b600060208284031215610e2e57600080fd5b6000610e3c84828501610cc4565b91505092915050565b60008060408385031215610e5857600080fd5b6000610e6685828601610cc4565b9250506020610e7785828601610c85565b9150509250929050565b6000610e8d8383610f28565b905092915050565b6000610ea0826111b2565b610eaa81856111d5565b935083602082028501610ebc856111a2565b8060005b85811015610ef85784840389528151610ed98582610e81565b9450610ee4836111c8565b925060208a01995050600181019050610ec0565b50829750879550505050505092915050565b610f1381611208565b82525050565b610f2281611214565b82525050565b6000610f33826111bd565b610f3d81856111e6565b9350610f4d818560208601611237565b610f5681611372565b840191505092915050565b6000610f6c826111bd565b610f7681856111f7565b9350610f86818560208601611237565b610f8f81611372565b840191505092915050565b610fa38161121e565b82525050565b6000602082019050610fbe6000830184610f0a565b92915050565b60006020820190508181036000830152610fde8184610f61565b905092915050565b600060a08201905081810360008301526110008188610f61565b905081810360208301526110148187610e95565b905081810360408301526110288186610e95565b9050818103606083015261103c8185610e95565b905081810360808301526110508184610e95565b90509695505050505050565b600060408201905081810360008301526110768185610f61565b90506110856020830184610f19565b9392505050565b60006020820190506110a16000830184610f9a565b92915050565b60006040820190506110bc6000830185610f9a565b81810360208301526110ce8184610f61565b90509392505050565b60006060820190506110ec6000830186610f9a565b81810360208301526110fe8185610f61565b905061110d6040830184610f19565b949350505050565b6000604051905081810181811067ffffffffffffffff8211171561113c5761113b611343565b5b8060405250919050565b600067ffffffffffffffff82111561116157611160611343565b5b602082029050602081019050919050565b600067ffffffffffffffff82111561118d5761118c611343565b5b601f19601f8301169050602081019050919050565b6000819050602082019050919050565b600081519050919050565b600081519050919050565b6000602082019050919050565b600082825260208201905092915050565b600082825260208201905092915050565b600082825260208201905092915050565b60008115159050919050565b6000819050919050565b6000819050919050565b82818337600083830152505050565b60005b8381101561125557808201518184015260208101905061123a565b83811115611264576000848401525b50505050565b6000600282049050600182168061128257607f821691505b6020821081141561129657611295611314565b5b50919050565b60006112a78261121e565b91507fffffffffffffffffffffffffffffffffffffffffffffffffffffffffffffffff8214156112da576112d96112e5565b5b600182019050919050565b7f4e487b7100000000000000000000000000000000000000000000000000000000600052601160045260246000fd5b7f4e487b7100000000000000000000000000000000000000000000000000000000600052602260045260246000fd5b7f4e487b7100000000000000000000000000000000000000000000000000000000600052604160045260246000fd5b6000601f19601f8301169050919050565b61138c81611214565b811461139757600080fd5b50565b6113a38161121e565b81146113ae57600080fd5b5056fea2646970667358221220ae046c8caddb52f136567c9030080d421cd2afeb78c28c1ac0e8fa0564f6959264736f6c63430008000033",
  "immutableReferences": {},
  "source": "// SPDX-License-Identifier: MIT\r\npragma solidity ^0.8.0;\r\n\r\ncontract TriageOMatic {\r\n\r\n    // Struct to hold incident details\r\n    struct Incident {\r\n        uint256 id;\r\n        string description;\r\n        string[] timeline;\r\n        string[] affectedSystems;\r\n        string[] anomalyAlerts;\r\n        string[] evidenceChain;\r\n    }\r\n\r\n    // Struct to hold evidence details\r\n    struct Evidence {\r\n        uint256 id;\r\n        string description;\r\n        bytes32 hash; // Stores the hash of the evidence data for immutability check\r\n    }\r\n\r\n    // Mapping of incident IDs to Incident details\r\n    mapping(uint256 => Incident) public incidents;\r\n\r\n    // Mapping of evidence IDs to Evidence details\r\n    mapping(uint256 => Evidence) public evidences;\r\n\r\n    // Counter to keep track of incidents and evidence\r\n    uint256 public incidentCounter;\r\n    uint256 public evidenceCounter;\r\n\r\n    // Event to log new incidents\r\n    event IncidentLogged(uint256 indexed incidentId, string description);\r\n\r\n    // Event to log new evidence\r\n    event EvidenceLogged(uint256 indexed evidenceId, string description, bytes32 hash);\r\n\r\n    // Function to add a new incident\r\n    function addIncident(string memory _description, string[] memory _timeline, string[] memory _affectedSystems, string[] memory _anomalyAlerts, string[] memory _evidenceChain) public {\r\n        incidentCounter++;\r\n        incidents[incidentCounter] = Incident(incidentCounter, _description, _timeline, _affectedSystems, _anomalyAlerts, _evidenceChain);\r\n        emit IncidentLogged(incidentCounter, _description);\r\n    }\r\n\r\n    // Function to get incident details\r\n    function getIncidentDetails(uint256 _incidentId) public view returns (string memory, string[] memory, string[] memory, string[] memory, string[] memory) {\r\n        Incident memory incident = incidents[_incidentId];\r\n        return (incident.description, incident.timeline, incident.affectedSystems, incident.anomalyAlerts, incident.evidenceChain);\r\n    }\r\n\r\n    // Function to log evidence\r\n    function logEvidence(string memory _description, bytes32 _hash) public {\r\n        evidenceCounter++;\r\n        evidences[evidenceCounter] = Evidence(evidenceCounter, _description, _hash);\r\n        emit EvidenceLogged(evidenceCounter, _description, _hash);\r\n    }\r\n\r\n    // Function to verify evidence immutability\r\n    function verifyEvidenceImmutability(uint256 _evidenceId, bytes32 _hash) public view returns (bool) {\r\n        Evidence memory evidence = evidences[_evidenceId];\r\n        return evidence.hash == _hash;\r\n    }\r\n\r\n}\r\n",
  "sourcePath": "C:\\Users\\DEEPALI\\Desktop\\Project\\Triage-O-matic\\contracts\\MyContract.sol",
  "compiler": {
    "name": "solc",
    "version": "0.8.0+commit.c7dfd78e.Emscripten.clang"
  },
  "schemaVersion": "3.4.16",
  "updatedAt": "2024-10-22T06:24:06.895Z",
  "devdoc": {
    "kind": "dev",
    "methods": {},
    "version": 1
  },
  "userdoc": {
    "kind": "user",
    "methods": {},
    "version": 1
  }
}